{
	"RealEstatePriceDetails.sol": {
		"RealEstatePriceDetails": {
			"abi": [
				{
					"inputs": [
						{
							"internalType": "address",
							"name": "functionsRouterAddress",
							"type": "address"
						}
					],
					"stateMutability": "nonpayable",
					"type": "constructor"
				},
				{
					"inputs": [],
					"name": "EmptyArgs",
					"type": "error"
				},
				{
					"inputs": [],
					"name": "EmptySource",
					"type": "error"
				},
				{
					"inputs": [],
					"name": "NoInlineSecrets",
					"type": "error"
				},
				{
					"inputs": [],
					"name": "OnlyAutomationForwarderOrOwnerCanCall",
					"type": "error"
				},
				{
					"inputs": [],
					"name": "OnlyRouterCanFulfill",
					"type": "error"
				},
				{
					"anonymous": false,
					"inputs": [
						{
							"indexed": true,
							"internalType": "address",
							"name": "from",
							"type": "address"
						},
						{
							"indexed": true,
							"internalType": "address",
							"name": "to",
							"type": "address"
						}
					],
					"name": "OwnershipTransferRequested",
					"type": "event"
				},
				{
					"anonymous": false,
					"inputs": [
						{
							"indexed": true,
							"internalType": "address",
							"name": "from",
							"type": "address"
						},
						{
							"indexed": true,
							"internalType": "address",
							"name": "to",
							"type": "address"
						}
					],
					"name": "OwnershipTransferred",
					"type": "event"
				},
				{
					"anonymous": false,
					"inputs": [
						{
							"indexed": true,
							"internalType": "bytes32",
							"name": "id",
							"type": "bytes32"
						}
					],
					"name": "RequestFulfilled",
					"type": "event"
				},
				{
					"anonymous": false,
					"inputs": [
						{
							"indexed": true,
							"internalType": "bytes32",
							"name": "id",
							"type": "bytes32"
						}
					],
					"name": "RequestSent",
					"type": "event"
				},
				{
					"inputs": [],
					"name": "acceptOwnership",
					"outputs": [],
					"stateMutability": "nonpayable",
					"type": "function"
				},
				{
					"inputs": [],
					"name": "getNftMetadata",
					"outputs": [
						{
							"internalType": "string",
							"name": "",
							"type": "string"
						}
					],
					"stateMutability": "view",
					"type": "function"
				},
				{
					"inputs": [
						{
							"internalType": "uint256",
							"name": "tokenId",
							"type": "uint256"
						}
					],
					"name": "getPriceDetails",
					"outputs": [
						{
							"components": [
								{
									"internalType": "uint80",
									"name": "listPrice",
									"type": "uint80"
								},
								{
									"internalType": "uint80",
									"name": "originalListPrice",
									"type": "uint80"
								},
								{
									"internalType": "uint80",
									"name": "taxAssessedValue",
									"type": "uint80"
								}
							],
							"internalType": "struct RealEstatePriceDetails.PriceDetails",
							"name": "",
							"type": "tuple"
						}
					],
					"stateMutability": "view",
					"type": "function"
				},
				{
					"inputs": [],
					"name": "getPrices",
					"outputs": [
						{
							"internalType": "string",
							"name": "",
							"type": "string"
						}
					],
					"stateMutability": "view",
					"type": "function"
				},
				{
					"inputs": [
						{
							"internalType": "bytes32",
							"name": "requestId",
							"type": "bytes32"
						},
						{
							"internalType": "bytes",
							"name": "response",
							"type": "bytes"
						},
						{
							"internalType": "bytes",
							"name": "err",
							"type": "bytes"
						}
					],
					"name": "handleOracleFulfillment",
					"outputs": [],
					"stateMutability": "nonpayable",
					"type": "function"
				},
				{
					"inputs": [],
					"name": "owner",
					"outputs": [
						{
							"internalType": "address",
							"name": "",
							"type": "address"
						}
					],
					"stateMutability": "view",
					"type": "function"
				},
				{
					"inputs": [
						{
							"internalType": "address",
							"name": "automationForwarderAddress",
							"type": "address"
						}
					],
					"name": "setAutomationForwarder",
					"outputs": [],
					"stateMutability": "nonpayable",
					"type": "function"
				},
				{
					"inputs": [
						{
							"internalType": "address",
							"name": "to",
							"type": "address"
						}
					],
					"name": "transferOwnership",
					"outputs": [],
					"stateMutability": "nonpayable",
					"type": "function"
				},
				{
					"inputs": [
						{
							"internalType": "string",
							"name": "tokenId",
							"type": "string"
						},
						{
							"internalType": "uint64",
							"name": "subscriptionId",
							"type": "uint64"
						},
						{
							"internalType": "uint32",
							"name": "gasLimit",
							"type": "uint32"
						},
						{
							"internalType": "bytes32",
							"name": "donID",
							"type": "bytes32"
						}
					],
					"name": "updatePriceDetails",
					"outputs": [
						{
							"internalType": "bytes32",
							"name": "requestId",
							"type": "bytes32"
						}
					],
					"stateMutability": "nonpayable",
					"type": "function"
				}
			],
			"devdoc": {
				"kind": "dev",
				"methods": {
					"handleOracleFulfillment(bytes32,bytes,bytes)": {
						"details": "Either response or error parameter will be set, but never both.",
						"params": {
							"err": "Aggregated error either from the request's source code or from the execution pipeline.",
							"requestId": "The requestId returned by FunctionsClient.sendRequest().",
							"response": "Aggregated response from the request's source code."
						}
					}
				},
				"version": 1
			},
			"evm": {
				"assembly": "    /* \"FunctionsSource.sol\":273:1639  string public getNftMetadata =... */\n  0x0500\n    /* \"RealEstatePriceDetails.sol\":601:2764  contract RealEstatePriceDetails is FunctionsClient, FunctionsSource, OwnerIsCreator {... */\n  0x40\n    /* \"FunctionsSource.sol\":273:1639  string public getNftMetadata =... */\n  mstore\n  0x043b\n    /* \"RealEstatePriceDetails.sol\":601:2764  contract RealEstatePriceDetails is FunctionsClient, FunctionsSource, OwnerIsCreator {... */\n  0xa0\n    /* \"FunctionsSource.sol\":273:1639  string public getNftMetadata =... */\n  dup2\n  dup2\n  mstore\n    /* \"RealEstatePriceDetails.sol\":601:2764  contract RealEstatePriceDetails is FunctionsClient, FunctionsSource, OwnerIsCreator {... */\n  swap1\n    /* \"FunctionsSource.sol\":273:1639  string public getNftMetadata =... */\n  data_88c9a116fbbd0d851c488a75c46bae9e21afc7fddb877075d464093835fb5764\n  0xc0\n  codecopy\n  0x00\n  swap1\n  tag_1\n  swap1\n  dup3\n  tag_2\n  jump\t// in\ntag_1:\n  pop\n    /* \"FunctionsSource.sol\":1646:2481  string public getPrices =... */\n  mload(0x40)\n  dup1\n  0x02e0\n  add\n  0x40\n  mstore\n  dup1\n  0x02b1\n  dup2\n  mstore\n  0x20\n  add\n  data_c730d188d12b108fca73d4f18481f0d084e3306184ca2c25cddd009725856c8d\n  0x02b1\n  swap2\n  codecopy\n  0x01\n  swap1\n  tag_3\n  swap1\n  dup3\n  tag_2\n  jump\t// in\ntag_3:\n  pop\n    /* \"RealEstatePriceDetails.sol\":1269:1355  constructor(address functionsRouterAddress) FunctionsClient(functionsRouterAddress) {} */\n  callvalue\n  dup1\n  iszero\n  tag_4\n  jumpi\n  0x00\n  dup1\n  revert\ntag_4:\n  pop\n  mload(0x40)\n  sub(codesize, bytecodeSize)\n  dup1\n  bytecodeSize\n  dup4\n  codecopy\n  dup2\n  add\n  0x40\n  dup2\n  swap1\n  mstore\n  tag_5\n  swap2\n  tag_6\n  jump\t// in\ntag_5:\n  sub(shl(0xa0, 0x01), 0x01)\n    /* \"@chainlink/contracts/src/v0.8/functions/v1_0_0/FunctionsClient.sol\":736:771  i_router = IFunctionsRouter(router) */\n  dup2\n  and\n  0x80\n  mstore\n    /* \"@chainlink/contracts-ccip/src/v0.8/shared/access/OwnerIsCreator.sol\":291:301  msg.sender */\n  caller\n  dup1\n    /* \"@chainlink/contracts-ccip/src/v0.8/shared/access/ConfirmedOwner.sol\":373:374  0 */\n  0x00\n    /* \"@chainlink/contracts-ccip/src/v0.8/shared/access/OwnerIsCreator.sol\":291:301  msg.sender */\n  dup2\n    /* \"@chainlink/contracts-ccip/src/v0.8/shared/access/ConfirmedOwnerWithProposal.sol\":590:649  require(newOwner != address(0), \"Cannot set owner to zero\") */\n  tag_14\n  jumpi\n  mload(0x40)\n  shl(0xe5, 0x461bcd)\n  dup2\n  mstore\n    /* \"#utility.yul\":3152:3154   */\n  0x20\n    /* \"@chainlink/contracts-ccip/src/v0.8/shared/access/ConfirmedOwnerWithProposal.sol\":590:649  require(newOwner != address(0), \"Cannot set owner to zero\") */\n  0x04\n  dup3\n  add\n    /* \"#utility.yul\":3134:3155   */\n  mstore\n    /* \"#utility.yul\":3191:3193   */\n  0x18\n    /* \"#utility.yul\":3171:3189   */\n  0x24\n  dup3\n  add\n    /* \"#utility.yul\":3164:3194   */\n  mstore\n    /* \"#utility.yul\":3230:3256   */\n  0x43616e6e6f7420736574206f776e657220746f207a65726f0000000000000000\n    /* \"#utility.yul\":3210:3228   */\n  0x44\n  dup3\n  add\n    /* \"#utility.yul\":3203:3257   */\n  mstore\n    /* \"#utility.yul\":3274:3292   */\n  0x64\n  add\n    /* \"@chainlink/contracts-ccip/src/v0.8/shared/access/ConfirmedOwnerWithProposal.sol\":590:649  require(newOwner != address(0), \"Cannot set owner to zero\") */\ntag_15:\n  mload(0x40)\n  dup1\n  swap2\n  sub\n  swap1\n  revert\ntag_14:\n    /* \"@chainlink/contracts-ccip/src/v0.8/shared/access/ConfirmedOwnerWithProposal.sol\":656:663  s_owner */\n  0x02\n    /* \"@chainlink/contracts-ccip/src/v0.8/shared/access/ConfirmedOwnerWithProposal.sol\":656:674  s_owner = newOwner */\n  dup1\n  sload\n  not(sub(shl(0xa0, 0x01), 0x01))\n  and\n  sub(shl(0xa0, 0x01), 0x01)\n  dup5\n  dup2\n  and\n  swap2\n  swap1\n  swap2\n  or\n  swap1\n  swap2\n  sstore\n    /* \"@chainlink/contracts-ccip/src/v0.8/shared/access/ConfirmedOwnerWithProposal.sol\":684:710  pendingOwner != address(0) */\n  dup2\n  and\n  iszero\n    /* \"@chainlink/contracts-ccip/src/v0.8/shared/access/ConfirmedOwnerWithProposal.sol\":680:759  if (pendingOwner != address(0)) {... */\n  tag_18\n  jumpi\n    /* \"@chainlink/contracts-ccip/src/v0.8/shared/access/ConfirmedOwnerWithProposal.sol\":720:752  _transferOwnership(pendingOwner) */\n  tag_18\n    /* \"@chainlink/contracts-ccip/src/v0.8/shared/access/ConfirmedOwnerWithProposal.sol\":739:751  pendingOwner */\n  dup2\n    /* \"@chainlink/contracts-ccip/src/v0.8/shared/access/ConfirmedOwnerWithProposal.sol\":720:738  _transferOwnership */\n  tag_19\n    /* \"@chainlink/contracts-ccip/src/v0.8/shared/access/ConfirmedOwnerWithProposal.sol\":720:752  _transferOwnership(pendingOwner) */\n  jump\t// in\ntag_18:\n    /* \"@chainlink/contracts-ccip/src/v0.8/shared/access/ConfirmedOwnerWithProposal.sol\":481:763  constructor(address newOwner, address pendingOwner) {... */\n  pop\n  pop\n    /* \"@chainlink/contracts-ccip/src/v0.8/shared/access/ConfirmedOwner.sol\":298:379  constructor(address newOwner) ConfirmedOwnerWithProposal(newOwner, address(0)) {} */\n  pop\n    /* \"RealEstatePriceDetails.sol\":1269:1355  constructor(address functionsRouterAddress) FunctionsClient(functionsRouterAddress) {} */\n  pop\n    /* \"RealEstatePriceDetails.sol\":601:2764  contract RealEstatePriceDetails is FunctionsClient, FunctionsSource, OwnerIsCreator {... */\n  jump(tag_33)\n    /* \"@chainlink/contracts-ccip/src/v0.8/shared/access/ConfirmedOwnerWithProposal.sol\":1536:1775  function _transferOwnership(address to) private {... */\ntag_19:\n    /* \"@chainlink/contracts-ccip/src/v0.8/shared/access/ConfirmedOwnerWithProposal.sol\":1655:1665  msg.sender */\n  caller\n  sub(shl(0xa0, 0x01), 0x01)\n    /* \"@chainlink/contracts-ccip/src/v0.8/shared/access/ConfirmedOwnerWithProposal.sol\":1649:1665  to != msg.sender */\n  dup3\n  and\n  sub\n    /* \"@chainlink/contracts-ccip/src/v0.8/shared/access/ConfirmedOwnerWithProposal.sol\":1641:1693  require(to != msg.sender, \"Cannot transfer to self\") */\n  tag_25\n  jumpi\n  mload(0x40)\n  shl(0xe5, 0x461bcd)\n  dup2\n  mstore\n    /* \"#utility.yul\":3505:3507   */\n  0x20\n    /* \"@chainlink/contracts-ccip/src/v0.8/shared/access/ConfirmedOwnerWithProposal.sol\":1641:1693  require(to != msg.sender, \"Cannot transfer to self\") */\n  0x04\n  dup3\n  add\n    /* \"#utility.yul\":3487:3508   */\n  mstore\n    /* \"#utility.yul\":3544:3546   */\n  0x17\n    /* \"#utility.yul\":3524:3542   */\n  0x24\n  dup3\n  add\n    /* \"#utility.yul\":3517:3547   */\n  mstore\n    /* \"#utility.yul\":3583:3608   */\n  0x43616e6e6f74207472616e7366657220746f2073656c66000000000000000000\n    /* \"#utility.yul\":3563:3581   */\n  0x44\n  dup3\n  add\n    /* \"#utility.yul\":3556:3609   */\n  mstore\n    /* \"#utility.yul\":3626:3644   */\n  0x64\n  add\n    /* \"@chainlink/contracts-ccip/src/v0.8/shared/access/ConfirmedOwnerWithProposal.sol\":1641:1693  require(to != msg.sender, \"Cannot transfer to self\") */\n  tag_15\n    /* \"#utility.yul\":3303:3650   */\n  jump\n    /* \"@chainlink/contracts-ccip/src/v0.8/shared/access/ConfirmedOwnerWithProposal.sol\":1641:1693  require(to != msg.sender, \"Cannot transfer to self\") */\ntag_25:\n    /* \"@chainlink/contracts-ccip/src/v0.8/shared/access/ConfirmedOwnerWithProposal.sol\":1700:1714  s_pendingOwner */\n  0x03\n    /* \"@chainlink/contracts-ccip/src/v0.8/shared/access/ConfirmedOwnerWithProposal.sol\":1700:1719  s_pendingOwner = to */\n  dup1\n  sload\n  not(sub(shl(0xa0, 0x01), 0x01))\n  and\n  sub(shl(0xa0, 0x01), 0x01)\n  dup4\n  dup2\n  and\n  swap2\n  dup3\n  or\n  swap1\n  swap3\n  sstore\n    /* \"@chainlink/contracts-ccip/src/v0.8/shared/access/ConfirmedOwnerWithProposal.sol\":1758:1765  s_owner */\n  sload(0x02)\n    /* \"@chainlink/contracts-ccip/src/v0.8/shared/access/ConfirmedOwnerWithProposal.sol\":1731:1770  OwnershipTransferRequested(s_owner, to) */\n  mload(0x40)\n    /* \"@chainlink/contracts-ccip/src/v0.8/shared/access/ConfirmedOwnerWithProposal.sol\":1700:1719  s_pendingOwner = to */\n  swap2\n  swap3\n    /* \"@chainlink/contracts-ccip/src/v0.8/shared/access/ConfirmedOwnerWithProposal.sol\":1758:1765  s_owner */\n  and\n  swap1\n    /* \"@chainlink/contracts-ccip/src/v0.8/shared/access/ConfirmedOwnerWithProposal.sol\":1731:1770  OwnershipTransferRequested(s_owner, to) */\n  0xed8889f560326eb138920d842192f0eb3dd22b4f139c87a2c57538e05bae1278\n  swap1\n  0x00\n  swap1\n  log3\n    /* \"@chainlink/contracts-ccip/src/v0.8/shared/access/ConfirmedOwnerWithProposal.sol\":1536:1775  function _transferOwnership(address to) private {... */\n  pop\n  jump\t// out\n    /* \"#utility.yul\":14:141   */\ntag_28:\n    /* \"#utility.yul\":75:85   */\n  0x4e487b71\n    /* \"#utility.yul\":70:73   */\n  0xe0\n    /* \"#utility.yul\":66:86   */\n  shl\n    /* \"#utility.yul\":63:64   */\n  0x00\n    /* \"#utility.yul\":56:87   */\n  mstore\n    /* \"#utility.yul\":106:110   */\n  0x41\n    /* \"#utility.yul\":103:104   */\n  0x04\n    /* \"#utility.yul\":96:111   */\n  mstore\n    /* \"#utility.yul\":130:134   */\n  0x24\n    /* \"#utility.yul\":127:128   */\n  0x00\n    /* \"#utility.yul\":120:135   */\n  revert\n    /* \"#utility.yul\":146:526   */\ntag_29:\n    /* \"#utility.yul\":225:226   */\n  0x01\n    /* \"#utility.yul\":221:233   */\n  dup2\n  dup2\n  shr\n  swap1\n    /* \"#utility.yul\":268:280   */\n  dup3\n  and\n  dup1\n    /* \"#utility.yul\":289:350   */\n  tag_36\n  jumpi\n    /* \"#utility.yul\":343:347   */\n  0x7f\n    /* \"#utility.yul\":335:341   */\n  dup3\n    /* \"#utility.yul\":331:348   */\n  and\n    /* \"#utility.yul\":321:348   */\n  swap2\n  pop\n    /* \"#utility.yul\":289:350   */\ntag_36:\n    /* \"#utility.yul\":396:398   */\n  0x20\n    /* \"#utility.yul\":388:394   */\n  dup3\n    /* \"#utility.yul\":385:399   */\n  lt\n    /* \"#utility.yul\":365:383   */\n  dup2\n    /* \"#utility.yul\":362:400   */\n  sub\n    /* \"#utility.yul\":359:520   */\n  tag_37\n  jumpi\n    /* \"#utility.yul\":442:452   */\n  0x4e487b71\n    /* \"#utility.yul\":437:440   */\n  0xe0\n    /* \"#utility.yul\":433:453   */\n  shl\n    /* \"#utility.yul\":430:431   */\n  0x00\n    /* \"#utility.yul\":423:454   */\n  mstore\n    /* \"#utility.yul\":477:481   */\n  0x22\n    /* \"#utility.yul\":474:475   */\n  0x04\n    /* \"#utility.yul\":467:482   */\n  mstore\n    /* \"#utility.yul\":505:509   */\n  0x24\n    /* \"#utility.yul\":502:503   */\n  0x00\n    /* \"#utility.yul\":495:510   */\n  revert\n    /* \"#utility.yul\":359:520   */\ntag_37:\n  pop\n    /* \"#utility.yul\":146:526   */\n  swap2\n  swap1\n  pop\n  jump\t// out\n    /* \"#utility.yul\":657:1175   */\ntag_31:\n    /* \"#utility.yul\":759:761   */\n  0x1f\n    /* \"#utility.yul\":754:757   */\n  dup3\n    /* \"#utility.yul\":751:762   */\n  gt\n    /* \"#utility.yul\":748:1169   */\n  iszero\n  tag_40\n  jumpi\n    /* \"#utility.yul\":795:800   */\n  dup1\n    /* \"#utility.yul\":792:793   */\n  0x00\n    /* \"#utility.yul\":785:801   */\n  mstore\n    /* \"#utility.yul\":839:843   */\n  0x20\n    /* \"#utility.yul\":836:837   */\n  0x00\n    /* \"#utility.yul\":826:844   */\n  keccak256\n    /* \"#utility.yul\":909:911   */\n  0x1f\n    /* \"#utility.yul\":897:907   */\n  dup5\n    /* \"#utility.yul\":893:912   */\n  add\n    /* \"#utility.yul\":890:891   */\n  0x05\n    /* \"#utility.yul\":886:913   */\n  shr\n    /* \"#utility.yul\":880:884   */\n  dup2\n    /* \"#utility.yul\":876:914   */\n  add\n    /* \"#utility.yul\":945:949   */\n  0x20\n    /* \"#utility.yul\":933:943   */\n  dup6\n    /* \"#utility.yul\":930:950   */\n  lt\n    /* \"#utility.yul\":927:974   */\n  iszero\n  tag_41\n  jumpi\n  pop\n    /* \"#utility.yul\":968:972   */\n  dup1\n    /* \"#utility.yul\":927:974   */\ntag_41:\n    /* \"#utility.yul\":1023:1025   */\n  0x1f\n    /* \"#utility.yul\":1018:1021   */\n  dup5\n    /* \"#utility.yul\":1014:1026   */\n  add\n    /* \"#utility.yul\":1011:1012   */\n  0x05\n    /* \"#utility.yul\":1007:1027   */\n  shr\n    /* \"#utility.yul\":1001:1005   */\n  dup3\n    /* \"#utility.yul\":997:1028   */\n  add\n    /* \"#utility.yul\":987:1028   */\n  swap2\n  pop\n    /* \"#utility.yul\":1078:1159   */\ntag_42:\n    /* \"#utility.yul\":1096:1098   */\n  dup2\n    /* \"#utility.yul\":1089:1094   */\n  dup2\n    /* \"#utility.yul\":1086:1099   */\n  lt\n    /* \"#utility.yul\":1078:1159   */\n  iszero\n  tag_44\n  jumpi\n    /* \"#utility.yul\":1155:1156   */\n  0x00\n    /* \"#utility.yul\":1141:1157   */\n  dup2\n  sstore\n    /* \"#utility.yul\":1122:1123   */\n  0x01\n    /* \"#utility.yul\":1111:1124   */\n  add\n    /* \"#utility.yul\":1078:1159   */\n  jump(tag_42)\ntag_44:\n    /* \"#utility.yul\":1082:1085   */\n  pop\n  pop\n    /* \"#utility.yul\":748:1169   */\ntag_40:\n    /* \"#utility.yul\":657:1175   */\n  pop\n  pop\n  pop\n  jump\t// out\n    /* \"#utility.yul\":1351:2650   */\ntag_2:\n    /* \"#utility.yul\":1471:1481   */\n  dup2\n  mload\n  sub(shl(0x40, 0x01), 0x01)\n    /* \"#utility.yul\":1493:1523   */\n  dup2\n  gt\n    /* \"#utility.yul\":1490:1546   */\n  iszero\n  tag_48\n  jumpi\n    /* \"#utility.yul\":1526:1544   */\n  tag_48\n  tag_28\n  jump\t// in\ntag_48:\n    /* \"#utility.yul\":1555:1652   */\n  tag_49\n    /* \"#utility.yul\":1645:1651   */\n  dup2\n    /* \"#utility.yul\":1605:1643   */\n  tag_50\n    /* \"#utility.yul\":1637:1641   */\n  dup5\n    /* \"#utility.yul\":1631:1642   */\n  sload\n    /* \"#utility.yul\":1605:1643   */\n  tag_29\n  jump\t// in\ntag_50:\n    /* \"#utility.yul\":1599:1603   */\n  dup5\n    /* \"#utility.yul\":1555:1652   */\n  tag_31\n  jump\t// in\ntag_49:\n    /* \"#utility.yul\":1701:1705   */\n  0x20\n    /* \"#utility.yul\":1732:1734   */\n  0x1f\n    /* \"#utility.yul\":1721:1735   */\n  dup3\n  gt\n    /* \"#utility.yul\":1749:1750   */\n  0x01\n    /* \"#utility.yul\":1744:2393   */\n  dup2\n  eq\n  tag_52\n  jumpi\n    /* \"#utility.yul\":2437:2438   */\n  0x00\n    /* \"#utility.yul\":2454:2460   */\n  dup4\n    /* \"#utility.yul\":2451:2540   */\n  iszero\n  tag_53\n  jumpi\n  pop\n    /* \"#utility.yul\":2506:2525   */\n  dup5\n  dup3\n  add\n    /* \"#utility.yul\":2500:2526   */\n  mload\n    /* \"#utility.yul\":2451:2540   */\ntag_53:\n  not(0x00)\n    /* \"#utility.yul\":1308:1309   */\n  0x03\n    /* \"#utility.yul\":1304:1315   */\n  dup6\n  swap1\n  shl\n    /* \"#utility.yul\":1300:1324   */\n  shr\n    /* \"#utility.yul\":1296:1325   */\n  not\n    /* \"#utility.yul\":1286:1326   */\n  and\n    /* \"#utility.yul\":1332:1333   */\n  0x01\n    /* \"#utility.yul\":1328:1339   */\n  dup5\n  swap1\n  shl\n    /* \"#utility.yul\":1283:1340   */\n  or\n    /* \"#utility.yul\":2553:2634   */\n  dup5\n  sstore\n    /* \"#utility.yul\":1714:2644   */\n  jump(tag_44)\n    /* \"#utility.yul\":1744:2393   */\ntag_52:\n    /* \"#utility.yul\":604:605   */\n  0x00\n    /* \"#utility.yul\":597:611   */\n  dup5\n  dup2\n  mstore\n    /* \"#utility.yul\":641:645   */\n  0x20\n    /* \"#utility.yul\":628:646   */\n  dup2\n  keccak256\n  not(0x1f)\n    /* \"#utility.yul\":1780:1800   */\n  dup6\n  and\n  swap2\n    /* \"#utility.yul\":1898:2120   */\ntag_56:\n    /* \"#utility.yul\":1912:1919   */\n  dup3\n    /* \"#utility.yul\":1909:1910   */\n  dup2\n    /* \"#utility.yul\":1906:1920   */\n  lt\n    /* \"#utility.yul\":1898:2120   */\n  iszero\n  tag_58\n  jumpi\n    /* \"#utility.yul\":1994:2013   */\n  dup8\n  dup6\n  add\n    /* \"#utility.yul\":1988:2014   */\n  mload\n    /* \"#utility.yul\":1973:2015   */\n  dup3\n  sstore\n    /* \"#utility.yul\":2101:2105   */\n  0x20\n    /* \"#utility.yul\":2086:2106   */\n  swap5\n  dup6\n  add\n  swap5\n    /* \"#utility.yul\":2054:2055   */\n  0x01\n    /* \"#utility.yul\":2042:2056   */\n  swap1\n  swap3\n  add\n  swap2\n    /* \"#utility.yul\":1928:1940   */\n  add\n    /* \"#utility.yul\":1898:2120   */\n  jump(tag_56)\ntag_58:\n    /* \"#utility.yul\":1902:1905   */\n  pop\n    /* \"#utility.yul\":2148:2154   */\n  dup5\n    /* \"#utility.yul\":2139:2146   */\n  dup3\n    /* \"#utility.yul\":2136:2155   */\n  lt\n    /* \"#utility.yul\":2133:2334   */\n  iszero\n  tag_59\n  jumpi\n    /* \"#utility.yul\":2209:2228   */\n  dup7\n  dup5\n  add\n    /* \"#utility.yul\":2203:2229   */\n  mload\n  not(0x00)\n    /* \"#utility.yul\":2292:2293   */\n  0x03\n    /* \"#utility.yul\":2288:2302   */\n  dup8\n  swap1\n  shl\n    /* \"#utility.yul\":2304:2307   */\n  0xf8\n    /* \"#utility.yul\":2284:2308   */\n  and\n    /* \"#utility.yul\":2280:2317   */\n  shr\n    /* \"#utility.yul\":2276:2318   */\n  not\n    /* \"#utility.yul\":2261:2319   */\n  and\n    /* \"#utility.yul\":2246:2320   */\n  dup2\n  sstore\n    /* \"#utility.yul\":2133:2334   */\ntag_59:\n  pop\n  pop\n  pop\n  pop\n    /* \"#utility.yul\":2380:2381   */\n  0x01\n    /* \"#utility.yul\":2364:2378   */\n  swap1\n  dup2\n  shl\n    /* \"#utility.yul\":2360:2382   */\n  add\n    /* \"#utility.yul\":2347:2383   */\n  swap1\n  sstore\n  pop\n    /* \"#utility.yul\":1351:2650   */\n  jump\t// out\n    /* \"#utility.yul\":2655:2945   */\ntag_6:\n    /* \"#utility.yul\":2725:2731   */\n  0x00\n    /* \"#utility.yul\":2778:2780   */\n  0x20\n    /* \"#utility.yul\":2766:2775   */\n  dup3\n    /* \"#utility.yul\":2757:2764   */\n  dup5\n    /* \"#utility.yul\":2753:2776   */\n  sub\n    /* \"#utility.yul\":2749:2781   */\n  slt\n    /* \"#utility.yul\":2746:2798   */\n  iszero\n  tag_61\n  jumpi\n    /* \"#utility.yul\":2794:2795   */\n  0x00\n    /* \"#utility.yul\":2791:2792   */\n  dup1\n    /* \"#utility.yul\":2784:2796   */\n  revert\n    /* \"#utility.yul\":2746:2798   */\ntag_61:\n    /* \"#utility.yul\":2820:2836   */\n  dup2\n  mload\n  sub(shl(0xa0, 0x01), 0x01)\n    /* \"#utility.yul\":2865:2896   */\n  dup2\n  and\n    /* \"#utility.yul\":2855:2897   */\n  dup2\n  eq\n    /* \"#utility.yul\":2845:2915   */\n  tag_62\n  jumpi\n    /* \"#utility.yul\":2911:2912   */\n  0x00\n    /* \"#utility.yul\":2908:2909   */\n  dup1\n    /* \"#utility.yul\":2901:2913   */\n  revert\n    /* \"#utility.yul\":2845:2915   */\ntag_62:\n    /* \"#utility.yul\":2934:2939   */\n  swap4\n    /* \"#utility.yul\":2655:2945   */\n  swap3\n  pop\n  pop\n  pop\n  jump\t// out\n    /* \"#utility.yul\":3303:3650   */\ntag_33:\n    /* \"RealEstatePriceDetails.sol\":601:2764  contract RealEstatePriceDetails is FunctionsClient, FunctionsSource, OwnerIsCreator {... */\n  mload(0x80)\n  codecopy(0x00, dataOffset(sub_0), dataSize(sub_0))\n  0x00\n  assignImmutable(\"0x6f613263a27c07dcf0f796f1c8181099a92e5eb2eae8c3bec65733e2d5818bb8\")\n  return(0x00, dataSize(sub_0))\nstop\ndata_88c9a116fbbd0d851c488a75c46bae9e21afc7fddb877075d464093835fb5764 636f6e7374207b20657468657273207d203d20617761697420696d706f727428276e706d3a65746865727340362e31302e3027293b636f6e73742048617368203d20617761697420696d706f727428276e706d3a697066732d6f6e6c792d6861736840342e302e3027293b636f6e737420617069526573706f6e7365203d2061776169742046756e6374696f6e732e6d616b654874747052657175657374287b2020202075726c3a206068747470733a2f2f6170692e627269646765646174616f75747075742e636f6d2f6170692f76322f4f446174612f746573742f50726f70657274792827505f35646261316662393461613430353562396632393639366627293f6163636573735f746f6b656e3d3662616361353437373432633666393661366666373162313338343234663231602c7d293b636f6e7374207265616c45737461746541646472657373203d20617069526573706f6e73652e646174612e556e706172736564416464726573733b636f6e737420796561724275696c74203d204e756d62657228617069526573706f6e73652e646174612e596561724275696c74293b636f6e7374206c6f7453697a6553717561726546656574203d204e756d62657228617069526573706f6e73652e646174612e4c6f7453697a6553717561726546656574293b636f6e7374206c6976696e6741726561203d204e756d62657228617069526573706f6e73652e646174612e4c6976696e6741726561293b636f6e737420626564726f6f6d73546f74616c203d204e756d62657228617069526573706f6e73652e646174612e426564726f6f6d73546f74616c293b636f6e7374206d65746164617461203d207b6e616d653a20605265616c2045737461746520546f6b656e602c617474726962757465733a205b7b2074726169745f747970653a20607265616c45737461746541646472657373602c2076616c75653a207265616c45737461746541646472657373207d2c7b2074726169745f747970653a2060796561724275696c74602c2076616c75653a20796561724275696c74207d2c7b2074726169745f747970653a20606c6f7453697a6553717561726546656574602c2076616c75653a206c6f7453697a6553717561726546656574207d2c7b2074726169745f747970653a20606c6976696e6741726561602c2076616c75653a206c6976696e6741726561207d2c7b2074726169745f747970653a2060626564726f6f6d73546f74616c602c2076616c75653a20626564726f6f6d73546f74616c207d5d7d3b636f6e7374206d65746164617461537472696e67203d204a534f4e2e737472696e67696679286d65746164617461293b636f6e73742069706673436964203d20617761697420486173682e6f66286d65746164617461537472696e67293b72657475726e2046756e6374696f6e732e656e636f6465537472696e672860697066733a2f2f247b697066734369647d60293b\ndata_c730d188d12b108fca73d4f18481f0d084e3306184ca2c25cddd009725856c8d 636f6e7374207b20657468657273207d203d20617761697420696d706f727428276e706d3a65746865727340362e31302e3027293b636f6e737420616269436f646572203d206574686572732e416269436f6465722e64656661756c74416269436f64657228293b636f6e737420746f6b656e4964203d20617267735b305d3b636f6e737420617069526573706f6e7365203d2061776169742046756e6374696f6e732e6d616b654874747052657175657374287b2020202075726c3a206068747470733a2f2f6170692e627269646765646174616f75747075742e636f6d2f6170692f76322f4f446174612f746573742f50726f70657274792827505f35646261316662393461613430353562396632393639366627293f6163636573735f746f6b656e3d3662616361353437373432633666393661366666373162313338343234663231602c7d293b636f6e7374206c6973745072696365203d204e756d62657228617069526573706f6e73652e646174612e4c6973745072696365293b636f6e7374206f726967696e616c4c6973745072696365203d204e756d62657228617069526573706f6e73652e646174612e4f726967696e616c4c6973745072696365293b636f6e737420746178417373657373656456616c7565203d204e756d62657228617069526573706f6e73652e646174612e546178417373657373656456616c7565293b636f6e737420656e636f646564203d20616269436f6465722e656e636f6465285b6075696e74323536602c206075696e74323536602c206075696e74323536602c206075696e74323536605d2c205b746f6b656e49642c206c69737450726963652c206f726967696e616c4c69737450726963652c20746178417373657373656456616c75655d293b72657475726e206574686572732e676574427974657328656e636f646564293b\n\nsub_0: assembly {\n        /* \"RealEstatePriceDetails.sol\":601:2764  contract RealEstatePriceDetails is FunctionsClient, FunctionsSource, OwnerIsCreator {... */\n      mstore(0x40, 0x80)\n      callvalue\n      dup1\n      iszero\n      tag_1\n      jumpi\n      0x00\n      dup1\n      revert\n    tag_1:\n      pop\n      jumpi(tag_2, lt(calldatasize, 0x04))\n      shr(0xe0, calldataload(0x00))\n      dup1\n      0xbd9a548b\n      gt\n      tag_12\n      jumpi\n      dup1\n      0xbd9a548b\n      eq\n      tag_7\n      jumpi\n      dup1\n      0xd40d17bc\n      eq\n      tag_8\n      jumpi\n      dup1\n      0xe6b46ff5\n      eq\n      tag_9\n      jumpi\n      dup1\n      0xf0ed2e80\n      eq\n      tag_10\n      jumpi\n      dup1\n      0xf2fde38b\n      eq\n      tag_11\n      jumpi\n      0x00\n      dup1\n      revert\n    tag_12:\n      dup1\n      0x0ca76175\n      eq\n      tag_3\n      jumpi\n      dup1\n      0x79ba5097\n      eq\n      tag_4\n      jumpi\n      dup1\n      0x8da5cb5b\n      eq\n      tag_5\n      jumpi\n      dup1\n      0xa843a0ab\n      eq\n      tag_6\n      jumpi\n    tag_2:\n      0x00\n      dup1\n      revert\n        /* \"@chainlink/contracts/src/v0.8/functions/v1_0_0/FunctionsClient.sol\":2078:2364  function handleOracleFulfillment(bytes32 requestId, bytes memory response, bytes memory err) external override {... */\n    tag_3:\n      tag_13\n      tag_14\n      calldatasize\n      0x04\n      tag_15\n      jump\t// in\n    tag_14:\n      tag_16\n      jump\t// in\n    tag_13:\n      stop\n        /* \"@chainlink/contracts-ccip/src/v0.8/shared/access/ConfirmedOwnerWithProposal.sol\":1026:1342  function acceptOwnership() external override {... */\n    tag_4:\n      tag_13\n      tag_18\n      jump\t// in\n        /* \"@chainlink/contracts-ccip/src/v0.8/shared/access/ConfirmedOwnerWithProposal.sol\":1382:1463  function owner() public view override returns (address) {... */\n    tag_5:\n        /* \"@chainlink/contracts-ccip/src/v0.8/shared/access/ConfirmedOwnerWithProposal.sol\":1451:1458  s_owner */\n      sload(0x02)\n        /* \"@chainlink/contracts-ccip/src/v0.8/shared/access/ConfirmedOwnerWithProposal.sol\":1382:1463  function owner() public view override returns (address) {... */\n      mload(0x40)\n      sub(shl(0xa0, 0x01), 0x01)\n        /* \"@chainlink/contracts-ccip/src/v0.8/shared/access/ConfirmedOwnerWithProposal.sol\":1451:1458  s_owner */\n      swap1\n      swap2\n      and\n        /* \"#utility.yul\":1982:2033   */\n      dup2\n      mstore\n        /* \"#utility.yul\":1970:1972   */\n      0x20\n        /* \"#utility.yul\":1955:1973   */\n      add\n        /* \"@chainlink/contracts-ccip/src/v0.8/shared/access/ConfirmedOwnerWithProposal.sol\":1382:1463  function owner() public view override returns (address) {... */\n    tag_21:\n      mload(0x40)\n      dup1\n      swap2\n      sub\n      swap1\n      return\n        /* \"RealEstatePriceDetails.sol\":1528:2040  function updatePriceDetails(string memory tokenId, uint64 subscriptionId, uint32 gasLimit, bytes32 donID)... */\n    tag_6:\n      tag_23\n      tag_24\n      calldatasize\n      0x04\n      tag_25\n      jump\t// in\n    tag_24:\n      tag_26\n      jump\t// in\n    tag_23:\n      mload(0x40)\n        /* \"#utility.yul\":3114:3139   */\n      swap1\n      dup2\n      mstore\n        /* \"#utility.yul\":3102:3104   */\n      0x20\n        /* \"#utility.yul\":3087:3105   */\n      add\n        /* \"RealEstatePriceDetails.sol\":1528:2040  function updatePriceDetails(string memory tokenId, uint64 subscriptionId, uint32 gasLimit, bytes32 donID)... */\n      tag_21\n        /* \"#utility.yul\":2968:3145   */\n      jump\n        /* \"FunctionsSource.sol\":1646:2481  string public getPrices =... */\n    tag_7:\n      tag_29\n      tag_30\n      jump\t// in\n    tag_29:\n      mload(0x40)\n      tag_21\n      swap2\n      swap1\n      tag_32\n      jump\t// in\n        /* \"RealEstatePriceDetails.sol\":1361:1522  function setAutomationForwarder(address automationForwarderAddress) external onlyOwner {... */\n    tag_8:\n      tag_13\n      tag_34\n      calldatasize\n      0x04\n      tag_35\n      jump\t// in\n    tag_34:\n      tag_36\n      jump\t// in\n        /* \"FunctionsSource.sol\":273:1639  string public getNftMetadata =... */\n    tag_9:\n      tag_29\n      tag_38\n      jump\t// in\n        /* \"RealEstatePriceDetails.sol\":2046:2179  function getPriceDetails(uint256 tokenId) external view returns (PriceDetails memory) {... */\n    tag_10:\n      tag_40\n      tag_41\n      calldatasize\n      0x04\n      tag_42\n      jump\t// in\n    tag_41:\n      0x40\n      dup1\n      mload\n      0x60\n      dup1\n      dup3\n      add\n      dup4\n      mstore\n      0x00\n      dup1\n      dup4\n      mstore\n      0x20\n      dup1\n      dup5\n      add\n      dup3\n      swap1\n      mstore\n      swap3\n      dup5\n      add\n      dup2\n      swap1\n      mstore\n        /* \"RealEstatePriceDetails.sol\":2149:2172  s_priceDetails[tokenId] */\n      swap4\n      dup5\n      mstore\n        /* \"RealEstatePriceDetails.sol\":2149:2163  s_priceDetails */\n      0x05\n        /* \"RealEstatePriceDetails.sol\":2149:2172  s_priceDetails[tokenId] */\n      dup3\n      mstore\n      swap3\n      dup3\n      swap1\n      keccak256\n        /* \"RealEstatePriceDetails.sol\":2142:2172  return s_priceDetails[tokenId] */\n      dup3\n      mload\n      swap4\n      dup5\n      add\n      dup4\n      mstore\n      sload\n      0xffffffffffffffffffff\n      dup1\n      dup3\n      and\n      dup6\n      mstore\n      shl(0x50, 0x01)\n      dup3\n      div\n      dup2\n      and\n      swap3\n      dup6\n      add\n      swap3\n      swap1\n      swap3\n      mstore\n      shl(0xa0, 0x01)\n      swap1\n      div\n      and\n      swap1\n      dup3\n      add\n      mstore\n      swap1\n        /* \"RealEstatePriceDetails.sol\":2046:2179  function getPriceDetails(uint256 tokenId) external view returns (PriceDetails memory) {... */\n      jump\n    tag_40:\n      0x40\n      dup1\n      mload\n        /* \"#utility.yul\":4610:4623   */\n      dup3\n      mload\n        /* \"#utility.yul\":4625:4647   */\n      0xffffffffffffffffffff\n        /* \"#utility.yul\":4606:4648   */\n      swap1\n      dup2\n      and\n        /* \"#utility.yul\":4588:4649   */\n      dup3\n      mstore\n        /* \"#utility.yul\":4709:4713   */\n      0x20\n        /* \"#utility.yul\":4697:4714   */\n      dup1\n      dup6\n      add\n        /* \"#utility.yul\":4691:4715   */\n      mload\n        /* \"#utility.yul\":4687:4740   */\n      dup3\n      and\n        /* \"#utility.yul\":4665:4685   */\n      swap1\n      dup4\n      add\n        /* \"#utility.yul\":4658:4741   */\n      mstore\n        /* \"#utility.yul\":4789:4806   */\n      swap3\n      dup3\n      add\n        /* \"#utility.yul\":4783:4807   */\n      mload\n        /* \"#utility.yul\":4779:4832   */\n      swap1\n      swap3\n      and\n        /* \"#utility.yul\":4757:4777   */\n      swap1\n      dup3\n      add\n        /* \"#utility.yul\":4750:4833   */\n      mstore\n        /* \"#utility.yul\":4576:4578   */\n      0x60\n        /* \"#utility.yul\":4561:4579   */\n      add\n        /* \"RealEstatePriceDetails.sol\":2046:2179  function getPriceDetails(uint256 tokenId) external view returns (PriceDetails memory) {... */\n      tag_21\n        /* \"#utility.yul\":4382:4839   */\n      jump\n        /* \"@chainlink/contracts-ccip/src/v0.8/shared/access/ConfirmedOwnerWithProposal.sol\":847:945  function transferOwnership(address to) public override onlyOwner {... */\n    tag_11:\n      tag_13\n      tag_47\n      calldatasize\n      0x04\n      tag_35\n      jump\t// in\n    tag_47:\n      tag_48\n      jump\t// in\n        /* \"@chainlink/contracts/src/v0.8/functions/v1_0_0/FunctionsClient.sol\":2078:2364  function handleOracleFulfillment(bytes32 requestId, bytes memory response, bytes memory err) external override {... */\n    tag_16:\n        /* \"@chainlink/contracts/src/v0.8/functions/v1_0_0/FunctionsClient.sol\":2199:2209  msg.sender */\n      caller\n      sub(shl(0xa0, 0x01), 0x01)\n        /* \"@chainlink/contracts/src/v0.8/functions/v1_0_0/FunctionsClient.sol\":2221:2229  i_router */\n      immutable(\"0x6f613263a27c07dcf0f796f1c8181099a92e5eb2eae8c3bec65733e2d5818bb8\")\n        /* \"@chainlink/contracts/src/v0.8/functions/v1_0_0/FunctionsClient.sol\":2199:2230  msg.sender != address(i_router) */\n      and\n      eq\n        /* \"@chainlink/contracts/src/v0.8/functions/v1_0_0/FunctionsClient.sol\":2195:2276  if (msg.sender != address(i_router)) {... */\n      tag_50\n      jumpi\n        /* \"@chainlink/contracts/src/v0.8/functions/v1_0_0/FunctionsClient.sol\":2247:2269  OnlyRouterCanFulfill() */\n      mload(0x40)\n      shl(0xe0, 0xc6829f83)\n      dup2\n      mstore\n      0x04\n      add\n      mload(0x40)\n      dup1\n      swap2\n      sub\n      swap1\n      revert\n        /* \"@chainlink/contracts/src/v0.8/functions/v1_0_0/FunctionsClient.sol\":2195:2276  if (msg.sender != address(i_router)) {... */\n    tag_50:\n        /* \"@chainlink/contracts/src/v0.8/functions/v1_0_0/FunctionsClient.sol\":2281:2321  fulfillRequest(requestId, response, err) */\n      tag_51\n        /* \"@chainlink/contracts/src/v0.8/functions/v1_0_0/FunctionsClient.sol\":2296:2305  requestId */\n      dup4\n        /* \"@chainlink/contracts/src/v0.8/functions/v1_0_0/FunctionsClient.sol\":2307:2315  response */\n      dup4\n        /* \"@chainlink/contracts/src/v0.8/functions/v1_0_0/FunctionsClient.sol\":2317:2320  err */\n      dup4\n        /* \"@chainlink/contracts/src/v0.8/functions/v1_0_0/FunctionsClient.sol\":2281:2295  fulfillRequest */\n      tag_52\n        /* \"@chainlink/contracts/src/v0.8/functions/v1_0_0/FunctionsClient.sol\":2281:2321  fulfillRequest(requestId, response, err) */\n      jump\t// in\n    tag_51:\n        /* \"@chainlink/contracts/src/v0.8/functions/v1_0_0/FunctionsClient.sol\":2332:2359  RequestFulfilled(requestId) */\n      mload(0x40)\n        /* \"@chainlink/contracts/src/v0.8/functions/v1_0_0/FunctionsClient.sol\":2349:2358  requestId */\n      dup4\n      swap1\n        /* \"@chainlink/contracts/src/v0.8/functions/v1_0_0/FunctionsClient.sol\":2332:2359  RequestFulfilled(requestId) */\n      0x85e1543bf2f84fe80c6badbce3648c8539ad1df4d2b3d822938ca0538be727e6\n      swap1\n      0x00\n      swap1\n      log2\n        /* \"@chainlink/contracts/src/v0.8/functions/v1_0_0/FunctionsClient.sol\":2078:2364  function handleOracleFulfillment(bytes32 requestId, bytes memory response, bytes memory err) external override {... */\n      pop\n      pop\n      pop\n      jump\t// out\n        /* \"@chainlink/contracts-ccip/src/v0.8/shared/access/ConfirmedOwnerWithProposal.sol\":1026:1342  function acceptOwnership() external override {... */\n    tag_18:\n        /* \"@chainlink/contracts-ccip/src/v0.8/shared/access/ConfirmedOwnerWithProposal.sol\":1150:1164  s_pendingOwner */\n      and(sub(shl(0xa0, 0x01), 0x01), sload(0x03))\n        /* \"@chainlink/contracts-ccip/src/v0.8/shared/access/ConfirmedOwnerWithProposal.sol\":1136:1146  msg.sender */\n      caller\n        /* \"@chainlink/contracts-ccip/src/v0.8/shared/access/ConfirmedOwnerWithProposal.sol\":1136:1164  msg.sender == s_pendingOwner */\n      eq\n        /* \"@chainlink/contracts-ccip/src/v0.8/shared/access/ConfirmedOwnerWithProposal.sol\":1128:1191  require(msg.sender == s_pendingOwner, \"Must be proposed owner\") */\n      tag_54\n      jumpi\n      mload(0x40)\n      shl(0xe5, 0x461bcd)\n      dup2\n      mstore\n        /* \"#utility.yul\":5046:5048   */\n      0x20\n        /* \"@chainlink/contracts-ccip/src/v0.8/shared/access/ConfirmedOwnerWithProposal.sol\":1128:1191  require(msg.sender == s_pendingOwner, \"Must be proposed owner\") */\n      0x04\n      dup3\n      add\n        /* \"#utility.yul\":5028:5049   */\n      mstore\n        /* \"#utility.yul\":5085:5087   */\n      0x16\n        /* \"#utility.yul\":5065:5083   */\n      0x24\n      dup3\n      add\n        /* \"#utility.yul\":5058:5088   */\n      mstore\n      shl(0x51, 0x26bab9ba10313290383937b837b9b2b21037bbb732b9)\n        /* \"#utility.yul\":5104:5122   */\n      0x44\n      dup3\n      add\n        /* \"#utility.yul\":5097:5149   */\n      mstore\n        /* \"#utility.yul\":5166:5184   */\n      0x64\n      add\n        /* \"@chainlink/contracts-ccip/src/v0.8/shared/access/ConfirmedOwnerWithProposal.sol\":1128:1191  require(msg.sender == s_pendingOwner, \"Must be proposed owner\") */\n    tag_55:\n      mload(0x40)\n      dup1\n      swap2\n      sub\n      swap1\n      revert\n    tag_54:\n        /* \"@chainlink/contracts-ccip/src/v0.8/shared/access/ConfirmedOwnerWithProposal.sol\":1217:1224  s_owner */\n      0x02\n      dup1\n      sload\n      not(sub(shl(0xa0, 0x01), 0x01))\n        /* \"@chainlink/contracts-ccip/src/v0.8/shared/access/ConfirmedOwnerWithProposal.sol\":1230:1250  s_owner = msg.sender */\n      dup1\n      dup3\n      and\n        /* \"@chainlink/contracts-ccip/src/v0.8/shared/access/ConfirmedOwnerWithProposal.sol\":1240:1250  msg.sender */\n      caller\n        /* \"@chainlink/contracts-ccip/src/v0.8/shared/access/ConfirmedOwnerWithProposal.sol\":1230:1250  s_owner = msg.sender */\n      swap1\n      dup2\n      or\n      swap1\n      swap4\n      sstore\n        /* \"@chainlink/contracts-ccip/src/v0.8/shared/access/ConfirmedOwnerWithProposal.sol\":1256:1270  s_pendingOwner */\n      0x03\n        /* \"@chainlink/contracts-ccip/src/v0.8/shared/access/ConfirmedOwnerWithProposal.sol\":1256:1283  s_pendingOwner = address(0) */\n      dup1\n      sload\n      swap1\n      swap2\n      and\n      swap1\n      sstore\n        /* \"@chainlink/contracts-ccip/src/v0.8/shared/access/ConfirmedOwnerWithProposal.sol\":1295:1337  OwnershipTransferred(oldOwner, msg.sender) */\n      mload(0x40)\n      sub(shl(0xa0, 0x01), 0x01)\n        /* \"@chainlink/contracts-ccip/src/v0.8/shared/access/ConfirmedOwnerWithProposal.sol\":1217:1224  s_owner */\n      swap1\n      swap2\n      and\n      swap2\n        /* \"@chainlink/contracts-ccip/src/v0.8/shared/access/ConfirmedOwnerWithProposal.sol\":1240:1250  msg.sender */\n      swap1\n        /* \"@chainlink/contracts-ccip/src/v0.8/shared/access/ConfirmedOwnerWithProposal.sol\":1217:1224  s_owner */\n      dup3\n      swap1\n        /* \"@chainlink/contracts-ccip/src/v0.8/shared/access/ConfirmedOwnerWithProposal.sol\":1295:1337  OwnershipTransferred(oldOwner, msg.sender) */\n      0x8be0079c531659141344cd1fd0a4f28419497f9722a3daafe3b4186f6b6457e0\n      swap1\n        /* \"@chainlink/contracts-ccip/src/v0.8/shared/access/ConfirmedOwnerWithProposal.sol\":1198:1214  address oldOwner */\n      0x00\n      swap1\n        /* \"@chainlink/contracts-ccip/src/v0.8/shared/access/ConfirmedOwnerWithProposal.sol\":1295:1337  OwnershipTransferred(oldOwner, msg.sender) */\n      log3\n        /* \"@chainlink/contracts-ccip/src/v0.8/shared/access/ConfirmedOwnerWithProposal.sol\":1071:1342  {... */\n      pop\n        /* \"@chainlink/contracts-ccip/src/v0.8/shared/access/ConfirmedOwnerWithProposal.sol\":1026:1342  function acceptOwnership() external override {... */\n      jump\t// out\n        /* \"RealEstatePriceDetails.sol\":1528:2040  function updatePriceDetails(string memory tokenId, uint64 subscriptionId, uint32 gasLimit, bytes32 donID)... */\n    tag_26:\n        /* \"RealEstatePriceDetails.sol\":1120:1148  s_automationForwarderAddress */\n      sload(0x04)\n        /* \"RealEstatePriceDetails.sol\":1707:1724  bytes32 requestId */\n      0x00\n      swap1\n      sub(shl(0xa0, 0x01), 0x01)\n        /* \"RealEstatePriceDetails.sol\":1120:1148  s_automationForwarderAddress */\n      and\n        /* \"RealEstatePriceDetails.sol\":1106:1116  msg.sender */\n      caller\n        /* \"RealEstatePriceDetails.sol\":1106:1148  msg.sender != s_automationForwarderAddress */\n      eq\n      dup1\n      iszero\n      swap1\n        /* \"RealEstatePriceDetails.sol\":1106:1173  msg.sender != s_automationForwarderAddress && msg.sender != owner() */\n      tag_59\n      jumpi\n      pop\n        /* \"@chainlink/contracts-ccip/src/v0.8/shared/access/ConfirmedOwnerWithProposal.sol\":1451:1458  s_owner */\n      and(sub(shl(0xa0, 0x01), 0x01), sload(0x02))\n        /* \"RealEstatePriceDetails.sol\":1152:1162  msg.sender */\n      caller\n        /* \"RealEstatePriceDetails.sol\":1152:1173  msg.sender != owner() */\n      eq\n      iszero\n        /* \"RealEstatePriceDetails.sol\":1106:1173  msg.sender != s_automationForwarderAddress && msg.sender != owner() */\n    tag_59:\n        /* \"RealEstatePriceDetails.sol\":1102:1246  if (msg.sender != s_automationForwarderAddress && msg.sender != owner()) {... */\n      iszero\n      tag_61\n      jumpi\n        /* \"RealEstatePriceDetails.sol\":1196:1235  OnlyAutomationForwarderOrOwnerCanCall() */\n      mload(0x40)\n      shl(0xe2, 0x02dc7d2f)\n      dup2\n      mstore\n      0x04\n      add\n      mload(0x40)\n      dup1\n      swap2\n      sub\n      swap1\n      revert\n        /* \"RealEstatePriceDetails.sol\":1102:1246  if (msg.sender != s_automationForwarderAddress && msg.sender != owner()) {... */\n    tag_61:\n        /* \"RealEstatePriceDetails.sol\":1740:1775  FunctionsRequest.Request memory req */\n      tag_63\n      0x40\n      dup1\n      mload\n      0xe0\n      dup2\n      add\n      swap1\n      swap2\n      mstore\n      dup1\n      0x00\n      dup2\n      mstore\n      0x20\n      add\n      0x00\n      dup2\n      mstore\n      0x20\n      add\n      0x00\n      dup2\n      mstore\n      0x20\n      add\n      0x60\n      dup2\n      mstore\n      0x20\n      add\n      0x60\n      dup2\n      mstore\n      0x20\n      add\n      0x60\n      dup2\n      mstore\n      0x20\n      add\n      0x60\n      dup2\n      mstore\n      pop\n      swap1\n      jump\n    tag_63:\n        /* \"RealEstatePriceDetails.sol\":1785:1843  req.initializeRequestForInlineJavaScript(this.getPrices()) */\n      tag_65\n        /* \"RealEstatePriceDetails.sol\":1826:1830  this */\n      address\n      sub(shl(0xa0, 0x01), 0x01)\n        /* \"RealEstatePriceDetails.sol\":1826:1840  this.getPrices */\n      and\n      0xbd9a548b\n        /* \"RealEstatePriceDetails.sol\":1826:1842  this.getPrices() */\n      mload(0x40)\n      dup2\n      0xffffffff\n      and\n      0xe0\n      shl\n      dup2\n      mstore\n      0x04\n      add\n      0x00\n      mload(0x40)\n      dup1\n      dup4\n      sub\n      dup2\n      dup7\n      gas\n      staticcall\n      iszero\n      dup1\n      iszero\n      tag_67\n      jumpi\n      returndatasize\n      0x00\n      dup1\n      returndatacopy\n      revert(0x00, returndatasize)\n    tag_67:\n      pop\n      pop\n      pop\n      pop\n      mload(0x40)\n      returndatasize\n      0x00\n      dup3\n      returndatacopy\n      0x1f\n      returndatasize\n      swap1\n      dup2\n      add\n      not(0x1f)\n      and\n      dup3\n      add\n      0x40\n      mstore\n      tag_68\n      swap2\n      swap1\n      dup2\n      add\n      swap1\n      tag_69\n      jump\t// in\n    tag_68:\n        /* \"RealEstatePriceDetails.sol\":1785:1788  req */\n      dup3\n      swap1\n        /* \"RealEstatePriceDetails.sol\":1785:1825  req.initializeRequestForInlineJavaScript */\n      tag_70\n        /* \"RealEstatePriceDetails.sol\":1785:1843  req.initializeRequestForInlineJavaScript(this.getPrices()) */\n      jump\t// in\n    tag_65:\n        /* \"RealEstatePriceDetails.sol\":1877:1892  new string[](1) */\n      0x40\n      dup1\n      mload\n        /* \"RealEstatePriceDetails.sol\":1890:1891  1 */\n      0x01\n        /* \"RealEstatePriceDetails.sol\":1877:1892  new string[](1) */\n      dup1\n      dup3\n      mstore\n      dup2\n      dup4\n      add\n      swap1\n      swap3\n      mstore\n        /* \"RealEstatePriceDetails.sol\":1854:1874  string[] memory args */\n      0x00\n      swap2\n        /* \"RealEstatePriceDetails.sol\":1877:1892  new string[](1) */\n      dup2\n      0x20\n      add\n    tag_75:\n      0x60\n      dup2\n      mstore\n      0x20\n      add\n      swap1\n      0x01\n      swap1\n      sub\n      swap1\n      dup2\n      tag_75\n      jumpi\n      swap1\n      pop\n      pop\n        /* \"RealEstatePriceDetails.sol\":1854:1892  string[] memory args = new string[](1) */\n      swap1\n      pop\n        /* \"RealEstatePriceDetails.sol\":1912:1919  tokenId */\n      dup7\n        /* \"RealEstatePriceDetails.sol\":1902:1906  args */\n      dup2\n        /* \"RealEstatePriceDetails.sol\":1907:1908  0 */\n      0x00\n        /* \"RealEstatePriceDetails.sol\":1902:1909  args[0] */\n      dup2\n      mload\n      dup2\n      lt\n      tag_77\n      jumpi\n      tag_77\n      tag_78\n      jump\t// in\n    tag_77:\n      0x20\n      swap1\n      dup2\n      mul\n      swap2\n      swap1\n      swap2\n      add\n      add\n        /* \"RealEstatePriceDetails.sol\":1902:1919  args[0] = tokenId */\n      mstore\n        /* \"RealEstatePriceDetails.sol\":1930:1947  req.setArgs(args) */\n      tag_79\n        /* \"RealEstatePriceDetails.sol\":1930:1933  req */\n      dup3\n        /* \"RealEstatePriceDetails.sol\":1942:1946  args */\n      dup3\n        /* \"RealEstatePriceDetails.sol\":1930:1941  req.setArgs */\n      tag_80\n        /* \"RealEstatePriceDetails.sol\":1930:1947  req.setArgs(args) */\n      jump\t// in\n    tag_79:\n        /* \"RealEstatePriceDetails.sol\":1970:2033  _sendRequest(req.encodeCBOR(), subscriptionId, gasLimit, donID) */\n      tag_81\n        /* \"RealEstatePriceDetails.sol\":1983:1999  req.encodeCBOR() */\n      tag_82\n        /* \"RealEstatePriceDetails.sol\":1983:1986  req */\n      dup4\n        /* \"RealEstatePriceDetails.sol\":1983:1997  req.encodeCBOR */\n      tag_83\n        /* \"RealEstatePriceDetails.sol\":1983:1999  req.encodeCBOR() */\n      jump\t// in\n    tag_82:\n        /* \"RealEstatePriceDetails.sol\":2001:2015  subscriptionId */\n      dup8\n        /* \"RealEstatePriceDetails.sol\":2017:2025  gasLimit */\n      dup8\n        /* \"RealEstatePriceDetails.sol\":2027:2032  donID */\n      dup8\n        /* \"RealEstatePriceDetails.sol\":1970:1982  _sendRequest */\n      tag_84\n        /* \"RealEstatePriceDetails.sol\":1970:2033  _sendRequest(req.encodeCBOR(), subscriptionId, gasLimit, donID) */\n      jump\t// in\n    tag_81:\n        /* \"RealEstatePriceDetails.sol\":1958:2033  requestId = _sendRequest(req.encodeCBOR(), subscriptionId, gasLimit, donID) */\n      swap8\n        /* \"RealEstatePriceDetails.sol\":1528:2040  function updatePriceDetails(string memory tokenId, uint64 subscriptionId, uint32 gasLimit, bytes32 donID)... */\n      swap7\n      pop\n      pop\n      pop\n      pop\n      pop\n      pop\n      pop\n      jump\t// out\n        /* \"FunctionsSource.sol\":1646:2481  string public getPrices =... */\n    tag_30:\n      0x01\n      dup1\n      sload\n      tag_85\n      swap1\n      tag_86\n      jump\t// in\n    tag_85:\n      dup1\n      0x1f\n      add\n      0x20\n      dup1\n      swap2\n      div\n      mul\n      0x20\n      add\n      mload(0x40)\n      swap1\n      dup2\n      add\n      0x40\n      mstore\n      dup1\n      swap3\n      swap2\n      swap1\n      dup2\n      dup2\n      mstore\n      0x20\n      add\n      dup3\n      dup1\n      sload\n      tag_87\n      swap1\n      tag_86\n      jump\t// in\n    tag_87:\n      dup1\n      iszero\n      tag_88\n      jumpi\n      dup1\n      0x1f\n      lt\n      tag_89\n      jumpi\n      0x0100\n      dup1\n      dup4\n      sload\n      div\n      mul\n      dup4\n      mstore\n      swap2\n      0x20\n      add\n      swap2\n      jump(tag_88)\n    tag_89:\n      dup3\n      add\n      swap2\n      swap1\n      0x00\n      mstore\n      keccak256(0x00, 0x20)\n      swap1\n    tag_90:\n      dup2\n      sload\n      dup2\n      mstore\n      swap1\n      0x01\n      add\n      swap1\n      0x20\n      add\n      dup1\n      dup4\n      gt\n      tag_90\n      jumpi\n      dup3\n      swap1\n      sub\n      0x1f\n      and\n      dup3\n      add\n      swap2\n    tag_88:\n      pop\n      pop\n      pop\n      pop\n      pop\n      dup2\n      jump\t// out\n        /* \"RealEstatePriceDetails.sol\":1361:1522  function setAutomationForwarder(address automationForwarderAddress) external onlyOwner {... */\n    tag_36:\n        /* \"@chainlink/contracts-ccip/src/v0.8/shared/access/ConfirmedOwnerWithProposal.sol\":2075:2095  _validateOwnership() */\n      tag_92\n        /* \"@chainlink/contracts-ccip/src/v0.8/shared/access/ConfirmedOwnerWithProposal.sol\":2075:2093  _validateOwnership */\n      tag_93\n        /* \"@chainlink/contracts-ccip/src/v0.8/shared/access/ConfirmedOwnerWithProposal.sol\":2075:2095  _validateOwnership() */\n      jump\t// in\n    tag_92:\n        /* \"RealEstatePriceDetails.sol\":1458:1486  s_automationForwarderAddress */\n      0x04\n        /* \"RealEstatePriceDetails.sol\":1458:1515  s_automationForwarderAddress = automationForwarderAddress */\n      dup1\n      sload\n      not(sub(shl(0xa0, 0x01), 0x01))\n      and\n      sub(shl(0xa0, 0x01), 0x01)\n      swap3\n      swap1\n      swap3\n      and\n      swap2\n      swap1\n      swap2\n      or\n      swap1\n      sstore\n        /* \"RealEstatePriceDetails.sol\":1361:1522  function setAutomationForwarder(address automationForwarderAddress) external onlyOwner {... */\n      jump\t// out\n        /* \"FunctionsSource.sol\":273:1639  string public getNftMetadata =... */\n    tag_38:\n      0x00\n      dup1\n      sload\n      tag_85\n      swap1\n      tag_86\n      jump\t// in\n        /* \"@chainlink/contracts-ccip/src/v0.8/shared/access/ConfirmedOwnerWithProposal.sol\":847:945  function transferOwnership(address to) public override onlyOwner {... */\n    tag_48:\n        /* \"@chainlink/contracts-ccip/src/v0.8/shared/access/ConfirmedOwnerWithProposal.sol\":2075:2095  _validateOwnership() */\n      tag_104\n        /* \"@chainlink/contracts-ccip/src/v0.8/shared/access/ConfirmedOwnerWithProposal.sol\":2075:2093  _validateOwnership */\n      tag_93\n        /* \"@chainlink/contracts-ccip/src/v0.8/shared/access/ConfirmedOwnerWithProposal.sol\":2075:2095  _validateOwnership() */\n      jump\t// in\n    tag_104:\n        /* \"@chainlink/contracts-ccip/src/v0.8/shared/access/ConfirmedOwnerWithProposal.sol\":918:940  _transferOwnership(to) */\n      tag_106\n        /* \"@chainlink/contracts-ccip/src/v0.8/shared/access/ConfirmedOwnerWithProposal.sol\":937:939  to */\n      dup2\n        /* \"@chainlink/contracts-ccip/src/v0.8/shared/access/ConfirmedOwnerWithProposal.sol\":918:936  _transferOwnership */\n      tag_107\n        /* \"@chainlink/contracts-ccip/src/v0.8/shared/access/ConfirmedOwnerWithProposal.sol\":918:940  _transferOwnership(to) */\n      jump\t// in\n    tag_106:\n        /* \"@chainlink/contracts-ccip/src/v0.8/shared/access/ConfirmedOwnerWithProposal.sol\":847:945  function transferOwnership(address to) public override onlyOwner {... */\n      pop\n      jump\t// out\n        /* \"RealEstatePriceDetails.sol\":2185:2762  function fulfillRequest(bytes32, /*requestId*/ bytes memory response, bytes memory err) internal override {... */\n    tag_52:\n        /* \"RealEstatePriceDetails.sol\":2305:2315  err.length */\n      dup1\n      mload\n        /* \"RealEstatePriceDetails.sol\":2305:2320  err.length != 0 */\n      iszero\n        /* \"RealEstatePriceDetails.sol\":2301:2366  if (err.length != 0) {... */\n      tag_109\n      jumpi\n        /* \"RealEstatePriceDetails.sol\":2350:2353  err */\n      dup1\n        /* \"RealEstatePriceDetails.sol\":2336:2355  revert(string(err)) */\n      mload(0x40)\n      shl(0xe5, 0x461bcd)\n      dup2\n      mstore\n      0x04\n      add\n      tag_55\n      swap2\n      swap1\n      tag_32\n      jump\t// in\n        /* \"RealEstatePriceDetails.sol\":2301:2366  if (err.length != 0) {... */\n    tag_109:\n        /* \"RealEstatePriceDetails.sol\":2377:2392  uint256 tokenId */\n      0x00\n        /* \"RealEstatePriceDetails.sol\":2394:2411  uint256 listPrice */\n      dup1\n        /* \"RealEstatePriceDetails.sol\":2413:2438  uint256 originalListPrice */\n      0x00\n        /* \"RealEstatePriceDetails.sol\":2440:2464  uint256 taxAssessedValue */\n      dup1\n        /* \"RealEstatePriceDetails.sol\":2491:2499  response */\n      dup6\n        /* \"RealEstatePriceDetails.sol\":2480:2538  abi.decode(response, (uint256, uint256, uint256, uint256)) */\n      dup1\n      0x20\n      add\n      swap1\n      mload\n      dup2\n      add\n      swap1\n      tag_111\n      swap2\n      swap1\n      tag_112\n      jump\t// in\n    tag_111:\n        /* \"RealEstatePriceDetails.sol\":2575:2755  PriceDetails({... */\n      0x40\n      dup1\n      mload\n      0x60\n      dup2\n      add\n      dup3\n      mstore\n      0xffffffffffffffffffff\n      swap5\n      dup6\n      and\n      dup2\n      mstore\n      swap3\n      dup5\n      and\n      0x20\n      dup1\n      dup6\n      add\n      swap2\n      dup3\n      mstore\n      swap3\n      dup6\n      and\n      dup5\n      dup4\n      add\n      swap1\n      dup2\n      mstore\n      0x00\n        /* \"RealEstatePriceDetails.sol\":2549:2572  s_priceDetails[tokenId] */\n      swap7\n      dup8\n      mstore\n        /* \"RealEstatePriceDetails.sol\":2549:2563  s_priceDetails */\n      0x05\n        /* \"RealEstatePriceDetails.sol\":2549:2572  s_priceDetails[tokenId] */\n      swap1\n      swap4\n      mstore\n      swap5\n      keccak256\n        /* \"RealEstatePriceDetails.sol\":2549:2755  s_priceDetails[tokenId] = PriceDetails({... */\n      swap2\n      mload\n      dup3\n      sload\n      swap5\n      mload\n      swap2\n      mload\n      dup5\n      and\n      shl(0xa0, 0x01)\n      mul\n      not(shl(0xa0, 0xffffffffffffffffffff))\n      swap3\n      dup6\n      and\n      shl(0x50, 0x01)\n      mul\n      not(sub(shl(0xa0, 0x01), 0x01))\n      swap1\n      swap7\n      and\n      swap2\n      swap1\n      swap5\n      and\n      or\n      swap4\n      swap1\n      swap4\n      or\n      swap3\n      swap1\n      swap3\n      and\n      or\n      swap1\n      sstore\n      pop\n      pop\n      pop\n      pop\n      pop\n      pop\n      pop\n        /* \"RealEstatePriceDetails.sol\":2185:2762  function fulfillRequest(bytes32, /*requestId*/ bytes memory response, bytes memory err) internal override {... */\n      jump\t// out\n        /* \"@chainlink/contracts/src/v0.8/functions/v1_0_0/libraries/FunctionsRequest.sol\":4323:4530  function initializeRequestForInlineJavaScript(Request memory self, string memory javaScriptSource) internal pure {... */\n    tag_70:\n        /* \"@chainlink/contracts/src/v0.8/functions/v1_0_0/libraries/FunctionsRequest.sol\":4442:4525  initializeRequest(self, Location.Inline, CodeLanguage.JavaScript, javaScriptSource) */\n      tag_114\n        /* \"@chainlink/contracts/src/v0.8/functions/v1_0_0/libraries/FunctionsRequest.sol\":4460:4464  self */\n      dup3\n        /* \"@chainlink/contracts/src/v0.8/functions/v1_0_0/libraries/FunctionsRequest.sol\":4466:4481  Location.Inline */\n      0x00\n        /* \"@chainlink/contracts/src/v0.8/functions/v1_0_0/libraries/FunctionsRequest.sol\":4483:4506  CodeLanguage.JavaScript */\n      dup1\n        /* \"@chainlink/contracts/src/v0.8/functions/v1_0_0/libraries/FunctionsRequest.sol\":4508:4524  javaScriptSource */\n      dup5\n        /* \"@chainlink/contracts/src/v0.8/functions/v1_0_0/libraries/FunctionsRequest.sol\":4442:4459  initializeRequest */\n      tag_115\n        /* \"@chainlink/contracts/src/v0.8/functions/v1_0_0/libraries/FunctionsRequest.sol\":4442:4525  initializeRequest(self, Location.Inline, CodeLanguage.JavaScript, javaScriptSource) */\n      jump\t// in\n    tag_114:\n        /* \"@chainlink/contracts/src/v0.8/functions/v1_0_0/libraries/FunctionsRequest.sol\":4323:4530  function initializeRequestForInlineJavaScript(Request memory self, string memory javaScriptSource) internal pure {... */\n      pop\n      pop\n      jump\t// out\n        /* \"@chainlink/contracts/src/v0.8/functions/v1_0_0/libraries/FunctionsRequest.sol\":5827:5975  function setArgs(Request memory self, string[] memory args) internal pure {... */\n    tag_80:\n        /* \"@chainlink/contracts/src/v0.8/functions/v1_0_0/libraries/FunctionsRequest.sol\":5911:5915  args */\n      dup1\n        /* \"@chainlink/contracts/src/v0.8/functions/v1_0_0/libraries/FunctionsRequest.sol\":5911:5922  args.length */\n      mload\n        /* \"@chainlink/contracts/src/v0.8/functions/v1_0_0/libraries/FunctionsRequest.sol\":5926:5927  0 */\n      0x00\n        /* \"@chainlink/contracts/src/v0.8/functions/v1_0_0/libraries/FunctionsRequest.sol\":5911:5927  args.length == 0 */\n      sub\n        /* \"@chainlink/contracts/src/v0.8/functions/v1_0_0/libraries/FunctionsRequest.sol\":5907:5947  if (args.length == 0) revert EmptyArgs() */\n      tag_117\n      jumpi\n        /* \"@chainlink/contracts/src/v0.8/functions/v1_0_0/libraries/FunctionsRequest.sol\":5936:5947  EmptyArgs() */\n      mload(0x40)\n      shl(0xe0, 0xfe936cb7)\n      dup2\n      mstore\n      0x04\n      add\n      mload(0x40)\n      dup1\n      swap2\n      sub\n      swap1\n      revert\n        /* \"@chainlink/contracts/src/v0.8/functions/v1_0_0/libraries/FunctionsRequest.sol\":5907:5947  if (args.length == 0) revert EmptyArgs() */\n    tag_117:\n        /* \"@chainlink/contracts/src/v0.8/functions/v1_0_0/libraries/FunctionsRequest.sol\":5954:5963  self.args */\n      0xa0\n      swap1\n      swap2\n      add\n        /* \"@chainlink/contracts/src/v0.8/functions/v1_0_0/libraries/FunctionsRequest.sol\":5954:5970  self.args = args */\n      mstore\n        /* \"@chainlink/contracts/src/v0.8/functions/v1_0_0/libraries/FunctionsRequest.sol\":5827:5975  function setArgs(Request memory self, string[] memory args) internal pure {... */\n      jump\t// out\n        /* \"@chainlink/contracts/src/v0.8/functions/v1_0_0/libraries/FunctionsRequest.sol\":2158:3428  function encodeCBOR(Request memory self) internal pure returns (bytes memory) {... */\n    tag_83:\n        /* \"@chainlink/contracts/src/v0.8/functions/v1_0_0/libraries/FunctionsRequest.sol\":2222:2234  bytes memory */\n      0x60\n        /* \"@chainlink/contracts/src/v0.8/functions/v1_0_0/libraries/FunctionsRequest.sol\":2242:2271  CBOR.CBORBuffer memory buffer */\n      0x00\n        /* \"@chainlink/contracts/src/v0.8/functions/v1_0_0/libraries/FunctionsRequest.sol\":2274:2306  CBOR.create(DEFAULT_BUFFER_SIZE) */\n      tag_119\n        /* \"@chainlink/contracts/src/v0.8/functions/v1_0_0/libraries/FunctionsRequest.sol\":375:378  256 */\n      0x0100\n        /* \"@chainlink/contracts/src/v0.8/functions/v1_0_0/libraries/FunctionsRequest.sol\":2274:2285  CBOR.create */\n      tag_120\n        /* \"@chainlink/contracts/src/v0.8/functions/v1_0_0/libraries/FunctionsRequest.sol\":2274:2306  CBOR.create(DEFAULT_BUFFER_SIZE) */\n      jump\t// in\n    tag_119:\n        /* \"@chainlink/contracts/src/v0.8/functions/v1_0_0/libraries/FunctionsRequest.sol\":2242:2306  CBOR.CBORBuffer memory buffer = CBOR.create(DEFAULT_BUFFER_SIZE) */\n      swap1\n      pop\n        /* \"@chainlink/contracts/src/v0.8/functions/v1_0_0/libraries/FunctionsRequest.sol\":2313:2347  buffer.writeString(\"codeLocation\") */\n      tag_121\n      mload(0x40)\n      dup1\n      0x40\n      add\n      0x40\n      mstore\n      dup1\n      0x0c\n      dup2\n      mstore\n      0x20\n      add\n      shl(0xa1, 0x31b7b232a637b1b0ba34b7b7)\n      dup2\n      mstore\n      pop\n        /* \"@chainlink/contracts/src/v0.8/functions/v1_0_0/libraries/FunctionsRequest.sol\":2313:2319  buffer */\n      dup3\n        /* \"@chainlink/contracts/src/v0.8/functions/v1_0_0/libraries/FunctionsRequest.sol\":2313:2331  buffer.writeString */\n      tag_122\n      swap1\n        /* \"@chainlink/contracts/src/v0.8/functions/v1_0_0/libraries/FunctionsRequest.sol\":2313:2347  buffer.writeString(\"codeLocation\") */\n      swap2\n      swap1\n      0xffffffff\n      and\n      jump\t// in\n    tag_121:\n        /* \"@chainlink/contracts/src/v0.8/functions/v1_0_0/libraries/FunctionsRequest.sol\":2381:2398  self.codeLocation */\n      dup3\n      mload\n        /* \"@chainlink/contracts/src/v0.8/functions/v1_0_0/libraries/FunctionsRequest.sol\":2353:2400  buffer.writeUInt256(uint256(self.codeLocation)) */\n      tag_123\n      swap1\n        /* \"@chainlink/contracts/src/v0.8/functions/v1_0_0/libraries/FunctionsRequest.sol\":2373:2399  uint256(self.codeLocation) */\n      0x02\n      dup2\n      gt\n      iszero\n      tag_125\n      jumpi\n      tag_125\n      tag_126\n      jump\t// in\n    tag_125:\n        /* \"@chainlink/contracts/src/v0.8/functions/v1_0_0/libraries/FunctionsRequest.sol\":2353:2359  buffer */\n      dup3\n      swap1\n        /* \"@chainlink/contracts/src/v0.8/functions/v1_0_0/libraries/FunctionsRequest.sol\":2353:2372  buffer.writeUInt256 */\n      tag_127\n        /* \"@chainlink/contracts/src/v0.8/functions/v1_0_0/libraries/FunctionsRequest.sol\":2353:2400  buffer.writeUInt256(uint256(self.codeLocation)) */\n      jump\t// in\n    tag_123:\n        /* \"@chainlink/contracts/src/v0.8/functions/v1_0_0/libraries/FunctionsRequest.sol\":2407:2437  buffer.writeString(\"language\") */\n      0x40\n      dup1\n      mload\n      dup1\n      dup3\n      add\n      swap1\n      swap2\n      mstore\n      0x08\n      dup2\n      mstore\n      shl(0xc0, 0x6c616e6775616765)\n      0x20\n      dup3\n      add\n      mstore\n      tag_128\n      swap1\n        /* \"@chainlink/contracts/src/v0.8/functions/v1_0_0/libraries/FunctionsRequest.sol\":2407:2413  buffer */\n      dup3\n      swap1\n        /* \"@chainlink/contracts/src/v0.8/functions/v1_0_0/libraries/FunctionsRequest.sol\":2407:2425  buffer.writeString */\n      tag_122\n        /* \"@chainlink/contracts/src/v0.8/functions/v1_0_0/libraries/FunctionsRequest.sol\":2407:2437  buffer.writeString(\"language\") */\n      jump\t// in\n    tag_128:\n        /* \"@chainlink/contracts/src/v0.8/functions/v1_0_0/libraries/FunctionsRequest.sol\":2471:2484  self.language */\n      0x40\n      dup4\n      add\n      mload\n        /* \"@chainlink/contracts/src/v0.8/functions/v1_0_0/libraries/FunctionsRequest.sol\":2443:2486  buffer.writeUInt256(uint256(self.language)) */\n      tag_129\n      swap1\n        /* \"@chainlink/contracts/src/v0.8/functions/v1_0_0/libraries/FunctionsRequest.sol\":2463:2485  uint256(self.language) */\n      dup1\n      iszero\n      tag_125\n      jumpi\n      tag_125\n      tag_126\n      jump\t// in\n        /* \"@chainlink/contracts/src/v0.8/functions/v1_0_0/libraries/FunctionsRequest.sol\":2443:2486  buffer.writeUInt256(uint256(self.language)) */\n    tag_129:\n        /* \"@chainlink/contracts/src/v0.8/functions/v1_0_0/libraries/FunctionsRequest.sol\":2493:2521  buffer.writeString(\"source\") */\n      0x40\n      dup1\n      mload\n      dup1\n      dup3\n      add\n      swap1\n      swap2\n      mstore\n      0x06\n      dup2\n      mstore\n      shl(0xd0, 0x736f75726365)\n      0x20\n      dup3\n      add\n      mstore\n      tag_132\n      swap1\n        /* \"@chainlink/contracts/src/v0.8/functions/v1_0_0/libraries/FunctionsRequest.sol\":2493:2499  buffer */\n      dup3\n      swap1\n        /* \"@chainlink/contracts/src/v0.8/functions/v1_0_0/libraries/FunctionsRequest.sol\":2493:2511  buffer.writeString */\n      tag_122\n        /* \"@chainlink/contracts/src/v0.8/functions/v1_0_0/libraries/FunctionsRequest.sol\":2493:2521  buffer.writeString(\"source\") */\n      jump\t// in\n    tag_132:\n        /* \"@chainlink/contracts/src/v0.8/functions/v1_0_0/libraries/FunctionsRequest.sol\":2546:2557  self.source */\n      0x60\n      dup4\n      add\n      mload\n        /* \"@chainlink/contracts/src/v0.8/functions/v1_0_0/libraries/FunctionsRequest.sol\":2527:2558  buffer.writeString(self.source) */\n      tag_133\n      swap1\n        /* \"@chainlink/contracts/src/v0.8/functions/v1_0_0/libraries/FunctionsRequest.sol\":2527:2533  buffer */\n      dup3\n      swap1\n        /* \"@chainlink/contracts/src/v0.8/functions/v1_0_0/libraries/FunctionsRequest.sol\":2527:2545  buffer.writeString */\n      tag_122\n        /* \"@chainlink/contracts/src/v0.8/functions/v1_0_0/libraries/FunctionsRequest.sol\":2527:2558  buffer.writeString(self.source) */\n      jump\t// in\n    tag_133:\n        /* \"@chainlink/contracts/src/v0.8/functions/v1_0_0/libraries/FunctionsRequest.sol\":2569:2578  self.args */\n      0xa0\n      dup4\n      add\n      mload\n        /* \"@chainlink/contracts/src/v0.8/functions/v1_0_0/libraries/FunctionsRequest.sol\":2569:2585  self.args.length */\n      mload\n        /* \"@chainlink/contracts/src/v0.8/functions/v1_0_0/libraries/FunctionsRequest.sol\":2569:2589  self.args.length > 0 */\n      iszero\n        /* \"@chainlink/contracts/src/v0.8/functions/v1_0_0/libraries/FunctionsRequest.sol\":2565:2792  if (self.args.length > 0) {... */\n      tag_144\n      jumpi\n        /* \"@chainlink/contracts/src/v0.8/functions/v1_0_0/libraries/FunctionsRequest.sol\":2599:2625  buffer.writeString(\"args\") */\n      0x40\n      dup1\n      mload\n      dup1\n      dup3\n      add\n      swap1\n      swap2\n      mstore\n      0x04\n      dup2\n      mstore\n      shl(0xe0, 0x61726773)\n      0x20\n      dup3\n      add\n      mstore\n      tag_135\n      swap1\n        /* \"@chainlink/contracts/src/v0.8/functions/v1_0_0/libraries/FunctionsRequest.sol\":2599:2605  buffer */\n      dup3\n      swap1\n        /* \"@chainlink/contracts/src/v0.8/functions/v1_0_0/libraries/FunctionsRequest.sol\":2599:2617  buffer.writeString */\n      tag_122\n        /* \"@chainlink/contracts/src/v0.8/functions/v1_0_0/libraries/FunctionsRequest.sol\":2599:2625  buffer.writeString(\"args\") */\n      jump\t// in\n    tag_135:\n        /* \"@chainlink/contracts/src/v0.8/functions/v1_0_0/libraries/FunctionsRequest.sol\":2633:2652  buffer.startArray() */\n      tag_136\n        /* \"@chainlink/contracts/src/v0.8/functions/v1_0_0/libraries/FunctionsRequest.sol\":2633:2639  buffer */\n      dup2\n        /* \"@chainlink/contracts/src/v0.8/functions/v1_0_0/libraries/FunctionsRequest.sol\":2633:2650  buffer.startArray */\n      tag_137\n        /* \"@chainlink/contracts/src/v0.8/functions/v1_0_0/libraries/FunctionsRequest.sol\":2633:2652  buffer.startArray() */\n      jump\t// in\n    tag_136:\n        /* \"@chainlink/contracts/src/v0.8/functions/v1_0_0/libraries/FunctionsRequest.sol\":2665:2674  uint256 i */\n      0x00\n        /* \"@chainlink/contracts/src/v0.8/functions/v1_0_0/libraries/FunctionsRequest.sol\":2660:2758  for (uint256 i = 0; i < self.args.length; ++i) {... */\n    tag_138:\n        /* \"@chainlink/contracts/src/v0.8/functions/v1_0_0/libraries/FunctionsRequest.sol\":2684:2688  self */\n      dup4\n        /* \"@chainlink/contracts/src/v0.8/functions/v1_0_0/libraries/FunctionsRequest.sol\":2684:2693  self.args */\n      0xa0\n      add\n      mload\n        /* \"@chainlink/contracts/src/v0.8/functions/v1_0_0/libraries/FunctionsRequest.sol\":2684:2700  self.args.length */\n      mload\n        /* \"@chainlink/contracts/src/v0.8/functions/v1_0_0/libraries/FunctionsRequest.sol\":2680:2681  i */\n      dup2\n        /* \"@chainlink/contracts/src/v0.8/functions/v1_0_0/libraries/FunctionsRequest.sol\":2680:2700  i < self.args.length */\n      lt\n        /* \"@chainlink/contracts/src/v0.8/functions/v1_0_0/libraries/FunctionsRequest.sol\":2660:2758  for (uint256 i = 0; i < self.args.length; ++i) {... */\n      iszero\n      tag_139\n      jumpi\n        /* \"@chainlink/contracts/src/v0.8/functions/v1_0_0/libraries/FunctionsRequest.sol\":2717:2749  buffer.writeString(self.args[i]) */\n      tag_141\n        /* \"@chainlink/contracts/src/v0.8/functions/v1_0_0/libraries/FunctionsRequest.sol\":2736:2740  self */\n      dup5\n        /* \"@chainlink/contracts/src/v0.8/functions/v1_0_0/libraries/FunctionsRequest.sol\":2736:2745  self.args */\n      0xa0\n      add\n      mload\n        /* \"@chainlink/contracts/src/v0.8/functions/v1_0_0/libraries/FunctionsRequest.sol\":2746:2747  i */\n      dup3\n        /* \"@chainlink/contracts/src/v0.8/functions/v1_0_0/libraries/FunctionsRequest.sol\":2736:2748  self.args[i] */\n      dup2\n      mload\n      dup2\n      lt\n      tag_143\n      jumpi\n      tag_143\n      tag_78\n      jump\t// in\n    tag_143:\n      0x20\n      mul\n      0x20\n      add\n      add\n      mload\n        /* \"@chainlink/contracts/src/v0.8/functions/v1_0_0/libraries/FunctionsRequest.sol\":2717:2723  buffer */\n      dup4\n        /* \"@chainlink/contracts/src/v0.8/functions/v1_0_0/libraries/FunctionsRequest.sol\":2717:2735  buffer.writeString */\n      tag_122\n      swap1\n        /* \"@chainlink/contracts/src/v0.8/functions/v1_0_0/libraries/FunctionsRequest.sol\":2717:2749  buffer.writeString(self.args[i]) */\n      swap2\n      swap1\n      0xffffffff\n      and\n      jump\t// in\n    tag_141:\n        /* \"@chainlink/contracts/src/v0.8/functions/v1_0_0/libraries/FunctionsRequest.sol\":2702:2705  ++i */\n      0x01\n      add\n        /* \"@chainlink/contracts/src/v0.8/functions/v1_0_0/libraries/FunctionsRequest.sol\":2660:2758  for (uint256 i = 0; i < self.args.length; ++i) {... */\n      jump(tag_138)\n    tag_139:\n      pop\n        /* \"@chainlink/contracts/src/v0.8/functions/v1_0_0/libraries/FunctionsRequest.sol\":2765:2785  buffer.endSequence() */\n      tag_144\n        /* \"@chainlink/contracts/src/v0.8/functions/v1_0_0/libraries/FunctionsRequest.sol\":2765:2771  buffer */\n      dup2\n        /* \"@chainlink/contracts/src/v0.8/functions/v1_0_0/libraries/FunctionsRequest.sol\":2765:2783  buffer.endSequence */\n      tag_145\n        /* \"@chainlink/contracts/src/v0.8/functions/v1_0_0/libraries/FunctionsRequest.sol\":2765:2785  buffer.endSequence() */\n      jump\t// in\n    tag_144:\n        /* \"@chainlink/contracts/src/v0.8/functions/v1_0_0/libraries/FunctionsRequest.sol\":2802:2832  self.encryptedSecretsReference */\n      0x80\n      dup4\n      add\n      mload\n        /* \"@chainlink/contracts/src/v0.8/functions/v1_0_0/libraries/FunctionsRequest.sol\":2802:2839  self.encryptedSecretsReference.length */\n      mload\n        /* \"@chainlink/contracts/src/v0.8/functions/v1_0_0/libraries/FunctionsRequest.sol\":2802:2843  self.encryptedSecretsReference.length > 0 */\n      iszero\n        /* \"@chainlink/contracts/src/v0.8/functions/v1_0_0/libraries/FunctionsRequest.sol\":2798:3144  if (self.encryptedSecretsReference.length > 0) {... */\n      tag_157\n      jumpi\n        /* \"@chainlink/contracts/src/v0.8/functions/v1_0_0/libraries/FunctionsRequest.sol\":2881:2896  Location.Inline */\n      0x00\n        /* \"@chainlink/contracts/src/v0.8/functions/v1_0_0/libraries/FunctionsRequest.sol\":2857:2861  self */\n      dup4\n        /* \"@chainlink/contracts/src/v0.8/functions/v1_0_0/libraries/FunctionsRequest.sol\":2857:2877  self.secretsLocation */\n      0x20\n      add\n      mload\n        /* \"@chainlink/contracts/src/v0.8/functions/v1_0_0/libraries/FunctionsRequest.sol\":2857:2896  self.secretsLocation == Location.Inline */\n      0x02\n      dup2\n      gt\n      iszero\n      tag_150\n      jumpi\n      tag_150\n      tag_126\n      jump\t// in\n    tag_150:\n      sub\n        /* \"@chainlink/contracts/src/v0.8/functions/v1_0_0/libraries/FunctionsRequest.sol\":2853:2941  if (self.secretsLocation == Location.Inline) {... */\n      tag_151\n      jumpi\n        /* \"@chainlink/contracts/src/v0.8/functions/v1_0_0/libraries/FunctionsRequest.sol\":2915:2932  NoInlineSecrets() */\n      mload(0x40)\n      shl(0xe0, 0xa80d31f7)\n      dup2\n      mstore\n      0x04\n      add\n      mload(0x40)\n      dup1\n      swap2\n      sub\n      swap1\n      revert\n        /* \"@chainlink/contracts/src/v0.8/functions/v1_0_0/libraries/FunctionsRequest.sol\":2853:2941  if (self.secretsLocation == Location.Inline) {... */\n    tag_151:\n        /* \"@chainlink/contracts/src/v0.8/functions/v1_0_0/libraries/FunctionsRequest.sol\":2948:2985  buffer.writeString(\"secretsLocation\") */\n      0x40\n      dup1\n      mload\n      dup1\n      dup3\n      add\n      swap1\n      swap2\n      mstore\n      0x0f\n      dup2\n      mstore\n      shl(0x89, 0x39b2b1b932ba39a637b1b0ba34b7b7)\n      0x20\n      dup3\n      add\n      mstore\n      tag_152\n      swap1\n        /* \"@chainlink/contracts/src/v0.8/functions/v1_0_0/libraries/FunctionsRequest.sol\":2948:2954  buffer */\n      dup3\n      swap1\n        /* \"@chainlink/contracts/src/v0.8/functions/v1_0_0/libraries/FunctionsRequest.sol\":2948:2966  buffer.writeString */\n      tag_122\n        /* \"@chainlink/contracts/src/v0.8/functions/v1_0_0/libraries/FunctionsRequest.sol\":2948:2985  buffer.writeString(\"secretsLocation\") */\n      jump\t// in\n    tag_152:\n        /* \"@chainlink/contracts/src/v0.8/functions/v1_0_0/libraries/FunctionsRequest.sol\":2993:3043  buffer.writeUInt256(uint256(self.secretsLocation)) */\n      tag_153\n        /* \"@chainlink/contracts/src/v0.8/functions/v1_0_0/libraries/FunctionsRequest.sol\":3021:3025  self */\n      dup4\n        /* \"@chainlink/contracts/src/v0.8/functions/v1_0_0/libraries/FunctionsRequest.sol\":3021:3041  self.secretsLocation */\n      0x20\n      add\n      mload\n        /* \"@chainlink/contracts/src/v0.8/functions/v1_0_0/libraries/FunctionsRequest.sol\":3013:3042  uint256(self.secretsLocation) */\n      0x02\n      dup2\n      gt\n      iszero\n      tag_125\n      jumpi\n      tag_125\n      tag_126\n      jump\t// in\n        /* \"@chainlink/contracts/src/v0.8/functions/v1_0_0/libraries/FunctionsRequest.sol\":2993:3043  buffer.writeUInt256(uint256(self.secretsLocation)) */\n    tag_153:\n        /* \"@chainlink/contracts/src/v0.8/functions/v1_0_0/libraries/FunctionsRequest.sol\":3051:3080  buffer.writeString(\"secrets\") */\n      0x40\n      dup1\n      mload\n      dup1\n      dup3\n      add\n      swap1\n      swap2\n      mstore\n      0x07\n      dup2\n      mstore\n      shl(0xc8, 0x73656372657473)\n      0x20\n      dup3\n      add\n      mstore\n      tag_156\n      swap1\n        /* \"@chainlink/contracts/src/v0.8/functions/v1_0_0/libraries/FunctionsRequest.sol\":3051:3057  buffer */\n      dup3\n      swap1\n        /* \"@chainlink/contracts/src/v0.8/functions/v1_0_0/libraries/FunctionsRequest.sol\":3051:3069  buffer.writeString */\n      tag_122\n        /* \"@chainlink/contracts/src/v0.8/functions/v1_0_0/libraries/FunctionsRequest.sol\":3051:3080  buffer.writeString(\"secrets\") */\n      jump\t// in\n    tag_156:\n        /* \"@chainlink/contracts/src/v0.8/functions/v1_0_0/libraries/FunctionsRequest.sol\":3106:3136  self.encryptedSecretsReference */\n      0x80\n      dup4\n      add\n      mload\n        /* \"@chainlink/contracts/src/v0.8/functions/v1_0_0/libraries/FunctionsRequest.sol\":3088:3137  buffer.writeBytes(self.encryptedSecretsReference) */\n      tag_157\n      swap1\n        /* \"@chainlink/contracts/src/v0.8/functions/v1_0_0/libraries/FunctionsRequest.sol\":3088:3094  buffer */\n      dup3\n      swap1\n        /* \"@chainlink/contracts/src/v0.8/functions/v1_0_0/libraries/FunctionsRequest.sol\":3088:3105  buffer.writeBytes */\n      tag_158\n        /* \"@chainlink/contracts/src/v0.8/functions/v1_0_0/libraries/FunctionsRequest.sol\":3088:3137  buffer.writeBytes(self.encryptedSecretsReference) */\n      jump\t// in\n    tag_157:\n        /* \"@chainlink/contracts/src/v0.8/functions/v1_0_0/libraries/FunctionsRequest.sol\":3154:3168  self.bytesArgs */\n      0xc0\n      dup4\n      add\n      mload\n        /* \"@chainlink/contracts/src/v0.8/functions/v1_0_0/libraries/FunctionsRequest.sol\":3154:3175  self.bytesArgs.length */\n      mload\n        /* \"@chainlink/contracts/src/v0.8/functions/v1_0_0/libraries/FunctionsRequest.sol\":3154:3179  self.bytesArgs.length > 0 */\n      iszero\n        /* \"@chainlink/contracts/src/v0.8/functions/v1_0_0/libraries/FunctionsRequest.sol\":3150:3396  if (self.bytesArgs.length > 0) {... */\n      tag_168\n      jumpi\n        /* \"@chainlink/contracts/src/v0.8/functions/v1_0_0/libraries/FunctionsRequest.sol\":3189:3220  buffer.writeString(\"bytesArgs\") */\n      0x40\n      dup1\n      mload\n      dup1\n      dup3\n      add\n      swap1\n      swap2\n      mstore\n      0x09\n      dup2\n      mstore\n      shl(0xb8, 0x627974657341726773)\n      0x20\n      dup3\n      add\n      mstore\n      tag_160\n      swap1\n        /* \"@chainlink/contracts/src/v0.8/functions/v1_0_0/libraries/FunctionsRequest.sol\":3189:3195  buffer */\n      dup3\n      swap1\n        /* \"@chainlink/contracts/src/v0.8/functions/v1_0_0/libraries/FunctionsRequest.sol\":3189:3207  buffer.writeString */\n      tag_122\n        /* \"@chainlink/contracts/src/v0.8/functions/v1_0_0/libraries/FunctionsRequest.sol\":3189:3220  buffer.writeString(\"bytesArgs\") */\n      jump\t// in\n    tag_160:\n        /* \"@chainlink/contracts/src/v0.8/functions/v1_0_0/libraries/FunctionsRequest.sol\":3228:3247  buffer.startArray() */\n      tag_161\n        /* \"@chainlink/contracts/src/v0.8/functions/v1_0_0/libraries/FunctionsRequest.sol\":3228:3234  buffer */\n      dup2\n        /* \"@chainlink/contracts/src/v0.8/functions/v1_0_0/libraries/FunctionsRequest.sol\":3228:3245  buffer.startArray */\n      tag_137\n        /* \"@chainlink/contracts/src/v0.8/functions/v1_0_0/libraries/FunctionsRequest.sol\":3228:3247  buffer.startArray() */\n      jump\t// in\n    tag_161:\n        /* \"@chainlink/contracts/src/v0.8/functions/v1_0_0/libraries/FunctionsRequest.sol\":3260:3269  uint256 i */\n      0x00\n        /* \"@chainlink/contracts/src/v0.8/functions/v1_0_0/libraries/FunctionsRequest.sol\":3255:3362  for (uint256 i = 0; i < self.bytesArgs.length; ++i) {... */\n    tag_162:\n        /* \"@chainlink/contracts/src/v0.8/functions/v1_0_0/libraries/FunctionsRequest.sol\":3279:3283  self */\n      dup4\n        /* \"@chainlink/contracts/src/v0.8/functions/v1_0_0/libraries/FunctionsRequest.sol\":3279:3293  self.bytesArgs */\n      0xc0\n      add\n      mload\n        /* \"@chainlink/contracts/src/v0.8/functions/v1_0_0/libraries/FunctionsRequest.sol\":3279:3300  self.bytesArgs.length */\n      mload\n        /* \"@chainlink/contracts/src/v0.8/functions/v1_0_0/libraries/FunctionsRequest.sol\":3275:3276  i */\n      dup2\n        /* \"@chainlink/contracts/src/v0.8/functions/v1_0_0/libraries/FunctionsRequest.sol\":3275:3300  i < self.bytesArgs.length */\n      lt\n        /* \"@chainlink/contracts/src/v0.8/functions/v1_0_0/libraries/FunctionsRequest.sol\":3255:3362  for (uint256 i = 0; i < self.bytesArgs.length; ++i) {... */\n      iszero\n      tag_163\n      jumpi\n        /* \"@chainlink/contracts/src/v0.8/functions/v1_0_0/libraries/FunctionsRequest.sol\":3317:3353  buffer.writeBytes(self.bytesArgs[i]) */\n      tag_165\n        /* \"@chainlink/contracts/src/v0.8/functions/v1_0_0/libraries/FunctionsRequest.sol\":3335:3339  self */\n      dup5\n        /* \"@chainlink/contracts/src/v0.8/functions/v1_0_0/libraries/FunctionsRequest.sol\":3335:3349  self.bytesArgs */\n      0xc0\n      add\n      mload\n        /* \"@chainlink/contracts/src/v0.8/functions/v1_0_0/libraries/FunctionsRequest.sol\":3350:3351  i */\n      dup3\n        /* \"@chainlink/contracts/src/v0.8/functions/v1_0_0/libraries/FunctionsRequest.sol\":3335:3352  self.bytesArgs[i] */\n      dup2\n      mload\n      dup2\n      lt\n      tag_167\n      jumpi\n      tag_167\n      tag_78\n      jump\t// in\n    tag_167:\n      0x20\n      mul\n      0x20\n      add\n      add\n      mload\n        /* \"@chainlink/contracts/src/v0.8/functions/v1_0_0/libraries/FunctionsRequest.sol\":3317:3323  buffer */\n      dup4\n        /* \"@chainlink/contracts/src/v0.8/functions/v1_0_0/libraries/FunctionsRequest.sol\":3317:3334  buffer.writeBytes */\n      tag_158\n      swap1\n        /* \"@chainlink/contracts/src/v0.8/functions/v1_0_0/libraries/FunctionsRequest.sol\":3317:3353  buffer.writeBytes(self.bytesArgs[i]) */\n      swap2\n      swap1\n      0xffffffff\n      and\n      jump\t// in\n    tag_165:\n        /* \"@chainlink/contracts/src/v0.8/functions/v1_0_0/libraries/FunctionsRequest.sol\":3302:3305  ++i */\n      0x01\n      add\n        /* \"@chainlink/contracts/src/v0.8/functions/v1_0_0/libraries/FunctionsRequest.sol\":3255:3362  for (uint256 i = 0; i < self.bytesArgs.length; ++i) {... */\n      jump(tag_162)\n    tag_163:\n      pop\n        /* \"@chainlink/contracts/src/v0.8/functions/v1_0_0/libraries/FunctionsRequest.sol\":3369:3389  buffer.endSequence() */\n      tag_168\n        /* \"@chainlink/contracts/src/v0.8/functions/v1_0_0/libraries/FunctionsRequest.sol\":3369:3375  buffer */\n      dup2\n        /* \"@chainlink/contracts/src/v0.8/functions/v1_0_0/libraries/FunctionsRequest.sol\":3369:3387  buffer.endSequence */\n      tag_145\n        /* \"@chainlink/contracts/src/v0.8/functions/v1_0_0/libraries/FunctionsRequest.sol\":3369:3389  buffer.endSequence() */\n      jump\t// in\n    tag_168:\n        /* \"@chainlink/contracts/src/v0.8/functions/v1_0_0/libraries/FunctionsRequest.sol\":3409:3419  buffer.buf */\n      mload\n        /* \"@chainlink/contracts/src/v0.8/functions/v1_0_0/libraries/FunctionsRequest.sol\":3409:3423  buffer.buf.buf */\n      mload\n      swap3\n        /* \"@chainlink/contracts/src/v0.8/functions/v1_0_0/libraries/FunctionsRequest.sol\":2158:3428  function encodeCBOR(Request memory self) internal pure returns (bytes memory) {... */\n      swap2\n      pop\n      pop\n      jump\t// out\n        /* \"@chainlink/contracts/src/v0.8/functions/v1_0_0/FunctionsClient.sol\":1158:1537  function _sendRequest(... */\n    tag_84:\n        /* \"@chainlink/contracts/src/v0.8/functions/v1_0_0/FunctionsClient.sol\":1300:1307  bytes32 */\n      0x00\n        /* \"@chainlink/contracts/src/v0.8/functions/v1_0_0/FunctionsClient.sol\":1315:1332  bytes32 requestId */\n      dup1\n        /* \"@chainlink/contracts/src/v0.8/functions/v1_0_0/FunctionsClient.sol\":1335:1343  i_router */\n      immutable(\"0x6f613263a27c07dcf0f796f1c8181099a92e5eb2eae8c3bec65733e2d5818bb8\")\n      sub(shl(0xa0, 0x01), 0x01)\n        /* \"@chainlink/contracts/src/v0.8/functions/v1_0_0/FunctionsClient.sol\":1335:1355  i_router.sendRequest */\n      and\n      0x461d2762\n        /* \"@chainlink/contracts/src/v0.8/functions/v1_0_0/FunctionsClient.sol\":1363:1377  subscriptionId */\n      dup7\n        /* \"@chainlink/contracts/src/v0.8/functions/v1_0_0/FunctionsClient.sol\":1385:1389  data */\n      dup9\n        /* \"@chainlink/contracts/src/v0.8/functions/v1_0_0/libraries/FunctionsRequest.sol\":322:323  1 */\n      0x01\n        /* \"@chainlink/contracts/src/v0.8/functions/v1_0_0/FunctionsClient.sol\":1442:1458  callbackGasLimit */\n      dup9\n        /* \"@chainlink/contracts/src/v0.8/functions/v1_0_0/FunctionsClient.sol\":1466:1471  donId */\n      dup9\n        /* \"@chainlink/contracts/src/v0.8/functions/v1_0_0/FunctionsClient.sol\":1335:1477  i_router.sendRequest(... */\n      mload(0x40)\n      dup7\n      0xffffffff\n      and\n      0xe0\n      shl\n      dup2\n      mstore\n      0x04\n      add\n      tag_170\n      swap6\n      swap5\n      swap4\n      swap3\n      swap2\n      swap1\n      tag_171\n      jump\t// in\n    tag_170:\n      0x20\n      mload(0x40)\n      dup1\n      dup4\n      sub\n      dup2\n      0x00\n      dup8\n      gas\n      call\n      iszero\n      dup1\n      iszero\n      tag_173\n      jumpi\n      returndatasize\n      0x00\n      dup1\n      returndatacopy\n      revert(0x00, returndatasize)\n    tag_173:\n      pop\n      pop\n      pop\n      pop\n      mload(0x40)\n      returndatasize\n      not(0x1f)\n      0x1f\n      dup3\n      add\n      and\n      dup3\n      add\n      dup1\n      0x40\n      mstore\n      pop\n      dup2\n      add\n      swap1\n      tag_174\n      swap2\n      swap1\n      tag_175\n      jump\t// in\n    tag_174:\n        /* \"@chainlink/contracts/src/v0.8/functions/v1_0_0/FunctionsClient.sol\":1488:1510  RequestSent(requestId) */\n      mload(0x40)\n        /* \"@chainlink/contracts/src/v0.8/functions/v1_0_0/FunctionsClient.sol\":1315:1477  bytes32 requestId = i_router.sendRequest(... */\n      swap1\n      swap2\n      pop\n      dup2\n      swap1\n        /* \"@chainlink/contracts/src/v0.8/functions/v1_0_0/FunctionsClient.sol\":1488:1510  RequestSent(requestId) */\n      0x1131472297a800fee664d1d89cfa8f7676ff07189ecc53f80bbb5f4969099db8\n      swap1\n      0x00\n      swap1\n      log2\n        /* \"@chainlink/contracts/src/v0.8/functions/v1_0_0/FunctionsClient.sol\":1523:1532  requestId */\n      swap6\n        /* \"@chainlink/contracts/src/v0.8/functions/v1_0_0/FunctionsClient.sol\":1158:1537  function _sendRequest(... */\n      swap5\n      pop\n      pop\n      pop\n      pop\n      pop\n      jump\t// out\n        /* \"@chainlink/contracts-ccip/src/v0.8/shared/access/ConfirmedOwnerWithProposal.sol\":1809:1971  function _validateOwnership() internal view {... */\n    tag_93:\n        /* \"@chainlink/contracts-ccip/src/v0.8/shared/access/ConfirmedOwnerWithProposal.sol\":1932:1939  s_owner */\n      and(sub(shl(0xa0, 0x01), 0x01), sload(0x02))\n        /* \"@chainlink/contracts-ccip/src/v0.8/shared/access/ConfirmedOwnerWithProposal.sol\":1918:1928  msg.sender */\n      caller\n        /* \"@chainlink/contracts-ccip/src/v0.8/shared/access/ConfirmedOwnerWithProposal.sol\":1918:1939  msg.sender == s_owner */\n      eq\n        /* \"@chainlink/contracts-ccip/src/v0.8/shared/access/ConfirmedOwnerWithProposal.sol\":1910:1966  require(msg.sender == s_owner, \"Only callable by owner\") */\n      tag_177\n      jumpi\n      mload(0x40)\n      shl(0xe5, 0x461bcd)\n      dup2\n      mstore\n        /* \"#utility.yul\":8042:8044   */\n      0x20\n        /* \"@chainlink/contracts-ccip/src/v0.8/shared/access/ConfirmedOwnerWithProposal.sol\":1910:1966  require(msg.sender == s_owner, \"Only callable by owner\") */\n      0x04\n      dup3\n      add\n        /* \"#utility.yul\":8024:8045   */\n      mstore\n        /* \"#utility.yul\":8081:8083   */\n      0x16\n        /* \"#utility.yul\":8061:8079   */\n      0x24\n      dup3\n      add\n        /* \"#utility.yul\":8054:8084   */\n      mstore\n      shl(0x51, 0x27b7363c9031b0b63630b1363290313c9037bbb732b9)\n        /* \"#utility.yul\":8100:8118   */\n      0x44\n      dup3\n      add\n        /* \"#utility.yul\":8093:8145   */\n      mstore\n        /* \"#utility.yul\":8162:8180   */\n      0x64\n      add\n        /* \"@chainlink/contracts-ccip/src/v0.8/shared/access/ConfirmedOwnerWithProposal.sol\":1910:1966  require(msg.sender == s_owner, \"Only callable by owner\") */\n      tag_55\n        /* \"#utility.yul\":7840:8186   */\n      jump\n        /* \"@chainlink/contracts-ccip/src/v0.8/shared/access/ConfirmedOwnerWithProposal.sol\":1910:1966  require(msg.sender == s_owner, \"Only callable by owner\") */\n    tag_177:\n        /* \"@chainlink/contracts-ccip/src/v0.8/shared/access/ConfirmedOwnerWithProposal.sol\":1809:1971  function _validateOwnership() internal view {... */\n      jump\t// out\n        /* \"@chainlink/contracts-ccip/src/v0.8/shared/access/ConfirmedOwnerWithProposal.sol\":1536:1775  function _transferOwnership(address to) private {... */\n    tag_107:\n        /* \"@chainlink/contracts-ccip/src/v0.8/shared/access/ConfirmedOwnerWithProposal.sol\":1655:1665  msg.sender */\n      caller\n      sub(shl(0xa0, 0x01), 0x01)\n        /* \"@chainlink/contracts-ccip/src/v0.8/shared/access/ConfirmedOwnerWithProposal.sol\":1649:1665  to != msg.sender */\n      dup3\n      and\n      sub\n        /* \"@chainlink/contracts-ccip/src/v0.8/shared/access/ConfirmedOwnerWithProposal.sol\":1641:1693  require(to != msg.sender, \"Cannot transfer to self\") */\n      tag_181\n      jumpi\n      mload(0x40)\n      shl(0xe5, 0x461bcd)\n      dup2\n      mstore\n        /* \"#utility.yul\":8393:8395   */\n      0x20\n        /* \"@chainlink/contracts-ccip/src/v0.8/shared/access/ConfirmedOwnerWithProposal.sol\":1641:1693  require(to != msg.sender, \"Cannot transfer to self\") */\n      0x04\n      dup3\n      add\n        /* \"#utility.yul\":8375:8396   */\n      mstore\n        /* \"#utility.yul\":8432:8434   */\n      0x17\n        /* \"#utility.yul\":8412:8430   */\n      0x24\n      dup3\n      add\n        /* \"#utility.yul\":8405:8435   */\n      mstore\n        /* \"#utility.yul\":8471:8496   */\n      0x43616e6e6f74207472616e7366657220746f2073656c66000000000000000000\n        /* \"#utility.yul\":8451:8469   */\n      0x44\n      dup3\n      add\n        /* \"#utility.yul\":8444:8497   */\n      mstore\n        /* \"#utility.yul\":8514:8532   */\n      0x64\n      add\n        /* \"@chainlink/contracts-ccip/src/v0.8/shared/access/ConfirmedOwnerWithProposal.sol\":1641:1693  require(to != msg.sender, \"Cannot transfer to self\") */\n      tag_55\n        /* \"#utility.yul\":8191:8538   */\n      jump\n        /* \"@chainlink/contracts-ccip/src/v0.8/shared/access/ConfirmedOwnerWithProposal.sol\":1641:1693  require(to != msg.sender, \"Cannot transfer to self\") */\n    tag_181:\n        /* \"@chainlink/contracts-ccip/src/v0.8/shared/access/ConfirmedOwnerWithProposal.sol\":1700:1714  s_pendingOwner */\n      0x03\n        /* \"@chainlink/contracts-ccip/src/v0.8/shared/access/ConfirmedOwnerWithProposal.sol\":1700:1719  s_pendingOwner = to */\n      dup1\n      sload\n      not(sub(shl(0xa0, 0x01), 0x01))\n      and\n      sub(shl(0xa0, 0x01), 0x01)\n      dup4\n      dup2\n      and\n      swap2\n      dup3\n      or\n      swap1\n      swap3\n      sstore\n        /* \"@chainlink/contracts-ccip/src/v0.8/shared/access/ConfirmedOwnerWithProposal.sol\":1758:1765  s_owner */\n      sload(0x02)\n        /* \"@chainlink/contracts-ccip/src/v0.8/shared/access/ConfirmedOwnerWithProposal.sol\":1731:1770  OwnershipTransferRequested(s_owner, to) */\n      mload(0x40)\n        /* \"@chainlink/contracts-ccip/src/v0.8/shared/access/ConfirmedOwnerWithProposal.sol\":1700:1719  s_pendingOwner = to */\n      swap2\n      swap3\n        /* \"@chainlink/contracts-ccip/src/v0.8/shared/access/ConfirmedOwnerWithProposal.sol\":1758:1765  s_owner */\n      and\n      swap1\n        /* \"@chainlink/contracts-ccip/src/v0.8/shared/access/ConfirmedOwnerWithProposal.sol\":1731:1770  OwnershipTransferRequested(s_owner, to) */\n      0xed8889f560326eb138920d842192f0eb3dd22b4f139c87a2c57538e05bae1278\n      swap1\n      0x00\n      swap1\n      log3\n        /* \"@chainlink/contracts-ccip/src/v0.8/shared/access/ConfirmedOwnerWithProposal.sol\":1536:1775  function _transferOwnership(address to) private {... */\n      pop\n      jump\t// out\n        /* \"@chainlink/contracts/src/v0.8/functions/v1_0_0/libraries/FunctionsRequest.sol\":3777:4084  function initializeRequest(... */\n    tag_115:\n        /* \"@chainlink/contracts/src/v0.8/functions/v1_0_0/libraries/FunctionsRequest.sol\":3943:3949  source */\n      dup1\n        /* \"@chainlink/contracts/src/v0.8/functions/v1_0_0/libraries/FunctionsRequest.sol\":3937:3957  bytes(source).length */\n      mload\n        /* \"@chainlink/contracts/src/v0.8/functions/v1_0_0/libraries/FunctionsRequest.sol\":3961:3962  0 */\n      0x00\n        /* \"@chainlink/contracts/src/v0.8/functions/v1_0_0/libraries/FunctionsRequest.sol\":3937:3962  bytes(source).length == 0 */\n      sub\n        /* \"@chainlink/contracts/src/v0.8/functions/v1_0_0/libraries/FunctionsRequest.sol\":3933:3984  if (bytes(source).length == 0) revert EmptySource() */\n      tag_185\n      jumpi\n        /* \"@chainlink/contracts/src/v0.8/functions/v1_0_0/libraries/FunctionsRequest.sol\":3971:3984  EmptySource() */\n      mload(0x40)\n      shl(0xe0, 0x22ce3edd)\n      dup2\n      mstore\n      0x04\n      add\n      mload(0x40)\n      dup1\n      swap2\n      sub\n      swap1\n      revert\n        /* \"@chainlink/contracts/src/v0.8/functions/v1_0_0/libraries/FunctionsRequest.sol\":3933:3984  if (bytes(source).length == 0) revert EmptySource() */\n    tag_185:\n        /* \"@chainlink/contracts/src/v0.8/functions/v1_0_0/libraries/FunctionsRequest.sol\":3991:3995  self */\n      dup4\n        /* \"@chainlink/contracts/src/v0.8/functions/v1_0_0/libraries/FunctionsRequest.sol\":4011:4023  codeLocation */\n      dup4\n        /* \"@chainlink/contracts/src/v0.8/functions/v1_0_0/libraries/FunctionsRequest.sol\":3991:4023  self.codeLocation = codeLocation */\n      0x02\n      dup2\n      gt\n      iszero\n      tag_187\n      jumpi\n      tag_187\n      tag_126\n      jump\t// in\n    tag_187:\n      swap1\n      dup2\n      0x02\n      dup2\n      gt\n      iszero\n      tag_189\n      jumpi\n      tag_189\n      tag_126\n      jump\t// in\n    tag_189:\n      swap1\n      mstore\n      pop\n        /* \"@chainlink/contracts/src/v0.8/functions/v1_0_0/libraries/FunctionsRequest.sol\":4029:4042  self.language */\n      0x40\n      dup5\n      add\n        /* \"@chainlink/contracts/src/v0.8/functions/v1_0_0/libraries/FunctionsRequest.sol\":4045:4053  language */\n      dup3\n        /* \"@chainlink/contracts/src/v0.8/functions/v1_0_0/libraries/FunctionsRequest.sol\":4029:4053  self.language = language */\n      dup1\n      iszero\n      tag_191\n      jumpi\n      tag_191\n      tag_126\n      jump\t// in\n    tag_191:\n      swap1\n      dup2\n      dup1\n      iszero\n      tag_193\n      jumpi\n      tag_193\n      tag_126\n      jump\t// in\n    tag_193:\n      swap1\n      mstore\n      pop\n        /* \"@chainlink/contracts/src/v0.8/functions/v1_0_0/libraries/FunctionsRequest.sol\":4059:4070  self.source */\n      0x60\n      swap1\n      swap4\n      add\n        /* \"@chainlink/contracts/src/v0.8/functions/v1_0_0/libraries/FunctionsRequest.sol\":4059:4079  self.source = source */\n      swap3\n      swap1\n      swap3\n      mstore\n      pop\n      pop\n        /* \"@chainlink/contracts/src/v0.8/functions/v1_0_0/libraries/FunctionsRequest.sol\":3777:4084  function initializeRequest(... */\n      jump\t// out\n        /* \"@chainlink/contracts/src/v0.8/vendor/solidity-cborutils/v2.0.0/CBOR.sol\":1490:1663  function create(uint256 capacity) internal pure returns(CBORBuffer memory cbor) {... */\n    tag_120:\n        /* \"@chainlink/contracts/src/v0.8/vendor/solidity-cborutils/v2.0.0/CBOR.sol\":1546:1568  CBORBuffer memory cbor */\n      tag_194\n      tag_195\n      jump\t// in\n    tag_194:\n        /* \"@chainlink/contracts/src/v0.8/vendor/solidity-cborutils/v2.0.0/CBOR.sol\":1592:1600  cbor.buf */\n      dup1\n      mload\n        /* \"@chainlink/contracts/src/v0.8/vendor/solidity-cborutils/v2.0.0/CBOR.sol\":1580:1611  Buffer.init(cbor.buf, capacity) */\n      tag_197\n      swap1\n        /* \"@chainlink/contracts/src/v0.8/vendor/solidity-cborutils/v2.0.0/CBOR.sol\":1602:1610  capacity */\n      dup4\n        /* \"@chainlink/contracts/src/v0.8/vendor/solidity-cborutils/v2.0.0/CBOR.sol\":1580:1591  Buffer.init */\n      tag_198\n        /* \"@chainlink/contracts/src/v0.8/vendor/solidity-cborutils/v2.0.0/CBOR.sol\":1580:1611  Buffer.init(cbor.buf, capacity) */\n      jump\t// in\n    tag_197:\n      pop\n        /* \"@chainlink/contracts/src/v0.8/vendor/solidity-cborutils/v2.0.0/CBOR.sol\":1634:1635  0 */\n      0x00\n        /* \"@chainlink/contracts/src/v0.8/vendor/solidity-cborutils/v2.0.0/CBOR.sol\":1621:1631  cbor.depth */\n      0x20\n      dup3\n      add\n        /* \"@chainlink/contracts/src/v0.8/vendor/solidity-cborutils/v2.0.0/CBOR.sol\":1621:1635  cbor.depth = 0 */\n      mstore\n        /* \"@chainlink/contracts/src/v0.8/vendor/solidity-cborutils/v2.0.0/CBOR.sol\":1621:1625  cbor */\n      swap2\n        /* \"@chainlink/contracts/src/v0.8/vendor/solidity-cborutils/v2.0.0/CBOR.sol\":1490:1663  function create(uint256 capacity) internal pure returns(CBORBuffer memory cbor) {... */\n      swap1\n      pop\n      jump\t// out\n        /* \"@chainlink/contracts/src/v0.8/vendor/solidity-cborutils/v2.0.0/CBOR.sol\":3021:3225  function writeString(CBORBuffer memory buf, string memory value) internal pure {... */\n    tag_122:\n        /* \"@chainlink/contracts/src/v0.8/vendor/solidity-cborutils/v2.0.0/CBOR.sol\":3110:3180  writeFixedNumeric(buf, MAJOR_TYPE_STRING, uint64(bytes(value).length)) */\n      tag_200\n        /* \"@chainlink/contracts/src/v0.8/vendor/solidity-cborutils/v2.0.0/CBOR.sol\":3128:3131  buf */\n      dup3\n        /* \"@chainlink/contracts/src/v0.8/vendor/solidity-cborutils/v2.0.0/CBOR.sol\":998:999  3 */\n      0x03\n        /* \"@chainlink/contracts/src/v0.8/vendor/solidity-cborutils/v2.0.0/CBOR.sol\":3165:3170  value */\n      dup4\n        /* \"@chainlink/contracts/src/v0.8/vendor/solidity-cborutils/v2.0.0/CBOR.sol\":3159:3178  bytes(value).length */\n      mload\n        /* \"@chainlink/contracts/src/v0.8/vendor/solidity-cborutils/v2.0.0/CBOR.sol\":3110:3127  writeFixedNumeric */\n      tag_201\n        /* \"@chainlink/contracts/src/v0.8/vendor/solidity-cborutils/v2.0.0/CBOR.sol\":3110:3180  writeFixedNumeric(buf, MAJOR_TYPE_STRING, uint64(bytes(value).length)) */\n      jump\t// in\n    tag_200:\n        /* \"@chainlink/contracts/src/v0.8/vendor/solidity-cborutils/v2.0.0/CBOR.sol\":3190:3197  buf.buf */\n      dup2\n      mload\n        /* \"@chainlink/contracts/src/v0.8/vendor/solidity-cborutils/v2.0.0/CBOR.sol\":3190:3218  buf.buf.append(bytes(value)) */\n      tag_202\n      swap1\n        /* \"@chainlink/contracts/src/v0.8/vendor/solidity-cborutils/v2.0.0/CBOR.sol\":3211:3216  value */\n      dup3\n        /* \"@chainlink/contracts/src/v0.8/vendor/solidity-cborutils/v2.0.0/CBOR.sol\":3190:3204  buf.buf.append */\n      tag_203\n        /* \"@chainlink/contracts/src/v0.8/vendor/solidity-cborutils/v2.0.0/CBOR.sol\":3190:3218  buf.buf.append(bytes(value)) */\n      jump\t// in\n    tag_202:\n      pop\n        /* \"@chainlink/contracts/src/v0.8/vendor/solidity-cborutils/v2.0.0/CBOR.sol\":3021:3225  function writeString(CBORBuffer memory buf, string memory value) internal pure {... */\n      pop\n      pop\n      jump\t// out\n        /* \"@chainlink/contracts/src/v0.8/vendor/solidity-cborutils/v2.0.0/CBOR.sol\":1832:2034  function writeUInt256(CBORBuffer memory buf, uint256 value) internal pure {... */\n    tag_127:\n        /* \"@chainlink/contracts/src/v0.8/vendor/solidity-cborutils/v2.0.0/CBOR.sol\":1916:1923  buf.buf */\n      dup2\n      mload\n        /* \"@chainlink/contracts/src/v0.8/vendor/solidity-cborutils/v2.0.0/CBOR.sol\":1916:1983  buf.buf.appendUint8(uint8((MAJOR_TYPE_TAG << 5) | TAG_TYPE_BIGNUM)) */\n      tag_205\n      swap1\n        /* \"@chainlink/contracts/src/v0.8/vendor/solidity-cborutils/v2.0.0/CBOR.sol\":1942:1981  (MAJOR_TYPE_TAG << 5) | TAG_TYPE_BIGNUM */\n      0xc2\n        /* \"@chainlink/contracts/src/v0.8/vendor/solidity-cborutils/v2.0.0/CBOR.sol\":1916:1935  buf.buf.appendUint8 */\n      tag_206\n        /* \"@chainlink/contracts/src/v0.8/vendor/solidity-cborutils/v2.0.0/CBOR.sol\":1916:1983  buf.buf.appendUint8(uint8((MAJOR_TYPE_TAG << 5) | TAG_TYPE_BIGNUM)) */\n      jump\t// in\n    tag_205:\n      pop\n        /* \"@chainlink/contracts/src/v0.8/vendor/solidity-cborutils/v2.0.0/CBOR.sol\":1993:2027  writeBytes(buf, abi.encode(value)) */\n      tag_114\n        /* \"@chainlink/contracts/src/v0.8/vendor/solidity-cborutils/v2.0.0/CBOR.sol\":2004:2007  buf */\n      dup3\n        /* \"@chainlink/contracts/src/v0.8/vendor/solidity-cborutils/v2.0.0/CBOR.sol\":2020:2025  value */\n      dup3\n        /* \"@chainlink/contracts/src/v0.8/vendor/solidity-cborutils/v2.0.0/CBOR.sol\":2009:2026  abi.encode(value) */\n      add(0x20, mload(0x40))\n      tag_208\n      swap2\n        /* \"#utility.yul\":3114:3139   */\n      dup2\n      mstore\n        /* \"#utility.yul\":3102:3104   */\n      0x20\n        /* \"#utility.yul\":3087:3105   */\n      add\n      swap1\n        /* \"#utility.yul\":2968:3145   */\n      jump\n        /* \"@chainlink/contracts/src/v0.8/vendor/solidity-cborutils/v2.0.0/CBOR.sol\":2009:2026  abi.encode(value) */\n    tag_208:\n      mload(0x40)\n      0x20\n      dup2\n      dup4\n      sub\n      sub\n      dup2\n      mstore\n      swap1\n      0x40\n      mstore\n        /* \"@chainlink/contracts/src/v0.8/vendor/solidity-cborutils/v2.0.0/CBOR.sol\":1993:2003  writeBytes */\n      tag_158\n        /* \"@chainlink/contracts/src/v0.8/vendor/solidity-cborutils/v2.0.0/CBOR.sol\":1993:2027  writeBytes(buf, abi.encode(value)) */\n      jump\t// in\n        /* \"@chainlink/contracts/src/v0.8/vendor/solidity-cborutils/v2.0.0/CBOR.sol\":3607:3753  function startArray(CBORBuffer memory buf) internal pure {... */\n    tag_137:\n        /* \"@chainlink/contracts/src/v0.8/vendor/solidity-cborutils/v2.0.0/CBOR.sol\":3674:3722  writeIndefiniteLengthType(buf, MAJOR_TYPE_ARRAY) */\n      tag_211\n        /* \"@chainlink/contracts/src/v0.8/vendor/solidity-cborutils/v2.0.0/CBOR.sol\":3700:3703  buf */\n      dup2\n        /* \"@chainlink/contracts/src/v0.8/vendor/solidity-cborutils/v2.0.0/CBOR.sol\":1047:1048  4 */\n      0x04\n        /* \"@chainlink/contracts/src/v0.8/vendor/solidity-cborutils/v2.0.0/CBOR.sol\":3674:3699  writeIndefiniteLengthType */\n      tag_212\n        /* \"@chainlink/contracts/src/v0.8/vendor/solidity-cborutils/v2.0.0/CBOR.sol\":3674:3722  writeIndefiniteLengthType(buf, MAJOR_TYPE_ARRAY) */\n      jump\t// in\n    tag_211:\n        /* \"@chainlink/contracts/src/v0.8/vendor/solidity-cborutils/v2.0.0/CBOR.sol\":3745:3746  1 */\n      0x01\n        /* \"@chainlink/contracts/src/v0.8/vendor/solidity-cborutils/v2.0.0/CBOR.sol\":3732:3735  buf */\n      dup2\n        /* \"@chainlink/contracts/src/v0.8/vendor/solidity-cborutils/v2.0.0/CBOR.sol\":3732:3741  buf.depth */\n      0x20\n      add\n        /* \"@chainlink/contracts/src/v0.8/vendor/solidity-cborutils/v2.0.0/CBOR.sol\":3732:3746  buf.depth += 1 */\n      dup2\n      dup2\n      mload\n      tag_213\n      swap2\n      swap1\n      tag_214\n      jump\t// in\n    tag_213:\n      swap1\n      mstore\n      pop\n      pop\n        /* \"@chainlink/contracts/src/v0.8/vendor/solidity-cborutils/v2.0.0/CBOR.sol\":3607:3753  function startArray(CBORBuffer memory buf) internal pure {... */\n      jump\t// out\n        /* \"@chainlink/contracts/src/v0.8/vendor/solidity-cborutils/v2.0.0/CBOR.sol\":4211:4365  function endSequence(CBORBuffer memory buf) internal pure {... */\n    tag_145:\n        /* \"@chainlink/contracts/src/v0.8/vendor/solidity-cborutils/v2.0.0/CBOR.sol\":4279:4334  writeIndefiniteLengthType(buf, MAJOR_TYPE_CONTENT_FREE) */\n      tag_216\n        /* \"@chainlink/contracts/src/v0.8/vendor/solidity-cborutils/v2.0.0/CBOR.sol\":4305:4308  buf */\n      dup2\n        /* \"@chainlink/contracts/src/v0.8/vendor/solidity-cborutils/v2.0.0/CBOR.sol\":1197:1198  7 */\n      0x07\n        /* \"@chainlink/contracts/src/v0.8/vendor/solidity-cborutils/v2.0.0/CBOR.sol\":4279:4304  writeIndefiniteLengthType */\n      tag_212\n        /* \"@chainlink/contracts/src/v0.8/vendor/solidity-cborutils/v2.0.0/CBOR.sol\":4279:4334  writeIndefiniteLengthType(buf, MAJOR_TYPE_CONTENT_FREE) */\n      jump\t// in\n    tag_216:\n        /* \"@chainlink/contracts/src/v0.8/vendor/solidity-cborutils/v2.0.0/CBOR.sol\":4357:4358  1 */\n      0x01\n        /* \"@chainlink/contracts/src/v0.8/vendor/solidity-cborutils/v2.0.0/CBOR.sol\":4344:4347  buf */\n      dup2\n        /* \"@chainlink/contracts/src/v0.8/vendor/solidity-cborutils/v2.0.0/CBOR.sol\":4344:4353  buf.depth */\n      0x20\n      add\n        /* \"@chainlink/contracts/src/v0.8/vendor/solidity-cborutils/v2.0.0/CBOR.sol\":4344:4358  buf.depth -= 1 */\n      dup2\n      dup2\n      mload\n      tag_213\n      swap2\n      swap1\n      tag_218\n      jump\t// in\n        /* \"@chainlink/contracts/src/v0.8/vendor/solidity-cborutils/v2.0.0/CBOR.sol\":2828:3015  function writeBytes(CBORBuffer memory buf, bytes memory value) internal pure {... */\n    tag_158:\n        /* \"@chainlink/contracts/src/v0.8/vendor/solidity-cborutils/v2.0.0/CBOR.sol\":2915:2977  writeFixedNumeric(buf, MAJOR_TYPE_BYTES, uint64(value.length)) */\n      tag_200\n        /* \"@chainlink/contracts/src/v0.8/vendor/solidity-cborutils/v2.0.0/CBOR.sol\":2933:2936  buf */\n      dup3\n        /* \"@chainlink/contracts/src/v0.8/vendor/solidity-cborutils/v2.0.0/CBOR.sol\":948:949  2 */\n      0x02\n        /* \"@chainlink/contracts/src/v0.8/vendor/solidity-cborutils/v2.0.0/CBOR.sol\":2963:2968  value */\n      dup4\n        /* \"@chainlink/contracts/src/v0.8/vendor/solidity-cborutils/v2.0.0/CBOR.sol\":2963:2975  value.length */\n      mload\n        /* \"@chainlink/contracts/src/v0.8/vendor/solidity-cborutils/v2.0.0/CBOR.sol\":2915:2932  writeFixedNumeric */\n      tag_201\n        /* \"@chainlink/contracts/src/v0.8/vendor/solidity-cborutils/v2.0.0/CBOR.sol\":2915:2977  writeFixedNumeric(buf, MAJOR_TYPE_BYTES, uint64(value.length)) */\n      jump\t// in\n        /* \"@chainlink/contracts/src/v0.8/vendor/@ensdomains/buffer/v0.1.0/Buffer.sol\":1020:1575  function init(buffer memory buf, uint capacity) internal pure returns(buffer memory) {... */\n    tag_198:\n      0x40\n      dup1\n      mload\n      dup1\n      dup3\n      add\n      swap1\n      swap2\n      mstore\n      0x60\n      dup2\n      mstore\n      0x00\n      0x20\n      dup3\n      add\n      mstore\n        /* \"@chainlink/contracts/src/v0.8/vendor/@ensdomains/buffer/v0.1.0/Buffer.sol\":1119:1132  capacity % 32 */\n      tag_225\n        /* \"@chainlink/contracts/src/v0.8/vendor/@ensdomains/buffer/v0.1.0/Buffer.sol\":1130:1132  32 */\n      0x20\n        /* \"@chainlink/contracts/src/v0.8/vendor/@ensdomains/buffer/v0.1.0/Buffer.sol\":1119:1127  capacity */\n      dup4\n        /* \"@chainlink/contracts/src/v0.8/vendor/@ensdomains/buffer/v0.1.0/Buffer.sol\":1119:1132  capacity % 32 */\n      tag_226\n      jump\t// in\n    tag_225:\n        /* \"@chainlink/contracts/src/v0.8/vendor/@ensdomains/buffer/v0.1.0/Buffer.sol\":1119:1137  capacity % 32 != 0 */\n      iszero\n        /* \"@chainlink/contracts/src/v0.8/vendor/@ensdomains/buffer/v0.1.0/Buffer.sol\":1115:1196  if (capacity % 32 != 0) {... */\n      tag_227\n      jumpi\n        /* \"@chainlink/contracts/src/v0.8/vendor/@ensdomains/buffer/v0.1.0/Buffer.sol\":1171:1184  capacity % 32 */\n      tag_228\n        /* \"@chainlink/contracts/src/v0.8/vendor/@ensdomains/buffer/v0.1.0/Buffer.sol\":1182:1184  32 */\n      0x20\n        /* \"@chainlink/contracts/src/v0.8/vendor/@ensdomains/buffer/v0.1.0/Buffer.sol\":1171:1179  capacity */\n      dup4\n        /* \"@chainlink/contracts/src/v0.8/vendor/@ensdomains/buffer/v0.1.0/Buffer.sol\":1171:1184  capacity % 32 */\n      tag_226\n      jump\t// in\n    tag_228:\n        /* \"@chainlink/contracts/src/v0.8/vendor/@ensdomains/buffer/v0.1.0/Buffer.sol\":1165:1185  32 - (capacity % 32) */\n      tag_229\n      swap1\n        /* \"@chainlink/contracts/src/v0.8/vendor/@ensdomains/buffer/v0.1.0/Buffer.sol\":1165:1167  32 */\n      0x20\n        /* \"@chainlink/contracts/src/v0.8/vendor/@ensdomains/buffer/v0.1.0/Buffer.sol\":1165:1185  32 - (capacity % 32) */\n      tag_218\n      jump\t// in\n    tag_229:\n        /* \"@chainlink/contracts/src/v0.8/vendor/@ensdomains/buffer/v0.1.0/Buffer.sol\":1153:1185  capacity += 32 - (capacity % 32) */\n      tag_230\n      swap1\n      dup4\n      tag_214\n      jump\t// in\n    tag_230:\n      swap2\n      pop\n        /* \"@chainlink/contracts/src/v0.8/vendor/@ensdomains/buffer/v0.1.0/Buffer.sol\":1115:1196  if (capacity % 32 != 0) {... */\n    tag_227:\n        /* \"@chainlink/contracts/src/v0.8/vendor/@ensdomains/buffer/v0.1.0/Buffer.sol\":1251:1263  buf.capacity */\n      0x20\n      dup1\n      dup5\n      add\n        /* \"@chainlink/contracts/src/v0.8/vendor/@ensdomains/buffer/v0.1.0/Buffer.sol\":1251:1274  buf.capacity = capacity */\n      dup4\n      swap1\n      mstore\n        /* \"@chainlink/contracts/src/v0.8/vendor/@ensdomains/buffer/v0.1.0/Buffer.sol\":1324:1328  0x40 */\n      0x40\n        /* \"@chainlink/contracts/src/v0.8/vendor/@ensdomains/buffer/v0.1.0/Buffer.sol\":1318:1329  mload(0x40) */\n      mload\n        /* \"@chainlink/contracts/src/v0.8/vendor/@ensdomains/buffer/v0.1.0/Buffer.sol\":1342:1358  mstore(buf, ptr) */\n      dup1\n      dup6\n      mstore\n      0x00\n        /* \"@chainlink/contracts/src/v0.8/vendor/@ensdomains/buffer/v0.1.0/Buffer.sol\":1371:1385  mstore(ptr, 0) */\n      dup2\n      mstore\n        /* \"@chainlink/contracts/src/v0.8/vendor/@ensdomains/buffer/v0.1.0/Buffer.sol\":1318:1329  mload(0x40) */\n      swap1\n        /* \"@chainlink/contracts/src/v0.8/vendor/@ensdomains/buffer/v0.1.0/Buffer.sol\":1417:1435  add(ptr, capacity) */\n      dup2\n      dup5\n      add\n        /* \"@chainlink/contracts/src/v0.8/vendor/@ensdomains/buffer/v0.1.0/Buffer.sol\":1409:1436  add(32, add(ptr, capacity)) */\n      add\n        /* \"@chainlink/contracts/src/v0.8/vendor/@ensdomains/buffer/v0.1.0/Buffer.sol\":1452:1464  lt(fpm, ptr) */\n      dup2\n      dup2\n      lt\n        /* \"@chainlink/contracts/src/v0.8/vendor/@ensdomains/buffer/v0.1.0/Buffer.sol\":1449:1509  if lt(fpm, ptr) {... */\n      iszero\n      tag_231\n      jumpi\n        /* \"@chainlink/contracts/src/v0.8/vendor/@ensdomains/buffer/v0.1.0/Buffer.sol\":1493:1494  0 */\n      0x00\n        /* \"@chainlink/contracts/src/v0.8/vendor/@ensdomains/buffer/v0.1.0/Buffer.sol\":1490:1491  0 */\n      dup1\n        /* \"@chainlink/contracts/src/v0.8/vendor/@ensdomains/buffer/v0.1.0/Buffer.sol\":1483:1495  revert(0, 0) */\n      revert\n        /* \"@chainlink/contracts/src/v0.8/vendor/@ensdomains/buffer/v0.1.0/Buffer.sol\":1449:1509  if lt(fpm, ptr) {... */\n    tag_231:\n        /* \"@chainlink/contracts/src/v0.8/vendor/@ensdomains/buffer/v0.1.0/Buffer.sol\":1529:1533  0x40 */\n      0x40\n        /* \"@chainlink/contracts/src/v0.8/vendor/@ensdomains/buffer/v0.1.0/Buffer.sol\":1522:1539  mstore(0x40, fpm) */\n      mstore\n      pop\n        /* \"@chainlink/contracts/src/v0.8/vendor/@ensdomains/buffer/v0.1.0/Buffer.sol\":1565:1568  buf */\n      dup3\n      swap1\n      pop\n        /* \"@chainlink/contracts/src/v0.8/vendor/@ensdomains/buffer/v0.1.0/Buffer.sol\":1020:1575  function init(buffer memory buf, uint capacity) internal pure returns(buffer memory) {... */\n    tag_224:\n      swap3\n      swap2\n      pop\n      pop\n      jump\t// out\n        /* \"@chainlink/contracts/src/v0.8/vendor/solidity-cborutils/v2.0.0/CBOR.sol\":6156:6915  function writeFixedNumeric(... */\n    tag_201:\n        /* \"@chainlink/contracts/src/v0.8/vendor/solidity-cborutils/v2.0.0/CBOR.sol\":6299:6301  23 */\n      0x17\n        /* \"@chainlink/contracts/src/v0.8/vendor/solidity-cborutils/v2.0.0/CBOR.sol\":6290:6295  value */\n      dup2\n      sub(shl(0x40, 0x01), 0x01)\n        /* \"@chainlink/contracts/src/v0.8/vendor/solidity-cborutils/v2.0.0/CBOR.sol\":6290:6301  value <= 23 */\n      and\n      gt\n        /* \"@chainlink/contracts/src/v0.8/vendor/solidity-cborutils/v2.0.0/CBOR.sol\":6286:6909  if (value <= 23) {... */\n      tag_233\n      jumpi\n        /* \"@chainlink/contracts/src/v0.8/vendor/solidity-cborutils/v2.0.0/CBOR.sol\":6317:6324  buf.buf */\n      dup3\n      mload\n        /* \"@chainlink/contracts/src/v0.8/vendor/solidity-cborutils/v2.0.0/CBOR.sol\":6317:6365  buf.buf.appendUint8(uint8((major << 5) | value)) */\n      tag_234\n      swap1\n        /* \"@chainlink/contracts/src/v0.8/vendor/solidity-cborutils/v2.0.0/CBOR.sol\":6343:6363  (major << 5) | value */\n      0xe0\n        /* \"@chainlink/contracts/src/v0.8/vendor/solidity-cborutils/v2.0.0/CBOR.sol\":6353:6354  5 */\n      0x05\n        /* \"@chainlink/contracts/src/v0.8/vendor/solidity-cborutils/v2.0.0/CBOR.sol\":6344:6354  major << 5 */\n      dup6\n      swap1\n      shl\n        /* \"@chainlink/contracts/src/v0.8/vendor/solidity-cborutils/v2.0.0/CBOR.sol\":6343:6363  (major << 5) | value */\n      and\n      dup4\n      or\n        /* \"@chainlink/contracts/src/v0.8/vendor/solidity-cborutils/v2.0.0/CBOR.sol\":6317:6336  buf.buf.appendUint8 */\n      tag_206\n        /* \"@chainlink/contracts/src/v0.8/vendor/solidity-cborutils/v2.0.0/CBOR.sol\":6317:6365  buf.buf.appendUint8(uint8((major << 5) | value)) */\n      jump\t// in\n    tag_234:\n      pop\n        /* \"@chainlink/contracts/src/v0.8/vendor/solidity-cborutils/v2.0.0/CBOR.sol\":3190:3218  buf.buf.append(bytes(value)) */\n      pop\n        /* \"@chainlink/contracts/src/v0.8/vendor/solidity-cborutils/v2.0.0/CBOR.sol\":3021:3225  function writeString(CBORBuffer memory buf, string memory value) internal pure {... */\n      pop\n      pop\n      jump\t// out\n        /* \"@chainlink/contracts/src/v0.8/vendor/solidity-cborutils/v2.0.0/CBOR.sol\":6286:6909  if (value <= 23) {... */\n    tag_233:\n        /* \"@chainlink/contracts/src/v0.8/vendor/solidity-cborutils/v2.0.0/CBOR.sol\":6395:6399  0xFF */\n      0xff\n        /* \"@chainlink/contracts/src/v0.8/vendor/solidity-cborutils/v2.0.0/CBOR.sol\":6386:6391  value */\n      dup2\n      sub(shl(0x40, 0x01), 0x01)\n        /* \"@chainlink/contracts/src/v0.8/vendor/solidity-cborutils/v2.0.0/CBOR.sol\":6386:6399  value <= 0xFF */\n      and\n      gt\n        /* \"@chainlink/contracts/src/v0.8/vendor/solidity-cborutils/v2.0.0/CBOR.sol\":6382:6909  if (value <= 0xFF) {... */\n      tag_236\n      jumpi\n        /* \"@chainlink/contracts/src/v0.8/vendor/solidity-cborutils/v2.0.0/CBOR.sol\":6415:6422  buf.buf */\n      dup3\n      mload\n        /* \"@chainlink/contracts/src/v0.8/vendor/solidity-cborutils/v2.0.0/CBOR.sol\":6415:6460  buf.buf.appendUint8(uint8((major << 5) | 24)) */\n      tag_237\n      swap1\n        /* \"@chainlink/contracts/src/v0.8/vendor/solidity-cborutils/v2.0.0/CBOR.sol\":6456:6458  24 */\n      0x18\n        /* \"@chainlink/contracts/src/v0.8/vendor/solidity-cborutils/v2.0.0/CBOR.sol\":6442:6452  major << 5 */\n      0x1fe0\n        /* \"@chainlink/contracts/src/v0.8/vendor/solidity-cborutils/v2.0.0/CBOR.sol\":6451:6452  5 */\n      0x05\n        /* \"@chainlink/contracts/src/v0.8/vendor/solidity-cborutils/v2.0.0/CBOR.sol\":6442:6452  major << 5 */\n      dup7\n      swap1\n      shl\n      and\n        /* \"@chainlink/contracts/src/v0.8/vendor/solidity-cborutils/v2.0.0/CBOR.sol\":6441:6458  (major << 5) | 24 */\n      or\n        /* \"@chainlink/contracts/src/v0.8/vendor/solidity-cborutils/v2.0.0/CBOR.sol\":6415:6434  buf.buf.appendUint8 */\n      tag_206\n        /* \"@chainlink/contracts/src/v0.8/vendor/solidity-cborutils/v2.0.0/CBOR.sol\":6415:6460  buf.buf.appendUint8(uint8((major << 5) | 24)) */\n      jump\t// in\n    tag_237:\n      pop\n        /* \"@chainlink/contracts/src/v0.8/vendor/solidity-cborutils/v2.0.0/CBOR.sol\":6474:6481  buf.buf */\n      dup3\n      mload\n        /* \"@chainlink/contracts/src/v0.8/vendor/solidity-cborutils/v2.0.0/CBOR.sol\":6474:6501  buf.buf.appendInt(value, 1) */\n      tag_234\n      swap1\n      sub(shl(0x40, 0x01), 0x01)\n      dup4\n      and\n        /* \"@chainlink/contracts/src/v0.8/vendor/solidity-cborutils/v2.0.0/CBOR.sol\":6499:6500  1 */\n      0x01\n        /* \"@chainlink/contracts/src/v0.8/vendor/solidity-cborutils/v2.0.0/CBOR.sol\":6474:6491  buf.buf.appendInt */\n      tag_239\n        /* \"@chainlink/contracts/src/v0.8/vendor/solidity-cborutils/v2.0.0/CBOR.sol\":6474:6501  buf.buf.appendInt(value, 1) */\n      jump\t// in\n        /* \"@chainlink/contracts/src/v0.8/vendor/solidity-cborutils/v2.0.0/CBOR.sol\":6382:6909  if (value <= 0xFF) {... */\n    tag_236:\n        /* \"@chainlink/contracts/src/v0.8/vendor/solidity-cborutils/v2.0.0/CBOR.sol\":6531:6537  0xFFFF */\n      0xffff\n        /* \"@chainlink/contracts/src/v0.8/vendor/solidity-cborutils/v2.0.0/CBOR.sol\":6522:6527  value */\n      dup2\n      sub(shl(0x40, 0x01), 0x01)\n        /* \"@chainlink/contracts/src/v0.8/vendor/solidity-cborutils/v2.0.0/CBOR.sol\":6522:6537  value <= 0xFFFF */\n      and\n      gt\n        /* \"@chainlink/contracts/src/v0.8/vendor/solidity-cborutils/v2.0.0/CBOR.sol\":6518:6909  if (value <= 0xFFFF) {... */\n      tag_241\n      jumpi\n        /* \"@chainlink/contracts/src/v0.8/vendor/solidity-cborutils/v2.0.0/CBOR.sol\":6553:6560  buf.buf */\n      dup3\n      mload\n        /* \"@chainlink/contracts/src/v0.8/vendor/solidity-cborutils/v2.0.0/CBOR.sol\":6553:6598  buf.buf.appendUint8(uint8((major << 5) | 25)) */\n      tag_242\n      swap1\n        /* \"@chainlink/contracts/src/v0.8/vendor/solidity-cborutils/v2.0.0/CBOR.sol\":6594:6596  25 */\n      0x19\n        /* \"@chainlink/contracts/src/v0.8/vendor/solidity-cborutils/v2.0.0/CBOR.sol\":6580:6590  major << 5 */\n      0x1fe0\n        /* \"@chainlink/contracts/src/v0.8/vendor/solidity-cborutils/v2.0.0/CBOR.sol\":6589:6590  5 */\n      0x05\n        /* \"@chainlink/contracts/src/v0.8/vendor/solidity-cborutils/v2.0.0/CBOR.sol\":6580:6590  major << 5 */\n      dup7\n      swap1\n      shl\n      and\n        /* \"@chainlink/contracts/src/v0.8/vendor/solidity-cborutils/v2.0.0/CBOR.sol\":6579:6596  (major << 5) | 25 */\n      or\n        /* \"@chainlink/contracts/src/v0.8/vendor/solidity-cborutils/v2.0.0/CBOR.sol\":6553:6572  buf.buf.appendUint8 */\n      tag_206\n        /* \"@chainlink/contracts/src/v0.8/vendor/solidity-cborutils/v2.0.0/CBOR.sol\":6553:6598  buf.buf.appendUint8(uint8((major << 5) | 25)) */\n      jump\t// in\n    tag_242:\n      pop\n        /* \"@chainlink/contracts/src/v0.8/vendor/solidity-cborutils/v2.0.0/CBOR.sol\":6612:6619  buf.buf */\n      dup3\n      mload\n        /* \"@chainlink/contracts/src/v0.8/vendor/solidity-cborutils/v2.0.0/CBOR.sol\":6612:6639  buf.buf.appendInt(value, 2) */\n      tag_234\n      swap1\n      sub(shl(0x40, 0x01), 0x01)\n      dup4\n      and\n        /* \"@chainlink/contracts/src/v0.8/vendor/solidity-cborutils/v2.0.0/CBOR.sol\":6637:6638  2 */\n      0x02\n        /* \"@chainlink/contracts/src/v0.8/vendor/solidity-cborutils/v2.0.0/CBOR.sol\":6612:6629  buf.buf.appendInt */\n      tag_239\n        /* \"@chainlink/contracts/src/v0.8/vendor/solidity-cborutils/v2.0.0/CBOR.sol\":6612:6639  buf.buf.appendInt(value, 2) */\n      jump\t// in\n        /* \"@chainlink/contracts/src/v0.8/vendor/solidity-cborutils/v2.0.0/CBOR.sol\":6518:6909  if (value <= 0xFFFF) {... */\n    tag_241:\n        /* \"@chainlink/contracts/src/v0.8/vendor/solidity-cborutils/v2.0.0/CBOR.sol\":6669:6679  0xFFFFFFFF */\n      0xffffffff\n        /* \"@chainlink/contracts/src/v0.8/vendor/solidity-cborutils/v2.0.0/CBOR.sol\":6660:6665  value */\n      dup2\n      sub(shl(0x40, 0x01), 0x01)\n        /* \"@chainlink/contracts/src/v0.8/vendor/solidity-cborutils/v2.0.0/CBOR.sol\":6660:6679  value <= 0xFFFFFFFF */\n      and\n      gt\n        /* \"@chainlink/contracts/src/v0.8/vendor/solidity-cborutils/v2.0.0/CBOR.sol\":6656:6909  if (value <= 0xFFFFFFFF) {... */\n      tag_245\n      jumpi\n        /* \"@chainlink/contracts/src/v0.8/vendor/solidity-cborutils/v2.0.0/CBOR.sol\":6695:6702  buf.buf */\n      dup3\n      mload\n        /* \"@chainlink/contracts/src/v0.8/vendor/solidity-cborutils/v2.0.0/CBOR.sol\":6695:6740  buf.buf.appendUint8(uint8((major << 5) | 26)) */\n      tag_246\n      swap1\n        /* \"@chainlink/contracts/src/v0.8/vendor/solidity-cborutils/v2.0.0/CBOR.sol\":6736:6738  26 */\n      0x1a\n        /* \"@chainlink/contracts/src/v0.8/vendor/solidity-cborutils/v2.0.0/CBOR.sol\":6722:6732  major << 5 */\n      0x1fe0\n        /* \"@chainlink/contracts/src/v0.8/vendor/solidity-cborutils/v2.0.0/CBOR.sol\":6731:6732  5 */\n      0x05\n        /* \"@chainlink/contracts/src/v0.8/vendor/solidity-cborutils/v2.0.0/CBOR.sol\":6722:6732  major << 5 */\n      dup7\n      swap1\n      shl\n      and\n        /* \"@chainlink/contracts/src/v0.8/vendor/solidity-cborutils/v2.0.0/CBOR.sol\":6721:6738  (major << 5) | 26 */\n      or\n        /* \"@chainlink/contracts/src/v0.8/vendor/solidity-cborutils/v2.0.0/CBOR.sol\":6695:6714  buf.buf.appendUint8 */\n      tag_206\n        /* \"@chainlink/contracts/src/v0.8/vendor/solidity-cborutils/v2.0.0/CBOR.sol\":6695:6740  buf.buf.appendUint8(uint8((major << 5) | 26)) */\n      jump\t// in\n    tag_246:\n      pop\n        /* \"@chainlink/contracts/src/v0.8/vendor/solidity-cborutils/v2.0.0/CBOR.sol\":6754:6761  buf.buf */\n      dup3\n      mload\n        /* \"@chainlink/contracts/src/v0.8/vendor/solidity-cborutils/v2.0.0/CBOR.sol\":6754:6781  buf.buf.appendInt(value, 4) */\n      tag_234\n      swap1\n      sub(shl(0x40, 0x01), 0x01)\n      dup4\n      and\n        /* \"@chainlink/contracts/src/v0.8/vendor/solidity-cborutils/v2.0.0/CBOR.sol\":6779:6780  4 */\n      0x04\n        /* \"@chainlink/contracts/src/v0.8/vendor/solidity-cborutils/v2.0.0/CBOR.sol\":6754:6771  buf.buf.appendInt */\n      tag_239\n        /* \"@chainlink/contracts/src/v0.8/vendor/solidity-cborutils/v2.0.0/CBOR.sol\":6754:6781  buf.buf.appendInt(value, 4) */\n      jump\t// in\n        /* \"@chainlink/contracts/src/v0.8/vendor/solidity-cborutils/v2.0.0/CBOR.sol\":6656:6909  if (value <= 0xFFFFFFFF) {... */\n    tag_245:\n        /* \"@chainlink/contracts/src/v0.8/vendor/solidity-cborutils/v2.0.0/CBOR.sol\":6812:6819  buf.buf */\n      dup3\n      mload\n        /* \"@chainlink/contracts/src/v0.8/vendor/solidity-cborutils/v2.0.0/CBOR.sol\":6812:6857  buf.buf.appendUint8(uint8((major << 5) | 27)) */\n      tag_249\n      swap1\n        /* \"@chainlink/contracts/src/v0.8/vendor/solidity-cborutils/v2.0.0/CBOR.sol\":6853:6855  27 */\n      0x1b\n        /* \"@chainlink/contracts/src/v0.8/vendor/solidity-cborutils/v2.0.0/CBOR.sol\":6839:6849  major << 5 */\n      0x1fe0\n        /* \"@chainlink/contracts/src/v0.8/vendor/solidity-cborutils/v2.0.0/CBOR.sol\":6848:6849  5 */\n      0x05\n        /* \"@chainlink/contracts/src/v0.8/vendor/solidity-cborutils/v2.0.0/CBOR.sol\":6839:6849  major << 5 */\n      dup7\n      swap1\n      shl\n      and\n        /* \"@chainlink/contracts/src/v0.8/vendor/solidity-cborutils/v2.0.0/CBOR.sol\":6838:6855  (major << 5) | 27 */\n      or\n        /* \"@chainlink/contracts/src/v0.8/vendor/solidity-cborutils/v2.0.0/CBOR.sol\":6812:6831  buf.buf.appendUint8 */\n      tag_206\n        /* \"@chainlink/contracts/src/v0.8/vendor/solidity-cborutils/v2.0.0/CBOR.sol\":6812:6857  buf.buf.appendUint8(uint8((major << 5) | 27)) */\n      jump\t// in\n    tag_249:\n      pop\n        /* \"@chainlink/contracts/src/v0.8/vendor/solidity-cborutils/v2.0.0/CBOR.sol\":6871:6878  buf.buf */\n      dup3\n      mload\n        /* \"@chainlink/contracts/src/v0.8/vendor/solidity-cborutils/v2.0.0/CBOR.sol\":6871:6898  buf.buf.appendInt(value, 8) */\n      tag_234\n      swap1\n      sub(shl(0x40, 0x01), 0x01)\n      dup4\n      and\n        /* \"@chainlink/contracts/src/v0.8/vendor/solidity-cborutils/v2.0.0/CBOR.sol\":6896:6897  8 */\n      0x08\n        /* \"@chainlink/contracts/src/v0.8/vendor/solidity-cborutils/v2.0.0/CBOR.sol\":6871:6888  buf.buf.appendInt */\n      tag_239\n        /* \"@chainlink/contracts/src/v0.8/vendor/solidity-cborutils/v2.0.0/CBOR.sol\":6871:6898  buf.buf.appendInt(value, 8) */\n      jump\t// in\n        /* \"@chainlink/contracts/src/v0.8/vendor/@ensdomains/buffer/v0.1.0/Buffer.sol\":4539:4685  function append(buffer memory buf, bytes memory data) internal pure returns (buffer memory) {... */\n    tag_203:\n      0x40\n      dup1\n      mload\n      dup1\n      dup3\n      add\n      swap1\n      swap2\n      mstore\n      0x60\n      dup2\n      mstore\n      0x00\n      0x20\n      dup3\n      add\n      mstore\n        /* \"@chainlink/contracts/src/v0.8/vendor/@ensdomains/buffer/v0.1.0/Buffer.sol\":4648:4678  append(buf, data, data.length) */\n      tag_253\n        /* \"@chainlink/contracts/src/v0.8/vendor/@ensdomains/buffer/v0.1.0/Buffer.sol\":4655:4658  buf */\n      dup4\n        /* \"@chainlink/contracts/src/v0.8/vendor/@ensdomains/buffer/v0.1.0/Buffer.sol\":4660:4664  data */\n      dup4\n        /* \"@chainlink/contracts/src/v0.8/vendor/@ensdomains/buffer/v0.1.0/Buffer.sol\":4666:4670  data */\n      dup5\n        /* \"@chainlink/contracts/src/v0.8/vendor/@ensdomains/buffer/v0.1.0/Buffer.sol\":4666:4677  data.length */\n      mload\n        /* \"@chainlink/contracts/src/v0.8/vendor/@ensdomains/buffer/v0.1.0/Buffer.sol\":4648:4654  append */\n      tag_254\n        /* \"@chainlink/contracts/src/v0.8/vendor/@ensdomains/buffer/v0.1.0/Buffer.sol\":4648:4678  append(buf, data, data.length) */\n      jump\t// in\n    tag_253:\n        /* \"@chainlink/contracts/src/v0.8/vendor/@ensdomains/buffer/v0.1.0/Buffer.sol\":4641:4678  return append(buf, data, data.length) */\n      swap4\n        /* \"@chainlink/contracts/src/v0.8/vendor/@ensdomains/buffer/v0.1.0/Buffer.sol\":4539:4685  function append(buffer memory buf, bytes memory data) internal pure returns (buffer memory) {... */\n      swap3\n      pop\n      pop\n      pop\n      jump\t// out\n        /* \"@chainlink/contracts/src/v0.8/vendor/@ensdomains/buffer/v0.1.0/Buffer.sol\":4948:5647  function appendUint8(buffer memory buf, uint8 data) internal pure returns(buffer memory) {... */\n    tag_206:\n      0x40\n      dup1\n      mload\n      dup1\n      dup3\n      add\n      swap1\n      swap2\n      mstore\n      0x60\n      dup2\n      mstore\n      0x00\n      0x20\n      dup3\n      add\n      mstore\n        /* \"@chainlink/contracts/src/v0.8/vendor/@ensdomains/buffer/v0.1.0/Buffer.sol\":5058:5065  buf.buf */\n      dup3\n      mload\n        /* \"@chainlink/contracts/src/v0.8/vendor/@ensdomains/buffer/v0.1.0/Buffer.sol\":5058:5072  buf.buf.length */\n      mload\n        /* \"@chainlink/contracts/src/v0.8/vendor/@ensdomains/buffer/v0.1.0/Buffer.sol\":5047:5055  uint off */\n      0x00\n        /* \"@chainlink/contracts/src/v0.8/vendor/@ensdomains/buffer/v0.1.0/Buffer.sol\":5100:5107  off + 1 */\n      tag_257\n        /* \"@chainlink/contracts/src/v0.8/vendor/@ensdomains/buffer/v0.1.0/Buffer.sol\":5058:5072  buf.buf.length */\n      dup3\n        /* \"@chainlink/contracts/src/v0.8/vendor/@ensdomains/buffer/v0.1.0/Buffer.sol\":5106:5107  1 */\n      0x01\n        /* \"@chainlink/contracts/src/v0.8/vendor/@ensdomains/buffer/v0.1.0/Buffer.sol\":5100:5107  off + 1 */\n      tag_214\n      jump\t// in\n    tag_257:\n        /* \"@chainlink/contracts/src/v0.8/vendor/@ensdomains/buffer/v0.1.0/Buffer.sol\":5082:5107  uint offPlusOne = off + 1 */\n      swap1\n      pop\n        /* \"@chainlink/contracts/src/v0.8/vendor/@ensdomains/buffer/v0.1.0/Buffer.sol\":5128:5131  buf */\n      dup5\n        /* \"@chainlink/contracts/src/v0.8/vendor/@ensdomains/buffer/v0.1.0/Buffer.sol\":5128:5140  buf.capacity */\n      0x20\n      add\n      mload\n        /* \"@chainlink/contracts/src/v0.8/vendor/@ensdomains/buffer/v0.1.0/Buffer.sol\":5121:5124  off */\n      dup3\n        /* \"@chainlink/contracts/src/v0.8/vendor/@ensdomains/buffer/v0.1.0/Buffer.sol\":5121:5140  off >= buf.capacity */\n      lt\n        /* \"@chainlink/contracts/src/v0.8/vendor/@ensdomains/buffer/v0.1.0/Buffer.sol\":5117:5194  if (off >= buf.capacity) {... */\n      tag_259\n      jumpi\n        /* \"@chainlink/contracts/src/v0.8/vendor/@ensdomains/buffer/v0.1.0/Buffer.sol\":5156:5183  resize(buf, offPlusOne * 2) */\n      tag_259\n        /* \"@chainlink/contracts/src/v0.8/vendor/@ensdomains/buffer/v0.1.0/Buffer.sol\":5163:5166  buf */\n      dup6\n        /* \"@chainlink/contracts/src/v0.8/vendor/@ensdomains/buffer/v0.1.0/Buffer.sol\":5168:5182  offPlusOne * 2 */\n      tag_260\n        /* \"@chainlink/contracts/src/v0.8/vendor/@ensdomains/buffer/v0.1.0/Buffer.sol\":5168:5178  offPlusOne */\n      dup4\n        /* \"@chainlink/contracts/src/v0.8/vendor/@ensdomains/buffer/v0.1.0/Buffer.sol\":5181:5182  2 */\n      0x02\n        /* \"@chainlink/contracts/src/v0.8/vendor/@ensdomains/buffer/v0.1.0/Buffer.sol\":5168:5182  offPlusOne * 2 */\n      tag_261\n      jump\t// in\n    tag_260:\n        /* \"@chainlink/contracts/src/v0.8/vendor/@ensdomains/buffer/v0.1.0/Buffer.sol\":5156:5162  resize */\n      tag_262\n        /* \"@chainlink/contracts/src/v0.8/vendor/@ensdomains/buffer/v0.1.0/Buffer.sol\":5156:5183  resize(buf, offPlusOne * 2) */\n      jump\t// in\n    tag_259:\n        /* \"@chainlink/contracts/src/v0.8/vendor/@ensdomains/buffer/v0.1.0/Buffer.sol\":5296:5299  buf */\n      dup5\n        /* \"@chainlink/contracts/src/v0.8/vendor/@ensdomains/buffer/v0.1.0/Buffer.sol\":5290:5300  mload(buf) */\n      mload\n        /* \"@chainlink/contracts/src/v0.8/vendor/@ensdomains/buffer/v0.1.0/Buffer.sol\":5417:5419  32 */\n      0x20\n        /* \"@chainlink/contracts/src/v0.8/vendor/@ensdomains/buffer/v0.1.0/Buffer.sol\":5411:5414  off */\n      dup4\n        /* \"@chainlink/contracts/src/v0.8/vendor/@ensdomains/buffer/v0.1.0/Buffer.sol\":5403:5409  bufptr */\n      dup3\n        /* \"@chainlink/contracts/src/v0.8/vendor/@ensdomains/buffer/v0.1.0/Buffer.sol\":5399:5415  add(bufptr, off) */\n      add\n        /* \"@chainlink/contracts/src/v0.8/vendor/@ensdomains/buffer/v0.1.0/Buffer.sol\":5395:5420  add(add(bufptr, off), 32) */\n      add\n        /* \"@chainlink/contracts/src/v0.8/vendor/@ensdomains/buffer/v0.1.0/Buffer.sol\":5447:5451  data */\n      dup6\n        /* \"@chainlink/contracts/src/v0.8/vendor/@ensdomains/buffer/v0.1.0/Buffer.sol\":5441:5445  dest */\n      dup2\n        /* \"@chainlink/contracts/src/v0.8/vendor/@ensdomains/buffer/v0.1.0/Buffer.sol\":5433:5452  mstore8(dest, data) */\n      mstore8\n      pop\n        /* \"@chainlink/contracts/src/v0.8/vendor/@ensdomains/buffer/v0.1.0/Buffer.sol\":5543:5549  bufptr */\n      dup1\n        /* \"@chainlink/contracts/src/v0.8/vendor/@ensdomains/buffer/v0.1.0/Buffer.sol\":5537:5550  mload(bufptr) */\n      mload\n        /* \"@chainlink/contracts/src/v0.8/vendor/@ensdomains/buffer/v0.1.0/Buffer.sol\":5525:5535  offPlusOne */\n      dup3\n        /* \"@chainlink/contracts/src/v0.8/vendor/@ensdomains/buffer/v0.1.0/Buffer.sol\":5522:5551  gt(offPlusOne, mload(bufptr)) */\n      gt\n        /* \"@chainlink/contracts/src/v0.8/vendor/@ensdomains/buffer/v0.1.0/Buffer.sol\":5519:5610  if gt(offPlusOne, mload(bufptr)) {... */\n      iszero\n      tag_263\n      jumpi\n        /* \"@chainlink/contracts/src/v0.8/vendor/@ensdomains/buffer/v0.1.0/Buffer.sol\":5585:5595  offPlusOne */\n      dup2\n        /* \"@chainlink/contracts/src/v0.8/vendor/@ensdomains/buffer/v0.1.0/Buffer.sol\":5577:5583  bufptr */\n      dup2\n        /* \"@chainlink/contracts/src/v0.8/vendor/@ensdomains/buffer/v0.1.0/Buffer.sol\":5570:5596  mstore(bufptr, offPlusOne) */\n      mstore\n        /* \"@chainlink/contracts/src/v0.8/vendor/@ensdomains/buffer/v0.1.0/Buffer.sol\":5519:5610  if gt(offPlusOne, mload(bufptr)) {... */\n    tag_263:\n      pop\n        /* \"@chainlink/contracts/src/v0.8/vendor/@ensdomains/buffer/v0.1.0/Buffer.sol\":5637:5640  buf */\n      swap4\n      swap5\n        /* \"@chainlink/contracts/src/v0.8/vendor/@ensdomains/buffer/v0.1.0/Buffer.sol\":4948:5647  function appendUint8(buffer memory buf, uint8 data) internal pure returns(buffer memory) {... */\n      swap4\n      pop\n      pop\n      pop\n      pop\n      jump\t// out\n        /* \"@chainlink/contracts/src/v0.8/vendor/solidity-cborutils/v2.0.0/CBOR.sol\":6921:7087  function writeIndefiniteLengthType(CBORBuffer memory buf, uint8 major)... */\n    tag_212:\n        /* \"@chainlink/contracts/src/v0.8/vendor/solidity-cborutils/v2.0.0/CBOR.sol\":7035:7042  buf.buf */\n      dup2\n      mload\n        /* \"@chainlink/contracts/src/v0.8/vendor/solidity-cborutils/v2.0.0/CBOR.sol\":7035:7080  buf.buf.appendUint8(uint8((major << 5) | 31)) */\n      tag_202\n      swap1\n        /* \"@chainlink/contracts/src/v0.8/vendor/solidity-cborutils/v2.0.0/CBOR.sol\":7076:7078  31 */\n      0x1f\n        /* \"@chainlink/contracts/src/v0.8/vendor/solidity-cborutils/v2.0.0/CBOR.sol\":7062:7072  major << 5 */\n      0x1fe0\n        /* \"@chainlink/contracts/src/v0.8/vendor/solidity-cborutils/v2.0.0/CBOR.sol\":7071:7072  5 */\n      0x05\n        /* \"@chainlink/contracts/src/v0.8/vendor/solidity-cborutils/v2.0.0/CBOR.sol\":7062:7072  major << 5 */\n      dup6\n      swap1\n      shl\n      and\n        /* \"@chainlink/contracts/src/v0.8/vendor/solidity-cborutils/v2.0.0/CBOR.sol\":7061:7078  (major << 5) | 31 */\n      or\n        /* \"@chainlink/contracts/src/v0.8/vendor/solidity-cborutils/v2.0.0/CBOR.sol\":7035:7054  buf.buf.appendUint8 */\n      tag_206\n        /* \"@chainlink/contracts/src/v0.8/vendor/solidity-cborutils/v2.0.0/CBOR.sol\":7035:7080  buf.buf.appendUint8(uint8((major << 5) | 31)) */\n      jump\t// in\n        /* \"@chainlink/contracts/src/v0.8/vendor/@ensdomains/buffer/v0.1.0/Buffer.sol\":8083:8878  function appendInt(buffer memory buf, uint data, uint len) internal pure returns(buffer memory) {... */\n    tag_239:\n      0x40\n      dup1\n      mload\n      dup1\n      dup3\n      add\n      swap1\n      swap2\n      mstore\n      0x60\n      dup2\n      mstore\n      0x00\n      0x20\n      dup3\n      add\n      mstore\n        /* \"@chainlink/contracts/src/v0.8/vendor/@ensdomains/buffer/v0.1.0/Buffer.sol\":8200:8207  buf.buf */\n      dup4\n      mload\n        /* \"@chainlink/contracts/src/v0.8/vendor/@ensdomains/buffer/v0.1.0/Buffer.sol\":8200:8214  buf.buf.length */\n      mload\n        /* \"@chainlink/contracts/src/v0.8/vendor/@ensdomains/buffer/v0.1.0/Buffer.sol\":8189:8197  uint off */\n      0x00\n        /* \"@chainlink/contracts/src/v0.8/vendor/@ensdomains/buffer/v0.1.0/Buffer.sol\":8243:8252  len + off */\n      tag_268\n        /* \"@chainlink/contracts/src/v0.8/vendor/@ensdomains/buffer/v0.1.0/Buffer.sol\":8200:8214  buf.buf.length */\n      dup3\n        /* \"@chainlink/contracts/src/v0.8/vendor/@ensdomains/buffer/v0.1.0/Buffer.sol\":8243:8246  len */\n      dup6\n        /* \"@chainlink/contracts/src/v0.8/vendor/@ensdomains/buffer/v0.1.0/Buffer.sol\":8243:8252  len + off */\n      tag_214\n      jump\t// in\n    tag_268:\n        /* \"@chainlink/contracts/src/v0.8/vendor/@ensdomains/buffer/v0.1.0/Buffer.sol\":8224:8252  uint newCapacity = len + off */\n      swap1\n      pop\n        /* \"@chainlink/contracts/src/v0.8/vendor/@ensdomains/buffer/v0.1.0/Buffer.sol\":8280:8283  buf */\n      dup6\n        /* \"@chainlink/contracts/src/v0.8/vendor/@ensdomains/buffer/v0.1.0/Buffer.sol\":8280:8292  buf.capacity */\n      0x20\n      add\n      mload\n        /* \"@chainlink/contracts/src/v0.8/vendor/@ensdomains/buffer/v0.1.0/Buffer.sol\":8266:8277  newCapacity */\n      dup2\n        /* \"@chainlink/contracts/src/v0.8/vendor/@ensdomains/buffer/v0.1.0/Buffer.sol\":8266:8292  newCapacity > buf.capacity */\n      gt\n        /* \"@chainlink/contracts/src/v0.8/vendor/@ensdomains/buffer/v0.1.0/Buffer.sol\":8262:8347  if (newCapacity > buf.capacity) {... */\n      iszero\n      tag_270\n      jumpi\n        /* \"@chainlink/contracts/src/v0.8/vendor/@ensdomains/buffer/v0.1.0/Buffer.sol\":8308:8336  resize(buf, newCapacity * 2) */\n      tag_270\n        /* \"@chainlink/contracts/src/v0.8/vendor/@ensdomains/buffer/v0.1.0/Buffer.sol\":8315:8318  buf */\n      dup7\n        /* \"@chainlink/contracts/src/v0.8/vendor/@ensdomains/buffer/v0.1.0/Buffer.sol\":8320:8335  newCapacity * 2 */\n      tag_260\n        /* \"@chainlink/contracts/src/v0.8/vendor/@ensdomains/buffer/v0.1.0/Buffer.sol\":8320:8331  newCapacity */\n      dup4\n        /* \"@chainlink/contracts/src/v0.8/vendor/@ensdomains/buffer/v0.1.0/Buffer.sol\":8334:8335  2 */\n      0x02\n        /* \"@chainlink/contracts/src/v0.8/vendor/@ensdomains/buffer/v0.1.0/Buffer.sol\":8320:8335  newCapacity * 2 */\n      tag_261\n      jump\t// in\n        /* \"@chainlink/contracts/src/v0.8/vendor/@ensdomains/buffer/v0.1.0/Buffer.sol\":8308:8336  resize(buf, newCapacity * 2) */\n    tag_270:\n        /* \"@chainlink/contracts/src/v0.8/vendor/@ensdomains/buffer/v0.1.0/Buffer.sol\":8357:8366  uint mask */\n      0x00\n        /* \"@chainlink/contracts/src/v0.8/vendor/@ensdomains/buffer/v0.1.0/Buffer.sol\":8384:8385  1 */\n      0x01\n        /* \"@chainlink/contracts/src/v0.8/vendor/@ensdomains/buffer/v0.1.0/Buffer.sol\":8370:8380  256 ** len */\n      tag_272\n        /* \"@chainlink/contracts/src/v0.8/vendor/@ensdomains/buffer/v0.1.0/Buffer.sol\":8377:8380  len */\n      dup7\n        /* \"@chainlink/contracts/src/v0.8/vendor/@ensdomains/buffer/v0.1.0/Buffer.sol\":8370:8373  256 */\n      0x0100\n        /* \"@chainlink/contracts/src/v0.8/vendor/@ensdomains/buffer/v0.1.0/Buffer.sol\":8370:8380  256 ** len */\n      tag_273\n      jump\t// in\n    tag_272:\n        /* \"@chainlink/contracts/src/v0.8/vendor/@ensdomains/buffer/v0.1.0/Buffer.sol\":8369:8385  (256 ** len) - 1 */\n      tag_274\n      swap2\n      swap1\n      tag_218\n      jump\t// in\n    tag_274:\n        /* \"@chainlink/contracts/src/v0.8/vendor/@ensdomains/buffer/v0.1.0/Buffer.sol\":8357:8385  uint mask = (256 ** len) - 1 */\n      swap1\n      pop\n        /* \"@chainlink/contracts/src/v0.8/vendor/@ensdomains/buffer/v0.1.0/Buffer.sol\":8487:8490  buf */\n      dup7\n        /* \"@chainlink/contracts/src/v0.8/vendor/@ensdomains/buffer/v0.1.0/Buffer.sol\":8481:8491  mload(buf) */\n      mload\n        /* \"@chainlink/contracts/src/v0.8/vendor/@ensdomains/buffer/v0.1.0/Buffer.sol\":8606:8617  newCapacity */\n      dup3\n        /* \"@chainlink/contracts/src/v0.8/vendor/@ensdomains/buffer/v0.1.0/Buffer.sol\":8598:8604  bufptr */\n      dup2\n        /* \"@chainlink/contracts/src/v0.8/vendor/@ensdomains/buffer/v0.1.0/Buffer.sol\":8594:8618  add(bufptr, newCapacity) */\n      add\n        /* \"@chainlink/contracts/src/v0.8/vendor/@ensdomains/buffer/v0.1.0/Buffer.sol\":8676:8680  data */\n      dup8\n        /* \"@chainlink/contracts/src/v0.8/vendor/@ensdomains/buffer/v0.1.0/Buffer.sol\":8668:8672  mask */\n      dup4\n        /* \"@chainlink/contracts/src/v0.8/vendor/@ensdomains/buffer/v0.1.0/Buffer.sol\":8664:8673  not(mask) */\n      not\n        /* \"@chainlink/contracts/src/v0.8/vendor/@ensdomains/buffer/v0.1.0/Buffer.sol\":8657:8661  dest */\n      dup3\n        /* \"@chainlink/contracts/src/v0.8/vendor/@ensdomains/buffer/v0.1.0/Buffer.sol\":8651:8662  mload(dest) */\n      mload\n        /* \"@chainlink/contracts/src/v0.8/vendor/@ensdomains/buffer/v0.1.0/Buffer.sol\":8647:8674  and(mload(dest), not(mask)) */\n      and\n        /* \"@chainlink/contracts/src/v0.8/vendor/@ensdomains/buffer/v0.1.0/Buffer.sol\":8644:8681  or(and(mload(dest), not(mask)), data) */\n      or\n        /* \"@chainlink/contracts/src/v0.8/vendor/@ensdomains/buffer/v0.1.0/Buffer.sol\":8638:8642  dest */\n      dup2\n        /* \"@chainlink/contracts/src/v0.8/vendor/@ensdomains/buffer/v0.1.0/Buffer.sol\":8631:8682  mstore(dest, or(and(mload(dest), not(mask)), data)) */\n      mstore\n      pop\n        /* \"@chainlink/contracts/src/v0.8/vendor/@ensdomains/buffer/v0.1.0/Buffer.sol\":8774:8780  bufptr */\n      dup1\n        /* \"@chainlink/contracts/src/v0.8/vendor/@ensdomains/buffer/v0.1.0/Buffer.sol\":8768:8781  mload(bufptr) */\n      mload\n        /* \"@chainlink/contracts/src/v0.8/vendor/@ensdomains/buffer/v0.1.0/Buffer.sol\":8755:8766  newCapacity */\n      dup4\n        /* \"@chainlink/contracts/src/v0.8/vendor/@ensdomains/buffer/v0.1.0/Buffer.sol\":8752:8782  gt(newCapacity, mload(bufptr)) */\n      gt\n        /* \"@chainlink/contracts/src/v0.8/vendor/@ensdomains/buffer/v0.1.0/Buffer.sol\":8749:8842  if gt(newCapacity, mload(bufptr)) {... */\n      iszero\n      tag_275\n      jumpi\n        /* \"@chainlink/contracts/src/v0.8/vendor/@ensdomains/buffer/v0.1.0/Buffer.sol\":8816:8827  newCapacity */\n      dup3\n        /* \"@chainlink/contracts/src/v0.8/vendor/@ensdomains/buffer/v0.1.0/Buffer.sol\":8808:8814  bufptr */\n      dup2\n        /* \"@chainlink/contracts/src/v0.8/vendor/@ensdomains/buffer/v0.1.0/Buffer.sol\":8801:8828  mstore(bufptr, newCapacity) */\n      mstore\n        /* \"@chainlink/contracts/src/v0.8/vendor/@ensdomains/buffer/v0.1.0/Buffer.sol\":8749:8842  if gt(newCapacity, mload(bufptr)) {... */\n    tag_275:\n      pop\n        /* \"@chainlink/contracts/src/v0.8/vendor/@ensdomains/buffer/v0.1.0/Buffer.sol\":8868:8871  buf */\n      swap6\n      swap7\n        /* \"@chainlink/contracts/src/v0.8/vendor/@ensdomains/buffer/v0.1.0/Buffer.sol\":8083:8878  function appendInt(buffer memory buf, uint data, uint len) internal pure returns(buffer memory) {... */\n      swap6\n      pop\n      pop\n      pop\n      pop\n      pop\n      pop\n      jump\t// out\n        /* \"@chainlink/contracts/src/v0.8/vendor/@ensdomains/buffer/v0.1.0/Buffer.sol\":2844:4271  function append(buffer memory buf, bytes memory data, uint len) internal pure returns(buffer memory) {... */\n    tag_254:\n      0x40\n      dup1\n      mload\n      dup1\n      dup3\n      add\n      swap1\n      swap2\n      mstore\n      0x60\n      dup2\n      mstore\n      0x00\n      0x20\n      dup3\n      add\n      mstore\n        /* \"@chainlink/contracts/src/v0.8/vendor/@ensdomains/buffer/v0.1.0/Buffer.sol\":2970:2974  data */\n      dup3\n        /* \"@chainlink/contracts/src/v0.8/vendor/@ensdomains/buffer/v0.1.0/Buffer.sol\":2970:2981  data.length */\n      mload\n        /* \"@chainlink/contracts/src/v0.8/vendor/@ensdomains/buffer/v0.1.0/Buffer.sol\":2963:2966  len */\n      dup3\n        /* \"@chainlink/contracts/src/v0.8/vendor/@ensdomains/buffer/v0.1.0/Buffer.sol\":2963:2981  len <= data.length */\n      gt\n      iszero\n        /* \"@chainlink/contracts/src/v0.8/vendor/@ensdomains/buffer/v0.1.0/Buffer.sol\":2955:2982  require(len <= data.length) */\n      tag_278\n      jumpi\n      0x00\n      dup1\n      revert\n    tag_278:\n        /* \"@chainlink/contracts/src/v0.8/vendor/@ensdomains/buffer/v0.1.0/Buffer.sol\":3004:3011  buf.buf */\n      dup4\n      mload\n        /* \"@chainlink/contracts/src/v0.8/vendor/@ensdomains/buffer/v0.1.0/Buffer.sol\":3004:3018  buf.buf.length */\n      mload\n        /* \"@chainlink/contracts/src/v0.8/vendor/@ensdomains/buffer/v0.1.0/Buffer.sol\":2993:3001  uint off */\n      0x00\n        /* \"@chainlink/contracts/src/v0.8/vendor/@ensdomains/buffer/v0.1.0/Buffer.sol\":3047:3056  off + len */\n      tag_279\n        /* \"@chainlink/contracts/src/v0.8/vendor/@ensdomains/buffer/v0.1.0/Buffer.sol\":3053:3056  len */\n      dup5\n        /* \"@chainlink/contracts/src/v0.8/vendor/@ensdomains/buffer/v0.1.0/Buffer.sol\":3004:3018  buf.buf.length */\n      dup4\n        /* \"@chainlink/contracts/src/v0.8/vendor/@ensdomains/buffer/v0.1.0/Buffer.sol\":3047:3056  off + len */\n      tag_214\n      jump\t// in\n    tag_279:\n        /* \"@chainlink/contracts/src/v0.8/vendor/@ensdomains/buffer/v0.1.0/Buffer.sol\":3028:3056  uint newCapacity = off + len */\n      swap1\n      pop\n        /* \"@chainlink/contracts/src/v0.8/vendor/@ensdomains/buffer/v0.1.0/Buffer.sol\":3084:3087  buf */\n      dup6\n        /* \"@chainlink/contracts/src/v0.8/vendor/@ensdomains/buffer/v0.1.0/Buffer.sol\":3084:3096  buf.capacity */\n      0x20\n      add\n      mload\n        /* \"@chainlink/contracts/src/v0.8/vendor/@ensdomains/buffer/v0.1.0/Buffer.sol\":3070:3081  newCapacity */\n      dup2\n        /* \"@chainlink/contracts/src/v0.8/vendor/@ensdomains/buffer/v0.1.0/Buffer.sol\":3070:3096  newCapacity > buf.capacity */\n      gt\n        /* \"@chainlink/contracts/src/v0.8/vendor/@ensdomains/buffer/v0.1.0/Buffer.sol\":3066:3151  if (newCapacity > buf.capacity) {... */\n      iszero\n      tag_281\n      jumpi\n        /* \"@chainlink/contracts/src/v0.8/vendor/@ensdomains/buffer/v0.1.0/Buffer.sol\":3112:3140  resize(buf, newCapacity * 2) */\n      tag_281\n        /* \"@chainlink/contracts/src/v0.8/vendor/@ensdomains/buffer/v0.1.0/Buffer.sol\":3119:3122  buf */\n      dup7\n        /* \"@chainlink/contracts/src/v0.8/vendor/@ensdomains/buffer/v0.1.0/Buffer.sol\":3124:3139  newCapacity * 2 */\n      tag_260\n        /* \"@chainlink/contracts/src/v0.8/vendor/@ensdomains/buffer/v0.1.0/Buffer.sol\":3124:3135  newCapacity */\n      dup4\n        /* \"@chainlink/contracts/src/v0.8/vendor/@ensdomains/buffer/v0.1.0/Buffer.sol\":3138:3139  2 */\n      0x02\n        /* \"@chainlink/contracts/src/v0.8/vendor/@ensdomains/buffer/v0.1.0/Buffer.sol\":3124:3139  newCapacity * 2 */\n      tag_261\n      jump\t// in\n        /* \"@chainlink/contracts/src/v0.8/vendor/@ensdomains/buffer/v0.1.0/Buffer.sol\":3112:3140  resize(buf, newCapacity * 2) */\n    tag_281:\n        /* \"@chainlink/contracts/src/v0.8/vendor/@ensdomains/buffer/v0.1.0/Buffer.sol\":3284:3294  mload(buf) */\n      dup6\n      mload\n        /* \"@chainlink/contracts/src/v0.8/vendor/@ensdomains/buffer/v0.1.0/Buffer.sol\":3367:3380  mload(bufptr) */\n      dup1\n      mload\n        /* \"@chainlink/contracts/src/v0.8/vendor/@ensdomains/buffer/v0.1.0/Buffer.sol\":3480:3505  add(add(bufptr, 32), off) */\n      dup4\n      dup3\n      add\n        /* \"@chainlink/contracts/src/v0.8/vendor/@ensdomains/buffer/v0.1.0/Buffer.sol\":3496:3498  32 */\n      0x20\n        /* \"@chainlink/contracts/src/v0.8/vendor/@ensdomains/buffer/v0.1.0/Buffer.sol\":3480:3505  add(add(bufptr, 32), off) */\n      add\n      swap2\n        /* \"@chainlink/contracts/src/v0.8/vendor/@ensdomains/buffer/v0.1.0/Buffer.sol\":3161:3170  uint dest */\n      0x00\n      swap2\n        /* \"@chainlink/contracts/src/v0.8/vendor/@ensdomains/buffer/v0.1.0/Buffer.sol\":3579:3602  gt(newCapacity, buflen) */\n      dup1\n      dup6\n      gt\n        /* \"@chainlink/contracts/src/v0.8/vendor/@ensdomains/buffer/v0.1.0/Buffer.sol\":3576:3662  if gt(newCapacity, buflen) {... */\n      iszero\n      tag_283\n      jumpi\n        /* \"@chainlink/contracts/src/v0.8/vendor/@ensdomains/buffer/v0.1.0/Buffer.sol\":3636:3647  newCapacity */\n      dup5\n        /* \"@chainlink/contracts/src/v0.8/vendor/@ensdomains/buffer/v0.1.0/Buffer.sol\":3628:3634  bufptr */\n      dup3\n        /* \"@chainlink/contracts/src/v0.8/vendor/@ensdomains/buffer/v0.1.0/Buffer.sol\":3621:3648  mstore(bufptr, newCapacity) */\n      mstore\n        /* \"@chainlink/contracts/src/v0.8/vendor/@ensdomains/buffer/v0.1.0/Buffer.sol\":3576:3662  if gt(newCapacity, buflen) {... */\n    tag_283:\n      pop\n      pop\n      pop\n        /* \"@chainlink/contracts/src/v0.8/vendor/@ensdomains/buffer/v0.1.0/Buffer.sol\":3692:3694  32 */\n      0x20\n        /* \"@chainlink/contracts/src/v0.8/vendor/@ensdomains/buffer/v0.1.0/Buffer.sol\":3682:3695  add(data, 32) */\n      dup7\n      add\n        /* \"@chainlink/contracts/src/v0.8/vendor/@ensdomains/buffer/v0.1.0/Buffer.sol\":3765:3930  for (; len >= 32; len -= 32) {... */\n    tag_284:\n        /* \"@chainlink/contracts/src/v0.8/vendor/@ensdomains/buffer/v0.1.0/Buffer.sol\":3779:3781  32 */\n      0x20\n        /* \"@chainlink/contracts/src/v0.8/vendor/@ensdomains/buffer/v0.1.0/Buffer.sol\":3772:3775  len */\n      dup7\n        /* \"@chainlink/contracts/src/v0.8/vendor/@ensdomains/buffer/v0.1.0/Buffer.sol\":3772:3781  len >= 32 */\n      lt\n        /* \"@chainlink/contracts/src/v0.8/vendor/@ensdomains/buffer/v0.1.0/Buffer.sol\":3765:3930  for (; len >= 32; len -= 32) {... */\n      tag_285\n      jumpi\n        /* \"@chainlink/contracts/src/v0.8/vendor/@ensdomains/buffer/v0.1.0/Buffer.sol\":3848:3858  mload(src) */\n      dup1\n      mload\n        /* \"@chainlink/contracts/src/v0.8/vendor/@ensdomains/buffer/v0.1.0/Buffer.sol\":3835:3859  mstore(dest, mload(src)) */\n      dup3\n      mstore\n        /* \"@chainlink/contracts/src/v0.8/vendor/@ensdomains/buffer/v0.1.0/Buffer.sol\":3886:3896  dest += 32 */\n      tag_287\n        /* \"@chainlink/contracts/src/v0.8/vendor/@ensdomains/buffer/v0.1.0/Buffer.sol\":3894:3896  32 */\n      0x20\n        /* \"@chainlink/contracts/src/v0.8/vendor/@ensdomains/buffer/v0.1.0/Buffer.sol\":3842:3846  dest */\n      dup4\n        /* \"@chainlink/contracts/src/v0.8/vendor/@ensdomains/buffer/v0.1.0/Buffer.sol\":3886:3896  dest += 32 */\n      tag_214\n      jump\t// in\n    tag_287:\n      swap2\n      pop\n        /* \"@chainlink/contracts/src/v0.8/vendor/@ensdomains/buffer/v0.1.0/Buffer.sol\":3910:3919  src += 32 */\n      tag_288\n        /* \"@chainlink/contracts/src/v0.8/vendor/@ensdomains/buffer/v0.1.0/Buffer.sol\":3917:3919  32 */\n      0x20\n        /* \"@chainlink/contracts/src/v0.8/vendor/@ensdomains/buffer/v0.1.0/Buffer.sol\":3910:3919  src += 32 */\n      dup3\n      tag_214\n      jump\t// in\n    tag_288:\n      swap1\n      pop\n        /* \"@chainlink/contracts/src/v0.8/vendor/@ensdomains/buffer/v0.1.0/Buffer.sol\":3783:3792  len -= 32 */\n      tag_289\n        /* \"@chainlink/contracts/src/v0.8/vendor/@ensdomains/buffer/v0.1.0/Buffer.sol\":3790:3792  32 */\n      0x20\n        /* \"@chainlink/contracts/src/v0.8/vendor/@ensdomains/buffer/v0.1.0/Buffer.sol\":3783:3792  len -= 32 */\n      dup8\n      tag_218\n      jump\t// in\n    tag_289:\n      swap6\n      pop\n        /* \"@chainlink/contracts/src/v0.8/vendor/@ensdomains/buffer/v0.1.0/Buffer.sol\":3765:3930  for (; len >= 32; len -= 32) {... */\n      jump(tag_284)\n    tag_285:\n        /* \"@chainlink/contracts/src/v0.8/vendor/@ensdomains/buffer/v0.1.0/Buffer.sol\":4091:4101  mload(src) */\n      mload\n        /* \"@chainlink/contracts/src/v0.8/vendor/@ensdomains/buffer/v0.1.0/Buffer.sol\":4150:4161  mload(dest) */\n      dup2\n      mload\n      not(0x00)\n        /* \"@chainlink/contracts/src/v0.8/vendor/@ensdomains/buffer/v0.1.0/Buffer.sol\":4017:4019  32 */\n      0x20\n        /* \"@chainlink/contracts/src/v0.8/vendor/@ensdomains/buffer/v0.1.0/Buffer.sol\":4017:4025  32 - len */\n      dup9\n      swap1\n      sub\n        /* \"@chainlink/contracts/src/v0.8/vendor/@ensdomains/buffer/v0.1.0/Buffer.sol\":4009:4012  256 */\n      0x0100\n        /* \"@chainlink/contracts/src/v0.8/vendor/@ensdomains/buffer/v0.1.0/Buffer.sol\":4009:4026  256 ** (32 - len) */\n      exp\n        /* \"@chainlink/contracts/src/v0.8/vendor/@ensdomains/buffer/v0.1.0/Buffer.sol\":4008:4031  (256 ** (32 - len)) - 1 */\n      add\n        /* \"@chainlink/contracts/src/v0.8/vendor/@ensdomains/buffer/v0.1.0/Buffer.sol\":4146:4168  and(mload(dest), mask) */\n      swap1\n      dup2\n      and\n        /* \"@chainlink/contracts/src/v0.8/vendor/@ensdomains/buffer/v0.1.0/Buffer.sol\":4103:4112  not(mask) */\n      swap1\n      not\n        /* \"@chainlink/contracts/src/v0.8/vendor/@ensdomains/buffer/v0.1.0/Buffer.sol\":4087:4113  and(mload(src), not(mask)) */\n      swap2\n      swap1\n      swap2\n      and\n        /* \"@chainlink/contracts/src/v0.8/vendor/@ensdomains/buffer/v0.1.0/Buffer.sol\":4198:4219  or(destpart, srcpart) */\n      or\n        /* \"@chainlink/contracts/src/v0.8/vendor/@ensdomains/buffer/v0.1.0/Buffer.sol\":4185:4220  mstore(dest, or(destpart, srcpart)) */\n      swap1\n      mstore\n      pop\n        /* \"@chainlink/contracts/src/v0.8/vendor/@ensdomains/buffer/v0.1.0/Buffer.sol\":4261:4264  buf */\n      dup5\n      swap2\n      pop\n      pop\n        /* \"@chainlink/contracts/src/v0.8/vendor/@ensdomains/buffer/v0.1.0/Buffer.sol\":2844:4271  function append(buffer memory buf, bytes memory data, uint len) internal pure returns(buffer memory) {... */\n      swap4\n      swap3\n      pop\n      pop\n      pop\n      jump\t// out\n        /* \"@chainlink/contracts/src/v0.8/vendor/@ensdomains/buffer/v0.1.0/Buffer.sol\":2004:2171  function resize(buffer memory buf, uint capacity) private pure {... */\n    tag_262:\n        /* \"@chainlink/contracts/src/v0.8/vendor/@ensdomains/buffer/v0.1.0/Buffer.sol\":2099:2106  buf.buf */\n      dup2\n      mload\n        /* \"@chainlink/contracts/src/v0.8/vendor/@ensdomains/buffer/v0.1.0/Buffer.sol\":2116:2135  init(buf, capacity) */\n      tag_291\n        /* \"@chainlink/contracts/src/v0.8/vendor/@ensdomains/buffer/v0.1.0/Buffer.sol\":2099:2102  buf */\n      dup4\n        /* \"@chainlink/contracts/src/v0.8/vendor/@ensdomains/buffer/v0.1.0/Buffer.sol\":2126:2134  capacity */\n      dup4\n        /* \"@chainlink/contracts/src/v0.8/vendor/@ensdomains/buffer/v0.1.0/Buffer.sol\":2116:2120  init */\n      tag_198\n        /* \"@chainlink/contracts/src/v0.8/vendor/@ensdomains/buffer/v0.1.0/Buffer.sol\":2116:2135  init(buf, capacity) */\n      jump\t// in\n    tag_291:\n      pop\n        /* \"@chainlink/contracts/src/v0.8/vendor/@ensdomains/buffer/v0.1.0/Buffer.sol\":2145:2164  append(buf, oldbuf) */\n      tag_234\n        /* \"@chainlink/contracts/src/v0.8/vendor/@ensdomains/buffer/v0.1.0/Buffer.sol\":2152:2155  buf */\n      dup4\n        /* \"@chainlink/contracts/src/v0.8/vendor/@ensdomains/buffer/v0.1.0/Buffer.sol\":2157:2163  oldbuf */\n      dup3\n        /* \"@chainlink/contracts/src/v0.8/vendor/@ensdomains/buffer/v0.1.0/Buffer.sol\":2145:2151  append */\n      tag_203\n        /* \"@chainlink/contracts/src/v0.8/vendor/@ensdomains/buffer/v0.1.0/Buffer.sol\":2145:2164  append(buf, oldbuf) */\n      jump\t// in\n    tag_195:\n      mload(0x40)\n      dup1\n      0x40\n      add\n      0x40\n      mstore\n      dup1\n      tag_299\n      mload(0x40)\n      dup1\n      0x40\n      add\n      0x40\n      mstore\n      dup1\n      0x60\n      dup2\n      mstore\n      0x20\n      add\n      0x00\n      dup2\n      mstore\n      pop\n      swap1\n      jump\n    tag_299:\n      dup2\n      mstore\n      0x20\n      add\n      0x00\n      dup2\n      mstore\n      pop\n      swap1\n      jump\t// out\n        /* \"#utility.yul\":14:141   */\n    tag_73:\n        /* \"#utility.yul\":75:85   */\n      0x4e487b71\n        /* \"#utility.yul\":70:73   */\n      0xe0\n        /* \"#utility.yul\":66:86   */\n      shl\n        /* \"#utility.yul\":63:64   */\n      0x00\n        /* \"#utility.yul\":56:87   */\n      mstore\n        /* \"#utility.yul\":106:110   */\n      0x41\n        /* \"#utility.yul\":103:104   */\n      0x04\n        /* \"#utility.yul\":96:111   */\n      mstore\n        /* \"#utility.yul\":130:134   */\n      0x24\n        /* \"#utility.yul\":127:128   */\n      0x00\n        /* \"#utility.yul\":120:135   */\n      revert\n        /* \"#utility.yul\":146:421   */\n    tag_300:\n        /* \"#utility.yul\":217:219   */\n      0x40\n        /* \"#utility.yul\":211:220   */\n      mload\n        /* \"#utility.yul\":282:284   */\n      0x1f\n        /* \"#utility.yul\":263:276   */\n      dup3\n      add\n      not(0x1f)\n        /* \"#utility.yul\":259:286   */\n      and\n        /* \"#utility.yul\":247:287   */\n      dup2\n      add\n      sub(shl(0x40, 0x01), 0x01)\n        /* \"#utility.yul\":302:336   */\n      dup2\n      gt\n        /* \"#utility.yul\":338:360   */\n      dup3\n      dup3\n      lt\n        /* \"#utility.yul\":299:361   */\n      or\n        /* \"#utility.yul\":296:384   */\n      iszero\n      tag_313\n      jumpi\n        /* \"#utility.yul\":364:382   */\n      tag_313\n      tag_73\n      jump\t// in\n    tag_313:\n        /* \"#utility.yul\":400:402   */\n      0x40\n        /* \"#utility.yul\":393:415   */\n      mstore\n        /* \"#utility.yul\":146:421   */\n      swap2\n      swap1\n      pop\n      jump\t// out\n        /* \"#utility.yul\":426:612   */\n    tag_301:\n        /* \"#utility.yul\":474:478   */\n      0x00\n      sub(shl(0x40, 0x01), 0x01)\n        /* \"#utility.yul\":499:505   */\n      dup3\n        /* \"#utility.yul\":496:526   */\n      gt\n        /* \"#utility.yul\":493:549   */\n      iszero\n      tag_316\n      jumpi\n        /* \"#utility.yul\":529:547   */\n      tag_316\n      tag_73\n      jump\t// in\n    tag_316:\n      pop\n        /* \"#utility.yul\":595:597   */\n      0x1f\n        /* \"#utility.yul\":574:589   */\n      add\n      not(0x1f)\n        /* \"#utility.yul\":570:599   */\n      and\n        /* \"#utility.yul\":601:605   */\n      0x20\n        /* \"#utility.yul\":566:606   */\n      add\n      swap1\n        /* \"#utility.yul\":426:612   */\n      jump\t// out\n        /* \"#utility.yul\":617:953   */\n    tag_302:\n        /* \"#utility.yul\":681:686   */\n      0x00\n        /* \"#utility.yul\":710:762   */\n      tag_318\n        /* \"#utility.yul\":726:761   */\n      tag_319\n        /* \"#utility.yul\":754:760   */\n      dup5\n        /* \"#utility.yul\":726:761   */\n      tag_301\n      jump\t// in\n    tag_319:\n        /* \"#utility.yul\":710:762   */\n      tag_300\n      jump\t// in\n    tag_318:\n        /* \"#utility.yul\":701:762   */\n      swap1\n      pop\n        /* \"#utility.yul\":785:791   */\n      dup3\n        /* \"#utility.yul\":778:783   */\n      dup2\n        /* \"#utility.yul\":771:792   */\n      mstore\n        /* \"#utility.yul\":825:828   */\n      dup4\n        /* \"#utility.yul\":816:822   */\n      dup4\n        /* \"#utility.yul\":811:814   */\n      dup4\n        /* \"#utility.yul\":807:823   */\n      add\n        /* \"#utility.yul\":804:829   */\n      gt\n        /* \"#utility.yul\":801:846   */\n      iszero\n      tag_320\n      jumpi\n        /* \"#utility.yul\":842:843   */\n      0x00\n        /* \"#utility.yul\":839:840   */\n      dup1\n        /* \"#utility.yul\":832:844   */\n      revert\n        /* \"#utility.yul\":801:846   */\n    tag_320:\n        /* \"#utility.yul\":891:897   */\n      dup3\n        /* \"#utility.yul\":886:889   */\n      dup3\n        /* \"#utility.yul\":879:883   */\n      0x20\n        /* \"#utility.yul\":872:877   */\n      dup4\n        /* \"#utility.yul\":868:884   */\n      add\n        /* \"#utility.yul\":855:898   */\n      calldatacopy\n        /* \"#utility.yul\":945:946   */\n      0x00\n        /* \"#utility.yul\":938:942   */\n      0x20\n        /* \"#utility.yul\":929:935   */\n      dup5\n        /* \"#utility.yul\":922:927   */\n      dup4\n        /* \"#utility.yul\":918:936   */\n      add\n        /* \"#utility.yul\":914:943   */\n      add\n        /* \"#utility.yul\":907:947   */\n      mstore\n        /* \"#utility.yul\":617:953   */\n      swap4\n      swap3\n      pop\n      pop\n      pop\n      jump\t// out\n        /* \"#utility.yul\":958:1178   */\n    tag_303:\n        /* \"#utility.yul\":1000:1005   */\n      0x00\n        /* \"#utility.yul\":1053:1056   */\n      dup3\n        /* \"#utility.yul\":1046:1050   */\n      0x1f\n        /* \"#utility.yul\":1038:1044   */\n      dup4\n        /* \"#utility.yul\":1034:1051   */\n      add\n        /* \"#utility.yul\":1030:1057   */\n      slt\n        /* \"#utility.yul\":1020:1075   */\n      tag_322\n      jumpi\n        /* \"#utility.yul\":1071:1072   */\n      0x00\n        /* \"#utility.yul\":1068:1069   */\n      dup1\n        /* \"#utility.yul\":1061:1073   */\n      revert\n        /* \"#utility.yul\":1020:1075   */\n    tag_322:\n        /* \"#utility.yul\":1093:1172   */\n      tag_253\n        /* \"#utility.yul\":1168:1171   */\n      dup4\n        /* \"#utility.yul\":1159:1165   */\n      dup4\n        /* \"#utility.yul\":1146:1166   */\n      calldataload\n        /* \"#utility.yul\":1139:1143   */\n      0x20\n        /* \"#utility.yul\":1131:1137   */\n      dup6\n        /* \"#utility.yul\":1127:1144   */\n      add\n        /* \"#utility.yul\":1093:1172   */\n      tag_302\n      jump\t// in\n        /* \"#utility.yul\":1183:1831   */\n    tag_15:\n        /* \"#utility.yul\":1278:1284   */\n      0x00\n        /* \"#utility.yul\":1286:1292   */\n      dup1\n        /* \"#utility.yul\":1294:1300   */\n      0x00\n        /* \"#utility.yul\":1347:1349   */\n      0x60\n        /* \"#utility.yul\":1335:1344   */\n      dup5\n        /* \"#utility.yul\":1326:1333   */\n      dup7\n        /* \"#utility.yul\":1322:1345   */\n      sub\n        /* \"#utility.yul\":1318:1350   */\n      slt\n        /* \"#utility.yul\":1315:1367   */\n      iszero\n      tag_325\n      jumpi\n        /* \"#utility.yul\":1363:1364   */\n      0x00\n        /* \"#utility.yul\":1360:1361   */\n      dup1\n        /* \"#utility.yul\":1353:1365   */\n      revert\n        /* \"#utility.yul\":1315:1367   */\n    tag_325:\n        /* \"#utility.yul\":1408:1431   */\n      dup4\n      calldataload\n      swap3\n      pop\n        /* \"#utility.yul\":1506:1508   */\n      0x20\n        /* \"#utility.yul\":1491:1509   */\n      dup5\n      add\n        /* \"#utility.yul\":1478:1510   */\n      calldataload\n      sub(shl(0x40, 0x01), 0x01)\n        /* \"#utility.yul\":1522:1552   */\n      dup2\n      gt\n        /* \"#utility.yul\":1519:1569   */\n      iszero\n      tag_326\n      jumpi\n        /* \"#utility.yul\":1565:1566   */\n      0x00\n        /* \"#utility.yul\":1562:1563   */\n      dup1\n        /* \"#utility.yul\":1555:1567   */\n      revert\n        /* \"#utility.yul\":1519:1569   */\n    tag_326:\n        /* \"#utility.yul\":1588:1637   */\n      tag_327\n        /* \"#utility.yul\":1629:1636   */\n      dup7\n        /* \"#utility.yul\":1620:1626   */\n      dup3\n        /* \"#utility.yul\":1609:1618   */\n      dup8\n        /* \"#utility.yul\":1605:1627   */\n      add\n        /* \"#utility.yul\":1588:1637   */\n      tag_303\n      jump\t// in\n    tag_327:\n        /* \"#utility.yul\":1578:1637   */\n      swap3\n      pop\n      pop\n        /* \"#utility.yul\":1690:1692   */\n      0x40\n        /* \"#utility.yul\":1679:1688   */\n      dup5\n        /* \"#utility.yul\":1675:1693   */\n      add\n        /* \"#utility.yul\":1662:1694   */\n      calldataload\n      sub(shl(0x40, 0x01), 0x01)\n        /* \"#utility.yul\":1709:1717   */\n      dup2\n        /* \"#utility.yul\":1706:1738   */\n      gt\n        /* \"#utility.yul\":1703:1755   */\n      iszero\n      tag_328\n      jumpi\n        /* \"#utility.yul\":1751:1752   */\n      0x00\n        /* \"#utility.yul\":1748:1749   */\n      dup1\n        /* \"#utility.yul\":1741:1753   */\n      revert\n        /* \"#utility.yul\":1703:1755   */\n    tag_328:\n        /* \"#utility.yul\":1774:1825   */\n      tag_329\n        /* \"#utility.yul\":1817:1824   */\n      dup7\n        /* \"#utility.yul\":1806:1814   */\n      dup3\n        /* \"#utility.yul\":1795:1804   */\n      dup8\n        /* \"#utility.yul\":1791:1815   */\n      add\n        /* \"#utility.yul\":1774:1825   */\n      tag_303\n      jump\t// in\n    tag_329:\n        /* \"#utility.yul\":1764:1825   */\n      swap2\n      pop\n      pop\n        /* \"#utility.yul\":1183:1831   */\n      swap3\n      pop\n      swap3\n      pop\n      swap3\n      jump\t// out\n        /* \"#utility.yul\":2044:2963   */\n    tag_25:\n        /* \"#utility.yul\":2138:2144   */\n      0x00\n        /* \"#utility.yul\":2146:2152   */\n      dup1\n        /* \"#utility.yul\":2154:2160   */\n      0x00\n        /* \"#utility.yul\":2162:2168   */\n      dup1\n        /* \"#utility.yul\":2215:2218   */\n      0x80\n        /* \"#utility.yul\":2203:2212   */\n      dup6\n        /* \"#utility.yul\":2194:2201   */\n      dup8\n        /* \"#utility.yul\":2190:2213   */\n      sub\n        /* \"#utility.yul\":2186:2219   */\n      slt\n        /* \"#utility.yul\":2183:2236   */\n      iszero\n      tag_332\n      jumpi\n        /* \"#utility.yul\":2232:2233   */\n      0x00\n        /* \"#utility.yul\":2229:2230   */\n      dup1\n        /* \"#utility.yul\":2222:2234   */\n      revert\n        /* \"#utility.yul\":2183:2236   */\n    tag_332:\n        /* \"#utility.yul\":2272:2281   */\n      dup5\n        /* \"#utility.yul\":2259:2282   */\n      calldataload\n      sub(shl(0x40, 0x01), 0x01)\n        /* \"#utility.yul\":2297:2303   */\n      dup2\n        /* \"#utility.yul\":2294:2324   */\n      gt\n        /* \"#utility.yul\":2291:2341   */\n      iszero\n      tag_333\n      jumpi\n        /* \"#utility.yul\":2337:2338   */\n      0x00\n        /* \"#utility.yul\":2334:2335   */\n      dup1\n        /* \"#utility.yul\":2327:2339   */\n      revert\n        /* \"#utility.yul\":2291:2341   */\n    tag_333:\n        /* \"#utility.yul\":2360:2382   */\n      dup6\n      add\n        /* \"#utility.yul\":2413:2417   */\n      0x1f\n        /* \"#utility.yul\":2405:2418   */\n      dup2\n      add\n        /* \"#utility.yul\":2401:2428   */\n      dup8\n      sgt\n        /* \"#utility.yul\":2391:2446   */\n      tag_334\n      jumpi\n        /* \"#utility.yul\":2442:2443   */\n      0x00\n        /* \"#utility.yul\":2439:2440   */\n      dup1\n        /* \"#utility.yul\":2432:2444   */\n      revert\n        /* \"#utility.yul\":2391:2446   */\n    tag_334:\n        /* \"#utility.yul\":2465:2540   */\n      tag_335\n        /* \"#utility.yul\":2532:2539   */\n      dup8\n        /* \"#utility.yul\":2527:2529   */\n      dup3\n        /* \"#utility.yul\":2514:2530   */\n      calldataload\n        /* \"#utility.yul\":2507:2511   */\n      0x20\n        /* \"#utility.yul\":2503:2505   */\n      dup5\n        /* \"#utility.yul\":2499:2512   */\n      add\n        /* \"#utility.yul\":2465:2540   */\n      tag_302\n      jump\t// in\n    tag_335:\n        /* \"#utility.yul\":2455:2540   */\n      swap5\n      pop\n      pop\n        /* \"#utility.yul\":2590:2594   */\n      0x20\n        /* \"#utility.yul\":2579:2588   */\n      dup6\n        /* \"#utility.yul\":2575:2595   */\n      add\n        /* \"#utility.yul\":2562:2596   */\n      calldataload\n      sub(shl(0x40, 0x01), 0x01)\n        /* \"#utility.yul\":2629:2634   */\n      dup2\n        /* \"#utility.yul\":2625:2655   */\n      and\n        /* \"#utility.yul\":2618:2623   */\n      dup2\n        /* \"#utility.yul\":2615:2656   */\n      eq\n        /* \"#utility.yul\":2605:2674   */\n      tag_336\n      jumpi\n        /* \"#utility.yul\":2670:2671   */\n      0x00\n        /* \"#utility.yul\":2667:2668   */\n      dup1\n        /* \"#utility.yul\":2660:2672   */\n      revert\n        /* \"#utility.yul\":2605:2674   */\n    tag_336:\n        /* \"#utility.yul\":2693:2698   */\n      swap3\n      pop\n        /* \"#utility.yul\":2750:2752   */\n      0x40\n        /* \"#utility.yul\":2735:2753   */\n      dup6\n      add\n        /* \"#utility.yul\":2722:2754   */\n      calldataload\n        /* \"#utility.yul\":2798:2808   */\n      0xffffffff\n        /* \"#utility.yul\":2785:2809   */\n      dup2\n      and\n        /* \"#utility.yul\":2773:2810   */\n      dup2\n      eq\n        /* \"#utility.yul\":2763:2828   */\n      tag_337\n      jumpi\n        /* \"#utility.yul\":2824:2825   */\n      0x00\n        /* \"#utility.yul\":2821:2822   */\n      dup1\n        /* \"#utility.yul\":2814:2826   */\n      revert\n        /* \"#utility.yul\":2763:2828   */\n    tag_337:\n        /* \"#utility.yul\":2044:2963   */\n      swap4\n      swap7\n      swap3\n      swap6\n      pop\n        /* \"#utility.yul\":2847:2854   */\n      swap3\n      swap4\n        /* \"#utility.yul\":2927:2929   */\n      0x60\n        /* \"#utility.yul\":2912:2930   */\n      add\n        /* \"#utility.yul\":2899:2931   */\n      calldataload\n      swap3\n      pop\n      pop\n        /* \"#utility.yul\":2044:2963   */\n      jump\t// out\n        /* \"#utility.yul\":3150:3400   */\n    tag_304:\n        /* \"#utility.yul\":3235:3236   */\n      0x00\n        /* \"#utility.yul\":3245:3358   */\n    tag_340:\n        /* \"#utility.yul\":3259:3265   */\n      dup4\n        /* \"#utility.yul\":3256:3257   */\n      dup2\n        /* \"#utility.yul\":3253:3266   */\n      lt\n        /* \"#utility.yul\":3245:3358   */\n      iszero\n      tag_342\n      jumpi\n        /* \"#utility.yul\":3335:3346   */\n      dup2\n      dup2\n      add\n        /* \"#utility.yul\":3329:3347   */\n      mload\n        /* \"#utility.yul\":3316:3327   */\n      dup4\n      dup3\n      add\n        /* \"#utility.yul\":3309:3348   */\n      mstore\n        /* \"#utility.yul\":3281:3283   */\n      0x20\n        /* \"#utility.yul\":3274:3284   */\n      add\n        /* \"#utility.yul\":3245:3358   */\n      jump(tag_340)\n    tag_342:\n      pop\n      pop\n        /* \"#utility.yul\":3392:3393   */\n      0x00\n        /* \"#utility.yul\":3374:3390   */\n      swap2\n      add\n        /* \"#utility.yul\":3367:3394   */\n      mstore\n        /* \"#utility.yul\":3150:3400   */\n      jump\t// out\n        /* \"#utility.yul\":3405:3676   */\n    tag_305:\n        /* \"#utility.yul\":3447:3450   */\n      0x00\n        /* \"#utility.yul\":3485:3490   */\n      dup2\n        /* \"#utility.yul\":3479:3491   */\n      mload\n        /* \"#utility.yul\":3512:3518   */\n      dup1\n        /* \"#utility.yul\":3507:3510   */\n      dup5\n        /* \"#utility.yul\":3500:3519   */\n      mstore\n        /* \"#utility.yul\":3528:3604   */\n      tag_344\n        /* \"#utility.yul\":3597:3603   */\n      dup2\n        /* \"#utility.yul\":3590:3594   */\n      0x20\n        /* \"#utility.yul\":3585:3588   */\n      dup7\n        /* \"#utility.yul\":3581:3595   */\n      add\n        /* \"#utility.yul\":3574:3578   */\n      0x20\n        /* \"#utility.yul\":3567:3572   */\n      dup7\n        /* \"#utility.yul\":3563:3579   */\n      add\n        /* \"#utility.yul\":3528:3604   */\n      tag_304\n      jump\t// in\n    tag_344:\n        /* \"#utility.yul\":3658:3660   */\n      0x1f\n        /* \"#utility.yul\":3637:3652   */\n      add\n      not(0x1f)\n        /* \"#utility.yul\":3633:3662   */\n      and\n        /* \"#utility.yul\":3624:3663   */\n      swap3\n      swap1\n      swap3\n      add\n        /* \"#utility.yul\":3665:3669   */\n      0x20\n        /* \"#utility.yul\":3620:3670   */\n      add\n      swap3\n        /* \"#utility.yul\":3405:3676   */\n      swap2\n      pop\n      pop\n      jump\t// out\n        /* \"#utility.yul\":3681:3901   */\n    tag_32:\n        /* \"#utility.yul\":3830:3832   */\n      0x20\n        /* \"#utility.yul\":3819:3828   */\n      dup2\n        /* \"#utility.yul\":3812:3833   */\n      mstore\n        /* \"#utility.yul\":3793:3797   */\n      0x00\n        /* \"#utility.yul\":3850:3895   */\n      tag_253\n        /* \"#utility.yul\":3891:3893   */\n      0x20\n        /* \"#utility.yul\":3880:3889   */\n      dup4\n        /* \"#utility.yul\":3876:3894   */\n      add\n        /* \"#utility.yul\":3868:3874   */\n      dup5\n        /* \"#utility.yul\":3850:3895   */\n      tag_305\n      jump\t// in\n        /* \"#utility.yul\":3906:4192   */\n    tag_35:\n        /* \"#utility.yul\":3965:3971   */\n      0x00\n        /* \"#utility.yul\":4018:4020   */\n      0x20\n        /* \"#utility.yul\":4006:4015   */\n      dup3\n        /* \"#utility.yul\":3997:4004   */\n      dup5\n        /* \"#utility.yul\":3993:4016   */\n      sub\n        /* \"#utility.yul\":3989:4021   */\n      slt\n        /* \"#utility.yul\":3986:4038   */\n      iszero\n      tag_348\n      jumpi\n        /* \"#utility.yul\":4034:4035   */\n      0x00\n        /* \"#utility.yul\":4031:4032   */\n      dup1\n        /* \"#utility.yul\":4024:4036   */\n      revert\n        /* \"#utility.yul\":3986:4038   */\n    tag_348:\n        /* \"#utility.yul\":4060:4083   */\n      dup2\n      calldataload\n      sub(shl(0xa0, 0x01), 0x01)\n        /* \"#utility.yul\":4112:4143   */\n      dup2\n      and\n        /* \"#utility.yul\":4102:4144   */\n      dup2\n      eq\n        /* \"#utility.yul\":4092:4162   */\n      tag_253\n      jumpi\n        /* \"#utility.yul\":4158:4159   */\n      0x00\n        /* \"#utility.yul\":4155:4156   */\n      dup1\n        /* \"#utility.yul\":4148:4160   */\n      revert\n        /* \"#utility.yul\":4197:4377   */\n    tag_42:\n        /* \"#utility.yul\":4256:4262   */\n      0x00\n        /* \"#utility.yul\":4309:4311   */\n      0x20\n        /* \"#utility.yul\":4297:4306   */\n      dup3\n        /* \"#utility.yul\":4288:4295   */\n      dup5\n        /* \"#utility.yul\":4284:4307   */\n      sub\n        /* \"#utility.yul\":4280:4312   */\n      slt\n        /* \"#utility.yul\":4277:4329   */\n      iszero\n      tag_351\n      jumpi\n        /* \"#utility.yul\":4325:4326   */\n      0x00\n        /* \"#utility.yul\":4322:4323   */\n      dup1\n        /* \"#utility.yul\":4315:4327   */\n      revert\n        /* \"#utility.yul\":4277:4329   */\n    tag_351:\n      pop\n        /* \"#utility.yul\":4348:4371   */\n      calldataload\n      swap2\n        /* \"#utility.yul\":4197:4377   */\n      swap1\n      pop\n      jump\t// out\n        /* \"#utility.yul\":5195:5863   */\n    tag_69:\n        /* \"#utility.yul\":5275:5281   */\n      0x00\n        /* \"#utility.yul\":5328:5330   */\n      0x20\n        /* \"#utility.yul\":5316:5325   */\n      dup3\n        /* \"#utility.yul\":5307:5314   */\n      dup5\n        /* \"#utility.yul\":5303:5326   */\n      sub\n        /* \"#utility.yul\":5299:5331   */\n      slt\n        /* \"#utility.yul\":5296:5348   */\n      iszero\n      tag_355\n      jumpi\n        /* \"#utility.yul\":5344:5345   */\n      0x00\n        /* \"#utility.yul\":5341:5342   */\n      dup1\n        /* \"#utility.yul\":5334:5346   */\n      revert\n        /* \"#utility.yul\":5296:5348   */\n    tag_355:\n        /* \"#utility.yul\":5377:5386   */\n      dup2\n        /* \"#utility.yul\":5371:5387   */\n      mload\n      sub(shl(0x40, 0x01), 0x01)\n        /* \"#utility.yul\":5402:5408   */\n      dup2\n        /* \"#utility.yul\":5399:5429   */\n      gt\n        /* \"#utility.yul\":5396:5446   */\n      iszero\n      tag_356\n      jumpi\n        /* \"#utility.yul\":5442:5443   */\n      0x00\n        /* \"#utility.yul\":5439:5440   */\n      dup1\n        /* \"#utility.yul\":5432:5444   */\n      revert\n        /* \"#utility.yul\":5396:5446   */\n    tag_356:\n        /* \"#utility.yul\":5465:5487   */\n      dup3\n      add\n        /* \"#utility.yul\":5518:5522   */\n      0x1f\n        /* \"#utility.yul\":5510:5523   */\n      dup2\n      add\n        /* \"#utility.yul\":5506:5533   */\n      dup5\n      sgt\n        /* \"#utility.yul\":5496:5551   */\n      tag_357\n      jumpi\n        /* \"#utility.yul\":5547:5548   */\n      0x00\n        /* \"#utility.yul\":5544:5545   */\n      dup1\n        /* \"#utility.yul\":5537:5549   */\n      revert\n        /* \"#utility.yul\":5496:5551   */\n    tag_357:\n        /* \"#utility.yul\":5580:5582   */\n      dup1\n        /* \"#utility.yul\":5574:5583   */\n      mload\n        /* \"#utility.yul\":5605:5657   */\n      tag_358\n        /* \"#utility.yul\":5621:5656   */\n      tag_319\n        /* \"#utility.yul\":5649:5655   */\n      dup3\n        /* \"#utility.yul\":5621:5656   */\n      tag_301\n      jump\t// in\n        /* \"#utility.yul\":5605:5657   */\n    tag_358:\n        /* \"#utility.yul\":5680:5686   */\n      dup2\n        /* \"#utility.yul\":5673:5678   */\n      dup2\n        /* \"#utility.yul\":5666:5687   */\n      mstore\n        /* \"#utility.yul\":5728:5735   */\n      dup6\n        /* \"#utility.yul\":5723:5725   */\n      0x20\n        /* \"#utility.yul\":5714:5720   */\n      dup4\n        /* \"#utility.yul\":5710:5712   */\n      dup6\n        /* \"#utility.yul\":5706:5721   */\n      add\n        /* \"#utility.yul\":5702:5726   */\n      add\n        /* \"#utility.yul\":5699:5736   */\n      gt\n        /* \"#utility.yul\":5696:5753   */\n      iszero\n      tag_360\n      jumpi\n        /* \"#utility.yul\":5749:5750   */\n      0x00\n        /* \"#utility.yul\":5746:5747   */\n      dup1\n        /* \"#utility.yul\":5739:5751   */\n      revert\n        /* \"#utility.yul\":5696:5753   */\n    tag_360:\n        /* \"#utility.yul\":5762:5833   */\n      tag_361\n        /* \"#utility.yul\":5826:5832   */\n      dup3\n        /* \"#utility.yul\":5821:5823   */\n      0x20\n        /* \"#utility.yul\":5814:5819   */\n      dup4\n        /* \"#utility.yul\":5810:5824   */\n      add\n        /* \"#utility.yul\":5805:5807   */\n      0x20\n        /* \"#utility.yul\":5801:5803   */\n      dup7\n        /* \"#utility.yul\":5797:5808   */\n      add\n        /* \"#utility.yul\":5762:5833   */\n      tag_304\n      jump\t// in\n    tag_361:\n        /* \"#utility.yul\":5852:5857   */\n      swap6\n        /* \"#utility.yul\":5195:5863   */\n      swap5\n      pop\n      pop\n      pop\n      pop\n      pop\n      jump\t// out\n        /* \"#utility.yul\":5868:5995   */\n    tag_78:\n        /* \"#utility.yul\":5929:5939   */\n      0x4e487b71\n        /* \"#utility.yul\":5924:5927   */\n      0xe0\n        /* \"#utility.yul\":5920:5940   */\n      shl\n        /* \"#utility.yul\":5917:5918   */\n      0x00\n        /* \"#utility.yul\":5910:5941   */\n      mstore\n        /* \"#utility.yul\":5960:5964   */\n      0x32\n        /* \"#utility.yul\":5957:5958   */\n      0x04\n        /* \"#utility.yul\":5950:5965   */\n      mstore\n        /* \"#utility.yul\":5984:5988   */\n      0x24\n        /* \"#utility.yul\":5981:5982   */\n      0x00\n        /* \"#utility.yul\":5974:5989   */\n      revert\n        /* \"#utility.yul\":6000:6380   */\n    tag_86:\n        /* \"#utility.yul\":6079:6080   */\n      0x01\n        /* \"#utility.yul\":6075:6087   */\n      dup2\n      dup2\n      shr\n      swap1\n        /* \"#utility.yul\":6122:6134   */\n      dup3\n      and\n      dup1\n        /* \"#utility.yul\":6143:6204   */\n      tag_364\n      jumpi\n        /* \"#utility.yul\":6197:6201   */\n      0x7f\n        /* \"#utility.yul\":6189:6195   */\n      dup3\n        /* \"#utility.yul\":6185:6202   */\n      and\n        /* \"#utility.yul\":6175:6202   */\n      swap2\n      pop\n        /* \"#utility.yul\":6143:6204   */\n    tag_364:\n        /* \"#utility.yul\":6250:6252   */\n      0x20\n        /* \"#utility.yul\":6242:6248   */\n      dup3\n        /* \"#utility.yul\":6239:6253   */\n      lt\n        /* \"#utility.yul\":6219:6237   */\n      dup2\n        /* \"#utility.yul\":6216:6254   */\n      sub\n        /* \"#utility.yul\":6213:6374   */\n      tag_365\n      jumpi\n        /* \"#utility.yul\":6296:6306   */\n      0x4e487b71\n        /* \"#utility.yul\":6291:6294   */\n      0xe0\n        /* \"#utility.yul\":6287:6307   */\n      shl\n        /* \"#utility.yul\":6284:6285   */\n      0x00\n        /* \"#utility.yul\":6277:6308   */\n      mstore\n        /* \"#utility.yul\":6331:6335   */\n      0x22\n        /* \"#utility.yul\":6328:6329   */\n      0x04\n        /* \"#utility.yul\":6321:6336   */\n      mstore\n        /* \"#utility.yul\":6359:6363   */\n      0x24\n        /* \"#utility.yul\":6356:6357   */\n      0x00\n        /* \"#utility.yul\":6349:6364   */\n      revert\n        /* \"#utility.yul\":6213:6374   */\n    tag_365:\n      pop\n        /* \"#utility.yul\":6000:6380   */\n      swap2\n      swap1\n      pop\n      jump\t// out\n        /* \"#utility.yul\":6385:6955   */\n    tag_112:\n        /* \"#utility.yul\":6482:6488   */\n      0x00\n        /* \"#utility.yul\":6490:6496   */\n      dup1\n        /* \"#utility.yul\":6498:6504   */\n      0x00\n        /* \"#utility.yul\":6506:6512   */\n      dup1\n        /* \"#utility.yul\":6559:6562   */\n      0x80\n        /* \"#utility.yul\":6547:6556   */\n      dup6\n        /* \"#utility.yul\":6538:6545   */\n      dup8\n        /* \"#utility.yul\":6534:6557   */\n      sub\n        /* \"#utility.yul\":6530:6563   */\n      slt\n        /* \"#utility.yul\":6527:6580   */\n      iszero\n      tag_367\n      jumpi\n        /* \"#utility.yul\":6576:6577   */\n      0x00\n        /* \"#utility.yul\":6573:6574   */\n      dup1\n        /* \"#utility.yul\":6566:6578   */\n      revert\n        /* \"#utility.yul\":6527:6580   */\n    tag_367:\n      pop\n      pop\n        /* \"#utility.yul\":6621:6637   */\n      dup3\n      mload\n        /* \"#utility.yul\":6727:6729   */\n      0x20\n        /* \"#utility.yul\":6712:6730   */\n      dup5\n      add\n        /* \"#utility.yul\":6706:6731   */\n      mload\n        /* \"#utility.yul\":6823:6825   */\n      0x40\n        /* \"#utility.yul\":6808:6826   */\n      dup6\n      add\n        /* \"#utility.yul\":6802:6827   */\n      mload\n        /* \"#utility.yul\":6919:6921   */\n      0x60\n        /* \"#utility.yul\":6904:6922   */\n      swap1\n      swap6\n      add\n        /* \"#utility.yul\":6898:6923   */\n      mload\n        /* \"#utility.yul\":6621:6637   */\n      swap2\n      swap7\n        /* \"#utility.yul\":6706:6731   */\n      swap1\n      swap6\n      pop\n        /* \"#utility.yul\":6898:6923   */\n      swap1\n      swap3\n      pop\n        /* \"#utility.yul\":6385:6955   */\n      swap1\n      pop\n      jump\t// out\n        /* \"#utility.yul\":6960:7087   */\n    tag_126:\n        /* \"#utility.yul\":7021:7031   */\n      0x4e487b71\n        /* \"#utility.yul\":7016:7019   */\n      0xe0\n        /* \"#utility.yul\":7012:7032   */\n      shl\n        /* \"#utility.yul\":7009:7010   */\n      0x00\n        /* \"#utility.yul\":7002:7033   */\n      mstore\n        /* \"#utility.yul\":7052:7056   */\n      0x21\n        /* \"#utility.yul\":7049:7050   */\n      0x04\n        /* \"#utility.yul\":7042:7057   */\n      mstore\n        /* \"#utility.yul\":7076:7080   */\n      0x24\n        /* \"#utility.yul\":7073:7074   */\n      0x00\n        /* \"#utility.yul\":7066:7081   */\n      revert\n        /* \"#utility.yul\":7092:7646   */\n    tag_171:\n      sub(shl(0x40, 0x01), 0x01)\n        /* \"#utility.yul\":7349:7355   */\n      dup7\n        /* \"#utility.yul\":7345:7376   */\n      and\n        /* \"#utility.yul\":7334:7343   */\n      dup2\n        /* \"#utility.yul\":7327:7377   */\n      mstore\n        /* \"#utility.yul\":7413:7416   */\n      0xa0\n        /* \"#utility.yul\":7408:7410   */\n      0x20\n        /* \"#utility.yul\":7397:7406   */\n      dup3\n        /* \"#utility.yul\":7393:7411   */\n      add\n        /* \"#utility.yul\":7386:7417   */\n      mstore\n        /* \"#utility.yul\":7308:7312   */\n      0x00\n        /* \"#utility.yul\":7434:7480   */\n      tag_370\n        /* \"#utility.yul\":7475:7478   */\n      0xa0\n        /* \"#utility.yul\":7464:7473   */\n      dup4\n        /* \"#utility.yul\":7460:7479   */\n      add\n        /* \"#utility.yul\":7452:7458   */\n      dup8\n        /* \"#utility.yul\":7434:7480   */\n      tag_305\n      jump\t// in\n    tag_370:\n        /* \"#utility.yul\":7528:7534   */\n      0xffff\n        /* \"#utility.yul\":7516:7535   */\n      swap6\n      swap1\n      swap6\n      and\n        /* \"#utility.yul\":7511:7513   */\n      0x40\n        /* \"#utility.yul\":7496:7514   */\n      dup4\n      add\n        /* \"#utility.yul\":7489:7536   */\n      mstore\n      pop\n        /* \"#utility.yul\":7584:7594   */\n      0xffffffff\n        /* \"#utility.yul\":7572:7595   */\n      swap3\n      swap1\n      swap3\n      and\n        /* \"#utility.yul\":7567:7569   */\n      0x60\n        /* \"#utility.yul\":7552:7570   */\n      dup4\n      add\n        /* \"#utility.yul\":7545:7596   */\n      mstore\n        /* \"#utility.yul\":7627:7630   */\n      0x80\n        /* \"#utility.yul\":7612:7631   */\n      swap1\n      swap2\n      add\n        /* \"#utility.yul\":7605:7640   */\n      mstore\n        /* \"#utility.yul\":7426:7480   */\n      swap3\n        /* \"#utility.yul\":7092:7646   */\n      swap2\n      pop\n      pop\n      jump\t// out\n        /* \"#utility.yul\":7651:7835   */\n    tag_175:\n        /* \"#utility.yul\":7721:7727   */\n      0x00\n        /* \"#utility.yul\":7774:7776   */\n      0x20\n        /* \"#utility.yul\":7762:7771   */\n      dup3\n        /* \"#utility.yul\":7753:7760   */\n      dup5\n        /* \"#utility.yul\":7749:7772   */\n      sub\n        /* \"#utility.yul\":7745:7777   */\n      slt\n        /* \"#utility.yul\":7742:7794   */\n      iszero\n      tag_372\n      jumpi\n        /* \"#utility.yul\":7790:7791   */\n      0x00\n        /* \"#utility.yul\":7787:7788   */\n      dup1\n        /* \"#utility.yul\":7780:7792   */\n      revert\n        /* \"#utility.yul\":7742:7794   */\n    tag_372:\n      pop\n        /* \"#utility.yul\":7813:7829   */\n      mload\n      swap2\n        /* \"#utility.yul\":7651:7835   */\n      swap1\n      pop\n      jump\t// out\n        /* \"#utility.yul\":8725:8852   */\n    tag_306:\n        /* \"#utility.yul\":8786:8796   */\n      0x4e487b71\n        /* \"#utility.yul\":8781:8784   */\n      0xe0\n        /* \"#utility.yul\":8777:8797   */\n      shl\n        /* \"#utility.yul\":8774:8775   */\n      0x00\n        /* \"#utility.yul\":8767:8798   */\n      mstore\n        /* \"#utility.yul\":8817:8821   */\n      0x11\n        /* \"#utility.yul\":8814:8815   */\n      0x04\n        /* \"#utility.yul\":8807:8822   */\n      mstore\n        /* \"#utility.yul\":8841:8845   */\n      0x24\n        /* \"#utility.yul\":8838:8839   */\n      0x00\n        /* \"#utility.yul\":8831:8846   */\n      revert\n        /* \"#utility.yul\":8857:8982   */\n    tag_214:\n        /* \"#utility.yul\":8922:8931   */\n      dup1\n      dup3\n      add\n        /* \"#utility.yul\":8943:8953   */\n      dup1\n      dup3\n      gt\n        /* \"#utility.yul\":8940:8976   */\n      iszero\n      tag_224\n      jumpi\n        /* \"#utility.yul\":8956:8974   */\n      tag_224\n      tag_306\n      jump\t// in\n        /* \"#utility.yul\":8987:9115   */\n    tag_218:\n        /* \"#utility.yul\":9054:9063   */\n      dup2\n      dup2\n      sub\n        /* \"#utility.yul\":9075:9086   */\n      dup2\n      dup2\n      gt\n        /* \"#utility.yul\":9072:9109   */\n      iszero\n      tag_224\n      jumpi\n        /* \"#utility.yul\":9089:9107   */\n      tag_224\n      tag_306\n      jump\t// in\n        /* \"#utility.yul\":9120:9329   */\n    tag_226:\n        /* \"#utility.yul\":9152:9153   */\n      0x00\n        /* \"#utility.yul\":9178:9179   */\n      dup3\n        /* \"#utility.yul\":9168:9300   */\n      tag_384\n      jumpi\n        /* \"#utility.yul\":9222:9232   */\n      0x4e487b71\n        /* \"#utility.yul\":9217:9220   */\n      0xe0\n        /* \"#utility.yul\":9213:9233   */\n      shl\n        /* \"#utility.yul\":9210:9211   */\n      0x00\n        /* \"#utility.yul\":9203:9234   */\n      mstore\n        /* \"#utility.yul\":9257:9261   */\n      0x12\n        /* \"#utility.yul\":9254:9255   */\n      0x04\n        /* \"#utility.yul\":9247:9262   */\n      mstore\n        /* \"#utility.yul\":9285:9289   */\n      0x24\n        /* \"#utility.yul\":9282:9283   */\n      0x00\n        /* \"#utility.yul\":9275:9290   */\n      revert\n        /* \"#utility.yul\":9168:9300   */\n    tag_384:\n      pop\n        /* \"#utility.yul\":9314:9323   */\n      mod\n      swap1\n        /* \"#utility.yul\":9120:9329   */\n      jump\t// out\n        /* \"#utility.yul\":9334:9502   */\n    tag_261:\n        /* \"#utility.yul\":9407:9416   */\n      dup1\n      dup3\n      mul\n        /* \"#utility.yul\":9438:9447   */\n      dup2\n      iszero\n        /* \"#utility.yul\":9455:9470   */\n      dup3\n      dup3\n      div\n        /* \"#utility.yul\":9449:9471   */\n      dup5\n      eq\n        /* \"#utility.yul\":9435:9472   */\n      or\n        /* \"#utility.yul\":9425:9496   */\n      tag_224\n      jumpi\n        /* \"#utility.yul\":9476:9494   */\n      tag_224\n      tag_306\n      jump\t// in\n        /* \"#utility.yul\":9507:9882   */\n    tag_307:\n        /* \"#utility.yul\":9595:9596   */\n      0x01\n        /* \"#utility.yul\":9613:9618   */\n      dup2\n        /* \"#utility.yul\":9627:9876   */\n    tag_389:\n        /* \"#utility.yul\":9648:9649   */\n      0x01\n        /* \"#utility.yul\":9638:9646   */\n      dup5\n        /* \"#utility.yul\":9635:9650   */\n      gt\n        /* \"#utility.yul\":9627:9876   */\n      iszero\n      tag_391\n      jumpi\n        /* \"#utility.yul\":9698:9702   */\n      dup1\n        /* \"#utility.yul\":9693:9696   */\n      dup6\n        /* \"#utility.yul\":9689:9703   */\n      div\n        /* \"#utility.yul\":9683:9687   */\n      dup2\n        /* \"#utility.yul\":9680:9704   */\n      gt\n        /* \"#utility.yul\":9677:9727   */\n      iszero\n      tag_393\n      jumpi\n        /* \"#utility.yul\":9707:9725   */\n      tag_393\n      tag_306\n      jump\t// in\n    tag_393:\n        /* \"#utility.yul\":9757:9758   */\n      0x01\n        /* \"#utility.yul\":9747:9755   */\n      dup5\n        /* \"#utility.yul\":9743:9759   */\n      and\n        /* \"#utility.yul\":9740:9789   */\n      iszero\n      tag_394\n      jumpi\n        /* \"#utility.yul\":9771:9787   */\n      swap1\n      dup2\n      mul\n      swap1\n        /* \"#utility.yul\":9740:9789   */\n    tag_394:\n        /* \"#utility.yul\":9854:9855   */\n      0x01\n        /* \"#utility.yul\":9850:9866   */\n      swap4\n      swap1\n      swap4\n      shr\n      swap3\n        /* \"#utility.yul\":9810:9825   */\n      dup1\n      mul\n        /* \"#utility.yul\":9627:9876   */\n      jump(tag_389)\n    tag_391:\n        /* \"#utility.yul\":9507:9882   */\n      swap4\n      pop\n      swap4\n      swap2\n      pop\n      pop\n      jump\t// out\n        /* \"#utility.yul\":9887:10789   */\n    tag_308:\n        /* \"#utility.yul\":9936:9941   */\n      0x00\n        /* \"#utility.yul\":9966:9974   */\n      dup3\n        /* \"#utility.yul\":9956:10036   */\n      tag_396\n      jumpi\n      pop\n        /* \"#utility.yul\":10007:10008   */\n      0x01\n        /* \"#utility.yul\":10021:10026   */\n      jump(tag_224)\n        /* \"#utility.yul\":9956:10036   */\n    tag_396:\n        /* \"#utility.yul\":10055:10059   */\n      dup2\n        /* \"#utility.yul\":10045:10121   */\n      tag_397\n      jumpi\n      pop\n        /* \"#utility.yul\":10092:10093   */\n      0x00\n        /* \"#utility.yul\":10106:10111   */\n      jump(tag_224)\n        /* \"#utility.yul\":10045:10121   */\n    tag_397:\n        /* \"#utility.yul\":10137:10141   */\n      dup2\n        /* \"#utility.yul\":10155:10156   */\n      0x01\n        /* \"#utility.yul\":10150:10209   */\n      dup2\n      eq\n      tag_399\n      jumpi\n        /* \"#utility.yul\":10223:10224   */\n      0x02\n        /* \"#utility.yul\":10218:10392   */\n      dup2\n      eq\n      tag_400\n      jumpi\n        /* \"#utility.yul\":10130:10392   */\n      jump(tag_398)\n        /* \"#utility.yul\":10150:10209   */\n    tag_399:\n        /* \"#utility.yul\":10180:10181   */\n      0x01\n        /* \"#utility.yul\":10171:10181   */\n      swap2\n      pop\n        /* \"#utility.yul\":10194:10199   */\n      pop\n      jump(tag_224)\n        /* \"#utility.yul\":10218:10392   */\n    tag_400:\n        /* \"#utility.yul\":10255:10258   */\n      0xff\n        /* \"#utility.yul\":10245:10253   */\n      dup5\n        /* \"#utility.yul\":10242:10259   */\n      gt\n        /* \"#utility.yul\":10239:10282   */\n      iszero\n      tag_402\n      jumpi\n        /* \"#utility.yul\":10262:10280   */\n      tag_402\n      tag_306\n      jump\t// in\n    tag_402:\n      pop\n      pop\n        /* \"#utility.yul\":10318:10319   */\n      0x01\n        /* \"#utility.yul\":10304:10320   */\n      dup3\n      shl\n        /* \"#utility.yul\":10377:10382   */\n      jump(tag_224)\n        /* \"#utility.yul\":10130:10392   */\n    tag_398:\n      pop\n        /* \"#utility.yul\":10476:10478   */\n      0x20\n        /* \"#utility.yul\":10466:10474   */\n      dup4\n        /* \"#utility.yul\":10463:10479   */\n      lt\n        /* \"#utility.yul\":10457:10460   */\n      0x0133\n        /* \"#utility.yul\":10451:10455   */\n      dup4\n        /* \"#utility.yul\":10448:10461   */\n      lt\n        /* \"#utility.yul\":10444:10480   */\n      and\n        /* \"#utility.yul\":10438:10440   */\n      0x4e\n        /* \"#utility.yul\":10428:10436   */\n      dup5\n        /* \"#utility.yul\":10425:10441   */\n      lt\n        /* \"#utility.yul\":10420:10422   */\n      0x0b\n        /* \"#utility.yul\":10414:10418   */\n      dup5\n        /* \"#utility.yul\":10411:10423   */\n      lt\n        /* \"#utility.yul\":10407:10442   */\n      and\n        /* \"#utility.yul\":10404:10481   */\n      or\n        /* \"#utility.yul\":10401:10604   */\n      iszero\n      tag_403\n      jumpi\n      pop\n        /* \"#utility.yul\":10513:10532   */\n      dup2\n      dup2\n      exp\n        /* \"#utility.yul\":10589:10594   */\n      jump(tag_224)\n        /* \"#utility.yul\":10401:10604   */\n    tag_403:\n        /* \"#utility.yul\":10636:10678   */\n      tag_404\n      not(0x00)\n        /* \"#utility.yul\":10661:10669   */\n      dup5\n        /* \"#utility.yul\":10655:10659   */\n      dup5\n        /* \"#utility.yul\":10636:10678   */\n      tag_307\n      jump\t// in\n    tag_404:\n        /* \"#utility.yul\":10714:10720   */\n      dup1\n        /* \"#utility.yul\":10710:10711   */\n      0x00\n        /* \"#utility.yul\":10706:10712   */\n      not\n        /* \"#utility.yul\":10702:10721   */\n      div\n        /* \"#utility.yul\":10693:10700   */\n      dup3\n        /* \"#utility.yul\":10690:10722   */\n      gt\n        /* \"#utility.yul\":10687:10745   */\n      iszero\n      tag_406\n      jumpi\n        /* \"#utility.yul\":10725:10743   */\n      tag_406\n      tag_306\n      jump\t// in\n    tag_406:\n        /* \"#utility.yul\":10763:10783   */\n      mul\n      swap4\n        /* \"#utility.yul\":9887:10789   */\n      swap3\n      pop\n      pop\n      pop\n      jump\t// out\n        /* \"#utility.yul\":10794:10925   */\n    tag_273:\n        /* \"#utility.yul\":10854:10859   */\n      0x00\n        /* \"#utility.yul\":10883:10919   */\n      tag_253\n        /* \"#utility.yul\":10910:10918   */\n      dup4\n        /* \"#utility.yul\":10904:10908   */\n      dup4\n        /* \"#utility.yul\":10883:10919   */\n      tag_308\n      jump\t// in\n\n    auxdata: 0xa2646970667358221220638cdc7f2b33f627c0b53b6d5409c4c5c88689d8b539d05aae60a2edf3547e4064736f6c634300081c0033\n}\n",
				"bytecode": {
					"linkReferences": {},
					"object": "61050060405261043b60a08181529061190860c039600090610021908261025c565b50604051806102e001604052806102b18152602001611d436102b1913960019061004b908261025c565b5034801561005857600080fd5b50604051611ff4380380611ff48339810160408190526100779161031a565b6001600160a01b03811660805233806000816100da5760405162461bcd60e51b815260206004820152601860248201527f43616e6e6f7420736574206f776e657220746f207a65726f000000000000000060448201526064015b60405180910390fd5b600280546001600160a01b0319166001600160a01b038481169190911790915581161561010a5761010a81610113565b5050505061034a565b336001600160a01b0382160361016b5760405162461bcd60e51b815260206004820152601760248201527f43616e6e6f74207472616e7366657220746f2073656c6600000000000000000060448201526064016100d1565b600380546001600160a01b0319166001600160a01b03838116918217909255600254604051919216907fed8889f560326eb138920d842192f0eb3dd22b4f139c87a2c57538e05bae127890600090a350565b634e487b7160e01b600052604160045260246000fd5b600181811c908216806101e757607f821691505b60208210810361020757634e487b7160e01b600052602260045260246000fd5b50919050565b601f82111561025757806000526020600020601f840160051c810160208510156102345750805b601f840160051c820191505b818110156102545760008155600101610240565b50505b505050565b81516001600160401b03811115610275576102756101bd565b6102898161028384546101d3565b8461020d565b6020601f8211600181146102bd57600083156102a55750848201515b600019600385901b1c1916600184901b178455610254565b600084815260208120601f198516915b828110156102ed57878501518255602094850194600190920191016102cd565b508482101561030b5786840151600019600387901b60f8161c191681555b50505050600190811b01905550565b60006020828403121561032c57600080fd5b81516001600160a01b038116811461034357600080fd5b9392505050565b60805161159c61036c600039600081816101e70152610924015261159c6000f3fe608060405234801561001057600080fd5b50600436106100935760003560e01c8063bd9a548b11610066578063bd9a548b146100f6578063d40d17bc1461010b578063e6b46ff51461011e578063f0ed2e8014610126578063f2fde38b146101c957600080fd5b80630ca761751461009857806379ba5097146100ad5780638da5cb5b146100b5578063a843a0ab146100d5575b600080fd5b6100ab6100a63660046110e3565b6101dc565b005b6100ab610260565b6002546040516001600160a01b0390911681526020015b60405180910390f35b6100e86100e3366004611153565b610313565b6040519081526020016100cc565b6100fe610481565b6040516100cc9190611235565b6100ab610119366004611248565b61050f565b6100fe610539565b610194610134366004611271565b6040805160608082018352600080835260208084018290529284018190529384526005825292829020825193840183525469ffffffffffffffffffff8082168552600160501b8204811692850192909252600160a01b9004169082015290565b60408051825169ffffffffffffffffffff908116825260208085015182169083015292820151909216908201526060016100cc565b6100ab6101d7366004611248565b610546565b336001600160a01b037f000000000000000000000000000000000000000000000000000000000000000016146102255760405163c6829f8360e01b815260040160405180910390fd5b61023083838361055a565b60405183907f85e1543bf2f84fe80c6badbce3648c8539ad1df4d2b3d822938ca0538be727e690600090a2505050565b6003546001600160a01b031633146102b85760405162461bcd60e51b815260206004820152601660248201527526bab9ba10313290383937b837b9b2b21037bbb732b960511b60448201526064015b60405180910390fd5b600280546001600160a01b0319808216339081179093556003805490911690556040516001600160a01b03909116919082907f8be0079c531659141344cd1fd0a4f28419497f9722a3daafe3b4186f6b6457e090600090a350565b6004546000906001600160a01b0316331480159061033c57506002546001600160a01b03163314155b1561035a576040516302dc7d2f60e21b815260040160405180910390fd5b61039b6040805160e0810190915280600081526020016000815260200160008152602001606081526020016060815260200160608152602001606081525090565b61040b306001600160a01b031663bd9a548b6040518163ffffffff1660e01b8152600401600060405180830381865afa1580156103dc573d6000803e3d6000fd5b505050506040513d6000823e601f3d908101601f19168201604052610404919081019061128a565b829061061c565b604080516001808252818301909252600091816020015b6060815260200190600190039081610422579050509050868160008151811061044d5761044d611300565b6020908102919091010152610462828261062d565b61047661046e83610657565b87878761091f565b979650505050505050565b6001805461048e90611316565b80601f01602080910402602001604051908101604052809291908181526020018280546104ba90611316565b80156105075780601f106104dc57610100808354040283529160200191610507565b820191906000526020600020905b8154815290600101906020018083116104ea57829003601f168201915b505050505081565b6105176109f1565b600480546001600160a01b0319166001600160a01b0392909216919091179055565b6000805461048e90611316565b61054e6109f1565b61055781610a46565b50565b80511561057b578060405162461bcd60e51b81526004016102af9190611235565b600080600080858060200190518101906105959190611350565b6040805160608101825269ffffffffffffffffffff9485168152928416602080850191825292851684830190815260009687526005909352942091518254945191518416600160a01b0269ffffffffffffffffffff60a01b19928516600160501b026001600160a01b03199096169190941617939093179290921617905550505050505050565b6106298260008084610af0565b5050565b805160000361064f5760405163fe936cb760e01b815260040160405180910390fd5b60a090910152565b60606000610666610100610b6e565b905061069f6040518060400160405280600c81526020016b31b7b232a637b1b0ba34b7b760a11b81525082610b8f90919063ffffffff16565b82516106bd9060028111156106b6576106b6611386565b8290610bad565b6040805180820190915260088152676c616e677561676560c01b60208201526106e7908290610b8f565b60408301516106fe9080156106b6576106b6611386565b604080518082019091526006815265736f7572636560d01b6020820152610726908290610b8f565b6060830151610736908290610b8f565b60a083015151156107c2576040805180820190915260048152636172677360e01b6020820152610767908290610b8f565b61077081610be6565b60005b8360a00151518110156107b8576107b08460a00151828151811061079957610799611300565b602002602001015183610b8f90919063ffffffff16565b600101610773565b506107c281610c0a565b60808301515115610886576000836020015160028111156107e5576107e5611386565b036108035760405163a80d31f760e01b815260040160405180910390fd5b60408051808201909152600f81526e39b2b1b932ba39a637b1b0ba34b7b760891b6020820152610834908290610b8f565b61084d836020015160028111156106b6576106b6611386565b6040805180820190915260078152667365637265747360c81b6020820152610876908290610b8f565b6080830151610886908290610c28565b60c083015151156109175760408051808201909152600981526862797465734172677360b81b60208201526108bc908290610b8f565b6108c581610be6565b60005b8360c001515181101561090d576109058460c0015182815181106108ee576108ee611300565b602002602001015183610c2890919063ffffffff16565b6001016108c8565b5061091781610c0a565b515192915050565b6000807f00000000000000000000000000000000000000000000000000000000000000006001600160a01b031663461d27628688600188886040518663ffffffff1660e01b815260040161097795949392919061139c565b6020604051808303816000875af1158015610996573d6000803e3d6000fd5b505050506040513d601f19601f820116820180604052508101906109ba91906113e5565b60405190915081907f1131472297a800fee664d1d89cfa8f7676ff07189ecc53f80bbb5f4969099db890600090a295945050505050565b6002546001600160a01b03163314610a445760405162461bcd60e51b815260206004820152601660248201527527b7363c9031b0b63630b1363290313c9037bbb732b960511b60448201526064016102af565b565b336001600160a01b03821603610a9e5760405162461bcd60e51b815260206004820152601760248201527f43616e6e6f74207472616e7366657220746f2073656c6600000000000000000060448201526064016102af565b600380546001600160a01b0319166001600160a01b03838116918217909255600254604051919216907fed8889f560326eb138920d842192f0eb3dd22b4f139c87a2c57538e05bae127890600090a350565b8051600003610b12576040516322ce3edd60e01b815260040160405180910390fd5b83836002811115610b2557610b25611386565b90816002811115610b3857610b38611386565b90525060408401828015610b4e57610b4e611386565b90818015610b5e57610b5e611386565b9052506060909301929092525050565b610b76610fe3565b8051610b829083610c35565b5060006020820152919050565b610b9c8260038351610caf565b8151610ba89082610dce565b505050565b8151610bba9060c2610df6565b506106298282604051602001610bd291815260200190565b604051602081830303815290604052610c28565b610bf1816004610e5f565b600181602001818151610c049190611414565b90525050565b610c15816007610e5f565b600181602001818151610c049190611427565b610b9c8260028351610caf565b604080518082019091526060815260006020820152610c5560208361143a565b15610c7d57610c6560208361143a565b610c70906020611427565b610c7a9083611414565b91505b602080840183905260405180855260008152908184010181811015610ca157600080fd5b604052508290505b92915050565b6017816001600160401b031611610cdb578251610cd59060e0600585901b168317610df6565b50505050565b60ff816001600160401b031611610d1b578251610d03906018611fe0600586901b1617610df6565b508251610cd5906001600160401b0383166001610e76565b61ffff816001600160401b031611610d5c578251610d44906019611fe0600586901b1617610df6565b508251610cd5906001600160401b0383166002610e76565b63ffffffff816001600160401b031611610d9f578251610d8790601a611fe0600586901b1617610df6565b508251610cd5906001600160401b0383166004610e76565b8251610db690601b611fe0600586901b1617610df6565b508251610cd5906001600160401b0383166008610e76565b604080518082019091526060815260006020820152610def83838451610efb565b9392505050565b6040805180820190915260608152600060208201528251516000610e1b826001611414565b905084602001518210610e3c57610e3c85610e3783600261145c565b610fcc565b8451602083820101858153508051821115610e55578181525b5093949350505050565b8151610ba890601f611fe0600585901b1617610df6565b6040805180820190915260608152600060208201528351516000610e9a8285611414565b90508560200151811115610eb757610eb786610e3783600261145c565b60006001610ec78661010061155a565b610ed19190611427565b90508651828101878319825116178152508051831115610eef578281525b50959695505050505050565b6040805180820190915260608152600060208201528251821115610f1e57600080fd5b8351516000610f2d8483611414565b90508560200151811115610f4a57610f4a86610e3783600261145c565b855180518382016020019160009180851115610f64578482525b505050602086015b60208610610fa45780518252610f83602083611414565b9150610f90602082611414565b9050610f9d602087611427565b9550610f6c565b51815160001960208890036101000a0190811690199190911617905250849150509392505050565b8151610fd88383610c35565b50610cd58382610dce565b604051806040016040528061100b604051806040016040528060608152602001600081525090565b8152602001600081525090565b634e487b7160e01b600052604160045260246000fd5b604051601f8201601f191681016001600160401b038111828210171561105657611056611018565b604052919050565b60006001600160401b0382111561107757611077611018565b50601f01601f191660200190565b60006110986110938461105e565b61102e565b90508281528383830111156110ac57600080fd5b828260208301376000602084830101529392505050565b600082601f8301126110d457600080fd5b610def83833560208501611085565b6000806000606084860312156110f857600080fd5b8335925060208401356001600160401b0381111561111557600080fd5b611121868287016110c3565b92505060408401356001600160401b0381111561113d57600080fd5b611149868287016110c3565b9150509250925092565b6000806000806080858703121561116957600080fd5b84356001600160401b0381111561117f57600080fd5b8501601f8101871361119057600080fd5b61119f87823560208401611085565b94505060208501356001600160401b03811681146111bc57600080fd5b9250604085013563ffffffff811681146111d557600080fd5b9396929550929360600135925050565b60005b838110156112005781810151838201526020016111e8565b50506000910152565b600081518084526112218160208601602086016111e5565b601f01601f19169290920160200192915050565b602081526000610def6020830184611209565b60006020828403121561125a57600080fd5b81356001600160a01b0381168114610def57600080fd5b60006020828403121561128357600080fd5b5035919050565b60006020828403121561129c57600080fd5b81516001600160401b038111156112b257600080fd5b8201601f810184136112c357600080fd5b80516112d16110938261105e565b8181528560208385010111156112e657600080fd5b6112f78260208301602086016111e5565b95945050505050565b634e487b7160e01b600052603260045260246000fd5b600181811c9082168061132a57607f821691505b60208210810361134a57634e487b7160e01b600052602260045260246000fd5b50919050565b6000806000806080858703121561136657600080fd5b505082516020840151604085015160609095015191969095509092509050565b634e487b7160e01b600052602160045260246000fd5b6001600160401b038616815260a0602082015260006113be60a0830187611209565b61ffff9590951660408301525063ffffffff92909216606083015260809091015292915050565b6000602082840312156113f757600080fd5b5051919050565b634e487b7160e01b600052601160045260246000fd5b80820180821115610ca957610ca96113fe565b81810381811115610ca957610ca96113fe565b60008261145757634e487b7160e01b600052601260045260246000fd5b500690565b8082028115828204841417610ca957610ca96113fe565b6001815b60018411156114ae57808504811115611492576114926113fe565b60018416156114a057908102905b60019390931c928002611477565b935093915050565b6000826114c557506001610ca9565b816114d257506000610ca9565b81600181146114e857600281146114f25761150e565b6001915050610ca9565b60ff841115611503576115036113fe565b50506001821b610ca9565b5060208310610133831016604e8410600b8410161715611531575081810a610ca9565b61153e6000198484611473565b8060001904821115611552576115526113fe565b029392505050565b6000610def83836114b656fea2646970667358221220638cdc7f2b33f627c0b53b6d5409c4c5c88689d8b539d05aae60a2edf3547e4064736f6c634300081c0033636f6e7374207b20657468657273207d203d20617761697420696d706f727428276e706d3a65746865727340362e31302e3027293b636f6e73742048617368203d20617761697420696d706f727428276e706d3a697066732d6f6e6c792d6861736840342e302e3027293b636f6e737420617069526573706f6e7365203d2061776169742046756e6374696f6e732e6d616b654874747052657175657374287b2020202075726c3a206068747470733a2f2f6170692e627269646765646174616f75747075742e636f6d2f6170692f76322f4f446174612f746573742f50726f70657274792827505f35646261316662393461613430353562396632393639366627293f6163636573735f746f6b656e3d3662616361353437373432633666393661366666373162313338343234663231602c7d293b636f6e7374207265616c45737461746541646472657373203d20617069526573706f6e73652e646174612e556e706172736564416464726573733b636f6e737420796561724275696c74203d204e756d62657228617069526573706f6e73652e646174612e596561724275696c74293b636f6e7374206c6f7453697a6553717561726546656574203d204e756d62657228617069526573706f6e73652e646174612e4c6f7453697a6553717561726546656574293b636f6e7374206c6976696e6741726561203d204e756d62657228617069526573706f6e73652e646174612e4c6976696e6741726561293b636f6e737420626564726f6f6d73546f74616c203d204e756d62657228617069526573706f6e73652e646174612e426564726f6f6d73546f74616c293b636f6e7374206d65746164617461203d207b6e616d653a20605265616c2045737461746520546f6b656e602c617474726962757465733a205b7b2074726169745f747970653a20607265616c45737461746541646472657373602c2076616c75653a207265616c45737461746541646472657373207d2c7b2074726169745f747970653a2060796561724275696c74602c2076616c75653a20796561724275696c74207d2c7b2074726169745f747970653a20606c6f7453697a6553717561726546656574602c2076616c75653a206c6f7453697a6553717561726546656574207d2c7b2074726169745f747970653a20606c6976696e6741726561602c2076616c75653a206c6976696e6741726561207d2c7b2074726169745f747970653a2060626564726f6f6d73546f74616c602c2076616c75653a20626564726f6f6d73546f74616c207d5d7d3b636f6e7374206d65746164617461537472696e67203d204a534f4e2e737472696e67696679286d65746164617461293b636f6e73742069706673436964203d20617761697420486173682e6f66286d65746164617461537472696e67293b72657475726e2046756e6374696f6e732e656e636f6465537472696e672860697066733a2f2f247b697066734369647d60293b636f6e7374207b20657468657273207d203d20617761697420696d706f727428276e706d3a65746865727340362e31302e3027293b636f6e737420616269436f646572203d206574686572732e416269436f6465722e64656661756c74416269436f64657228293b636f6e737420746f6b656e4964203d20617267735b305d3b636f6e737420617069526573706f6e7365203d2061776169742046756e6374696f6e732e6d616b654874747052657175657374287b2020202075726c3a206068747470733a2f2f6170692e627269646765646174616f75747075742e636f6d2f6170692f76322f4f446174612f746573742f50726f70657274792827505f35646261316662393461613430353562396632393639366627293f6163636573735f746f6b656e3d3662616361353437373432633666393661366666373162313338343234663231602c7d293b636f6e7374206c6973745072696365203d204e756d62657228617069526573706f6e73652e646174612e4c6973745072696365293b636f6e7374206f726967696e616c4c6973745072696365203d204e756d62657228617069526573706f6e73652e646174612e4f726967696e616c4c6973745072696365293b636f6e737420746178417373657373656456616c7565203d204e756d62657228617069526573706f6e73652e646174612e546178417373657373656456616c7565293b636f6e737420656e636f646564203d20616269436f6465722e656e636f6465285b6075696e74323536602c206075696e74323536602c206075696e74323536602c206075696e74323536605d2c205b746f6b656e49642c206c69737450726963652c206f726967696e616c4c69737450726963652c20746178417373657373656456616c75655d293b72657475726e206574686572732e676574427974657328656e636f646564293b",
					"opcodes": "PUSH2 0x500 PUSH1 0x40 MSTORE PUSH2 0x43B PUSH1 0xA0 DUP2 DUP2 MSTORE SWAP1 PUSH2 0x1908 PUSH1 0xC0 CODECOPY PUSH1 0x0 SWAP1 PUSH2 0x21 SWAP1 DUP3 PUSH2 0x25C JUMP JUMPDEST POP PUSH1 0x40 MLOAD DUP1 PUSH2 0x2E0 ADD PUSH1 0x40 MSTORE DUP1 PUSH2 0x2B1 DUP2 MSTORE PUSH1 0x20 ADD PUSH2 0x1D43 PUSH2 0x2B1 SWAP2 CODECOPY PUSH1 0x1 SWAP1 PUSH2 0x4B SWAP1 DUP3 PUSH2 0x25C JUMP JUMPDEST POP CALLVALUE DUP1 ISZERO PUSH2 0x58 JUMPI PUSH1 0x0 DUP1 REVERT JUMPDEST POP PUSH1 0x40 MLOAD PUSH2 0x1FF4 CODESIZE SUB DUP1 PUSH2 0x1FF4 DUP4 CODECOPY DUP2 ADD PUSH1 0x40 DUP2 SWAP1 MSTORE PUSH2 0x77 SWAP2 PUSH2 0x31A JUMP JUMPDEST PUSH1 0x1 PUSH1 0x1 PUSH1 0xA0 SHL SUB DUP2 AND PUSH1 0x80 MSTORE CALLER DUP1 PUSH1 0x0 DUP2 PUSH2 0xDA JUMPI PUSH1 0x40 MLOAD PUSH3 0x461BCD PUSH1 0xE5 SHL DUP2 MSTORE PUSH1 0x20 PUSH1 0x4 DUP3 ADD MSTORE PUSH1 0x18 PUSH1 0x24 DUP3 ADD MSTORE PUSH32 0x43616E6E6F7420736574206F776E657220746F207A65726F0000000000000000 PUSH1 0x44 DUP3 ADD MSTORE PUSH1 0x64 ADD JUMPDEST PUSH1 0x40 MLOAD DUP1 SWAP2 SUB SWAP1 REVERT JUMPDEST PUSH1 0x2 DUP1 SLOAD PUSH1 0x1 PUSH1 0x1 PUSH1 0xA0 SHL SUB NOT AND PUSH1 0x1 PUSH1 0x1 PUSH1 0xA0 SHL SUB DUP5 DUP2 AND SWAP2 SWAP1 SWAP2 OR SWAP1 SWAP2 SSTORE DUP2 AND ISZERO PUSH2 0x10A JUMPI PUSH2 0x10A DUP2 PUSH2 0x113 JUMP JUMPDEST POP POP POP POP PUSH2 0x34A JUMP JUMPDEST CALLER PUSH1 0x1 PUSH1 0x1 PUSH1 0xA0 SHL SUB DUP3 AND SUB PUSH2 0x16B JUMPI PUSH1 0x40 MLOAD PUSH3 0x461BCD PUSH1 0xE5 SHL DUP2 MSTORE PUSH1 0x20 PUSH1 0x4 DUP3 ADD MSTORE PUSH1 0x17 PUSH1 0x24 DUP3 ADD MSTORE PUSH32 0x43616E6E6F74207472616E7366657220746F2073656C66000000000000000000 PUSH1 0x44 DUP3 ADD MSTORE PUSH1 0x64 ADD PUSH2 0xD1 JUMP JUMPDEST PUSH1 0x3 DUP1 SLOAD PUSH1 0x1 PUSH1 0x1 PUSH1 0xA0 SHL SUB NOT AND PUSH1 0x1 PUSH1 0x1 PUSH1 0xA0 SHL SUB DUP4 DUP2 AND SWAP2 DUP3 OR SWAP1 SWAP3 SSTORE PUSH1 0x2 SLOAD PUSH1 0x40 MLOAD SWAP2 SWAP3 AND SWAP1 PUSH32 0xED8889F560326EB138920D842192F0EB3DD22B4F139C87A2C57538E05BAE1278 SWAP1 PUSH1 0x0 SWAP1 LOG3 POP JUMP JUMPDEST PUSH4 0x4E487B71 PUSH1 0xE0 SHL PUSH1 0x0 MSTORE PUSH1 0x41 PUSH1 0x4 MSTORE PUSH1 0x24 PUSH1 0x0 REVERT JUMPDEST PUSH1 0x1 DUP2 DUP2 SHR SWAP1 DUP3 AND DUP1 PUSH2 0x1E7 JUMPI PUSH1 0x7F DUP3 AND SWAP2 POP JUMPDEST PUSH1 0x20 DUP3 LT DUP2 SUB PUSH2 0x207 JUMPI PUSH4 0x4E487B71 PUSH1 0xE0 SHL PUSH1 0x0 MSTORE PUSH1 0x22 PUSH1 0x4 MSTORE PUSH1 0x24 PUSH1 0x0 REVERT JUMPDEST POP SWAP2 SWAP1 POP JUMP JUMPDEST PUSH1 0x1F DUP3 GT ISZERO PUSH2 0x257 JUMPI DUP1 PUSH1 0x0 MSTORE PUSH1 0x20 PUSH1 0x0 KECCAK256 PUSH1 0x1F DUP5 ADD PUSH1 0x5 SHR DUP2 ADD PUSH1 0x20 DUP6 LT ISZERO PUSH2 0x234 JUMPI POP DUP1 JUMPDEST PUSH1 0x1F DUP5 ADD PUSH1 0x5 SHR DUP3 ADD SWAP2 POP JUMPDEST DUP2 DUP2 LT ISZERO PUSH2 0x254 JUMPI PUSH1 0x0 DUP2 SSTORE PUSH1 0x1 ADD PUSH2 0x240 JUMP JUMPDEST POP POP JUMPDEST POP POP POP JUMP JUMPDEST DUP2 MLOAD PUSH1 0x1 PUSH1 0x1 PUSH1 0x40 SHL SUB DUP2 GT ISZERO PUSH2 0x275 JUMPI PUSH2 0x275 PUSH2 0x1BD JUMP JUMPDEST PUSH2 0x289 DUP2 PUSH2 0x283 DUP5 SLOAD PUSH2 0x1D3 JUMP JUMPDEST DUP5 PUSH2 0x20D JUMP JUMPDEST PUSH1 0x20 PUSH1 0x1F DUP3 GT PUSH1 0x1 DUP2 EQ PUSH2 0x2BD JUMPI PUSH1 0x0 DUP4 ISZERO PUSH2 0x2A5 JUMPI POP DUP5 DUP3 ADD MLOAD JUMPDEST PUSH1 0x0 NOT PUSH1 0x3 DUP6 SWAP1 SHL SHR NOT AND PUSH1 0x1 DUP5 SWAP1 SHL OR DUP5 SSTORE PUSH2 0x254 JUMP JUMPDEST PUSH1 0x0 DUP5 DUP2 MSTORE PUSH1 0x20 DUP2 KECCAK256 PUSH1 0x1F NOT DUP6 AND SWAP2 JUMPDEST DUP3 DUP2 LT ISZERO PUSH2 0x2ED JUMPI DUP8 DUP6 ADD MLOAD DUP3 SSTORE PUSH1 0x20 SWAP5 DUP6 ADD SWAP5 PUSH1 0x1 SWAP1 SWAP3 ADD SWAP2 ADD PUSH2 0x2CD JUMP JUMPDEST POP DUP5 DUP3 LT ISZERO PUSH2 0x30B JUMPI DUP7 DUP5 ADD MLOAD PUSH1 0x0 NOT PUSH1 0x3 DUP8 SWAP1 SHL PUSH1 0xF8 AND SHR NOT AND DUP2 SSTORE JUMPDEST POP POP POP POP PUSH1 0x1 SWAP1 DUP2 SHL ADD SWAP1 SSTORE POP JUMP JUMPDEST PUSH1 0x0 PUSH1 0x20 DUP3 DUP5 SUB SLT ISZERO PUSH2 0x32C JUMPI PUSH1 0x0 DUP1 REVERT JUMPDEST DUP2 MLOAD PUSH1 0x1 PUSH1 0x1 PUSH1 0xA0 SHL SUB DUP2 AND DUP2 EQ PUSH2 0x343 JUMPI PUSH1 0x0 DUP1 REVERT JUMPDEST SWAP4 SWAP3 POP POP POP JUMP JUMPDEST PUSH1 0x80 MLOAD PUSH2 0x159C PUSH2 0x36C PUSH1 0x0 CODECOPY PUSH1 0x0 DUP2 DUP2 PUSH2 0x1E7 ADD MSTORE PUSH2 0x924 ADD MSTORE PUSH2 0x159C PUSH1 0x0 RETURN INVALID PUSH1 0x80 PUSH1 0x40 MSTORE CALLVALUE DUP1 ISZERO PUSH2 0x10 JUMPI PUSH1 0x0 DUP1 REVERT JUMPDEST POP PUSH1 0x4 CALLDATASIZE LT PUSH2 0x93 JUMPI PUSH1 0x0 CALLDATALOAD PUSH1 0xE0 SHR DUP1 PUSH4 0xBD9A548B GT PUSH2 0x66 JUMPI DUP1 PUSH4 0xBD9A548B EQ PUSH2 0xF6 JUMPI DUP1 PUSH4 0xD40D17BC EQ PUSH2 0x10B JUMPI DUP1 PUSH4 0xE6B46FF5 EQ PUSH2 0x11E JUMPI DUP1 PUSH4 0xF0ED2E80 EQ PUSH2 0x126 JUMPI DUP1 PUSH4 0xF2FDE38B EQ PUSH2 0x1C9 JUMPI PUSH1 0x0 DUP1 REVERT JUMPDEST DUP1 PUSH4 0xCA76175 EQ PUSH2 0x98 JUMPI DUP1 PUSH4 0x79BA5097 EQ PUSH2 0xAD JUMPI DUP1 PUSH4 0x8DA5CB5B EQ PUSH2 0xB5 JUMPI DUP1 PUSH4 0xA843A0AB EQ PUSH2 0xD5 JUMPI JUMPDEST PUSH1 0x0 DUP1 REVERT JUMPDEST PUSH2 0xAB PUSH2 0xA6 CALLDATASIZE PUSH1 0x4 PUSH2 0x10E3 JUMP JUMPDEST PUSH2 0x1DC JUMP JUMPDEST STOP JUMPDEST PUSH2 0xAB PUSH2 0x260 JUMP JUMPDEST PUSH1 0x2 SLOAD PUSH1 0x40 MLOAD PUSH1 0x1 PUSH1 0x1 PUSH1 0xA0 SHL SUB SWAP1 SWAP2 AND DUP2 MSTORE PUSH1 0x20 ADD JUMPDEST PUSH1 0x40 MLOAD DUP1 SWAP2 SUB SWAP1 RETURN JUMPDEST PUSH2 0xE8 PUSH2 0xE3 CALLDATASIZE PUSH1 0x4 PUSH2 0x1153 JUMP JUMPDEST PUSH2 0x313 JUMP JUMPDEST PUSH1 0x40 MLOAD SWAP1 DUP2 MSTORE PUSH1 0x20 ADD PUSH2 0xCC JUMP JUMPDEST PUSH2 0xFE PUSH2 0x481 JUMP JUMPDEST PUSH1 0x40 MLOAD PUSH2 0xCC SWAP2 SWAP1 PUSH2 0x1235 JUMP JUMPDEST PUSH2 0xAB PUSH2 0x119 CALLDATASIZE PUSH1 0x4 PUSH2 0x1248 JUMP JUMPDEST PUSH2 0x50F JUMP JUMPDEST PUSH2 0xFE PUSH2 0x539 JUMP JUMPDEST PUSH2 0x194 PUSH2 0x134 CALLDATASIZE PUSH1 0x4 PUSH2 0x1271 JUMP JUMPDEST PUSH1 0x40 DUP1 MLOAD PUSH1 0x60 DUP1 DUP3 ADD DUP4 MSTORE PUSH1 0x0 DUP1 DUP4 MSTORE PUSH1 0x20 DUP1 DUP5 ADD DUP3 SWAP1 MSTORE SWAP3 DUP5 ADD DUP2 SWAP1 MSTORE SWAP4 DUP5 MSTORE PUSH1 0x5 DUP3 MSTORE SWAP3 DUP3 SWAP1 KECCAK256 DUP3 MLOAD SWAP4 DUP5 ADD DUP4 MSTORE SLOAD PUSH10 0xFFFFFFFFFFFFFFFFFFFF DUP1 DUP3 AND DUP6 MSTORE PUSH1 0x1 PUSH1 0x50 SHL DUP3 DIV DUP2 AND SWAP3 DUP6 ADD SWAP3 SWAP1 SWAP3 MSTORE PUSH1 0x1 PUSH1 0xA0 SHL SWAP1 DIV AND SWAP1 DUP3 ADD MSTORE SWAP1 JUMP JUMPDEST PUSH1 0x40 DUP1 MLOAD DUP3 MLOAD PUSH10 0xFFFFFFFFFFFFFFFFFFFF SWAP1 DUP2 AND DUP3 MSTORE PUSH1 0x20 DUP1 DUP6 ADD MLOAD DUP3 AND SWAP1 DUP4 ADD MSTORE SWAP3 DUP3 ADD MLOAD SWAP1 SWAP3 AND SWAP1 DUP3 ADD MSTORE PUSH1 0x60 ADD PUSH2 0xCC JUMP JUMPDEST PUSH2 0xAB PUSH2 0x1D7 CALLDATASIZE PUSH1 0x4 PUSH2 0x1248 JUMP JUMPDEST PUSH2 0x546 JUMP JUMPDEST CALLER PUSH1 0x1 PUSH1 0x1 PUSH1 0xA0 SHL SUB PUSH32 0x0 AND EQ PUSH2 0x225 JUMPI PUSH1 0x40 MLOAD PUSH4 0xC6829F83 PUSH1 0xE0 SHL DUP2 MSTORE PUSH1 0x4 ADD PUSH1 0x40 MLOAD DUP1 SWAP2 SUB SWAP1 REVERT JUMPDEST PUSH2 0x230 DUP4 DUP4 DUP4 PUSH2 0x55A JUMP JUMPDEST PUSH1 0x40 MLOAD DUP4 SWAP1 PUSH32 0x85E1543BF2F84FE80C6BADBCE3648C8539AD1DF4D2B3D822938CA0538BE727E6 SWAP1 PUSH1 0x0 SWAP1 LOG2 POP POP POP JUMP JUMPDEST PUSH1 0x3 SLOAD PUSH1 0x1 PUSH1 0x1 PUSH1 0xA0 SHL SUB AND CALLER EQ PUSH2 0x2B8 JUMPI PUSH1 0x40 MLOAD PUSH3 0x461BCD PUSH1 0xE5 SHL DUP2 MSTORE PUSH1 0x20 PUSH1 0x4 DUP3 ADD MSTORE PUSH1 0x16 PUSH1 0x24 DUP3 ADD MSTORE PUSH22 0x26BAB9BA10313290383937B837B9B2B21037BBB732B9 PUSH1 0x51 SHL PUSH1 0x44 DUP3 ADD MSTORE PUSH1 0x64 ADD JUMPDEST PUSH1 0x40 MLOAD DUP1 SWAP2 SUB SWAP1 REVERT JUMPDEST PUSH1 0x2 DUP1 SLOAD PUSH1 0x1 PUSH1 0x1 PUSH1 0xA0 SHL SUB NOT DUP1 DUP3 AND CALLER SWAP1 DUP2 OR SWAP1 SWAP4 SSTORE PUSH1 0x3 DUP1 SLOAD SWAP1 SWAP2 AND SWAP1 SSTORE PUSH1 0x40 MLOAD PUSH1 0x1 PUSH1 0x1 PUSH1 0xA0 SHL SUB SWAP1 SWAP2 AND SWAP2 SWAP1 DUP3 SWAP1 PUSH32 0x8BE0079C531659141344CD1FD0A4F28419497F9722A3DAAFE3B4186F6B6457E0 SWAP1 PUSH1 0x0 SWAP1 LOG3 POP JUMP JUMPDEST PUSH1 0x4 SLOAD PUSH1 0x0 SWAP1 PUSH1 0x1 PUSH1 0x1 PUSH1 0xA0 SHL SUB AND CALLER EQ DUP1 ISZERO SWAP1 PUSH2 0x33C JUMPI POP PUSH1 0x2 SLOAD PUSH1 0x1 PUSH1 0x1 PUSH1 0xA0 SHL SUB AND CALLER EQ ISZERO JUMPDEST ISZERO PUSH2 0x35A JUMPI PUSH1 0x40 MLOAD PUSH4 0x2DC7D2F PUSH1 0xE2 SHL DUP2 MSTORE PUSH1 0x4 ADD PUSH1 0x40 MLOAD DUP1 SWAP2 SUB SWAP1 REVERT JUMPDEST PUSH2 0x39B PUSH1 0x40 DUP1 MLOAD PUSH1 0xE0 DUP2 ADD SWAP1 SWAP2 MSTORE DUP1 PUSH1 0x0 DUP2 MSTORE PUSH1 0x20 ADD PUSH1 0x0 DUP2 MSTORE PUSH1 0x20 ADD PUSH1 0x0 DUP2 MSTORE PUSH1 0x20 ADD PUSH1 0x60 DUP2 MSTORE PUSH1 0x20 ADD PUSH1 0x60 DUP2 MSTORE PUSH1 0x20 ADD PUSH1 0x60 DUP2 MSTORE PUSH1 0x20 ADD PUSH1 0x60 DUP2 MSTORE POP SWAP1 JUMP JUMPDEST PUSH2 0x40B ADDRESS PUSH1 0x1 PUSH1 0x1 PUSH1 0xA0 SHL SUB AND PUSH4 0xBD9A548B PUSH1 0x40 MLOAD DUP2 PUSH4 0xFFFFFFFF AND PUSH1 0xE0 SHL DUP2 MSTORE PUSH1 0x4 ADD PUSH1 0x0 PUSH1 0x40 MLOAD DUP1 DUP4 SUB DUP2 DUP7 GAS STATICCALL ISZERO DUP1 ISZERO PUSH2 0x3DC JUMPI RETURNDATASIZE PUSH1 0x0 DUP1 RETURNDATACOPY RETURNDATASIZE PUSH1 0x0 REVERT JUMPDEST POP POP POP POP PUSH1 0x40 MLOAD RETURNDATASIZE PUSH1 0x0 DUP3 RETURNDATACOPY PUSH1 0x1F RETURNDATASIZE SWAP1 DUP2 ADD PUSH1 0x1F NOT AND DUP3 ADD PUSH1 0x40 MSTORE PUSH2 0x404 SWAP2 SWAP1 DUP2 ADD SWAP1 PUSH2 0x128A JUMP JUMPDEST DUP3 SWAP1 PUSH2 0x61C JUMP JUMPDEST PUSH1 0x40 DUP1 MLOAD PUSH1 0x1 DUP1 DUP3 MSTORE DUP2 DUP4 ADD SWAP1 SWAP3 MSTORE PUSH1 0x0 SWAP2 DUP2 PUSH1 0x20 ADD JUMPDEST PUSH1 0x60 DUP2 MSTORE PUSH1 0x20 ADD SWAP1 PUSH1 0x1 SWAP1 SUB SWAP1 DUP2 PUSH2 0x422 JUMPI SWAP1 POP POP SWAP1 POP DUP7 DUP2 PUSH1 0x0 DUP2 MLOAD DUP2 LT PUSH2 0x44D JUMPI PUSH2 0x44D PUSH2 0x1300 JUMP JUMPDEST PUSH1 0x20 SWAP1 DUP2 MUL SWAP2 SWAP1 SWAP2 ADD ADD MSTORE PUSH2 0x462 DUP3 DUP3 PUSH2 0x62D JUMP JUMPDEST PUSH2 0x476 PUSH2 0x46E DUP4 PUSH2 0x657 JUMP JUMPDEST DUP8 DUP8 DUP8 PUSH2 0x91F JUMP JUMPDEST SWAP8 SWAP7 POP POP POP POP POP POP POP JUMP JUMPDEST PUSH1 0x1 DUP1 SLOAD PUSH2 0x48E SWAP1 PUSH2 0x1316 JUMP JUMPDEST DUP1 PUSH1 0x1F ADD PUSH1 0x20 DUP1 SWAP2 DIV MUL PUSH1 0x20 ADD PUSH1 0x40 MLOAD SWAP1 DUP2 ADD PUSH1 0x40 MSTORE DUP1 SWAP3 SWAP2 SWAP1 DUP2 DUP2 MSTORE PUSH1 0x20 ADD DUP3 DUP1 SLOAD PUSH2 0x4BA SWAP1 PUSH2 0x1316 JUMP JUMPDEST DUP1 ISZERO PUSH2 0x507 JUMPI DUP1 PUSH1 0x1F LT PUSH2 0x4DC JUMPI PUSH2 0x100 DUP1 DUP4 SLOAD DIV MUL DUP4 MSTORE SWAP2 PUSH1 0x20 ADD SWAP2 PUSH2 0x507 JUMP JUMPDEST DUP3 ADD SWAP2 SWAP1 PUSH1 0x0 MSTORE PUSH1 0x20 PUSH1 0x0 KECCAK256 SWAP1 JUMPDEST DUP2 SLOAD DUP2 MSTORE SWAP1 PUSH1 0x1 ADD SWAP1 PUSH1 0x20 ADD DUP1 DUP4 GT PUSH2 0x4EA JUMPI DUP3 SWAP1 SUB PUSH1 0x1F AND DUP3 ADD SWAP2 JUMPDEST POP POP POP POP POP DUP2 JUMP JUMPDEST PUSH2 0x517 PUSH2 0x9F1 JUMP JUMPDEST PUSH1 0x4 DUP1 SLOAD PUSH1 0x1 PUSH1 0x1 PUSH1 0xA0 SHL SUB NOT AND PUSH1 0x1 PUSH1 0x1 PUSH1 0xA0 SHL SUB SWAP3 SWAP1 SWAP3 AND SWAP2 SWAP1 SWAP2 OR SWAP1 SSTORE JUMP JUMPDEST PUSH1 0x0 DUP1 SLOAD PUSH2 0x48E SWAP1 PUSH2 0x1316 JUMP JUMPDEST PUSH2 0x54E PUSH2 0x9F1 JUMP JUMPDEST PUSH2 0x557 DUP2 PUSH2 0xA46 JUMP JUMPDEST POP JUMP JUMPDEST DUP1 MLOAD ISZERO PUSH2 0x57B JUMPI DUP1 PUSH1 0x40 MLOAD PUSH3 0x461BCD PUSH1 0xE5 SHL DUP2 MSTORE PUSH1 0x4 ADD PUSH2 0x2AF SWAP2 SWAP1 PUSH2 0x1235 JUMP JUMPDEST PUSH1 0x0 DUP1 PUSH1 0x0 DUP1 DUP6 DUP1 PUSH1 0x20 ADD SWAP1 MLOAD DUP2 ADD SWAP1 PUSH2 0x595 SWAP2 SWAP1 PUSH2 0x1350 JUMP JUMPDEST PUSH1 0x40 DUP1 MLOAD PUSH1 0x60 DUP2 ADD DUP3 MSTORE PUSH10 0xFFFFFFFFFFFFFFFFFFFF SWAP5 DUP6 AND DUP2 MSTORE SWAP3 DUP5 AND PUSH1 0x20 DUP1 DUP6 ADD SWAP2 DUP3 MSTORE SWAP3 DUP6 AND DUP5 DUP4 ADD SWAP1 DUP2 MSTORE PUSH1 0x0 SWAP7 DUP8 MSTORE PUSH1 0x5 SWAP1 SWAP4 MSTORE SWAP5 KECCAK256 SWAP2 MLOAD DUP3 SLOAD SWAP5 MLOAD SWAP2 MLOAD DUP5 AND PUSH1 0x1 PUSH1 0xA0 SHL MUL PUSH10 0xFFFFFFFFFFFFFFFFFFFF PUSH1 0xA0 SHL NOT SWAP3 DUP6 AND PUSH1 0x1 PUSH1 0x50 SHL MUL PUSH1 0x1 PUSH1 0x1 PUSH1 0xA0 SHL SUB NOT SWAP1 SWAP7 AND SWAP2 SWAP1 SWAP5 AND OR SWAP4 SWAP1 SWAP4 OR SWAP3 SWAP1 SWAP3 AND OR SWAP1 SSTORE POP POP POP POP POP POP POP JUMP JUMPDEST PUSH2 0x629 DUP3 PUSH1 0x0 DUP1 DUP5 PUSH2 0xAF0 JUMP JUMPDEST POP POP JUMP JUMPDEST DUP1 MLOAD PUSH1 0x0 SUB PUSH2 0x64F JUMPI PUSH1 0x40 MLOAD PUSH4 0xFE936CB7 PUSH1 0xE0 SHL DUP2 MSTORE PUSH1 0x4 ADD PUSH1 0x40 MLOAD DUP1 SWAP2 SUB SWAP1 REVERT JUMPDEST PUSH1 0xA0 SWAP1 SWAP2 ADD MSTORE JUMP JUMPDEST PUSH1 0x60 PUSH1 0x0 PUSH2 0x666 PUSH2 0x100 PUSH2 0xB6E JUMP JUMPDEST SWAP1 POP PUSH2 0x69F PUSH1 0x40 MLOAD DUP1 PUSH1 0x40 ADD PUSH1 0x40 MSTORE DUP1 PUSH1 0xC DUP2 MSTORE PUSH1 0x20 ADD PUSH12 0x31B7B232A637B1B0BA34B7B7 PUSH1 0xA1 SHL DUP2 MSTORE POP DUP3 PUSH2 0xB8F SWAP1 SWAP2 SWAP1 PUSH4 0xFFFFFFFF AND JUMP JUMPDEST DUP3 MLOAD PUSH2 0x6BD SWAP1 PUSH1 0x2 DUP2 GT ISZERO PUSH2 0x6B6 JUMPI PUSH2 0x6B6 PUSH2 0x1386 JUMP JUMPDEST DUP3 SWAP1 PUSH2 0xBAD JUMP JUMPDEST PUSH1 0x40 DUP1 MLOAD DUP1 DUP3 ADD SWAP1 SWAP2 MSTORE PUSH1 0x8 DUP2 MSTORE PUSH8 0x6C616E6775616765 PUSH1 0xC0 SHL PUSH1 0x20 DUP3 ADD MSTORE PUSH2 0x6E7 SWAP1 DUP3 SWAP1 PUSH2 0xB8F JUMP JUMPDEST PUSH1 0x40 DUP4 ADD MLOAD PUSH2 0x6FE SWAP1 DUP1 ISZERO PUSH2 0x6B6 JUMPI PUSH2 0x6B6 PUSH2 0x1386 JUMP JUMPDEST PUSH1 0x40 DUP1 MLOAD DUP1 DUP3 ADD SWAP1 SWAP2 MSTORE PUSH1 0x6 DUP2 MSTORE PUSH6 0x736F75726365 PUSH1 0xD0 SHL PUSH1 0x20 DUP3 ADD MSTORE PUSH2 0x726 SWAP1 DUP3 SWAP1 PUSH2 0xB8F JUMP JUMPDEST PUSH1 0x60 DUP4 ADD MLOAD PUSH2 0x736 SWAP1 DUP3 SWAP1 PUSH2 0xB8F JUMP JUMPDEST PUSH1 0xA0 DUP4 ADD MLOAD MLOAD ISZERO PUSH2 0x7C2 JUMPI PUSH1 0x40 DUP1 MLOAD DUP1 DUP3 ADD SWAP1 SWAP2 MSTORE PUSH1 0x4 DUP2 MSTORE PUSH4 0x61726773 PUSH1 0xE0 SHL PUSH1 0x20 DUP3 ADD MSTORE PUSH2 0x767 SWAP1 DUP3 SWAP1 PUSH2 0xB8F JUMP JUMPDEST PUSH2 0x770 DUP2 PUSH2 0xBE6 JUMP JUMPDEST PUSH1 0x0 JUMPDEST DUP4 PUSH1 0xA0 ADD MLOAD MLOAD DUP2 LT ISZERO PUSH2 0x7B8 JUMPI PUSH2 0x7B0 DUP5 PUSH1 0xA0 ADD MLOAD DUP3 DUP2 MLOAD DUP2 LT PUSH2 0x799 JUMPI PUSH2 0x799 PUSH2 0x1300 JUMP JUMPDEST PUSH1 0x20 MUL PUSH1 0x20 ADD ADD MLOAD DUP4 PUSH2 0xB8F SWAP1 SWAP2 SWAP1 PUSH4 0xFFFFFFFF AND JUMP JUMPDEST PUSH1 0x1 ADD PUSH2 0x773 JUMP JUMPDEST POP PUSH2 0x7C2 DUP2 PUSH2 0xC0A JUMP JUMPDEST PUSH1 0x80 DUP4 ADD MLOAD MLOAD ISZERO PUSH2 0x886 JUMPI PUSH1 0x0 DUP4 PUSH1 0x20 ADD MLOAD PUSH1 0x2 DUP2 GT ISZERO PUSH2 0x7E5 JUMPI PUSH2 0x7E5 PUSH2 0x1386 JUMP JUMPDEST SUB PUSH2 0x803 JUMPI PUSH1 0x40 MLOAD PUSH4 0xA80D31F7 PUSH1 0xE0 SHL DUP2 MSTORE PUSH1 0x4 ADD PUSH1 0x40 MLOAD DUP1 SWAP2 SUB SWAP1 REVERT JUMPDEST PUSH1 0x40 DUP1 MLOAD DUP1 DUP3 ADD SWAP1 SWAP2 MSTORE PUSH1 0xF DUP2 MSTORE PUSH15 0x39B2B1B932BA39A637B1B0BA34B7B7 PUSH1 0x89 SHL PUSH1 0x20 DUP3 ADD MSTORE PUSH2 0x834 SWAP1 DUP3 SWAP1 PUSH2 0xB8F JUMP JUMPDEST PUSH2 0x84D DUP4 PUSH1 0x20 ADD MLOAD PUSH1 0x2 DUP2 GT ISZERO PUSH2 0x6B6 JUMPI PUSH2 0x6B6 PUSH2 0x1386 JUMP JUMPDEST PUSH1 0x40 DUP1 MLOAD DUP1 DUP3 ADD SWAP1 SWAP2 MSTORE PUSH1 0x7 DUP2 MSTORE PUSH7 0x73656372657473 PUSH1 0xC8 SHL PUSH1 0x20 DUP3 ADD MSTORE PUSH2 0x876 SWAP1 DUP3 SWAP1 PUSH2 0xB8F JUMP JUMPDEST PUSH1 0x80 DUP4 ADD MLOAD PUSH2 0x886 SWAP1 DUP3 SWAP1 PUSH2 0xC28 JUMP JUMPDEST PUSH1 0xC0 DUP4 ADD MLOAD MLOAD ISZERO PUSH2 0x917 JUMPI PUSH1 0x40 DUP1 MLOAD DUP1 DUP3 ADD SWAP1 SWAP2 MSTORE PUSH1 0x9 DUP2 MSTORE PUSH9 0x627974657341726773 PUSH1 0xB8 SHL PUSH1 0x20 DUP3 ADD MSTORE PUSH2 0x8BC SWAP1 DUP3 SWAP1 PUSH2 0xB8F JUMP JUMPDEST PUSH2 0x8C5 DUP2 PUSH2 0xBE6 JUMP JUMPDEST PUSH1 0x0 JUMPDEST DUP4 PUSH1 0xC0 ADD MLOAD MLOAD DUP2 LT ISZERO PUSH2 0x90D JUMPI PUSH2 0x905 DUP5 PUSH1 0xC0 ADD MLOAD DUP3 DUP2 MLOAD DUP2 LT PUSH2 0x8EE JUMPI PUSH2 0x8EE PUSH2 0x1300 JUMP JUMPDEST PUSH1 0x20 MUL PUSH1 0x20 ADD ADD MLOAD DUP4 PUSH2 0xC28 SWAP1 SWAP2 SWAP1 PUSH4 0xFFFFFFFF AND JUMP JUMPDEST PUSH1 0x1 ADD PUSH2 0x8C8 JUMP JUMPDEST POP PUSH2 0x917 DUP2 PUSH2 0xC0A JUMP JUMPDEST MLOAD MLOAD SWAP3 SWAP2 POP POP JUMP JUMPDEST PUSH1 0x0 DUP1 PUSH32 0x0 PUSH1 0x1 PUSH1 0x1 PUSH1 0xA0 SHL SUB AND PUSH4 0x461D2762 DUP7 DUP9 PUSH1 0x1 DUP9 DUP9 PUSH1 0x40 MLOAD DUP7 PUSH4 0xFFFFFFFF AND PUSH1 0xE0 SHL DUP2 MSTORE PUSH1 0x4 ADD PUSH2 0x977 SWAP6 SWAP5 SWAP4 SWAP3 SWAP2 SWAP1 PUSH2 0x139C JUMP JUMPDEST PUSH1 0x20 PUSH1 0x40 MLOAD DUP1 DUP4 SUB DUP2 PUSH1 0x0 DUP8 GAS CALL ISZERO DUP1 ISZERO PUSH2 0x996 JUMPI RETURNDATASIZE PUSH1 0x0 DUP1 RETURNDATACOPY RETURNDATASIZE PUSH1 0x0 REVERT JUMPDEST POP POP POP POP PUSH1 0x40 MLOAD RETURNDATASIZE PUSH1 0x1F NOT PUSH1 0x1F DUP3 ADD AND DUP3 ADD DUP1 PUSH1 0x40 MSTORE POP DUP2 ADD SWAP1 PUSH2 0x9BA SWAP2 SWAP1 PUSH2 0x13E5 JUMP JUMPDEST PUSH1 0x40 MLOAD SWAP1 SWAP2 POP DUP2 SWAP1 PUSH32 0x1131472297A800FEE664D1D89CFA8F7676FF07189ECC53F80BBB5F4969099DB8 SWAP1 PUSH1 0x0 SWAP1 LOG2 SWAP6 SWAP5 POP POP POP POP POP JUMP JUMPDEST PUSH1 0x2 SLOAD PUSH1 0x1 PUSH1 0x1 PUSH1 0xA0 SHL SUB AND CALLER EQ PUSH2 0xA44 JUMPI PUSH1 0x40 MLOAD PUSH3 0x461BCD PUSH1 0xE5 SHL DUP2 MSTORE PUSH1 0x20 PUSH1 0x4 DUP3 ADD MSTORE PUSH1 0x16 PUSH1 0x24 DUP3 ADD MSTORE PUSH22 0x27B7363C9031B0B63630B1363290313C9037BBB732B9 PUSH1 0x51 SHL PUSH1 0x44 DUP3 ADD MSTORE PUSH1 0x64 ADD PUSH2 0x2AF JUMP JUMPDEST JUMP JUMPDEST CALLER PUSH1 0x1 PUSH1 0x1 PUSH1 0xA0 SHL SUB DUP3 AND SUB PUSH2 0xA9E JUMPI PUSH1 0x40 MLOAD PUSH3 0x461BCD PUSH1 0xE5 SHL DUP2 MSTORE PUSH1 0x20 PUSH1 0x4 DUP3 ADD MSTORE PUSH1 0x17 PUSH1 0x24 DUP3 ADD MSTORE PUSH32 0x43616E6E6F74207472616E7366657220746F2073656C66000000000000000000 PUSH1 0x44 DUP3 ADD MSTORE PUSH1 0x64 ADD PUSH2 0x2AF JUMP JUMPDEST PUSH1 0x3 DUP1 SLOAD PUSH1 0x1 PUSH1 0x1 PUSH1 0xA0 SHL SUB NOT AND PUSH1 0x1 PUSH1 0x1 PUSH1 0xA0 SHL SUB DUP4 DUP2 AND SWAP2 DUP3 OR SWAP1 SWAP3 SSTORE PUSH1 0x2 SLOAD PUSH1 0x40 MLOAD SWAP2 SWAP3 AND SWAP1 PUSH32 0xED8889F560326EB138920D842192F0EB3DD22B4F139C87A2C57538E05BAE1278 SWAP1 PUSH1 0x0 SWAP1 LOG3 POP JUMP JUMPDEST DUP1 MLOAD PUSH1 0x0 SUB PUSH2 0xB12 JUMPI PUSH1 0x40 MLOAD PUSH4 0x22CE3EDD PUSH1 0xE0 SHL DUP2 MSTORE PUSH1 0x4 ADD PUSH1 0x40 MLOAD DUP1 SWAP2 SUB SWAP1 REVERT JUMPDEST DUP4 DUP4 PUSH1 0x2 DUP2 GT ISZERO PUSH2 0xB25 JUMPI PUSH2 0xB25 PUSH2 0x1386 JUMP JUMPDEST SWAP1 DUP2 PUSH1 0x2 DUP2 GT ISZERO PUSH2 0xB38 JUMPI PUSH2 0xB38 PUSH2 0x1386 JUMP JUMPDEST SWAP1 MSTORE POP PUSH1 0x40 DUP5 ADD DUP3 DUP1 ISZERO PUSH2 0xB4E JUMPI PUSH2 0xB4E PUSH2 0x1386 JUMP JUMPDEST SWAP1 DUP2 DUP1 ISZERO PUSH2 0xB5E JUMPI PUSH2 0xB5E PUSH2 0x1386 JUMP JUMPDEST SWAP1 MSTORE POP PUSH1 0x60 SWAP1 SWAP4 ADD SWAP3 SWAP1 SWAP3 MSTORE POP POP JUMP JUMPDEST PUSH2 0xB76 PUSH2 0xFE3 JUMP JUMPDEST DUP1 MLOAD PUSH2 0xB82 SWAP1 DUP4 PUSH2 0xC35 JUMP JUMPDEST POP PUSH1 0x0 PUSH1 0x20 DUP3 ADD MSTORE SWAP2 SWAP1 POP JUMP JUMPDEST PUSH2 0xB9C DUP3 PUSH1 0x3 DUP4 MLOAD PUSH2 0xCAF JUMP JUMPDEST DUP2 MLOAD PUSH2 0xBA8 SWAP1 DUP3 PUSH2 0xDCE JUMP JUMPDEST POP POP POP JUMP JUMPDEST DUP2 MLOAD PUSH2 0xBBA SWAP1 PUSH1 0xC2 PUSH2 0xDF6 JUMP JUMPDEST POP PUSH2 0x629 DUP3 DUP3 PUSH1 0x40 MLOAD PUSH1 0x20 ADD PUSH2 0xBD2 SWAP2 DUP2 MSTORE PUSH1 0x20 ADD SWAP1 JUMP JUMPDEST PUSH1 0x40 MLOAD PUSH1 0x20 DUP2 DUP4 SUB SUB DUP2 MSTORE SWAP1 PUSH1 0x40 MSTORE PUSH2 0xC28 JUMP JUMPDEST PUSH2 0xBF1 DUP2 PUSH1 0x4 PUSH2 0xE5F JUMP JUMPDEST PUSH1 0x1 DUP2 PUSH1 0x20 ADD DUP2 DUP2 MLOAD PUSH2 0xC04 SWAP2 SWAP1 PUSH2 0x1414 JUMP JUMPDEST SWAP1 MSTORE POP POP JUMP JUMPDEST PUSH2 0xC15 DUP2 PUSH1 0x7 PUSH2 0xE5F JUMP JUMPDEST PUSH1 0x1 DUP2 PUSH1 0x20 ADD DUP2 DUP2 MLOAD PUSH2 0xC04 SWAP2 SWAP1 PUSH2 0x1427 JUMP JUMPDEST PUSH2 0xB9C DUP3 PUSH1 0x2 DUP4 MLOAD PUSH2 0xCAF JUMP JUMPDEST PUSH1 0x40 DUP1 MLOAD DUP1 DUP3 ADD SWAP1 SWAP2 MSTORE PUSH1 0x60 DUP2 MSTORE PUSH1 0x0 PUSH1 0x20 DUP3 ADD MSTORE PUSH2 0xC55 PUSH1 0x20 DUP4 PUSH2 0x143A JUMP JUMPDEST ISZERO PUSH2 0xC7D JUMPI PUSH2 0xC65 PUSH1 0x20 DUP4 PUSH2 0x143A JUMP JUMPDEST PUSH2 0xC70 SWAP1 PUSH1 0x20 PUSH2 0x1427 JUMP JUMPDEST PUSH2 0xC7A SWAP1 DUP4 PUSH2 0x1414 JUMP JUMPDEST SWAP2 POP JUMPDEST PUSH1 0x20 DUP1 DUP5 ADD DUP4 SWAP1 MSTORE PUSH1 0x40 MLOAD DUP1 DUP6 MSTORE PUSH1 0x0 DUP2 MSTORE SWAP1 DUP2 DUP5 ADD ADD DUP2 DUP2 LT ISZERO PUSH2 0xCA1 JUMPI PUSH1 0x0 DUP1 REVERT JUMPDEST PUSH1 0x40 MSTORE POP DUP3 SWAP1 POP JUMPDEST SWAP3 SWAP2 POP POP JUMP JUMPDEST PUSH1 0x17 DUP2 PUSH1 0x1 PUSH1 0x1 PUSH1 0x40 SHL SUB AND GT PUSH2 0xCDB JUMPI DUP3 MLOAD PUSH2 0xCD5 SWAP1 PUSH1 0xE0 PUSH1 0x5 DUP6 SWAP1 SHL AND DUP4 OR PUSH2 0xDF6 JUMP JUMPDEST POP POP POP POP JUMP JUMPDEST PUSH1 0xFF DUP2 PUSH1 0x1 PUSH1 0x1 PUSH1 0x40 SHL SUB AND GT PUSH2 0xD1B JUMPI DUP3 MLOAD PUSH2 0xD03 SWAP1 PUSH1 0x18 PUSH2 0x1FE0 PUSH1 0x5 DUP7 SWAP1 SHL AND OR PUSH2 0xDF6 JUMP JUMPDEST POP DUP3 MLOAD PUSH2 0xCD5 SWAP1 PUSH1 0x1 PUSH1 0x1 PUSH1 0x40 SHL SUB DUP4 AND PUSH1 0x1 PUSH2 0xE76 JUMP JUMPDEST PUSH2 0xFFFF DUP2 PUSH1 0x1 PUSH1 0x1 PUSH1 0x40 SHL SUB AND GT PUSH2 0xD5C JUMPI DUP3 MLOAD PUSH2 0xD44 SWAP1 PUSH1 0x19 PUSH2 0x1FE0 PUSH1 0x5 DUP7 SWAP1 SHL AND OR PUSH2 0xDF6 JUMP JUMPDEST POP DUP3 MLOAD PUSH2 0xCD5 SWAP1 PUSH1 0x1 PUSH1 0x1 PUSH1 0x40 SHL SUB DUP4 AND PUSH1 0x2 PUSH2 0xE76 JUMP JUMPDEST PUSH4 0xFFFFFFFF DUP2 PUSH1 0x1 PUSH1 0x1 PUSH1 0x40 SHL SUB AND GT PUSH2 0xD9F JUMPI DUP3 MLOAD PUSH2 0xD87 SWAP1 PUSH1 0x1A PUSH2 0x1FE0 PUSH1 0x5 DUP7 SWAP1 SHL AND OR PUSH2 0xDF6 JUMP JUMPDEST POP DUP3 MLOAD PUSH2 0xCD5 SWAP1 PUSH1 0x1 PUSH1 0x1 PUSH1 0x40 SHL SUB DUP4 AND PUSH1 0x4 PUSH2 0xE76 JUMP JUMPDEST DUP3 MLOAD PUSH2 0xDB6 SWAP1 PUSH1 0x1B PUSH2 0x1FE0 PUSH1 0x5 DUP7 SWAP1 SHL AND OR PUSH2 0xDF6 JUMP JUMPDEST POP DUP3 MLOAD PUSH2 0xCD5 SWAP1 PUSH1 0x1 PUSH1 0x1 PUSH1 0x40 SHL SUB DUP4 AND PUSH1 0x8 PUSH2 0xE76 JUMP JUMPDEST PUSH1 0x40 DUP1 MLOAD DUP1 DUP3 ADD SWAP1 SWAP2 MSTORE PUSH1 0x60 DUP2 MSTORE PUSH1 0x0 PUSH1 0x20 DUP3 ADD MSTORE PUSH2 0xDEF DUP4 DUP4 DUP5 MLOAD PUSH2 0xEFB JUMP JUMPDEST SWAP4 SWAP3 POP POP POP JUMP JUMPDEST PUSH1 0x40 DUP1 MLOAD DUP1 DUP3 ADD SWAP1 SWAP2 MSTORE PUSH1 0x60 DUP2 MSTORE PUSH1 0x0 PUSH1 0x20 DUP3 ADD MSTORE DUP3 MLOAD MLOAD PUSH1 0x0 PUSH2 0xE1B DUP3 PUSH1 0x1 PUSH2 0x1414 JUMP JUMPDEST SWAP1 POP DUP5 PUSH1 0x20 ADD MLOAD DUP3 LT PUSH2 0xE3C JUMPI PUSH2 0xE3C DUP6 PUSH2 0xE37 DUP4 PUSH1 0x2 PUSH2 0x145C JUMP JUMPDEST PUSH2 0xFCC JUMP JUMPDEST DUP5 MLOAD PUSH1 0x20 DUP4 DUP3 ADD ADD DUP6 DUP2 MSTORE8 POP DUP1 MLOAD DUP3 GT ISZERO PUSH2 0xE55 JUMPI DUP2 DUP2 MSTORE JUMPDEST POP SWAP4 SWAP5 SWAP4 POP POP POP POP JUMP JUMPDEST DUP2 MLOAD PUSH2 0xBA8 SWAP1 PUSH1 0x1F PUSH2 0x1FE0 PUSH1 0x5 DUP6 SWAP1 SHL AND OR PUSH2 0xDF6 JUMP JUMPDEST PUSH1 0x40 DUP1 MLOAD DUP1 DUP3 ADD SWAP1 SWAP2 MSTORE PUSH1 0x60 DUP2 MSTORE PUSH1 0x0 PUSH1 0x20 DUP3 ADD MSTORE DUP4 MLOAD MLOAD PUSH1 0x0 PUSH2 0xE9A DUP3 DUP6 PUSH2 0x1414 JUMP JUMPDEST SWAP1 POP DUP6 PUSH1 0x20 ADD MLOAD DUP2 GT ISZERO PUSH2 0xEB7 JUMPI PUSH2 0xEB7 DUP7 PUSH2 0xE37 DUP4 PUSH1 0x2 PUSH2 0x145C JUMP JUMPDEST PUSH1 0x0 PUSH1 0x1 PUSH2 0xEC7 DUP7 PUSH2 0x100 PUSH2 0x155A JUMP JUMPDEST PUSH2 0xED1 SWAP2 SWAP1 PUSH2 0x1427 JUMP JUMPDEST SWAP1 POP DUP7 MLOAD DUP3 DUP2 ADD DUP8 DUP4 NOT DUP3 MLOAD AND OR DUP2 MSTORE POP DUP1 MLOAD DUP4 GT ISZERO PUSH2 0xEEF JUMPI DUP3 DUP2 MSTORE JUMPDEST POP SWAP6 SWAP7 SWAP6 POP POP POP POP POP POP JUMP JUMPDEST PUSH1 0x40 DUP1 MLOAD DUP1 DUP3 ADD SWAP1 SWAP2 MSTORE PUSH1 0x60 DUP2 MSTORE PUSH1 0x0 PUSH1 0x20 DUP3 ADD MSTORE DUP3 MLOAD DUP3 GT ISZERO PUSH2 0xF1E JUMPI PUSH1 0x0 DUP1 REVERT JUMPDEST DUP4 MLOAD MLOAD PUSH1 0x0 PUSH2 0xF2D DUP5 DUP4 PUSH2 0x1414 JUMP JUMPDEST SWAP1 POP DUP6 PUSH1 0x20 ADD MLOAD DUP2 GT ISZERO PUSH2 0xF4A JUMPI PUSH2 0xF4A DUP7 PUSH2 0xE37 DUP4 PUSH1 0x2 PUSH2 0x145C JUMP JUMPDEST DUP6 MLOAD DUP1 MLOAD DUP4 DUP3 ADD PUSH1 0x20 ADD SWAP2 PUSH1 0x0 SWAP2 DUP1 DUP6 GT ISZERO PUSH2 0xF64 JUMPI DUP5 DUP3 MSTORE JUMPDEST POP POP POP PUSH1 0x20 DUP7 ADD JUMPDEST PUSH1 0x20 DUP7 LT PUSH2 0xFA4 JUMPI DUP1 MLOAD DUP3 MSTORE PUSH2 0xF83 PUSH1 0x20 DUP4 PUSH2 0x1414 JUMP JUMPDEST SWAP2 POP PUSH2 0xF90 PUSH1 0x20 DUP3 PUSH2 0x1414 JUMP JUMPDEST SWAP1 POP PUSH2 0xF9D PUSH1 0x20 DUP8 PUSH2 0x1427 JUMP JUMPDEST SWAP6 POP PUSH2 0xF6C JUMP JUMPDEST MLOAD DUP2 MLOAD PUSH1 0x0 NOT PUSH1 0x20 DUP9 SWAP1 SUB PUSH2 0x100 EXP ADD SWAP1 DUP2 AND SWAP1 NOT SWAP2 SWAP1 SWAP2 AND OR SWAP1 MSTORE POP DUP5 SWAP2 POP POP SWAP4 SWAP3 POP POP POP JUMP JUMPDEST DUP2 MLOAD PUSH2 0xFD8 DUP4 DUP4 PUSH2 0xC35 JUMP JUMPDEST POP PUSH2 0xCD5 DUP4 DUP3 PUSH2 0xDCE JUMP JUMPDEST PUSH1 0x40 MLOAD DUP1 PUSH1 0x40 ADD PUSH1 0x40 MSTORE DUP1 PUSH2 0x100B PUSH1 0x40 MLOAD DUP1 PUSH1 0x40 ADD PUSH1 0x40 MSTORE DUP1 PUSH1 0x60 DUP2 MSTORE PUSH1 0x20 ADD PUSH1 0x0 DUP2 MSTORE POP SWAP1 JUMP JUMPDEST DUP2 MSTORE PUSH1 0x20 ADD PUSH1 0x0 DUP2 MSTORE POP SWAP1 JUMP JUMPDEST PUSH4 0x4E487B71 PUSH1 0xE0 SHL PUSH1 0x0 MSTORE PUSH1 0x41 PUSH1 0x4 MSTORE PUSH1 0x24 PUSH1 0x0 REVERT JUMPDEST PUSH1 0x40 MLOAD PUSH1 0x1F DUP3 ADD PUSH1 0x1F NOT AND DUP2 ADD PUSH1 0x1 PUSH1 0x1 PUSH1 0x40 SHL SUB DUP2 GT DUP3 DUP3 LT OR ISZERO PUSH2 0x1056 JUMPI PUSH2 0x1056 PUSH2 0x1018 JUMP JUMPDEST PUSH1 0x40 MSTORE SWAP2 SWAP1 POP JUMP JUMPDEST PUSH1 0x0 PUSH1 0x1 PUSH1 0x1 PUSH1 0x40 SHL SUB DUP3 GT ISZERO PUSH2 0x1077 JUMPI PUSH2 0x1077 PUSH2 0x1018 JUMP JUMPDEST POP PUSH1 0x1F ADD PUSH1 0x1F NOT AND PUSH1 0x20 ADD SWAP1 JUMP JUMPDEST PUSH1 0x0 PUSH2 0x1098 PUSH2 0x1093 DUP5 PUSH2 0x105E JUMP JUMPDEST PUSH2 0x102E JUMP JUMPDEST SWAP1 POP DUP3 DUP2 MSTORE DUP4 DUP4 DUP4 ADD GT ISZERO PUSH2 0x10AC JUMPI PUSH1 0x0 DUP1 REVERT JUMPDEST DUP3 DUP3 PUSH1 0x20 DUP4 ADD CALLDATACOPY PUSH1 0x0 PUSH1 0x20 DUP5 DUP4 ADD ADD MSTORE SWAP4 SWAP3 POP POP POP JUMP JUMPDEST PUSH1 0x0 DUP3 PUSH1 0x1F DUP4 ADD SLT PUSH2 0x10D4 JUMPI PUSH1 0x0 DUP1 REVERT JUMPDEST PUSH2 0xDEF DUP4 DUP4 CALLDATALOAD PUSH1 0x20 DUP6 ADD PUSH2 0x1085 JUMP JUMPDEST PUSH1 0x0 DUP1 PUSH1 0x0 PUSH1 0x60 DUP5 DUP7 SUB SLT ISZERO PUSH2 0x10F8 JUMPI PUSH1 0x0 DUP1 REVERT JUMPDEST DUP4 CALLDATALOAD SWAP3 POP PUSH1 0x20 DUP5 ADD CALLDATALOAD PUSH1 0x1 PUSH1 0x1 PUSH1 0x40 SHL SUB DUP2 GT ISZERO PUSH2 0x1115 JUMPI PUSH1 0x0 DUP1 REVERT JUMPDEST PUSH2 0x1121 DUP7 DUP3 DUP8 ADD PUSH2 0x10C3 JUMP JUMPDEST SWAP3 POP POP PUSH1 0x40 DUP5 ADD CALLDATALOAD PUSH1 0x1 PUSH1 0x1 PUSH1 0x40 SHL SUB DUP2 GT ISZERO PUSH2 0x113D JUMPI PUSH1 0x0 DUP1 REVERT JUMPDEST PUSH2 0x1149 DUP7 DUP3 DUP8 ADD PUSH2 0x10C3 JUMP JUMPDEST SWAP2 POP POP SWAP3 POP SWAP3 POP SWAP3 JUMP JUMPDEST PUSH1 0x0 DUP1 PUSH1 0x0 DUP1 PUSH1 0x80 DUP6 DUP8 SUB SLT ISZERO PUSH2 0x1169 JUMPI PUSH1 0x0 DUP1 REVERT JUMPDEST DUP5 CALLDATALOAD PUSH1 0x1 PUSH1 0x1 PUSH1 0x40 SHL SUB DUP2 GT ISZERO PUSH2 0x117F JUMPI PUSH1 0x0 DUP1 REVERT JUMPDEST DUP6 ADD PUSH1 0x1F DUP2 ADD DUP8 SGT PUSH2 0x1190 JUMPI PUSH1 0x0 DUP1 REVERT JUMPDEST PUSH2 0x119F DUP8 DUP3 CALLDATALOAD PUSH1 0x20 DUP5 ADD PUSH2 0x1085 JUMP JUMPDEST SWAP5 POP POP PUSH1 0x20 DUP6 ADD CALLDATALOAD PUSH1 0x1 PUSH1 0x1 PUSH1 0x40 SHL SUB DUP2 AND DUP2 EQ PUSH2 0x11BC JUMPI PUSH1 0x0 DUP1 REVERT JUMPDEST SWAP3 POP PUSH1 0x40 DUP6 ADD CALLDATALOAD PUSH4 0xFFFFFFFF DUP2 AND DUP2 EQ PUSH2 0x11D5 JUMPI PUSH1 0x0 DUP1 REVERT JUMPDEST SWAP4 SWAP7 SWAP3 SWAP6 POP SWAP3 SWAP4 PUSH1 0x60 ADD CALLDATALOAD SWAP3 POP POP JUMP JUMPDEST PUSH1 0x0 JUMPDEST DUP4 DUP2 LT ISZERO PUSH2 0x1200 JUMPI DUP2 DUP2 ADD MLOAD DUP4 DUP3 ADD MSTORE PUSH1 0x20 ADD PUSH2 0x11E8 JUMP JUMPDEST POP POP PUSH1 0x0 SWAP2 ADD MSTORE JUMP JUMPDEST PUSH1 0x0 DUP2 MLOAD DUP1 DUP5 MSTORE PUSH2 0x1221 DUP2 PUSH1 0x20 DUP7 ADD PUSH1 0x20 DUP7 ADD PUSH2 0x11E5 JUMP JUMPDEST PUSH1 0x1F ADD PUSH1 0x1F NOT AND SWAP3 SWAP1 SWAP3 ADD PUSH1 0x20 ADD SWAP3 SWAP2 POP POP JUMP JUMPDEST PUSH1 0x20 DUP2 MSTORE PUSH1 0x0 PUSH2 0xDEF PUSH1 0x20 DUP4 ADD DUP5 PUSH2 0x1209 JUMP JUMPDEST PUSH1 0x0 PUSH1 0x20 DUP3 DUP5 SUB SLT ISZERO PUSH2 0x125A JUMPI PUSH1 0x0 DUP1 REVERT JUMPDEST DUP2 CALLDATALOAD PUSH1 0x1 PUSH1 0x1 PUSH1 0xA0 SHL SUB DUP2 AND DUP2 EQ PUSH2 0xDEF JUMPI PUSH1 0x0 DUP1 REVERT JUMPDEST PUSH1 0x0 PUSH1 0x20 DUP3 DUP5 SUB SLT ISZERO PUSH2 0x1283 JUMPI PUSH1 0x0 DUP1 REVERT JUMPDEST POP CALLDATALOAD SWAP2 SWAP1 POP JUMP JUMPDEST PUSH1 0x0 PUSH1 0x20 DUP3 DUP5 SUB SLT ISZERO PUSH2 0x129C JUMPI PUSH1 0x0 DUP1 REVERT JUMPDEST DUP2 MLOAD PUSH1 0x1 PUSH1 0x1 PUSH1 0x40 SHL SUB DUP2 GT ISZERO PUSH2 0x12B2 JUMPI PUSH1 0x0 DUP1 REVERT JUMPDEST DUP3 ADD PUSH1 0x1F DUP2 ADD DUP5 SGT PUSH2 0x12C3 JUMPI PUSH1 0x0 DUP1 REVERT JUMPDEST DUP1 MLOAD PUSH2 0x12D1 PUSH2 0x1093 DUP3 PUSH2 0x105E JUMP JUMPDEST DUP2 DUP2 MSTORE DUP6 PUSH1 0x20 DUP4 DUP6 ADD ADD GT ISZERO PUSH2 0x12E6 JUMPI PUSH1 0x0 DUP1 REVERT JUMPDEST PUSH2 0x12F7 DUP3 PUSH1 0x20 DUP4 ADD PUSH1 0x20 DUP7 ADD PUSH2 0x11E5 JUMP JUMPDEST SWAP6 SWAP5 POP POP POP POP POP JUMP JUMPDEST PUSH4 0x4E487B71 PUSH1 0xE0 SHL PUSH1 0x0 MSTORE PUSH1 0x32 PUSH1 0x4 MSTORE PUSH1 0x24 PUSH1 0x0 REVERT JUMPDEST PUSH1 0x1 DUP2 DUP2 SHR SWAP1 DUP3 AND DUP1 PUSH2 0x132A JUMPI PUSH1 0x7F DUP3 AND SWAP2 POP JUMPDEST PUSH1 0x20 DUP3 LT DUP2 SUB PUSH2 0x134A JUMPI PUSH4 0x4E487B71 PUSH1 0xE0 SHL PUSH1 0x0 MSTORE PUSH1 0x22 PUSH1 0x4 MSTORE PUSH1 0x24 PUSH1 0x0 REVERT JUMPDEST POP SWAP2 SWAP1 POP JUMP JUMPDEST PUSH1 0x0 DUP1 PUSH1 0x0 DUP1 PUSH1 0x80 DUP6 DUP8 SUB SLT ISZERO PUSH2 0x1366 JUMPI PUSH1 0x0 DUP1 REVERT JUMPDEST POP POP DUP3 MLOAD PUSH1 0x20 DUP5 ADD MLOAD PUSH1 0x40 DUP6 ADD MLOAD PUSH1 0x60 SWAP1 SWAP6 ADD MLOAD SWAP2 SWAP7 SWAP1 SWAP6 POP SWAP1 SWAP3 POP SWAP1 POP JUMP JUMPDEST PUSH4 0x4E487B71 PUSH1 0xE0 SHL PUSH1 0x0 MSTORE PUSH1 0x21 PUSH1 0x4 MSTORE PUSH1 0x24 PUSH1 0x0 REVERT JUMPDEST PUSH1 0x1 PUSH1 0x1 PUSH1 0x40 SHL SUB DUP7 AND DUP2 MSTORE PUSH1 0xA0 PUSH1 0x20 DUP3 ADD MSTORE PUSH1 0x0 PUSH2 0x13BE PUSH1 0xA0 DUP4 ADD DUP8 PUSH2 0x1209 JUMP JUMPDEST PUSH2 0xFFFF SWAP6 SWAP1 SWAP6 AND PUSH1 0x40 DUP4 ADD MSTORE POP PUSH4 0xFFFFFFFF SWAP3 SWAP1 SWAP3 AND PUSH1 0x60 DUP4 ADD MSTORE PUSH1 0x80 SWAP1 SWAP2 ADD MSTORE SWAP3 SWAP2 POP POP JUMP JUMPDEST PUSH1 0x0 PUSH1 0x20 DUP3 DUP5 SUB SLT ISZERO PUSH2 0x13F7 JUMPI PUSH1 0x0 DUP1 REVERT JUMPDEST POP MLOAD SWAP2 SWAP1 POP JUMP JUMPDEST PUSH4 0x4E487B71 PUSH1 0xE0 SHL PUSH1 0x0 MSTORE PUSH1 0x11 PUSH1 0x4 MSTORE PUSH1 0x24 PUSH1 0x0 REVERT JUMPDEST DUP1 DUP3 ADD DUP1 DUP3 GT ISZERO PUSH2 0xCA9 JUMPI PUSH2 0xCA9 PUSH2 0x13FE JUMP JUMPDEST DUP2 DUP2 SUB DUP2 DUP2 GT ISZERO PUSH2 0xCA9 JUMPI PUSH2 0xCA9 PUSH2 0x13FE JUMP JUMPDEST PUSH1 0x0 DUP3 PUSH2 0x1457 JUMPI PUSH4 0x4E487B71 PUSH1 0xE0 SHL PUSH1 0x0 MSTORE PUSH1 0x12 PUSH1 0x4 MSTORE PUSH1 0x24 PUSH1 0x0 REVERT JUMPDEST POP MOD SWAP1 JUMP JUMPDEST DUP1 DUP3 MUL DUP2 ISZERO DUP3 DUP3 DIV DUP5 EQ OR PUSH2 0xCA9 JUMPI PUSH2 0xCA9 PUSH2 0x13FE JUMP JUMPDEST PUSH1 0x1 DUP2 JUMPDEST PUSH1 0x1 DUP5 GT ISZERO PUSH2 0x14AE JUMPI DUP1 DUP6 DIV DUP2 GT ISZERO PUSH2 0x1492 JUMPI PUSH2 0x1492 PUSH2 0x13FE JUMP JUMPDEST PUSH1 0x1 DUP5 AND ISZERO PUSH2 0x14A0 JUMPI SWAP1 DUP2 MUL SWAP1 JUMPDEST PUSH1 0x1 SWAP4 SWAP1 SWAP4 SHR SWAP3 DUP1 MUL PUSH2 0x1477 JUMP JUMPDEST SWAP4 POP SWAP4 SWAP2 POP POP JUMP JUMPDEST PUSH1 0x0 DUP3 PUSH2 0x14C5 JUMPI POP PUSH1 0x1 PUSH2 0xCA9 JUMP JUMPDEST DUP2 PUSH2 0x14D2 JUMPI POP PUSH1 0x0 PUSH2 0xCA9 JUMP JUMPDEST DUP2 PUSH1 0x1 DUP2 EQ PUSH2 0x14E8 JUMPI PUSH1 0x2 DUP2 EQ PUSH2 0x14F2 JUMPI PUSH2 0x150E JUMP JUMPDEST PUSH1 0x1 SWAP2 POP POP PUSH2 0xCA9 JUMP JUMPDEST PUSH1 0xFF DUP5 GT ISZERO PUSH2 0x1503 JUMPI PUSH2 0x1503 PUSH2 0x13FE JUMP JUMPDEST POP POP PUSH1 0x1 DUP3 SHL PUSH2 0xCA9 JUMP JUMPDEST POP PUSH1 0x20 DUP4 LT PUSH2 0x133 DUP4 LT AND PUSH1 0x4E DUP5 LT PUSH1 0xB DUP5 LT AND OR ISZERO PUSH2 0x1531 JUMPI POP DUP2 DUP2 EXP PUSH2 0xCA9 JUMP JUMPDEST PUSH2 0x153E PUSH1 0x0 NOT DUP5 DUP5 PUSH2 0x1473 JUMP JUMPDEST DUP1 PUSH1 0x0 NOT DIV DUP3 GT ISZERO PUSH2 0x1552 JUMPI PUSH2 0x1552 PUSH2 0x13FE JUMP JUMPDEST MUL SWAP4 SWAP3 POP POP POP JUMP JUMPDEST PUSH1 0x0 PUSH2 0xDEF DUP4 DUP4 PUSH2 0x14B6 JUMP INVALID LOG2 PUSH5 0x6970667358 0x22 SLT KECCAK256 PUSH4 0x8CDC7F2B CALLER 0xF6 0x27 0xC0 0xB5 EXTCODESIZE PUSH14 0x5409C4C5C88689D8B539D05AAE60 LOG2 0xED RETURN SLOAD PUSH31 0x4064736F6C634300081C0033636F6E7374207B20657468657273207D203D20 PUSH2 0x7761 PUSH10 0x7420696D706F72742827 PUSH15 0x706D3A65746865727340362E31302E ADDRESS 0x27 0x29 EXTCODESIZE PUSH4 0x6F6E7374 KECCAK256 BASEFEE PUSH2 0x7368 KECCAK256 RETURNDATASIZE KECCAK256 PUSH2 0x7761 PUSH10 0x7420696D706F72742827 PUSH15 0x706D3A697066732D6F6E6C792D6861 PUSH20 0x6840342E302E3027293B636F6E73742061706952 PUSH6 0x73706F6E7365 KECCAK256 RETURNDATASIZE KECCAK256 PUSH2 0x7761 PUSH10 0x742046756E6374696F6E PUSH20 0x2E6D616B654874747052657175657374287B2020 KECCAK256 KECCAK256 PUSH22 0x726C3A206068747470733A2F2F6170692E6272696467 PUSH6 0x646174616F75 PUSH21 0x7075742E636F6D2F6170692F76322F4F446174612F PUSH21 0x6573742F50726F70657274792827505F3564626131 PUSH7 0x62393461613430 CALLDATALOAD CALLDATALOAD PUSH3 0x396632 CODECOPY CALLDATASIZE CODECOPY CALLDATASIZE PUSH7 0x27293F61636365 PUSH20 0x735F746F6B656E3D366261636135343737343263 CALLDATASIZE PUSH7 0x39366136666637 BALANCE PUSH3 0x313338 CALLVALUE ORIGIN CALLVALUE PUSH7 0x3231602C7D293B PUSH4 0x6F6E7374 KECCAK256 PUSH19 0x65616C45737461746541646472657373203D20 PUSH2 0x7069 MSTORE PUSH6 0x73706F6E7365 0x2E PUSH5 0x6174612E55 PUSH15 0x706172736564416464726573733B63 PUSH16 0x6E737420796561724275696C74203D20 0x4E PUSH22 0x6D62657228617069526573706F6E73652E646174612E MSIZE PUSH6 0x61724275696C PUSH21 0x293B636F6E7374206C6F7453697A65537175617265 CHAINID PUSH6 0x6574203D204E PUSH22 0x6D62657228617069526573706F6E73652E646174612E 0x4C PUSH16 0x7453697A655371756172654665657429 EXTCODESIZE PUSH4 0x6F6E7374 KECCAK256 PUSH13 0x6976696E6741726561203D204E PUSH22 0x6D62657228617069526573706F6E73652E646174612E 0x4C PUSH10 0x76696E6741726561293B PUSH4 0x6F6E7374 KECCAK256 PUSH3 0x656472 PUSH16 0x6F6D73546F74616C203D204E756D6265 PUSH19 0x28617069526573706F6E73652E646174612E42 PUSH6 0x64726F6F6D73 SLOAD PUSH16 0x74616C293B636F6E7374206D65746164 PUSH2 0x7461 KECCAK256 RETURNDATASIZE KECCAK256 PUSH28 0x6E616D653A20605265616C2045737461746520546F6B656E602C6174 PUSH21 0x726962757465733A205B7B2074726169745F747970 PUSH6 0x3A2060726561 PUSH13 0x45737461746541646472657373 PUSH1 0x2C KECCAK256 PUSH23 0x616C75653A207265616C45737461746541646472657373 KECCAK256 PUSH30 0x2C7B2074726169745F747970653A2060796561724275696C74602C207661 PUSH13 0x75653A20796561724275696C74 KECCAK256 PUSH30 0x2C7B2074726169745F747970653A20606C6F7453697A6553717561726546 PUSH6 0x6574602C2076 PUSH2 0x6C75 PUSH6 0x3A206C6F7453 PUSH10 0x7A655371756172654665 PUSH6 0x74207D2C7B20 PUSH21 0x726169745F747970653A20606C6976696E67417265 PUSH2 0x602C KECCAK256 PUSH23 0x616C75653A206C6976696E6741726561207D2C7B207472 PUSH2 0x6974 PUSH0 PUSH21 0x7970653A2060626564726F6F6D73546F74616C602C KECCAK256 PUSH23 0x616C75653A20626564726F6F6D73546F74616C207D5D7D EXTCODESIZE PUSH4 0x6F6E7374 KECCAK256 PUSH14 0x65746164617461537472696E6720 RETURNDATASIZE KECCAK256 BLOBBASEFEE MSTORE8 0x4F 0x4E 0x2E PUSH20 0x7472696E67696679286D65746164617461293B63 PUSH16 0x6E73742069706673436964203D206177 PUSH2 0x6974 KECCAK256 BASEFEE PUSH2 0x7368 0x2E PUSH16 0x66286D65746164617461537472696E67 0x29 EXTCODESIZE PUSH19 0x657475726E2046756E6374696F6E732E656E63 PUSH16 0x6465537472696E672860697066733A2F 0x2F 0x24 PUSH28 0x697066734369647D60293B636F6E7374207B20657468657273207D20 RETURNDATASIZE KECCAK256 PUSH2 0x7761 PUSH10 0x7420696D706F72742827 PUSH15 0x706D3A65746865727340362E31302E ADDRESS 0x27 0x29 EXTCODESIZE PUSH4 0x6F6E7374 KECCAK256 PUSH2 0x6269 NUMBER PUSH16 0x646572203D206574686572732E416269 NUMBER PUSH16 0x6465722E64656661756C74416269436F PUSH5 0x657228293B PUSH4 0x6F6E7374 KECCAK256 PUSH21 0x6F6B656E4964203D20617267735B305D3B636F6E73 PUSH21 0x20617069526573706F6E7365203D20617761697420 CHAINID PUSH22 0x6E6374696F6E732E6D616B6548747470526571756573 PUSH21 0x287B2020202075726C3A206068747470733A2F2F61 PUSH17 0x692E627269646765646174616F75747075 PUSH21 0x2E636F6D2F6170692F76322F4F446174612F746573 PUSH21 0x2F50726F70657274792827505F3564626131666239 CALLVALUE PUSH2 0x6134 ADDRESS CALLDATALOAD CALLDATALOAD PUSH3 0x396632 CODECOPY CALLDATASIZE CODECOPY CALLDATASIZE PUSH7 0x27293F61636365 PUSH20 0x735F746F6B656E3D366261636135343737343263 CALLDATASIZE PUSH7 0x39366136666637 BALANCE PUSH3 0x313338 CALLVALUE ORIGIN CALLVALUE PUSH7 0x3231602C7D293B PUSH4 0x6F6E7374 KECCAK256 PUSH13 0x6973745072696365203D204E75 PUSH14 0x62657228617069526573706F6E73 PUSH6 0x2E646174612E 0x4C PUSH10 0x73745072696365293B63 PUSH16 0x6E7374206F726967696E616C4C697374 POP PUSH19 0x696365203D204E756D62657228617069526573 PUSH17 0x6F6E73652E646174612E4F726967696E61 PUSH13 0x4C6973745072696365293B636F PUSH15 0x737420746178417373657373656456 PUSH2 0x6C75 PUSH6 0x203D204E756D PUSH3 0x657228 PUSH2 0x7069 MSTORE PUSH6 0x73706F6E7365 0x2E PUSH5 0x6174612E54 PUSH2 0x7841 PUSH20 0x73657373656456616C7565293B636F6E73742065 PUSH15 0x636F646564203D20616269436F6465 PUSH19 0x2E656E636F6465285B6075696E74323536602C KECCAK256 PUSH1 0x75 PUSH10 0x6E74323536602C206075 PUSH10 0x6E74323536602C206075 PUSH10 0x6E74323536605D2C205B PUSH21 0x6F6B656E49642C206C69737450726963652C206F72 PUSH10 0x67696E616C4C69737450 PUSH19 0x6963652C20746178417373657373656456616C PUSH22 0x655D293B72657475726E206574686572732E67657442 PUSH26 0x74657328656E636F646564293B00000000000000000000000000 "
				},
				"gasEstimates": {
					"creation": {
						"codeDepositCost": "1106400",
						"executionCost": "infinite",
						"totalCost": "infinite"
					},
					"external": {
						"acceptOwnership()": "52331",
						"getNftMetadata()": "infinite",
						"getPriceDetails(uint256)": "2805",
						"getPrices()": "infinite",
						"handleOracleFulfillment(bytes32,bytes,bytes)": "infinite",
						"owner()": "2335",
						"setAutomationForwarder(address)": "26722",
						"transferOwnership(address)": "30489",
						"updatePriceDetails(string,uint64,uint32,bytes32)": "infinite"
					},
					"internal": {
						"fulfillRequest(bytes32,bytes memory,bytes memory)": "infinite"
					}
				},
				"methodIdentifiers": {
					"acceptOwnership()": "79ba5097",
					"getNftMetadata()": "e6b46ff5",
					"getPriceDetails(uint256)": "f0ed2e80",
					"getPrices()": "bd9a548b",
					"handleOracleFulfillment(bytes32,bytes,bytes)": "0ca76175",
					"owner()": "8da5cb5b",
					"setAutomationForwarder(address)": "d40d17bc",
					"transferOwnership(address)": "f2fde38b",
					"updatePriceDetails(string,uint64,uint32,bytes32)": "a843a0ab"
				}
			},
			"storageLayout": {
				"storage": [
					{
						"astId": 2289,
						"contract": "RealEstatePriceDetails.sol:RealEstatePriceDetails",
						"label": "getNftMetadata",
						"offset": 0,
						"slot": "0",
						"type": "t_string_storage"
					},
					{
						"astId": 2292,
						"contract": "RealEstatePriceDetails.sol:RealEstatePriceDetails",
						"label": "getPrices",
						"offset": 0,
						"slot": "1",
						"type": "t_string_storage"
					},
					{
						"astId": 29,
						"contract": "RealEstatePriceDetails.sol:RealEstatePriceDetails",
						"label": "s_owner",
						"offset": 0,
						"slot": "2",
						"type": "t_address"
					},
					{
						"astId": 31,
						"contract": "RealEstatePriceDetails.sol:RealEstatePriceDetails",
						"label": "s_pendingOwner",
						"offset": 0,
						"slot": "3",
						"type": "t_address"
					},
					{
						"astId": 2323,
						"contract": "RealEstatePriceDetails.sol:RealEstatePriceDetails",
						"label": "s_automationForwarderAddress",
						"offset": 0,
						"slot": "4",
						"type": "t_address"
					},
					{
						"astId": 2328,
						"contract": "RealEstatePriceDetails.sol:RealEstatePriceDetails",
						"label": "s_priceDetails",
						"offset": 0,
						"slot": "5",
						"type": "t_mapping(t_uint256,t_struct(PriceDetails)2321_storage)"
					}
				],
				"types": {
					"t_address": {
						"encoding": "inplace",
						"label": "address",
						"numberOfBytes": "20"
					},
					"t_mapping(t_uint256,t_struct(PriceDetails)2321_storage)": {
						"encoding": "mapping",
						"key": "t_uint256",
						"label": "mapping(uint256 => struct RealEstatePriceDetails.PriceDetails)",
						"numberOfBytes": "32",
						"value": "t_struct(PriceDetails)2321_storage"
					},
					"t_string_storage": {
						"encoding": "bytes",
						"label": "string",
						"numberOfBytes": "32"
					},
					"t_struct(PriceDetails)2321_storage": {
						"encoding": "inplace",
						"label": "struct RealEstatePriceDetails.PriceDetails",
						"members": [
							{
								"astId": 2316,
								"contract": "RealEstatePriceDetails.sol:RealEstatePriceDetails",
								"label": "listPrice",
								"offset": 0,
								"slot": "0",
								"type": "t_uint80"
							},
							{
								"astId": 2318,
								"contract": "RealEstatePriceDetails.sol:RealEstatePriceDetails",
								"label": "originalListPrice",
								"offset": 10,
								"slot": "0",
								"type": "t_uint80"
							},
							{
								"astId": 2320,
								"contract": "RealEstatePriceDetails.sol:RealEstatePriceDetails",
								"label": "taxAssessedValue",
								"offset": 20,
								"slot": "0",
								"type": "t_uint80"
							}
						],
						"numberOfBytes": "32"
					},
					"t_uint256": {
						"encoding": "inplace",
						"label": "uint256",
						"numberOfBytes": "32"
					},
					"t_uint80": {
						"encoding": "inplace",
						"label": "uint80",
						"numberOfBytes": "10"
					}
				}
			},
			"userdoc": {
				"kind": "user",
				"methods": {
					"acceptOwnership()": {
						"notice": "Allows an ownership transfer to be completed by the recipient."
					},
					"handleOracleFulfillment(bytes32,bytes,bytes)": {
						"notice": "Chainlink Functions response handler called by the Functions Router during fullilment from the designated transmitter node in an OCR round."
					},
					"owner()": {
						"notice": "Get the current owner"
					},
					"transferOwnership(address)": {
						"notice": "Allows an owner to begin transferring ownership to a new address."
					}
				},
				"notice": "THIS IS AN EXAMPLE CONTRACT THAT USES HARDCODED VALUES FOR CLARITY. THIS IS AN EXAMPLE CONTRACT THAT USES UN-AUDITED CODE. DO NOT USE THIS CODE IN PRODUCTION.",
				"version": 1
			}
		}
	}
}