{
	"data": {
		"bytecode": {
			"linkReferences": {},
			"object": "608060405234801561000f575f5ffd5b50604051613ddc380380613ddc833981810160405281019061003191906103cb565b33805f836100448161013f60201b60201c565b505f73ffffffffffffffffffffffffffffffffffffffff168273ffffffffffffffffffffffffffffffffffffffff16036100b3576040517f08c379a00000000000000000000000000000000000000000000000000000000081526004016100aa9061046c565b60405180910390fd5b8160055f6101000a81548173ffffffffffffffffffffffffffffffffffffffff021916908373ffffffffffffffffffffffffffffffffffffffff1602179055505f73ffffffffffffffffffffffffffffffffffffffff168173ffffffffffffffffffffffffffffffffffffffff1614610136576101358161015260201b60201c565b5b505050506107d1565b806002908161014e919061069a565b5050565b3373ffffffffffffffffffffffffffffffffffffffff168173ffffffffffffffffffffffffffffffffffffffff16036101c0576040517f08c379a00000000000000000000000000000000000000000000000000000000081526004016101b7906107b3565b60405180910390fd5b8060065f6101000a81548173ffffffffffffffffffffffffffffffffffffffff021916908373ffffffffffffffffffffffffffffffffffffffff1602179055508073ffffffffffffffffffffffffffffffffffffffff1660055f9054906101000a900473ffffffffffffffffffffffffffffffffffffffff1673ffffffffffffffffffffffffffffffffffffffff167fed8889f560326eb138920d842192f0eb3dd22b4f139c87a2c57538e05bae127860405160405180910390a350565b5f604051905090565b5f5ffd5b5f5ffd5b5f5ffd5b5f5ffd5b5f601f19601f8301169050919050565b7f4e487b71000000000000000000000000000000000000000000000000000000005f52604160045260245ffd5b6102dd82610297565b810181811067ffffffffffffffff821117156102fc576102fb6102a7565b5b80604052505050565b5f61030e61027e565b905061031a82826102d4565b919050565b5f67ffffffffffffffff821115610339576103386102a7565b5b61034282610297565b9050602081019050919050565b8281835e5f83830152505050565b5f61036f61036a8461031f565b610305565b90508281526020810184848401111561038b5761038a610293565b5b61039684828561034f565b509392505050565b5f82601f8301126103b2576103b161028f565b5b81516103c284826020860161035d565b91505092915050565b5f602082840312156103e0576103df610287565b5b5f82015167ffffffffffffffff8111156103fd576103fc61028b565b5b6104098482850161039e565b91505092915050565b5f82825260208201905092915050565b7f43616e6e6f7420736574206f776e657220746f207a65726f00000000000000005f82015250565b5f610456601883610412565b915061046182610422565b602082019050919050565b5f6020820190508181035f8301526104838161044a565b9050919050565b5f81519050919050565b7f4e487b71000000000000000000000000000000000000000000000000000000005f52602260045260245ffd5b5f60028204905060018216806104d857607f821691505b6020821081036104eb576104ea610494565b5b50919050565b5f819050815f5260205f209050919050565b5f6020601f8301049050919050565b5f82821b905092915050565b5f6008830261054d7fffffffffffffffffffffffffffffffffffffffffffffffffffffffffffffffff82610512565b6105578683610512565b95508019841693508086168417925050509392505050565b5f819050919050565b5f819050919050565b5f61059b6105966105918461056f565b610578565b61056f565b9050919050565b5f819050919050565b6105b483610581565b6105c86105c0826105a2565b84845461051e565b825550505050565b5f5f905090565b6105df6105d0565b6105ea8184846105ab565b505050565b5b8181101561060d576106025f826105d7565b6001810190506105f0565b5050565b601f82111561065257610623816104f1565b61062c84610503565b8101602085101561063b578190505b61064f61064785610503565b8301826105ef565b50505b505050565b5f82821c905092915050565b5f6106725f1984600802610657565b1980831691505092915050565b5f61068a8383610663565b9150826002028217905092915050565b6106a38261048a565b67ffffffffffffffff8111156106bc576106bb6102a7565b5b6106c682546104c1565b6106d1828285610611565b5f60209050601f831160018114610702575f84156106f0578287015190505b6106fa858261067f565b865550610761565b601f198416610710866104f1565b5f5b8281101561073757848901518255600182019150602085019450602081019050610712565b868310156107545784890151610750601f891682610663565b8355505b6001600288020188555050505b505050505050565b7f43616e6e6f74207472616e7366657220746f2073656c660000000000000000005f82015250565b5f61079d601783610412565b91506107a882610769565b602082019050919050565b5f6020820190508181035f8301526107ca81610791565b9050919050565b6135fe806107de5f395ff3fe608060405234801561000f575f5ffd5b506004361061011e575f3560e01c806379ba5097116100ab578063c1341c4f1161006f578063c1341c4f14610314578063e985e9c514610330578063f242432a14610360578063f2fde38b1461037c578063f5298aca146103985761011e565b806379ba5097146102845780638da5cb5b1461028e578063a22cb465146102ac578063b942f8cb146102c8578063bd85b039146102e45761011e565b80632eb2c2d6116100f25780632eb2c2d6146101d05780634e1273f4146101ec5780634f558e791461021c57806355cc4e571461024c5780636b20c454146102685761011e565b8062fdd58e1461012257806301ffc9a7146101525780630e89341c1461018257806318160ddd146101b2575b5f5ffd5b61013c60048036038101906101379190612310565b6103b4565b604051610149919061235d565b60405180910390f35b61016c600480360381019061016791906123cb565b610409565b6040516101799190612410565b60405180910390f35b61019c60048036038101906101979190612429565b6104ea565b6040516101a991906124c4565b60405180910390f35b6101ba6105a7565b6040516101c7919061235d565b60405180910390f35b6101ea60048036038101906101e591906126d4565b6105b0565b005b6102066004803603810190610201919061285f565b610657565b604051610213919061298c565b60405180910390f35b61023660048036038101906102319190612429565b610761565b6040516102439190612410565b60405180910390f35b610266600480360381019061026191906129ac565b610774565b005b610282600480360381019061027d91906129d7565b610802565b005b61028c610979565b005b610296610b0a565b6040516102a39190612a6e565b60405180910390f35b6102c660048036038101906102c19190612ab1565b610b32565b005b6102e260048036038101906102dd9190612c6b565b610b48565b005b6102fe60048036038101906102f99190612429565b610c93565b60405161030b919061235d565b60405180910390f35b61032e60048036038101906103299190612d52565b610cad565b005b61034a60048036038101906103459190612e01565b610daa565b6040516103579190612410565b60405180910390f35b61037a60048036038101906103759190612e3f565b610e38565b005b610396600480360381019061039191906129ac565b610edf565b005b6103b260048036038101906103ad9190612ed2565b610ef3565b005b5f5f5f8381526020019081526020015f205f8473ffffffffffffffffffffffffffffffffffffffff1673ffffffffffffffffffffffffffffffffffffffff1681526020019081526020015f2054905092915050565b5f7fd9b67a26000000000000000000000000000000000000000000000000000000007bffffffffffffffffffffffffffffffffffffffffffffffffffffffff1916827bffffffffffffffffffffffffffffffffffffffffffffffffffffffff191614806104d357507f0e89341c000000000000000000000000000000000000000000000000000000007bffffffffffffffffffffffffffffffffffffffffffffffffffffffff1916827bffffffffffffffffffffffffffffffffffffffffffffffffffffffff1916145b806104e357506104e28261106a565b5b9050919050565b60605f60085f8481526020019081526020015f20805461050990612f4f565b80601f016020809104026020016040519081016040528092919081815260200182805461053590612f4f565b80156105805780601f1061055757610100808354040283529160200191610580565b820191905f5260205f20905b81548152906001019060200180831161056357829003601f168201915b505050505090505f81511161059d57610598836110d3565b61059f565b805b915050919050565b5f600454905090565b5f6105b9611165565b90508073ffffffffffffffffffffffffffffffffffffffff168673ffffffffffffffffffffffffffffffffffffffff16141580156105fe57506105fc8682610daa565b155b156106425780866040517fe237d922000000000000000000000000000000000000000000000000000000008152600401610639929190612f7f565b60405180910390fd5b61064f868686868661116c565b505050505050565b606081518351146106a357815183516040517f5b05999100000000000000000000000000000000000000000000000000000000815260040161069a929190612fa6565b60405180910390fd5b5f835167ffffffffffffffff8111156106bf576106be6124e8565b5b6040519080825280602002602001820160405280156106ed5781602001602082028036833780820191505090505b5090505f5f90505b84518110156107565761072c610714828761126090919063ffffffff16565b610727838761127390919063ffffffff16565b6103b4565b82828151811061073f5761073e612fcd565b5b6020026020010181815250508060010190506106f5565b508091505092915050565b5f5f61076c83610c93565b119050919050565b61077c611286565b8060075f6101000a81548173ffffffffffffffffffffffffffffffffffffffff021916908373ffffffffffffffffffffffffffffffffffffffff1602179055508073ffffffffffffffffffffffffffffffffffffffff167fd56ed7b1c1110348b1fbf418469f6fc4acc32d9b675e9e1e448cc19169a64ca060405160405180910390a250565b3073ffffffffffffffffffffffffffffffffffffffff163373ffffffffffffffffffffffffffffffffffffffff161415801561088b575060075f9054906101000a900473ffffffffffffffffffffffffffffffffffffffff1673ffffffffffffffffffffffffffffffffffffffff163373ffffffffffffffffffffffffffffffffffffffff1614155b156108cd57336040517fee4a26f20000000000000000000000000000000000000000000000000000000081526004016108c49190612a6e565b60405180910390fd5b6108d5611165565b73ffffffffffffffffffffffffffffffffffffffff168373ffffffffffffffffffffffffffffffffffffffff161415801561091e575061091c83610917611165565b610daa565b155b156109695761092b611165565b836040517fe237d922000000000000000000000000000000000000000000000000000000008152600401610960929190612f7f565b60405180910390fd5b610974838383611317565b505050565b60065f9054906101000a900473ffffffffffffffffffffffffffffffffffffffff1673ffffffffffffffffffffffffffffffffffffffff163373ffffffffffffffffffffffffffffffffffffffff1614610a08576040517f08c379a00000000000000000000000000000000000000000000000000000000081526004016109ff90613044565b60405180910390fd5b5f60055f9054906101000a900473ffffffffffffffffffffffffffffffffffffffff1690503360055f6101000a81548173ffffffffffffffffffffffffffffffffffffffff021916908373ffffffffffffffffffffffffffffffffffffffff1602179055505f60065f6101000a81548173ffffffffffffffffffffffffffffffffffffffff021916908373ffffffffffffffffffffffffffffffffffffffff1602179055503373ffffffffffffffffffffffffffffffffffffffff168173ffffffffffffffffffffffffffffffffffffffff167f8be0079c531659141344cd1fd0a4f28419497f9722a3daafe3b4186f6b6457e060405160405180910390a350565b5f60055f9054906101000a900473ffffffffffffffffffffffffffffffffffffffff16905090565b610b44610b3d611165565b83836113a7565b5050565b3073ffffffffffffffffffffffffffffffffffffffff163373ffffffffffffffffffffffffffffffffffffffff1614158015610bd1575060075f9054906101000a900473ffffffffffffffffffffffffffffffffffffffff1673ffffffffffffffffffffffffffffffffffffffff163373ffffffffffffffffffffffffffffffffffffffff1614155b15610c1357336040517fee4a26f2000000000000000000000000000000000000000000000000000000008152600401610c0a9190612a6e565b60405180910390fd5b610c1f85858585611510565b5f5f90505b8451811015610c8b57818181518110610c4057610c3f612fcd565b5b602002602001015160085f878481518110610c5e57610c5d612fcd565b5b602002602001015181526020019081526020015f209081610c7f9190613202565b50806001019050610c24565b505050505050565b5f60035f8381526020019081526020015f20549050919050565b3073ffffffffffffffffffffffffffffffffffffffff163373ffffffffffffffffffffffffffffffffffffffff1614158015610d36575060075f9054906101000a900473ffffffffffffffffffffffffffffffffffffffff1673ffffffffffffffffffffffffffffffffffffffff163373ffffffffffffffffffffffffffffffffffffffff1614155b15610d7857336040517fee4a26f2000000000000000000000000000000000000000000000000000000008152600401610d6f9190612a6e565b60405180910390fd5b610d8485858585611593565b8060085f8681526020019081526020015f209081610da29190613202565b505050505050565b5f60015f8473ffffffffffffffffffffffffffffffffffffffff1673ffffffffffffffffffffffffffffffffffffffff1681526020019081526020015f205f8373ffffffffffffffffffffffffffffffffffffffff1673ffffffffffffffffffffffffffffffffffffffff1681526020019081526020015f205f9054906101000a900460ff16905092915050565b5f610e41611165565b90508073ffffffffffffffffffffffffffffffffffffffff168673ffffffffffffffffffffffffffffffffffffffff1614158015610e865750610e848682610daa565b155b15610eca5780866040517fe237d922000000000000000000000000000000000000000000000000000000008152600401610ec1929190612f7f565b60405180910390fd5b610ed78686868686611628565b505050505050565b610ee7611286565b610ef08161172e565b50565b3073ffffffffffffffffffffffffffffffffffffffff163373ffffffffffffffffffffffffffffffffffffffff1614158015610f7c575060075f9054906101000a900473ffffffffffffffffffffffffffffffffffffffff1673ffffffffffffffffffffffffffffffffffffffff163373ffffffffffffffffffffffffffffffffffffffff1614155b15610fbe57336040517fee4a26f2000000000000000000000000000000000000000000000000000000008152600401610fb59190612a6e565b60405180910390fd5b610fc6611165565b73ffffffffffffffffffffffffffffffffffffffff168373ffffffffffffffffffffffffffffffffffffffff161415801561100f575061100d83611008611165565b610daa565b155b1561105a5761101c611165565b836040517fe237d922000000000000000000000000000000000000000000000000000000008152600401611051929190612f7f565b60405180910390fd5b61106583838361185a565b505050565b5f7f01ffc9a7000000000000000000000000000000000000000000000000000000007bffffffffffffffffffffffffffffffffffffffffffffffffffffffff1916827bffffffffffffffffffffffffffffffffffffffffffffffffffffffff1916149050919050565b6060600280546110e290612f4f565b80601f016020809104026020016040519081016040528092919081815260200182805461110e90612f4f565b80156111595780601f1061113057610100808354040283529160200191611159565b820191905f5260205f20905b81548152906001019060200180831161113c57829003601f168201915b50505050509050919050565b5f33905090565b5f73ffffffffffffffffffffffffffffffffffffffff168473ffffffffffffffffffffffffffffffffffffffff16036111dc575f6040517f57f447ce0000000000000000000000000000000000000000000000000000000081526004016111d39190612a6e565b60405180910390fd5b5f73ffffffffffffffffffffffffffffffffffffffff168573ffffffffffffffffffffffffffffffffffffffff160361124c575f6040517f01a835140000000000000000000000000000000000000000000000000000000081526004016112439190612a6e565b60405180910390fd5b61125985858585856118fc565b5050505050565b5f60208202602084010151905092915050565b5f60208202602084010151905092915050565b60055f9054906101000a900473ffffffffffffffffffffffffffffffffffffffff1673ffffffffffffffffffffffffffffffffffffffff163373ffffffffffffffffffffffffffffffffffffffff1614611315576040517f08c379a000000000000000000000000000000000000000000000000000000000815260040161130c9061331b565b60405180910390fd5b565b5f73ffffffffffffffffffffffffffffffffffffffff168373ffffffffffffffffffffffffffffffffffffffff1603611387575f6040517f01a8351400000000000000000000000000000000000000000000000000000000815260040161137e9190612a6e565b60405180910390fd5b6113a2835f848460405180602001604052805f8152506118fc565b505050565b5f73ffffffffffffffffffffffffffffffffffffffff168273ffffffffffffffffffffffffffffffffffffffff1603611417575f6040517fced3e10000000000000000000000000000000000000000000000000000000000815260040161140e9190612a6e565b60405180910390fd5b8060015f8573ffffffffffffffffffffffffffffffffffffffff1673ffffffffffffffffffffffffffffffffffffffff1681526020019081526020015f205f8473ffffffffffffffffffffffffffffffffffffffff1673ffffffffffffffffffffffffffffffffffffffff1681526020019081526020015f205f6101000a81548160ff0219169083151502179055508173ffffffffffffffffffffffffffffffffffffffff168373ffffffffffffffffffffffffffffffffffffffff167f17307eab39ab6107e8899845ad3d59bd9653f200f220920489ca2b5937696c31836040516115039190612410565b60405180910390a3505050565b5f73ffffffffffffffffffffffffffffffffffffffff168473ffffffffffffffffffffffffffffffffffffffff1603611580575f6040517f57f447ce0000000000000000000000000000000000000000000000000000000081526004016115779190612a6e565b60405180910390fd5b61158d5f858585856118fc565b50505050565b5f73ffffffffffffffffffffffffffffffffffffffff168473ffffffffffffffffffffffffffffffffffffffff1603611603575f6040517f57f447ce0000000000000000000000000000000000000000000000000000000081526004016115fa9190612a6e565b60405180910390fd5b5f5f61160f85856119a8565b915091506116205f878484876118fc565b505050505050565b5f73ffffffffffffffffffffffffffffffffffffffff168473ffffffffffffffffffffffffffffffffffffffff1603611698575f6040517f57f447ce00000000000000000000000000000000000000000000000000000000815260040161168f9190612a6e565b60405180910390fd5b5f73ffffffffffffffffffffffffffffffffffffffff168573ffffffffffffffffffffffffffffffffffffffff1603611708575f6040517f01a835140000000000000000000000000000000000000000000000000000000081526004016116ff9190612a6e565b60405180910390fd5b5f5f61171485856119a8565b9150915061172587878484876118fc565b50505050505050565b3373ffffffffffffffffffffffffffffffffffffffff168173ffffffffffffffffffffffffffffffffffffffff160361179c576040517f08c379a000000000000000000000000000000000000000000000000000000000815260040161179390613383565b60405180910390fd5b8060065f6101000a81548173ffffffffffffffffffffffffffffffffffffffff021916908373ffffffffffffffffffffffffffffffffffffffff1602179055508073ffffffffffffffffffffffffffffffffffffffff1660055f9054906101000a900473ffffffffffffffffffffffffffffffffffffffff1673ffffffffffffffffffffffffffffffffffffffff167fed8889f560326eb138920d842192f0eb3dd22b4f139c87a2c57538e05bae127860405160405180910390a350565b5f73ffffffffffffffffffffffffffffffffffffffff168373ffffffffffffffffffffffffffffffffffffffff16036118ca575f6040517f01a835140000000000000000000000000000000000000000000000000000000081526004016118c19190612a6e565b60405180910390fd5b5f5f6118d684846119a8565b915091506118f5855f848460405180602001604052805f8152506118fc565b5050505050565b611908858585856119d8565b5f73ffffffffffffffffffffffffffffffffffffffff168473ffffffffffffffffffffffffffffffffffffffff16146119a1575f611944611165565b90506001845103611990575f6119635f8661127390919063ffffffff16565b90505f6119795f8661127390919063ffffffff16565b9050611989838989858589611b81565b505061199f565b61199e818787878787611d30565b5b505b5050505050565b60608060405191506001825283602083015260408201905060018152826020820152604081016040529250929050565b6119e484848484611edf565b5f73ffffffffffffffffffffffffffffffffffffffff168473ffffffffffffffffffffffffffffffffffffffff1603611abd575f5f90505f5f90505b8351811015611aa2575f838281518110611a3d57611a3c612fcd565b5b602002602001015190508060035f878581518110611a5e57611a5d612fcd565b5b602002602001015181526020019081526020015f205f828254611a8191906133ce565b925050819055508083611a9491906133ce565b925050806001019050611a20565b508060045f828254611ab491906133ce565b92505081905550505b5f73ffffffffffffffffffffffffffffffffffffffff168373ffffffffffffffffffffffffffffffffffffffff1603611b7b575f5f90505f5f90505b8351811015611b69575f838281518110611b1657611b15612fcd565b5b602002602001015190508060035f878581518110611b3757611b36612fcd565b5b602002602001015181526020019081526020015f205f8282540392505081905550808301925050806001019050611af9565b508060045f8282540392505081905550505b50505050565b5f8473ffffffffffffffffffffffffffffffffffffffff163b1115611d28578373ffffffffffffffffffffffffffffffffffffffff1663f23a6e6187878686866040518663ffffffff1660e01b8152600401611be1959493929190613453565b6020604051808303815f875af1925050508015611c1c57506040513d601f19601f82011682018060405250810190611c1991906134bf565b60015b611c9d573d805f8114611c4a576040519150601f19603f3d011682016040523d82523d5f602084013e611c4f565b606091505b505f815103611c9557846040517f57f447ce000000000000000000000000000000000000000000000000000000008152600401611c8c9190612a6e565b60405180910390fd5b805181602001fd5b63f23a6e6160e01b7bffffffffffffffffffffffffffffffffffffffffffffffffffffffff1916817bffffffffffffffffffffffffffffffffffffffffffffffffffffffff191614611d2657846040517f57f447ce000000000000000000000000000000000000000000000000000000008152600401611d1d9190612a6e565b60405180910390fd5b505b505050505050565b5f8473ffffffffffffffffffffffffffffffffffffffff163b1115611ed7578373ffffffffffffffffffffffffffffffffffffffff1663bc197c8187878686866040518663ffffffff1660e01b8152600401611d909594939291906134ea565b6020604051808303815f875af1925050508015611dcb57506040513d601f19601f82011682018060405250810190611dc891906134bf565b60015b611e4c573d805f8114611df9576040519150601f19603f3d011682016040523d82523d5f602084013e611dfe565b606091505b505f815103611e4457846040517f57f447ce000000000000000000000000000000000000000000000000000000008152600401611e3b9190612a6e565b60405180910390fd5b805181602001fd5b63bc197c8160e01b7bffffffffffffffffffffffffffffffffffffffffffffffffffffffff1916817bffffffffffffffffffffffffffffffffffffffffffffffffffffffff191614611ed557846040517f57f447ce000000000000000000000000000000000000000000000000000000008152600401611ecc9190612a6e565b60405180910390fd5b505b505050505050565b8051825114611f2957815181516040517f5b059991000000000000000000000000000000000000000000000000000000008152600401611f20929190612fa6565b60405180910390fd5b5f611f32611165565b90505f5f90505b8351811015612131575f611f56828661127390919063ffffffff16565b90505f611f6c838661127390919063ffffffff16565b90505f73ffffffffffffffffffffffffffffffffffffffff168873ffffffffffffffffffffffffffffffffffffffff161461208f575f5f5f8481526020019081526020015f205f8a73ffffffffffffffffffffffffffffffffffffffff1673ffffffffffffffffffffffffffffffffffffffff1681526020019081526020015f205490508181101561203b57888183856040517f03dee4c50000000000000000000000000000000000000000000000000000000081526004016120329493929190613550565b60405180910390fd5b8181035f5f8581526020019081526020015f205f8b73ffffffffffffffffffffffffffffffffffffffff1673ffffffffffffffffffffffffffffffffffffffff1681526020019081526020015f2081905550505b5f73ffffffffffffffffffffffffffffffffffffffff168773ffffffffffffffffffffffffffffffffffffffff161461212457805f5f8481526020019081526020015f205f8973ffffffffffffffffffffffffffffffffffffffff1673ffffffffffffffffffffffffffffffffffffffff1681526020019081526020015f205f82825461211c91906133ce565b925050819055505b5050806001019050611f39565b5060018351036121ec575f61214f5f8561127390919063ffffffff16565b90505f6121655f8561127390919063ffffffff16565b90508573ffffffffffffffffffffffffffffffffffffffff168773ffffffffffffffffffffffffffffffffffffffff168473ffffffffffffffffffffffffffffffffffffffff167fc3d58168c5ae7397731d063d5bbf3d657854427343f4c083240f7aacaa2d0f6285856040516121dd929190612fa6565b60405180910390a4505061226b565b8373ffffffffffffffffffffffffffffffffffffffff168573ffffffffffffffffffffffffffffffffffffffff168273ffffffffffffffffffffffffffffffffffffffff167f4a39dc06d4c0dbc64b70af90fd698a233a518aa5d07e595d983b8c0526c8f7fb8686604051612262929190613593565b60405180910390a45b5050505050565b5f604051905090565b5f5ffd5b5f5ffd5b5f73ffffffffffffffffffffffffffffffffffffffff82169050919050565b5f6122ac82612283565b9050919050565b6122bc816122a2565b81146122c6575f5ffd5b50565b5f813590506122d7816122b3565b92915050565b5f819050919050565b6122ef816122dd565b81146122f9575f5ffd5b50565b5f8135905061230a816122e6565b92915050565b5f5f604083850312156123265761232561227b565b5b5f612333858286016122c9565b9250506020612344858286016122fc565b9150509250929050565b612357816122dd565b82525050565b5f6020820190506123705f83018461234e565b92915050565b5f7fffffffff0000000000000000000000000000000000000000000000000000000082169050919050565b6123aa81612376565b81146123b4575f5ffd5b50565b5f813590506123c5816123a1565b92915050565b5f602082840312156123e0576123df61227b565b5b5f6123ed848285016123b7565b91505092915050565b5f8115159050919050565b61240a816123f6565b82525050565b5f6020820190506124235f830184612401565b92915050565b5f6020828403121561243e5761243d61227b565b5b5f61244b848285016122fc565b91505092915050565b5f81519050919050565b5f82825260208201905092915050565b8281835e5f83830152505050565b5f601f19601f8301169050919050565b5f61249682612454565b6124a0818561245e565b93506124b081856020860161246e565b6124b98161247c565b840191505092915050565b5f6020820190508181035f8301526124dc818461248c565b905092915050565b5f5ffd5b7f4e487b71000000000000000000000000000000000000000000000000000000005f52604160045260245ffd5b61251e8261247c565b810181811067ffffffffffffffff8211171561253d5761253c6124e8565b5b80604052505050565b5f61254f612272565b905061255b8282612515565b919050565b5f67ffffffffffffffff82111561257a576125796124e8565b5b602082029050602081019050919050565b5f5ffd5b5f6125a161259c84612560565b612546565b905080838252602082019050602084028301858111156125c4576125c361258b565b5b835b818110156125ed57806125d988826122fc565b8452602084019350506020810190506125c6565b5050509392505050565b5f82601f83011261260b5761260a6124e4565b5b813561261b84826020860161258f565b91505092915050565b5f5ffd5b5f67ffffffffffffffff821115612642576126416124e8565b5b61264b8261247c565b9050602081019050919050565b828183375f83830152505050565b5f61267861267384612628565b612546565b90508281526020810184848401111561269457612693612624565b5b61269f848285612658565b509392505050565b5f82601f8301126126bb576126ba6124e4565b5b81356126cb848260208601612666565b91505092915050565b5f5f5f5f5f60a086880312156126ed576126ec61227b565b5b5f6126fa888289016122c9565b955050602061270b888289016122c9565b945050604086013567ffffffffffffffff81111561272c5761272b61227f565b5b612738888289016125f7565b935050606086013567ffffffffffffffff8111156127595761275861227f565b5b612765888289016125f7565b925050608086013567ffffffffffffffff8111156127865761278561227f565b5b612792888289016126a7565b9150509295509295909350565b5f67ffffffffffffffff8211156127b9576127b86124e8565b5b602082029050602081019050919050565b5f6127dc6127d78461279f565b612546565b905080838252602082019050602084028301858111156127ff576127fe61258b565b5b835b81811015612828578061281488826122c9565b845260208401935050602081019050612801565b5050509392505050565b5f82601f830112612846576128456124e4565b5b81356128568482602086016127ca565b91505092915050565b5f5f604083850312156128755761287461227b565b5b5f83013567ffffffffffffffff8111156128925761289161227f565b5b61289e85828601612832565b925050602083013567ffffffffffffffff8111156128bf576128be61227f565b5b6128cb858286016125f7565b9150509250929050565b5f81519050919050565b5f82825260208201905092915050565b5f819050602082019050919050565b612907816122dd565b82525050565b5f61291883836128fe565b60208301905092915050565b5f602082019050919050565b5f61293a826128d5565b61294481856128df565b935061294f836128ef565b805f5b8381101561297f578151612966888261290d565b975061297183612924565b925050600181019050612952565b5085935050505092915050565b5f6020820190508181035f8301526129a48184612930565b905092915050565b5f602082840312156129c1576129c061227b565b5b5f6129ce848285016122c9565b91505092915050565b5f5f5f606084860312156129ee576129ed61227b565b5b5f6129fb868287016122c9565b935050602084013567ffffffffffffffff811115612a1c57612a1b61227f565b5b612a28868287016125f7565b925050604084013567ffffffffffffffff811115612a4957612a4861227f565b5b612a55868287016125f7565b9150509250925092565b612a68816122a2565b82525050565b5f602082019050612a815f830184612a5f565b92915050565b612a90816123f6565b8114612a9a575f5ffd5b50565b5f81359050612aab81612a87565b92915050565b5f5f60408385031215612ac757612ac661227b565b5b5f612ad4858286016122c9565b9250506020612ae585828601612a9d565b9150509250929050565b5f67ffffffffffffffff821115612b0957612b086124e8565b5b602082029050602081019050919050565b5f67ffffffffffffffff821115612b3457612b336124e8565b5b612b3d8261247c565b9050602081019050919050565b5f612b5c612b5784612b1a565b612546565b905082815260208101848484011115612b7857612b77612624565b5b612b83848285612658565b509392505050565b5f82601f830112612b9f57612b9e6124e4565b5b8135612baf848260208601612b4a565b91505092915050565b5f612bca612bc584612aef565b612546565b90508083825260208201905060208402830185811115612bed57612bec61258b565b5b835b81811015612c3457803567ffffffffffffffff811115612c1257612c116124e4565b5b808601612c1f8982612b8b565b85526020850194505050602081019050612bef565b5050509392505050565b5f82601f830112612c5257612c516124e4565b5b8135612c62848260208601612bb8565b91505092915050565b5f5f5f5f5f60a08688031215612c8457612c8361227b565b5b5f612c91888289016122c9565b955050602086013567ffffffffffffffff811115612cb257612cb161227f565b5b612cbe888289016125f7565b945050604086013567ffffffffffffffff811115612cdf57612cde61227f565b5b612ceb888289016125f7565b935050606086013567ffffffffffffffff811115612d0c57612d0b61227f565b5b612d18888289016126a7565b925050608086013567ffffffffffffffff811115612d3957612d3861227f565b5b612d4588828901612c3e565b9150509295509295909350565b5f5f5f5f5f60a08688031215612d6b57612d6a61227b565b5b5f612d78888289016122c9565b9550506020612d89888289016122fc565b9450506040612d9a888289016122fc565b935050606086013567ffffffffffffffff811115612dbb57612dba61227f565b5b612dc7888289016126a7565b925050608086013567ffffffffffffffff811115612de857612de761227f565b5b612df488828901612b8b565b9150509295509295909350565b5f5f60408385031215612e1757612e1661227b565b5b5f612e24858286016122c9565b9250506020612e35858286016122c9565b9150509250929050565b5f5f5f5f5f60a08688031215612e5857612e5761227b565b5b5f612e65888289016122c9565b9550506020612e76888289016122c9565b9450506040612e87888289016122fc565b9350506060612e98888289016122fc565b925050608086013567ffffffffffffffff811115612eb957612eb861227f565b5b612ec5888289016126a7565b9150509295509295909350565b5f5f5f60608486031215612ee957612ee861227b565b5b5f612ef6868287016122c9565b9350506020612f07868287016122fc565b9250506040612f18868287016122fc565b9150509250925092565b7f4e487b71000000000000000000000000000000000000000000000000000000005f52602260045260245ffd5b5f6002820490506001821680612f6657607f821691505b602082108103612f7957612f78612f22565b5b50919050565b5f604082019050612f925f830185612a5f565b612f9f6020830184612a5f565b9392505050565b5f604082019050612fb95f83018561234e565b612fc6602083018461234e565b9392505050565b7f4e487b71000000000000000000000000000000000000000000000000000000005f52603260045260245ffd5b7f4d7573742062652070726f706f736564206f776e6572000000000000000000005f82015250565b5f61302e60168361245e565b915061303982612ffa565b602082019050919050565b5f6020820190508181035f83015261305b81613022565b9050919050565b5f819050815f5260205f209050919050565b5f6020601f8301049050919050565b5f82821b905092915050565b5f600883026130be7fffffffffffffffffffffffffffffffffffffffffffffffffffffffffffffffff82613083565b6130c88683613083565b95508019841693508086168417925050509392505050565b5f819050919050565b5f6131036130fe6130f9846122dd565b6130e0565b6122dd565b9050919050565b5f819050919050565b61311c836130e9565b6131306131288261310a565b84845461308f565b825550505050565b5f5f905090565b613147613138565b613152818484613113565b505050565b5b818110156131755761316a5f8261313f565b600181019050613158565b5050565b601f8211156131ba5761318b81613062565b61319484613074565b810160208510156131a3578190505b6131b76131af85613074565b830182613157565b50505b505050565b5f82821c905092915050565b5f6131da5f19846008026131bf565b1980831691505092915050565b5f6131f283836131cb565b9150826002028217905092915050565b61320b82612454565b67ffffffffffffffff811115613224576132236124e8565b5b61322e8254612f4f565b613239828285613179565b5f60209050601f83116001811461326a575f8415613258578287015190505b61326285826131e7565b8655506132c9565b601f19841661327886613062565b5f5b8281101561329f5784890151825560018201915060208501945060208101905061327a565b868310156132bc57848901516132b8601f8916826131cb565b8355505b6001600288020188555050505b505050505050565b7f4f6e6c792063616c6c61626c65206279206f776e6572000000000000000000005f82015250565b5f61330560168361245e565b9150613310826132d1565b602082019050919050565b5f6020820190508181035f830152613332816132f9565b9050919050565b7f43616e6e6f74207472616e7366657220746f2073656c660000000000000000005f82015250565b5f61336d60178361245e565b915061337882613339565b602082019050919050565b5f6020820190508181035f83015261339a81613361565b9050919050565b7f4e487b71000000000000000000000000000000000000000000000000000000005f52601160045260245ffd5b5f6133d8826122dd565b91506133e3836122dd565b92508282019050808211156133fb576133fa6133a1565b5b92915050565b5f81519050919050565b5f82825260208201905092915050565b5f61342582613401565b61342f818561340b565b935061343f81856020860161246e565b6134488161247c565b840191505092915050565b5f60a0820190506134665f830188612a5f565b6134736020830187612a5f565b613480604083018661234e565b61348d606083018561234e565b818103608083015261349f818461341b565b90509695505050505050565b5f815190506134b9816123a1565b92915050565b5f602082840312156134d4576134d361227b565b5b5f6134e1848285016134ab565b91505092915050565b5f60a0820190506134fd5f830188612a5f565b61350a6020830187612a5f565b818103604083015261351c8186612930565b905081810360608301526135308185612930565b90508181036080830152613544818461341b565b90509695505050505050565b5f6080820190506135635f830187612a5f565b613570602083018661234e565b61357d604083018561234e565b61358a606083018461234e565b95945050505050565b5f6040820190508181035f8301526135ab8185612930565b905081810360208301526135bf8184612930565b9050939250505056fea2646970667358221220c3360aed17f93fa42e7647876f3315f30acd4c231dcd1ef602946536eb3a14f464736f6c634300081c0033",
			"opcodes": "PUSH1 0x80 PUSH1 0x40 MSTORE CALLVALUE DUP1 ISZERO PUSH2 0xF JUMPI PUSH0 PUSH0 REVERT JUMPDEST POP PUSH1 0x40 MLOAD PUSH2 0x3DDC CODESIZE SUB DUP1 PUSH2 0x3DDC DUP4 CODECOPY DUP2 DUP2 ADD PUSH1 0x40 MSTORE DUP2 ADD SWAP1 PUSH2 0x31 SWAP2 SWAP1 PUSH2 0x3CB JUMP JUMPDEST CALLER DUP1 PUSH0 DUP4 PUSH2 0x44 DUP2 PUSH2 0x13F PUSH1 0x20 SHL PUSH1 0x20 SHR JUMP JUMPDEST POP PUSH0 PUSH20 0xFFFFFFFFFFFFFFFFFFFFFFFFFFFFFFFFFFFFFFFF AND DUP3 PUSH20 0xFFFFFFFFFFFFFFFFFFFFFFFFFFFFFFFFFFFFFFFF AND SUB PUSH2 0xB3 JUMPI PUSH1 0x40 MLOAD PUSH32 0x8C379A000000000000000000000000000000000000000000000000000000000 DUP2 MSTORE PUSH1 0x4 ADD PUSH2 0xAA SWAP1 PUSH2 0x46C JUMP JUMPDEST PUSH1 0x40 MLOAD DUP1 SWAP2 SUB SWAP1 REVERT JUMPDEST DUP2 PUSH1 0x5 PUSH0 PUSH2 0x100 EXP DUP2 SLOAD DUP2 PUSH20 0xFFFFFFFFFFFFFFFFFFFFFFFFFFFFFFFFFFFFFFFF MUL NOT AND SWAP1 DUP4 PUSH20 0xFFFFFFFFFFFFFFFFFFFFFFFFFFFFFFFFFFFFFFFF AND MUL OR SWAP1 SSTORE POP PUSH0 PUSH20 0xFFFFFFFFFFFFFFFFFFFFFFFFFFFFFFFFFFFFFFFF AND DUP2 PUSH20 0xFFFFFFFFFFFFFFFFFFFFFFFFFFFFFFFFFFFFFFFF AND EQ PUSH2 0x136 JUMPI PUSH2 0x135 DUP2 PUSH2 0x152 PUSH1 0x20 SHL PUSH1 0x20 SHR JUMP JUMPDEST JUMPDEST POP POP POP POP PUSH2 0x7D1 JUMP JUMPDEST DUP1 PUSH1 0x2 SWAP1 DUP2 PUSH2 0x14E SWAP2 SWAP1 PUSH2 0x69A JUMP JUMPDEST POP POP JUMP JUMPDEST CALLER PUSH20 0xFFFFFFFFFFFFFFFFFFFFFFFFFFFFFFFFFFFFFFFF AND DUP2 PUSH20 0xFFFFFFFFFFFFFFFFFFFFFFFFFFFFFFFFFFFFFFFF AND SUB PUSH2 0x1C0 JUMPI PUSH1 0x40 MLOAD PUSH32 0x8C379A000000000000000000000000000000000000000000000000000000000 DUP2 MSTORE PUSH1 0x4 ADD PUSH2 0x1B7 SWAP1 PUSH2 0x7B3 JUMP JUMPDEST PUSH1 0x40 MLOAD DUP1 SWAP2 SUB SWAP1 REVERT JUMPDEST DUP1 PUSH1 0x6 PUSH0 PUSH2 0x100 EXP DUP2 SLOAD DUP2 PUSH20 0xFFFFFFFFFFFFFFFFFFFFFFFFFFFFFFFFFFFFFFFF MUL NOT AND SWAP1 DUP4 PUSH20 0xFFFFFFFFFFFFFFFFFFFFFFFFFFFFFFFFFFFFFFFF AND MUL OR SWAP1 SSTORE POP DUP1 PUSH20 0xFFFFFFFFFFFFFFFFFFFFFFFFFFFFFFFFFFFFFFFF AND PUSH1 0x5 PUSH0 SWAP1 SLOAD SWAP1 PUSH2 0x100 EXP SWAP1 DIV PUSH20 0xFFFFFFFFFFFFFFFFFFFFFFFFFFFFFFFFFFFFFFFF AND PUSH20 0xFFFFFFFFFFFFFFFFFFFFFFFFFFFFFFFFFFFFFFFF AND PUSH32 0xED8889F560326EB138920D842192F0EB3DD22B4F139C87A2C57538E05BAE1278 PUSH1 0x40 MLOAD PUSH1 0x40 MLOAD DUP1 SWAP2 SUB SWAP1 LOG3 POP JUMP JUMPDEST PUSH0 PUSH1 0x40 MLOAD SWAP1 POP SWAP1 JUMP JUMPDEST PUSH0 PUSH0 REVERT JUMPDEST PUSH0 PUSH0 REVERT JUMPDEST PUSH0 PUSH0 REVERT JUMPDEST PUSH0 PUSH0 REVERT JUMPDEST PUSH0 PUSH1 0x1F NOT PUSH1 0x1F DUP4 ADD AND SWAP1 POP SWAP2 SWAP1 POP JUMP JUMPDEST PUSH32 0x4E487B7100000000000000000000000000000000000000000000000000000000 PUSH0 MSTORE PUSH1 0x41 PUSH1 0x4 MSTORE PUSH1 0x24 PUSH0 REVERT JUMPDEST PUSH2 0x2DD DUP3 PUSH2 0x297 JUMP JUMPDEST DUP2 ADD DUP2 DUP2 LT PUSH8 0xFFFFFFFFFFFFFFFF DUP3 GT OR ISZERO PUSH2 0x2FC JUMPI PUSH2 0x2FB PUSH2 0x2A7 JUMP JUMPDEST JUMPDEST DUP1 PUSH1 0x40 MSTORE POP POP POP JUMP JUMPDEST PUSH0 PUSH2 0x30E PUSH2 0x27E JUMP JUMPDEST SWAP1 POP PUSH2 0x31A DUP3 DUP3 PUSH2 0x2D4 JUMP JUMPDEST SWAP2 SWAP1 POP JUMP JUMPDEST PUSH0 PUSH8 0xFFFFFFFFFFFFFFFF DUP3 GT ISZERO PUSH2 0x339 JUMPI PUSH2 0x338 PUSH2 0x2A7 JUMP JUMPDEST JUMPDEST PUSH2 0x342 DUP3 PUSH2 0x297 JUMP JUMPDEST SWAP1 POP PUSH1 0x20 DUP2 ADD SWAP1 POP SWAP2 SWAP1 POP JUMP JUMPDEST DUP3 DUP2 DUP4 MCOPY PUSH0 DUP4 DUP4 ADD MSTORE POP POP POP JUMP JUMPDEST PUSH0 PUSH2 0x36F PUSH2 0x36A DUP5 PUSH2 0x31F JUMP JUMPDEST PUSH2 0x305 JUMP JUMPDEST SWAP1 POP DUP3 DUP2 MSTORE PUSH1 0x20 DUP2 ADD DUP5 DUP5 DUP5 ADD GT ISZERO PUSH2 0x38B JUMPI PUSH2 0x38A PUSH2 0x293 JUMP JUMPDEST JUMPDEST PUSH2 0x396 DUP5 DUP3 DUP6 PUSH2 0x34F JUMP JUMPDEST POP SWAP4 SWAP3 POP POP POP JUMP JUMPDEST PUSH0 DUP3 PUSH1 0x1F DUP4 ADD SLT PUSH2 0x3B2 JUMPI PUSH2 0x3B1 PUSH2 0x28F JUMP JUMPDEST JUMPDEST DUP2 MLOAD PUSH2 0x3C2 DUP5 DUP3 PUSH1 0x20 DUP7 ADD PUSH2 0x35D JUMP JUMPDEST SWAP2 POP POP SWAP3 SWAP2 POP POP JUMP JUMPDEST PUSH0 PUSH1 0x20 DUP3 DUP5 SUB SLT ISZERO PUSH2 0x3E0 JUMPI PUSH2 0x3DF PUSH2 0x287 JUMP JUMPDEST JUMPDEST PUSH0 DUP3 ADD MLOAD PUSH8 0xFFFFFFFFFFFFFFFF DUP2 GT ISZERO PUSH2 0x3FD JUMPI PUSH2 0x3FC PUSH2 0x28B JUMP JUMPDEST JUMPDEST PUSH2 0x409 DUP5 DUP3 DUP6 ADD PUSH2 0x39E JUMP JUMPDEST SWAP2 POP POP SWAP3 SWAP2 POP POP JUMP JUMPDEST PUSH0 DUP3 DUP3 MSTORE PUSH1 0x20 DUP3 ADD SWAP1 POP SWAP3 SWAP2 POP POP JUMP JUMPDEST PUSH32 0x43616E6E6F7420736574206F776E657220746F207A65726F0000000000000000 PUSH0 DUP3 ADD MSTORE POP JUMP JUMPDEST PUSH0 PUSH2 0x456 PUSH1 0x18 DUP4 PUSH2 0x412 JUMP JUMPDEST SWAP2 POP PUSH2 0x461 DUP3 PUSH2 0x422 JUMP JUMPDEST PUSH1 0x20 DUP3 ADD SWAP1 POP SWAP2 SWAP1 POP JUMP JUMPDEST PUSH0 PUSH1 0x20 DUP3 ADD SWAP1 POP DUP2 DUP2 SUB PUSH0 DUP4 ADD MSTORE PUSH2 0x483 DUP2 PUSH2 0x44A JUMP JUMPDEST SWAP1 POP SWAP2 SWAP1 POP JUMP JUMPDEST PUSH0 DUP2 MLOAD SWAP1 POP SWAP2 SWAP1 POP JUMP JUMPDEST PUSH32 0x4E487B7100000000000000000000000000000000000000000000000000000000 PUSH0 MSTORE PUSH1 0x22 PUSH1 0x4 MSTORE PUSH1 0x24 PUSH0 REVERT JUMPDEST PUSH0 PUSH1 0x2 DUP3 DIV SWAP1 POP PUSH1 0x1 DUP3 AND DUP1 PUSH2 0x4D8 JUMPI PUSH1 0x7F DUP3 AND SWAP2 POP JUMPDEST PUSH1 0x20 DUP3 LT DUP2 SUB PUSH2 0x4EB JUMPI PUSH2 0x4EA PUSH2 0x494 JUMP JUMPDEST JUMPDEST POP SWAP2 SWAP1 POP JUMP JUMPDEST PUSH0 DUP2 SWAP1 POP DUP2 PUSH0 MSTORE PUSH1 0x20 PUSH0 KECCAK256 SWAP1 POP SWAP2 SWAP1 POP JUMP JUMPDEST PUSH0 PUSH1 0x20 PUSH1 0x1F DUP4 ADD DIV SWAP1 POP SWAP2 SWAP1 POP JUMP JUMPDEST PUSH0 DUP3 DUP3 SHL SWAP1 POP SWAP3 SWAP2 POP POP JUMP JUMPDEST PUSH0 PUSH1 0x8 DUP4 MUL PUSH2 0x54D PUSH32 0xFFFFFFFFFFFFFFFFFFFFFFFFFFFFFFFFFFFFFFFFFFFFFFFFFFFFFFFFFFFFFFFF DUP3 PUSH2 0x512 JUMP JUMPDEST PUSH2 0x557 DUP7 DUP4 PUSH2 0x512 JUMP JUMPDEST SWAP6 POP DUP1 NOT DUP5 AND SWAP4 POP DUP1 DUP7 AND DUP5 OR SWAP3 POP POP POP SWAP4 SWAP3 POP POP POP JUMP JUMPDEST PUSH0 DUP2 SWAP1 POP SWAP2 SWAP1 POP JUMP JUMPDEST PUSH0 DUP2 SWAP1 POP SWAP2 SWAP1 POP JUMP JUMPDEST PUSH0 PUSH2 0x59B PUSH2 0x596 PUSH2 0x591 DUP5 PUSH2 0x56F JUMP JUMPDEST PUSH2 0x578 JUMP JUMPDEST PUSH2 0x56F JUMP JUMPDEST SWAP1 POP SWAP2 SWAP1 POP JUMP JUMPDEST PUSH0 DUP2 SWAP1 POP SWAP2 SWAP1 POP JUMP JUMPDEST PUSH2 0x5B4 DUP4 PUSH2 0x581 JUMP JUMPDEST PUSH2 0x5C8 PUSH2 0x5C0 DUP3 PUSH2 0x5A2 JUMP JUMPDEST DUP5 DUP5 SLOAD PUSH2 0x51E JUMP JUMPDEST DUP3 SSTORE POP POP POP POP JUMP JUMPDEST PUSH0 PUSH0 SWAP1 POP SWAP1 JUMP JUMPDEST PUSH2 0x5DF PUSH2 0x5D0 JUMP JUMPDEST PUSH2 0x5EA DUP2 DUP5 DUP5 PUSH2 0x5AB JUMP JUMPDEST POP POP POP JUMP JUMPDEST JUMPDEST DUP2 DUP2 LT ISZERO PUSH2 0x60D JUMPI PUSH2 0x602 PUSH0 DUP3 PUSH2 0x5D7 JUMP JUMPDEST PUSH1 0x1 DUP2 ADD SWAP1 POP PUSH2 0x5F0 JUMP JUMPDEST POP POP JUMP JUMPDEST PUSH1 0x1F DUP3 GT ISZERO PUSH2 0x652 JUMPI PUSH2 0x623 DUP2 PUSH2 0x4F1 JUMP JUMPDEST PUSH2 0x62C DUP5 PUSH2 0x503 JUMP JUMPDEST DUP2 ADD PUSH1 0x20 DUP6 LT ISZERO PUSH2 0x63B JUMPI DUP2 SWAP1 POP JUMPDEST PUSH2 0x64F PUSH2 0x647 DUP6 PUSH2 0x503 JUMP JUMPDEST DUP4 ADD DUP3 PUSH2 0x5EF JUMP JUMPDEST POP POP JUMPDEST POP POP POP JUMP JUMPDEST PUSH0 DUP3 DUP3 SHR SWAP1 POP SWAP3 SWAP2 POP POP JUMP JUMPDEST PUSH0 PUSH2 0x672 PUSH0 NOT DUP5 PUSH1 0x8 MUL PUSH2 0x657 JUMP JUMPDEST NOT DUP1 DUP4 AND SWAP2 POP POP SWAP3 SWAP2 POP POP JUMP JUMPDEST PUSH0 PUSH2 0x68A DUP4 DUP4 PUSH2 0x663 JUMP JUMPDEST SWAP2 POP DUP3 PUSH1 0x2 MUL DUP3 OR SWAP1 POP SWAP3 SWAP2 POP POP JUMP JUMPDEST PUSH2 0x6A3 DUP3 PUSH2 0x48A JUMP JUMPDEST PUSH8 0xFFFFFFFFFFFFFFFF DUP2 GT ISZERO PUSH2 0x6BC JUMPI PUSH2 0x6BB PUSH2 0x2A7 JUMP JUMPDEST JUMPDEST PUSH2 0x6C6 DUP3 SLOAD PUSH2 0x4C1 JUMP JUMPDEST PUSH2 0x6D1 DUP3 DUP3 DUP6 PUSH2 0x611 JUMP JUMPDEST PUSH0 PUSH1 0x20 SWAP1 POP PUSH1 0x1F DUP4 GT PUSH1 0x1 DUP2 EQ PUSH2 0x702 JUMPI PUSH0 DUP5 ISZERO PUSH2 0x6F0 JUMPI DUP3 DUP8 ADD MLOAD SWAP1 POP JUMPDEST PUSH2 0x6FA DUP6 DUP3 PUSH2 0x67F JUMP JUMPDEST DUP7 SSTORE POP PUSH2 0x761 JUMP JUMPDEST PUSH1 0x1F NOT DUP5 AND PUSH2 0x710 DUP7 PUSH2 0x4F1 JUMP JUMPDEST PUSH0 JUMPDEST DUP3 DUP2 LT ISZERO PUSH2 0x737 JUMPI DUP5 DUP10 ADD MLOAD DUP3 SSTORE PUSH1 0x1 DUP3 ADD SWAP2 POP PUSH1 0x20 DUP6 ADD SWAP5 POP PUSH1 0x20 DUP2 ADD SWAP1 POP PUSH2 0x712 JUMP JUMPDEST DUP7 DUP4 LT ISZERO PUSH2 0x754 JUMPI DUP5 DUP10 ADD MLOAD PUSH2 0x750 PUSH1 0x1F DUP10 AND DUP3 PUSH2 0x663 JUMP JUMPDEST DUP4 SSTORE POP JUMPDEST PUSH1 0x1 PUSH1 0x2 DUP9 MUL ADD DUP9 SSTORE POP POP POP JUMPDEST POP POP POP POP POP POP JUMP JUMPDEST PUSH32 0x43616E6E6F74207472616E7366657220746F2073656C66000000000000000000 PUSH0 DUP3 ADD MSTORE POP JUMP JUMPDEST PUSH0 PUSH2 0x79D PUSH1 0x17 DUP4 PUSH2 0x412 JUMP JUMPDEST SWAP2 POP PUSH2 0x7A8 DUP3 PUSH2 0x769 JUMP JUMPDEST PUSH1 0x20 DUP3 ADD SWAP1 POP SWAP2 SWAP1 POP JUMP JUMPDEST PUSH0 PUSH1 0x20 DUP3 ADD SWAP1 POP DUP2 DUP2 SUB PUSH0 DUP4 ADD MSTORE PUSH2 0x7CA DUP2 PUSH2 0x791 JUMP JUMPDEST SWAP1 POP SWAP2 SWAP1 POP JUMP JUMPDEST PUSH2 0x35FE DUP1 PUSH2 0x7DE PUSH0 CODECOPY PUSH0 RETURN INVALID PUSH1 0x80 PUSH1 0x40 MSTORE CALLVALUE DUP1 ISZERO PUSH2 0xF JUMPI PUSH0 PUSH0 REVERT JUMPDEST POP PUSH1 0x4 CALLDATASIZE LT PUSH2 0x11E JUMPI PUSH0 CALLDATALOAD PUSH1 0xE0 SHR DUP1 PUSH4 0x79BA5097 GT PUSH2 0xAB JUMPI DUP1 PUSH4 0xC1341C4F GT PUSH2 0x6F JUMPI DUP1 PUSH4 0xC1341C4F EQ PUSH2 0x314 JUMPI DUP1 PUSH4 0xE985E9C5 EQ PUSH2 0x330 JUMPI DUP1 PUSH4 0xF242432A EQ PUSH2 0x360 JUMPI DUP1 PUSH4 0xF2FDE38B EQ PUSH2 0x37C JUMPI DUP1 PUSH4 0xF5298ACA EQ PUSH2 0x398 JUMPI PUSH2 0x11E JUMP JUMPDEST DUP1 PUSH4 0x79BA5097 EQ PUSH2 0x284 JUMPI DUP1 PUSH4 0x8DA5CB5B EQ PUSH2 0x28E JUMPI DUP1 PUSH4 0xA22CB465 EQ PUSH2 0x2AC JUMPI DUP1 PUSH4 0xB942F8CB EQ PUSH2 0x2C8 JUMPI DUP1 PUSH4 0xBD85B039 EQ PUSH2 0x2E4 JUMPI PUSH2 0x11E JUMP JUMPDEST DUP1 PUSH4 0x2EB2C2D6 GT PUSH2 0xF2 JUMPI DUP1 PUSH4 0x2EB2C2D6 EQ PUSH2 0x1D0 JUMPI DUP1 PUSH4 0x4E1273F4 EQ PUSH2 0x1EC JUMPI DUP1 PUSH4 0x4F558E79 EQ PUSH2 0x21C JUMPI DUP1 PUSH4 0x55CC4E57 EQ PUSH2 0x24C JUMPI DUP1 PUSH4 0x6B20C454 EQ PUSH2 0x268 JUMPI PUSH2 0x11E JUMP JUMPDEST DUP1 PUSH3 0xFDD58E EQ PUSH2 0x122 JUMPI DUP1 PUSH4 0x1FFC9A7 EQ PUSH2 0x152 JUMPI DUP1 PUSH4 0xE89341C EQ PUSH2 0x182 JUMPI DUP1 PUSH4 0x18160DDD EQ PUSH2 0x1B2 JUMPI JUMPDEST PUSH0 PUSH0 REVERT JUMPDEST PUSH2 0x13C PUSH1 0x4 DUP1 CALLDATASIZE SUB DUP2 ADD SWAP1 PUSH2 0x137 SWAP2 SWAP1 PUSH2 0x2310 JUMP JUMPDEST PUSH2 0x3B4 JUMP JUMPDEST PUSH1 0x40 MLOAD PUSH2 0x149 SWAP2 SWAP1 PUSH2 0x235D JUMP JUMPDEST PUSH1 0x40 MLOAD DUP1 SWAP2 SUB SWAP1 RETURN JUMPDEST PUSH2 0x16C PUSH1 0x4 DUP1 CALLDATASIZE SUB DUP2 ADD SWAP1 PUSH2 0x167 SWAP2 SWAP1 PUSH2 0x23CB JUMP JUMPDEST PUSH2 0x409 JUMP JUMPDEST PUSH1 0x40 MLOAD PUSH2 0x179 SWAP2 SWAP1 PUSH2 0x2410 JUMP JUMPDEST PUSH1 0x40 MLOAD DUP1 SWAP2 SUB SWAP1 RETURN JUMPDEST PUSH2 0x19C PUSH1 0x4 DUP1 CALLDATASIZE SUB DUP2 ADD SWAP1 PUSH2 0x197 SWAP2 SWAP1 PUSH2 0x2429 JUMP JUMPDEST PUSH2 0x4EA JUMP JUMPDEST PUSH1 0x40 MLOAD PUSH2 0x1A9 SWAP2 SWAP1 PUSH2 0x24C4 JUMP JUMPDEST PUSH1 0x40 MLOAD DUP1 SWAP2 SUB SWAP1 RETURN JUMPDEST PUSH2 0x1BA PUSH2 0x5A7 JUMP JUMPDEST PUSH1 0x40 MLOAD PUSH2 0x1C7 SWAP2 SWAP1 PUSH2 0x235D JUMP JUMPDEST PUSH1 0x40 MLOAD DUP1 SWAP2 SUB SWAP1 RETURN JUMPDEST PUSH2 0x1EA PUSH1 0x4 DUP1 CALLDATASIZE SUB DUP2 ADD SWAP1 PUSH2 0x1E5 SWAP2 SWAP1 PUSH2 0x26D4 JUMP JUMPDEST PUSH2 0x5B0 JUMP JUMPDEST STOP JUMPDEST PUSH2 0x206 PUSH1 0x4 DUP1 CALLDATASIZE SUB DUP2 ADD SWAP1 PUSH2 0x201 SWAP2 SWAP1 PUSH2 0x285F JUMP JUMPDEST PUSH2 0x657 JUMP JUMPDEST PUSH1 0x40 MLOAD PUSH2 0x213 SWAP2 SWAP1 PUSH2 0x298C JUMP JUMPDEST PUSH1 0x40 MLOAD DUP1 SWAP2 SUB SWAP1 RETURN JUMPDEST PUSH2 0x236 PUSH1 0x4 DUP1 CALLDATASIZE SUB DUP2 ADD SWAP1 PUSH2 0x231 SWAP2 SWAP1 PUSH2 0x2429 JUMP JUMPDEST PUSH2 0x761 JUMP JUMPDEST PUSH1 0x40 MLOAD PUSH2 0x243 SWAP2 SWAP1 PUSH2 0x2410 JUMP JUMPDEST PUSH1 0x40 MLOAD DUP1 SWAP2 SUB SWAP1 RETURN JUMPDEST PUSH2 0x266 PUSH1 0x4 DUP1 CALLDATASIZE SUB DUP2 ADD SWAP1 PUSH2 0x261 SWAP2 SWAP1 PUSH2 0x29AC JUMP JUMPDEST PUSH2 0x774 JUMP JUMPDEST STOP JUMPDEST PUSH2 0x282 PUSH1 0x4 DUP1 CALLDATASIZE SUB DUP2 ADD SWAP1 PUSH2 0x27D SWAP2 SWAP1 PUSH2 0x29D7 JUMP JUMPDEST PUSH2 0x802 JUMP JUMPDEST STOP JUMPDEST PUSH2 0x28C PUSH2 0x979 JUMP JUMPDEST STOP JUMPDEST PUSH2 0x296 PUSH2 0xB0A JUMP JUMPDEST PUSH1 0x40 MLOAD PUSH2 0x2A3 SWAP2 SWAP1 PUSH2 0x2A6E JUMP JUMPDEST PUSH1 0x40 MLOAD DUP1 SWAP2 SUB SWAP1 RETURN JUMPDEST PUSH2 0x2C6 PUSH1 0x4 DUP1 CALLDATASIZE SUB DUP2 ADD SWAP1 PUSH2 0x2C1 SWAP2 SWAP1 PUSH2 0x2AB1 JUMP JUMPDEST PUSH2 0xB32 JUMP JUMPDEST STOP JUMPDEST PUSH2 0x2E2 PUSH1 0x4 DUP1 CALLDATASIZE SUB DUP2 ADD SWAP1 PUSH2 0x2DD SWAP2 SWAP1 PUSH2 0x2C6B JUMP JUMPDEST PUSH2 0xB48 JUMP JUMPDEST STOP JUMPDEST PUSH2 0x2FE PUSH1 0x4 DUP1 CALLDATASIZE SUB DUP2 ADD SWAP1 PUSH2 0x2F9 SWAP2 SWAP1 PUSH2 0x2429 JUMP JUMPDEST PUSH2 0xC93 JUMP JUMPDEST PUSH1 0x40 MLOAD PUSH2 0x30B SWAP2 SWAP1 PUSH2 0x235D JUMP JUMPDEST PUSH1 0x40 MLOAD DUP1 SWAP2 SUB SWAP1 RETURN JUMPDEST PUSH2 0x32E PUSH1 0x4 DUP1 CALLDATASIZE SUB DUP2 ADD SWAP1 PUSH2 0x329 SWAP2 SWAP1 PUSH2 0x2D52 JUMP JUMPDEST PUSH2 0xCAD JUMP JUMPDEST STOP JUMPDEST PUSH2 0x34A PUSH1 0x4 DUP1 CALLDATASIZE SUB DUP2 ADD SWAP1 PUSH2 0x345 SWAP2 SWAP1 PUSH2 0x2E01 JUMP JUMPDEST PUSH2 0xDAA JUMP JUMPDEST PUSH1 0x40 MLOAD PUSH2 0x357 SWAP2 SWAP1 PUSH2 0x2410 JUMP JUMPDEST PUSH1 0x40 MLOAD DUP1 SWAP2 SUB SWAP1 RETURN JUMPDEST PUSH2 0x37A PUSH1 0x4 DUP1 CALLDATASIZE SUB DUP2 ADD SWAP1 PUSH2 0x375 SWAP2 SWAP1 PUSH2 0x2E3F JUMP JUMPDEST PUSH2 0xE38 JUMP JUMPDEST STOP JUMPDEST PUSH2 0x396 PUSH1 0x4 DUP1 CALLDATASIZE SUB DUP2 ADD SWAP1 PUSH2 0x391 SWAP2 SWAP1 PUSH2 0x29AC JUMP JUMPDEST PUSH2 0xEDF JUMP JUMPDEST STOP JUMPDEST PUSH2 0x3B2 PUSH1 0x4 DUP1 CALLDATASIZE SUB DUP2 ADD SWAP1 PUSH2 0x3AD SWAP2 SWAP1 PUSH2 0x2ED2 JUMP JUMPDEST PUSH2 0xEF3 JUMP JUMPDEST STOP JUMPDEST PUSH0 PUSH0 PUSH0 DUP4 DUP2 MSTORE PUSH1 0x20 ADD SWAP1 DUP2 MSTORE PUSH1 0x20 ADD PUSH0 KECCAK256 PUSH0 DUP5 PUSH20 0xFFFFFFFFFFFFFFFFFFFFFFFFFFFFFFFFFFFFFFFF AND PUSH20 0xFFFFFFFFFFFFFFFFFFFFFFFFFFFFFFFFFFFFFFFF AND DUP2 MSTORE PUSH1 0x20 ADD SWAP1 DUP2 MSTORE PUSH1 0x20 ADD PUSH0 KECCAK256 SLOAD SWAP1 POP SWAP3 SWAP2 POP POP JUMP JUMPDEST PUSH0 PUSH32 0xD9B67A2600000000000000000000000000000000000000000000000000000000 PUSH28 0xFFFFFFFFFFFFFFFFFFFFFFFFFFFFFFFFFFFFFFFFFFFFFFFFFFFFFFFF NOT AND DUP3 PUSH28 0xFFFFFFFFFFFFFFFFFFFFFFFFFFFFFFFFFFFFFFFFFFFFFFFFFFFFFFFF NOT AND EQ DUP1 PUSH2 0x4D3 JUMPI POP PUSH32 0xE89341C00000000000000000000000000000000000000000000000000000000 PUSH28 0xFFFFFFFFFFFFFFFFFFFFFFFFFFFFFFFFFFFFFFFFFFFFFFFFFFFFFFFF NOT AND DUP3 PUSH28 0xFFFFFFFFFFFFFFFFFFFFFFFFFFFFFFFFFFFFFFFFFFFFFFFFFFFFFFFF NOT AND EQ JUMPDEST DUP1 PUSH2 0x4E3 JUMPI POP PUSH2 0x4E2 DUP3 PUSH2 0x106A JUMP JUMPDEST JUMPDEST SWAP1 POP SWAP2 SWAP1 POP JUMP JUMPDEST PUSH1 0x60 PUSH0 PUSH1 0x8 PUSH0 DUP5 DUP2 MSTORE PUSH1 0x20 ADD SWAP1 DUP2 MSTORE PUSH1 0x20 ADD PUSH0 KECCAK256 DUP1 SLOAD PUSH2 0x509 SWAP1 PUSH2 0x2F4F JUMP JUMPDEST DUP1 PUSH1 0x1F ADD PUSH1 0x20 DUP1 SWAP2 DIV MUL PUSH1 0x20 ADD PUSH1 0x40 MLOAD SWAP1 DUP2 ADD PUSH1 0x40 MSTORE DUP1 SWAP3 SWAP2 SWAP1 DUP2 DUP2 MSTORE PUSH1 0x20 ADD DUP3 DUP1 SLOAD PUSH2 0x535 SWAP1 PUSH2 0x2F4F JUMP JUMPDEST DUP1 ISZERO PUSH2 0x580 JUMPI DUP1 PUSH1 0x1F LT PUSH2 0x557 JUMPI PUSH2 0x100 DUP1 DUP4 SLOAD DIV MUL DUP4 MSTORE SWAP2 PUSH1 0x20 ADD SWAP2 PUSH2 0x580 JUMP JUMPDEST DUP3 ADD SWAP2 SWAP1 PUSH0 MSTORE PUSH1 0x20 PUSH0 KECCAK256 SWAP1 JUMPDEST DUP2 SLOAD DUP2 MSTORE SWAP1 PUSH1 0x1 ADD SWAP1 PUSH1 0x20 ADD DUP1 DUP4 GT PUSH2 0x563 JUMPI DUP3 SWAP1 SUB PUSH1 0x1F AND DUP3 ADD SWAP2 JUMPDEST POP POP POP POP POP SWAP1 POP PUSH0 DUP2 MLOAD GT PUSH2 0x59D JUMPI PUSH2 0x598 DUP4 PUSH2 0x10D3 JUMP JUMPDEST PUSH2 0x59F JUMP JUMPDEST DUP1 JUMPDEST SWAP2 POP POP SWAP2 SWAP1 POP JUMP JUMPDEST PUSH0 PUSH1 0x4 SLOAD SWAP1 POP SWAP1 JUMP JUMPDEST PUSH0 PUSH2 0x5B9 PUSH2 0x1165 JUMP JUMPDEST SWAP1 POP DUP1 PUSH20 0xFFFFFFFFFFFFFFFFFFFFFFFFFFFFFFFFFFFFFFFF AND DUP7 PUSH20 0xFFFFFFFFFFFFFFFFFFFFFFFFFFFFFFFFFFFFFFFF AND EQ ISZERO DUP1 ISZERO PUSH2 0x5FE JUMPI POP PUSH2 0x5FC DUP7 DUP3 PUSH2 0xDAA JUMP JUMPDEST ISZERO JUMPDEST ISZERO PUSH2 0x642 JUMPI DUP1 DUP7 PUSH1 0x40 MLOAD PUSH32 0xE237D92200000000000000000000000000000000000000000000000000000000 DUP2 MSTORE PUSH1 0x4 ADD PUSH2 0x639 SWAP3 SWAP2 SWAP1 PUSH2 0x2F7F JUMP JUMPDEST PUSH1 0x40 MLOAD DUP1 SWAP2 SUB SWAP1 REVERT JUMPDEST PUSH2 0x64F DUP7 DUP7 DUP7 DUP7 DUP7 PUSH2 0x116C JUMP JUMPDEST POP POP POP POP POP POP JUMP JUMPDEST PUSH1 0x60 DUP2 MLOAD DUP4 MLOAD EQ PUSH2 0x6A3 JUMPI DUP2 MLOAD DUP4 MLOAD PUSH1 0x40 MLOAD PUSH32 0x5B05999100000000000000000000000000000000000000000000000000000000 DUP2 MSTORE PUSH1 0x4 ADD PUSH2 0x69A SWAP3 SWAP2 SWAP1 PUSH2 0x2FA6 JUMP JUMPDEST PUSH1 0x40 MLOAD DUP1 SWAP2 SUB SWAP1 REVERT JUMPDEST PUSH0 DUP4 MLOAD PUSH8 0xFFFFFFFFFFFFFFFF DUP2 GT ISZERO PUSH2 0x6BF JUMPI PUSH2 0x6BE PUSH2 0x24E8 JUMP JUMPDEST JUMPDEST PUSH1 0x40 MLOAD SWAP1 DUP1 DUP3 MSTORE DUP1 PUSH1 0x20 MUL PUSH1 0x20 ADD DUP3 ADD PUSH1 0x40 MSTORE DUP1 ISZERO PUSH2 0x6ED JUMPI DUP2 PUSH1 0x20 ADD PUSH1 0x20 DUP3 MUL DUP1 CALLDATASIZE DUP4 CALLDATACOPY DUP1 DUP3 ADD SWAP2 POP POP SWAP1 POP JUMPDEST POP SWAP1 POP PUSH0 PUSH0 SWAP1 POP JUMPDEST DUP5 MLOAD DUP2 LT ISZERO PUSH2 0x756 JUMPI PUSH2 0x72C PUSH2 0x714 DUP3 DUP8 PUSH2 0x1260 SWAP1 SWAP2 SWAP1 PUSH4 0xFFFFFFFF AND JUMP JUMPDEST PUSH2 0x727 DUP4 DUP8 PUSH2 0x1273 SWAP1 SWAP2 SWAP1 PUSH4 0xFFFFFFFF AND JUMP JUMPDEST PUSH2 0x3B4 JUMP JUMPDEST DUP3 DUP3 DUP2 MLOAD DUP2 LT PUSH2 0x73F JUMPI PUSH2 0x73E PUSH2 0x2FCD JUMP JUMPDEST JUMPDEST PUSH1 0x20 MUL PUSH1 0x20 ADD ADD DUP2 DUP2 MSTORE POP POP DUP1 PUSH1 0x1 ADD SWAP1 POP PUSH2 0x6F5 JUMP JUMPDEST POP DUP1 SWAP2 POP POP SWAP3 SWAP2 POP POP JUMP JUMPDEST PUSH0 PUSH0 PUSH2 0x76C DUP4 PUSH2 0xC93 JUMP JUMPDEST GT SWAP1 POP SWAP2 SWAP1 POP JUMP JUMPDEST PUSH2 0x77C PUSH2 0x1286 JUMP JUMPDEST DUP1 PUSH1 0x7 PUSH0 PUSH2 0x100 EXP DUP2 SLOAD DUP2 PUSH20 0xFFFFFFFFFFFFFFFFFFFFFFFFFFFFFFFFFFFFFFFF MUL NOT AND SWAP1 DUP4 PUSH20 0xFFFFFFFFFFFFFFFFFFFFFFFFFFFFFFFFFFFFFFFF AND MUL OR SWAP1 SSTORE POP DUP1 PUSH20 0xFFFFFFFFFFFFFFFFFFFFFFFFFFFFFFFFFFFFFFFF AND PUSH32 0xD56ED7B1C1110348B1FBF418469F6FC4ACC32D9B675E9E1E448CC19169A64CA0 PUSH1 0x40 MLOAD PUSH1 0x40 MLOAD DUP1 SWAP2 SUB SWAP1 LOG2 POP JUMP JUMPDEST ADDRESS PUSH20 0xFFFFFFFFFFFFFFFFFFFFFFFFFFFFFFFFFFFFFFFF AND CALLER PUSH20 0xFFFFFFFFFFFFFFFFFFFFFFFFFFFFFFFFFFFFFFFF AND EQ ISZERO DUP1 ISZERO PUSH2 0x88B JUMPI POP PUSH1 0x7 PUSH0 SWAP1 SLOAD SWAP1 PUSH2 0x100 EXP SWAP1 DIV PUSH20 0xFFFFFFFFFFFFFFFFFFFFFFFFFFFFFFFFFFFFFFFF AND PUSH20 0xFFFFFFFFFFFFFFFFFFFFFFFFFFFFFFFFFFFFFFFF AND CALLER PUSH20 0xFFFFFFFFFFFFFFFFFFFFFFFFFFFFFFFFFFFFFFFF AND EQ ISZERO JUMPDEST ISZERO PUSH2 0x8CD JUMPI CALLER PUSH1 0x40 MLOAD PUSH32 0xEE4A26F200000000000000000000000000000000000000000000000000000000 DUP2 MSTORE PUSH1 0x4 ADD PUSH2 0x8C4 SWAP2 SWAP1 PUSH2 0x2A6E JUMP JUMPDEST PUSH1 0x40 MLOAD DUP1 SWAP2 SUB SWAP1 REVERT JUMPDEST PUSH2 0x8D5 PUSH2 0x1165 JUMP JUMPDEST PUSH20 0xFFFFFFFFFFFFFFFFFFFFFFFFFFFFFFFFFFFFFFFF AND DUP4 PUSH20 0xFFFFFFFFFFFFFFFFFFFFFFFFFFFFFFFFFFFFFFFF AND EQ ISZERO DUP1 ISZERO PUSH2 0x91E JUMPI POP PUSH2 0x91C DUP4 PUSH2 0x917 PUSH2 0x1165 JUMP JUMPDEST PUSH2 0xDAA JUMP JUMPDEST ISZERO JUMPDEST ISZERO PUSH2 0x969 JUMPI PUSH2 0x92B PUSH2 0x1165 JUMP JUMPDEST DUP4 PUSH1 0x40 MLOAD PUSH32 0xE237D92200000000000000000000000000000000000000000000000000000000 DUP2 MSTORE PUSH1 0x4 ADD PUSH2 0x960 SWAP3 SWAP2 SWAP1 PUSH2 0x2F7F JUMP JUMPDEST PUSH1 0x40 MLOAD DUP1 SWAP2 SUB SWAP1 REVERT JUMPDEST PUSH2 0x974 DUP4 DUP4 DUP4 PUSH2 0x1317 JUMP JUMPDEST POP POP POP JUMP JUMPDEST PUSH1 0x6 PUSH0 SWAP1 SLOAD SWAP1 PUSH2 0x100 EXP SWAP1 DIV PUSH20 0xFFFFFFFFFFFFFFFFFFFFFFFFFFFFFFFFFFFFFFFF AND PUSH20 0xFFFFFFFFFFFFFFFFFFFFFFFFFFFFFFFFFFFFFFFF AND CALLER PUSH20 0xFFFFFFFFFFFFFFFFFFFFFFFFFFFFFFFFFFFFFFFF AND EQ PUSH2 0xA08 JUMPI PUSH1 0x40 MLOAD PUSH32 0x8C379A000000000000000000000000000000000000000000000000000000000 DUP2 MSTORE PUSH1 0x4 ADD PUSH2 0x9FF SWAP1 PUSH2 0x3044 JUMP JUMPDEST PUSH1 0x40 MLOAD DUP1 SWAP2 SUB SWAP1 REVERT JUMPDEST PUSH0 PUSH1 0x5 PUSH0 SWAP1 SLOAD SWAP1 PUSH2 0x100 EXP SWAP1 DIV PUSH20 0xFFFFFFFFFFFFFFFFFFFFFFFFFFFFFFFFFFFFFFFF AND SWAP1 POP CALLER PUSH1 0x5 PUSH0 PUSH2 0x100 EXP DUP2 SLOAD DUP2 PUSH20 0xFFFFFFFFFFFFFFFFFFFFFFFFFFFFFFFFFFFFFFFF MUL NOT AND SWAP1 DUP4 PUSH20 0xFFFFFFFFFFFFFFFFFFFFFFFFFFFFFFFFFFFFFFFF AND MUL OR SWAP1 SSTORE POP PUSH0 PUSH1 0x6 PUSH0 PUSH2 0x100 EXP DUP2 SLOAD DUP2 PUSH20 0xFFFFFFFFFFFFFFFFFFFFFFFFFFFFFFFFFFFFFFFF MUL NOT AND SWAP1 DUP4 PUSH20 0xFFFFFFFFFFFFFFFFFFFFFFFFFFFFFFFFFFFFFFFF AND MUL OR SWAP1 SSTORE POP CALLER PUSH20 0xFFFFFFFFFFFFFFFFFFFFFFFFFFFFFFFFFFFFFFFF AND DUP2 PUSH20 0xFFFFFFFFFFFFFFFFFFFFFFFFFFFFFFFFFFFFFFFF AND PUSH32 0x8BE0079C531659141344CD1FD0A4F28419497F9722A3DAAFE3B4186F6B6457E0 PUSH1 0x40 MLOAD PUSH1 0x40 MLOAD DUP1 SWAP2 SUB SWAP1 LOG3 POP JUMP JUMPDEST PUSH0 PUSH1 0x5 PUSH0 SWAP1 SLOAD SWAP1 PUSH2 0x100 EXP SWAP1 DIV PUSH20 0xFFFFFFFFFFFFFFFFFFFFFFFFFFFFFFFFFFFFFFFF AND SWAP1 POP SWAP1 JUMP JUMPDEST PUSH2 0xB44 PUSH2 0xB3D PUSH2 0x1165 JUMP JUMPDEST DUP4 DUP4 PUSH2 0x13A7 JUMP JUMPDEST POP POP JUMP JUMPDEST ADDRESS PUSH20 0xFFFFFFFFFFFFFFFFFFFFFFFFFFFFFFFFFFFFFFFF AND CALLER PUSH20 0xFFFFFFFFFFFFFFFFFFFFFFFFFFFFFFFFFFFFFFFF AND EQ ISZERO DUP1 ISZERO PUSH2 0xBD1 JUMPI POP PUSH1 0x7 PUSH0 SWAP1 SLOAD SWAP1 PUSH2 0x100 EXP SWAP1 DIV PUSH20 0xFFFFFFFFFFFFFFFFFFFFFFFFFFFFFFFFFFFFFFFF AND PUSH20 0xFFFFFFFFFFFFFFFFFFFFFFFFFFFFFFFFFFFFFFFF AND CALLER PUSH20 0xFFFFFFFFFFFFFFFFFFFFFFFFFFFFFFFFFFFFFFFF AND EQ ISZERO JUMPDEST ISZERO PUSH2 0xC13 JUMPI CALLER PUSH1 0x40 MLOAD PUSH32 0xEE4A26F200000000000000000000000000000000000000000000000000000000 DUP2 MSTORE PUSH1 0x4 ADD PUSH2 0xC0A SWAP2 SWAP1 PUSH2 0x2A6E JUMP JUMPDEST PUSH1 0x40 MLOAD DUP1 SWAP2 SUB SWAP1 REVERT JUMPDEST PUSH2 0xC1F DUP6 DUP6 DUP6 DUP6 PUSH2 0x1510 JUMP JUMPDEST PUSH0 PUSH0 SWAP1 POP JUMPDEST DUP5 MLOAD DUP2 LT ISZERO PUSH2 0xC8B JUMPI DUP2 DUP2 DUP2 MLOAD DUP2 LT PUSH2 0xC40 JUMPI PUSH2 0xC3F PUSH2 0x2FCD JUMP JUMPDEST JUMPDEST PUSH1 0x20 MUL PUSH1 0x20 ADD ADD MLOAD PUSH1 0x8 PUSH0 DUP8 DUP5 DUP2 MLOAD DUP2 LT PUSH2 0xC5E JUMPI PUSH2 0xC5D PUSH2 0x2FCD JUMP JUMPDEST JUMPDEST PUSH1 0x20 MUL PUSH1 0x20 ADD ADD MLOAD DUP2 MSTORE PUSH1 0x20 ADD SWAP1 DUP2 MSTORE PUSH1 0x20 ADD PUSH0 KECCAK256 SWAP1 DUP2 PUSH2 0xC7F SWAP2 SWAP1 PUSH2 0x3202 JUMP JUMPDEST POP DUP1 PUSH1 0x1 ADD SWAP1 POP PUSH2 0xC24 JUMP JUMPDEST POP POP POP POP POP POP JUMP JUMPDEST PUSH0 PUSH1 0x3 PUSH0 DUP4 DUP2 MSTORE PUSH1 0x20 ADD SWAP1 DUP2 MSTORE PUSH1 0x20 ADD PUSH0 KECCAK256 SLOAD SWAP1 POP SWAP2 SWAP1 POP JUMP JUMPDEST ADDRESS PUSH20 0xFFFFFFFFFFFFFFFFFFFFFFFFFFFFFFFFFFFFFFFF AND CALLER PUSH20 0xFFFFFFFFFFFFFFFFFFFFFFFFFFFFFFFFFFFFFFFF AND EQ ISZERO DUP1 ISZERO PUSH2 0xD36 JUMPI POP PUSH1 0x7 PUSH0 SWAP1 SLOAD SWAP1 PUSH2 0x100 EXP SWAP1 DIV PUSH20 0xFFFFFFFFFFFFFFFFFFFFFFFFFFFFFFFFFFFFFFFF AND PUSH20 0xFFFFFFFFFFFFFFFFFFFFFFFFFFFFFFFFFFFFFFFF AND CALLER PUSH20 0xFFFFFFFFFFFFFFFFFFFFFFFFFFFFFFFFFFFFFFFF AND EQ ISZERO JUMPDEST ISZERO PUSH2 0xD78 JUMPI CALLER PUSH1 0x40 MLOAD PUSH32 0xEE4A26F200000000000000000000000000000000000000000000000000000000 DUP2 MSTORE PUSH1 0x4 ADD PUSH2 0xD6F SWAP2 SWAP1 PUSH2 0x2A6E JUMP JUMPDEST PUSH1 0x40 MLOAD DUP1 SWAP2 SUB SWAP1 REVERT JUMPDEST PUSH2 0xD84 DUP6 DUP6 DUP6 DUP6 PUSH2 0x1593 JUMP JUMPDEST DUP1 PUSH1 0x8 PUSH0 DUP7 DUP2 MSTORE PUSH1 0x20 ADD SWAP1 DUP2 MSTORE PUSH1 0x20 ADD PUSH0 KECCAK256 SWAP1 DUP2 PUSH2 0xDA2 SWAP2 SWAP1 PUSH2 0x3202 JUMP JUMPDEST POP POP POP POP POP POP JUMP JUMPDEST PUSH0 PUSH1 0x1 PUSH0 DUP5 PUSH20 0xFFFFFFFFFFFFFFFFFFFFFFFFFFFFFFFFFFFFFFFF AND PUSH20 0xFFFFFFFFFFFFFFFFFFFFFFFFFFFFFFFFFFFFFFFF AND DUP2 MSTORE PUSH1 0x20 ADD SWAP1 DUP2 MSTORE PUSH1 0x20 ADD PUSH0 KECCAK256 PUSH0 DUP4 PUSH20 0xFFFFFFFFFFFFFFFFFFFFFFFFFFFFFFFFFFFFFFFF AND PUSH20 0xFFFFFFFFFFFFFFFFFFFFFFFFFFFFFFFFFFFFFFFF AND DUP2 MSTORE PUSH1 0x20 ADD SWAP1 DUP2 MSTORE PUSH1 0x20 ADD PUSH0 KECCAK256 PUSH0 SWAP1 SLOAD SWAP1 PUSH2 0x100 EXP SWAP1 DIV PUSH1 0xFF AND SWAP1 POP SWAP3 SWAP2 POP POP JUMP JUMPDEST PUSH0 PUSH2 0xE41 PUSH2 0x1165 JUMP JUMPDEST SWAP1 POP DUP1 PUSH20 0xFFFFFFFFFFFFFFFFFFFFFFFFFFFFFFFFFFFFFFFF AND DUP7 PUSH20 0xFFFFFFFFFFFFFFFFFFFFFFFFFFFFFFFFFFFFFFFF AND EQ ISZERO DUP1 ISZERO PUSH2 0xE86 JUMPI POP PUSH2 0xE84 DUP7 DUP3 PUSH2 0xDAA JUMP JUMPDEST ISZERO JUMPDEST ISZERO PUSH2 0xECA JUMPI DUP1 DUP7 PUSH1 0x40 MLOAD PUSH32 0xE237D92200000000000000000000000000000000000000000000000000000000 DUP2 MSTORE PUSH1 0x4 ADD PUSH2 0xEC1 SWAP3 SWAP2 SWAP1 PUSH2 0x2F7F JUMP JUMPDEST PUSH1 0x40 MLOAD DUP1 SWAP2 SUB SWAP1 REVERT JUMPDEST PUSH2 0xED7 DUP7 DUP7 DUP7 DUP7 DUP7 PUSH2 0x1628 JUMP JUMPDEST POP POP POP POP POP POP JUMP JUMPDEST PUSH2 0xEE7 PUSH2 0x1286 JUMP JUMPDEST PUSH2 0xEF0 DUP2 PUSH2 0x172E JUMP JUMPDEST POP JUMP JUMPDEST ADDRESS PUSH20 0xFFFFFFFFFFFFFFFFFFFFFFFFFFFFFFFFFFFFFFFF AND CALLER PUSH20 0xFFFFFFFFFFFFFFFFFFFFFFFFFFFFFFFFFFFFFFFF AND EQ ISZERO DUP1 ISZERO PUSH2 0xF7C JUMPI POP PUSH1 0x7 PUSH0 SWAP1 SLOAD SWAP1 PUSH2 0x100 EXP SWAP1 DIV PUSH20 0xFFFFFFFFFFFFFFFFFFFFFFFFFFFFFFFFFFFFFFFF AND PUSH20 0xFFFFFFFFFFFFFFFFFFFFFFFFFFFFFFFFFFFFFFFF AND CALLER PUSH20 0xFFFFFFFFFFFFFFFFFFFFFFFFFFFFFFFFFFFFFFFF AND EQ ISZERO JUMPDEST ISZERO PUSH2 0xFBE JUMPI CALLER PUSH1 0x40 MLOAD PUSH32 0xEE4A26F200000000000000000000000000000000000000000000000000000000 DUP2 MSTORE PUSH1 0x4 ADD PUSH2 0xFB5 SWAP2 SWAP1 PUSH2 0x2A6E JUMP JUMPDEST PUSH1 0x40 MLOAD DUP1 SWAP2 SUB SWAP1 REVERT JUMPDEST PUSH2 0xFC6 PUSH2 0x1165 JUMP JUMPDEST PUSH20 0xFFFFFFFFFFFFFFFFFFFFFFFFFFFFFFFFFFFFFFFF AND DUP4 PUSH20 0xFFFFFFFFFFFFFFFFFFFFFFFFFFFFFFFFFFFFFFFF AND EQ ISZERO DUP1 ISZERO PUSH2 0x100F JUMPI POP PUSH2 0x100D DUP4 PUSH2 0x1008 PUSH2 0x1165 JUMP JUMPDEST PUSH2 0xDAA JUMP JUMPDEST ISZERO JUMPDEST ISZERO PUSH2 0x105A JUMPI PUSH2 0x101C PUSH2 0x1165 JUMP JUMPDEST DUP4 PUSH1 0x40 MLOAD PUSH32 0xE237D92200000000000000000000000000000000000000000000000000000000 DUP2 MSTORE PUSH1 0x4 ADD PUSH2 0x1051 SWAP3 SWAP2 SWAP1 PUSH2 0x2F7F JUMP JUMPDEST PUSH1 0x40 MLOAD DUP1 SWAP2 SUB SWAP1 REVERT JUMPDEST PUSH2 0x1065 DUP4 DUP4 DUP4 PUSH2 0x185A JUMP JUMPDEST POP POP POP JUMP JUMPDEST PUSH0 PUSH32 0x1FFC9A700000000000000000000000000000000000000000000000000000000 PUSH28 0xFFFFFFFFFFFFFFFFFFFFFFFFFFFFFFFFFFFFFFFFFFFFFFFFFFFFFFFF NOT AND DUP3 PUSH28 0xFFFFFFFFFFFFFFFFFFFFFFFFFFFFFFFFFFFFFFFFFFFFFFFFFFFFFFFF NOT AND EQ SWAP1 POP SWAP2 SWAP1 POP JUMP JUMPDEST PUSH1 0x60 PUSH1 0x2 DUP1 SLOAD PUSH2 0x10E2 SWAP1 PUSH2 0x2F4F JUMP JUMPDEST DUP1 PUSH1 0x1F ADD PUSH1 0x20 DUP1 SWAP2 DIV MUL PUSH1 0x20 ADD PUSH1 0x40 MLOAD SWAP1 DUP2 ADD PUSH1 0x40 MSTORE DUP1 SWAP3 SWAP2 SWAP1 DUP2 DUP2 MSTORE PUSH1 0x20 ADD DUP3 DUP1 SLOAD PUSH2 0x110E SWAP1 PUSH2 0x2F4F JUMP JUMPDEST DUP1 ISZERO PUSH2 0x1159 JUMPI DUP1 PUSH1 0x1F LT PUSH2 0x1130 JUMPI PUSH2 0x100 DUP1 DUP4 SLOAD DIV MUL DUP4 MSTORE SWAP2 PUSH1 0x20 ADD SWAP2 PUSH2 0x1159 JUMP JUMPDEST DUP3 ADD SWAP2 SWAP1 PUSH0 MSTORE PUSH1 0x20 PUSH0 KECCAK256 SWAP1 JUMPDEST DUP2 SLOAD DUP2 MSTORE SWAP1 PUSH1 0x1 ADD SWAP1 PUSH1 0x20 ADD DUP1 DUP4 GT PUSH2 0x113C JUMPI DUP3 SWAP1 SUB PUSH1 0x1F AND DUP3 ADD SWAP2 JUMPDEST POP POP POP POP POP SWAP1 POP SWAP2 SWAP1 POP JUMP JUMPDEST PUSH0 CALLER SWAP1 POP SWAP1 JUMP JUMPDEST PUSH0 PUSH20 0xFFFFFFFFFFFFFFFFFFFFFFFFFFFFFFFFFFFFFFFF AND DUP5 PUSH20 0xFFFFFFFFFFFFFFFFFFFFFFFFFFFFFFFFFFFFFFFF AND SUB PUSH2 0x11DC JUMPI PUSH0 PUSH1 0x40 MLOAD PUSH32 0x57F447CE00000000000000000000000000000000000000000000000000000000 DUP2 MSTORE PUSH1 0x4 ADD PUSH2 0x11D3 SWAP2 SWAP1 PUSH2 0x2A6E JUMP JUMPDEST PUSH1 0x40 MLOAD DUP1 SWAP2 SUB SWAP1 REVERT JUMPDEST PUSH0 PUSH20 0xFFFFFFFFFFFFFFFFFFFFFFFFFFFFFFFFFFFFFFFF AND DUP6 PUSH20 0xFFFFFFFFFFFFFFFFFFFFFFFFFFFFFFFFFFFFFFFF AND SUB PUSH2 0x124C JUMPI PUSH0 PUSH1 0x40 MLOAD PUSH32 0x1A8351400000000000000000000000000000000000000000000000000000000 DUP2 MSTORE PUSH1 0x4 ADD PUSH2 0x1243 SWAP2 SWAP1 PUSH2 0x2A6E JUMP JUMPDEST PUSH1 0x40 MLOAD DUP1 SWAP2 SUB SWAP1 REVERT JUMPDEST PUSH2 0x1259 DUP6 DUP6 DUP6 DUP6 DUP6 PUSH2 0x18FC JUMP JUMPDEST POP POP POP POP POP JUMP JUMPDEST PUSH0 PUSH1 0x20 DUP3 MUL PUSH1 0x20 DUP5 ADD ADD MLOAD SWAP1 POP SWAP3 SWAP2 POP POP JUMP JUMPDEST PUSH0 PUSH1 0x20 DUP3 MUL PUSH1 0x20 DUP5 ADD ADD MLOAD SWAP1 POP SWAP3 SWAP2 POP POP JUMP JUMPDEST PUSH1 0x5 PUSH0 SWAP1 SLOAD SWAP1 PUSH2 0x100 EXP SWAP1 DIV PUSH20 0xFFFFFFFFFFFFFFFFFFFFFFFFFFFFFFFFFFFFFFFF AND PUSH20 0xFFFFFFFFFFFFFFFFFFFFFFFFFFFFFFFFFFFFFFFF AND CALLER PUSH20 0xFFFFFFFFFFFFFFFFFFFFFFFFFFFFFFFFFFFFFFFF AND EQ PUSH2 0x1315 JUMPI PUSH1 0x40 MLOAD PUSH32 0x8C379A000000000000000000000000000000000000000000000000000000000 DUP2 MSTORE PUSH1 0x4 ADD PUSH2 0x130C SWAP1 PUSH2 0x331B JUMP JUMPDEST PUSH1 0x40 MLOAD DUP1 SWAP2 SUB SWAP1 REVERT JUMPDEST JUMP JUMPDEST PUSH0 PUSH20 0xFFFFFFFFFFFFFFFFFFFFFFFFFFFFFFFFFFFFFFFF AND DUP4 PUSH20 0xFFFFFFFFFFFFFFFFFFFFFFFFFFFFFFFFFFFFFFFF AND SUB PUSH2 0x1387 JUMPI PUSH0 PUSH1 0x40 MLOAD PUSH32 0x1A8351400000000000000000000000000000000000000000000000000000000 DUP2 MSTORE PUSH1 0x4 ADD PUSH2 0x137E SWAP2 SWAP1 PUSH2 0x2A6E JUMP JUMPDEST PUSH1 0x40 MLOAD DUP1 SWAP2 SUB SWAP1 REVERT JUMPDEST PUSH2 0x13A2 DUP4 PUSH0 DUP5 DUP5 PUSH1 0x40 MLOAD DUP1 PUSH1 0x20 ADD PUSH1 0x40 MSTORE DUP1 PUSH0 DUP2 MSTORE POP PUSH2 0x18FC JUMP JUMPDEST POP POP POP JUMP JUMPDEST PUSH0 PUSH20 0xFFFFFFFFFFFFFFFFFFFFFFFFFFFFFFFFFFFFFFFF AND DUP3 PUSH20 0xFFFFFFFFFFFFFFFFFFFFFFFFFFFFFFFFFFFFFFFF AND SUB PUSH2 0x1417 JUMPI PUSH0 PUSH1 0x40 MLOAD PUSH32 0xCED3E10000000000000000000000000000000000000000000000000000000000 DUP2 MSTORE PUSH1 0x4 ADD PUSH2 0x140E SWAP2 SWAP1 PUSH2 0x2A6E JUMP JUMPDEST PUSH1 0x40 MLOAD DUP1 SWAP2 SUB SWAP1 REVERT JUMPDEST DUP1 PUSH1 0x1 PUSH0 DUP6 PUSH20 0xFFFFFFFFFFFFFFFFFFFFFFFFFFFFFFFFFFFFFFFF AND PUSH20 0xFFFFFFFFFFFFFFFFFFFFFFFFFFFFFFFFFFFFFFFF AND DUP2 MSTORE PUSH1 0x20 ADD SWAP1 DUP2 MSTORE PUSH1 0x20 ADD PUSH0 KECCAK256 PUSH0 DUP5 PUSH20 0xFFFFFFFFFFFFFFFFFFFFFFFFFFFFFFFFFFFFFFFF AND PUSH20 0xFFFFFFFFFFFFFFFFFFFFFFFFFFFFFFFFFFFFFFFF AND DUP2 MSTORE PUSH1 0x20 ADD SWAP1 DUP2 MSTORE PUSH1 0x20 ADD PUSH0 KECCAK256 PUSH0 PUSH2 0x100 EXP DUP2 SLOAD DUP2 PUSH1 0xFF MUL NOT AND SWAP1 DUP4 ISZERO ISZERO MUL OR SWAP1 SSTORE POP DUP2 PUSH20 0xFFFFFFFFFFFFFFFFFFFFFFFFFFFFFFFFFFFFFFFF AND DUP4 PUSH20 0xFFFFFFFFFFFFFFFFFFFFFFFFFFFFFFFFFFFFFFFF AND PUSH32 0x17307EAB39AB6107E8899845AD3D59BD9653F200F220920489CA2B5937696C31 DUP4 PUSH1 0x40 MLOAD PUSH2 0x1503 SWAP2 SWAP1 PUSH2 0x2410 JUMP JUMPDEST PUSH1 0x40 MLOAD DUP1 SWAP2 SUB SWAP1 LOG3 POP POP POP JUMP JUMPDEST PUSH0 PUSH20 0xFFFFFFFFFFFFFFFFFFFFFFFFFFFFFFFFFFFFFFFF AND DUP5 PUSH20 0xFFFFFFFFFFFFFFFFFFFFFFFFFFFFFFFFFFFFFFFF AND SUB PUSH2 0x1580 JUMPI PUSH0 PUSH1 0x40 MLOAD PUSH32 0x57F447CE00000000000000000000000000000000000000000000000000000000 DUP2 MSTORE PUSH1 0x4 ADD PUSH2 0x1577 SWAP2 SWAP1 PUSH2 0x2A6E JUMP JUMPDEST PUSH1 0x40 MLOAD DUP1 SWAP2 SUB SWAP1 REVERT JUMPDEST PUSH2 0x158D PUSH0 DUP6 DUP6 DUP6 DUP6 PUSH2 0x18FC JUMP JUMPDEST POP POP POP POP JUMP JUMPDEST PUSH0 PUSH20 0xFFFFFFFFFFFFFFFFFFFFFFFFFFFFFFFFFFFFFFFF AND DUP5 PUSH20 0xFFFFFFFFFFFFFFFFFFFFFFFFFFFFFFFFFFFFFFFF AND SUB PUSH2 0x1603 JUMPI PUSH0 PUSH1 0x40 MLOAD PUSH32 0x57F447CE00000000000000000000000000000000000000000000000000000000 DUP2 MSTORE PUSH1 0x4 ADD PUSH2 0x15FA SWAP2 SWAP1 PUSH2 0x2A6E JUMP JUMPDEST PUSH1 0x40 MLOAD DUP1 SWAP2 SUB SWAP1 REVERT JUMPDEST PUSH0 PUSH0 PUSH2 0x160F DUP6 DUP6 PUSH2 0x19A8 JUMP JUMPDEST SWAP2 POP SWAP2 POP PUSH2 0x1620 PUSH0 DUP8 DUP5 DUP5 DUP8 PUSH2 0x18FC JUMP JUMPDEST POP POP POP POP POP POP JUMP JUMPDEST PUSH0 PUSH20 0xFFFFFFFFFFFFFFFFFFFFFFFFFFFFFFFFFFFFFFFF AND DUP5 PUSH20 0xFFFFFFFFFFFFFFFFFFFFFFFFFFFFFFFFFFFFFFFF AND SUB PUSH2 0x1698 JUMPI PUSH0 PUSH1 0x40 MLOAD PUSH32 0x57F447CE00000000000000000000000000000000000000000000000000000000 DUP2 MSTORE PUSH1 0x4 ADD PUSH2 0x168F SWAP2 SWAP1 PUSH2 0x2A6E JUMP JUMPDEST PUSH1 0x40 MLOAD DUP1 SWAP2 SUB SWAP1 REVERT JUMPDEST PUSH0 PUSH20 0xFFFFFFFFFFFFFFFFFFFFFFFFFFFFFFFFFFFFFFFF AND DUP6 PUSH20 0xFFFFFFFFFFFFFFFFFFFFFFFFFFFFFFFFFFFFFFFF AND SUB PUSH2 0x1708 JUMPI PUSH0 PUSH1 0x40 MLOAD PUSH32 0x1A8351400000000000000000000000000000000000000000000000000000000 DUP2 MSTORE PUSH1 0x4 ADD PUSH2 0x16FF SWAP2 SWAP1 PUSH2 0x2A6E JUMP JUMPDEST PUSH1 0x40 MLOAD DUP1 SWAP2 SUB SWAP1 REVERT JUMPDEST PUSH0 PUSH0 PUSH2 0x1714 DUP6 DUP6 PUSH2 0x19A8 JUMP JUMPDEST SWAP2 POP SWAP2 POP PUSH2 0x1725 DUP8 DUP8 DUP5 DUP5 DUP8 PUSH2 0x18FC JUMP JUMPDEST POP POP POP POP POP POP POP JUMP JUMPDEST CALLER PUSH20 0xFFFFFFFFFFFFFFFFFFFFFFFFFFFFFFFFFFFFFFFF AND DUP2 PUSH20 0xFFFFFFFFFFFFFFFFFFFFFFFFFFFFFFFFFFFFFFFF AND SUB PUSH2 0x179C JUMPI PUSH1 0x40 MLOAD PUSH32 0x8C379A000000000000000000000000000000000000000000000000000000000 DUP2 MSTORE PUSH1 0x4 ADD PUSH2 0x1793 SWAP1 PUSH2 0x3383 JUMP JUMPDEST PUSH1 0x40 MLOAD DUP1 SWAP2 SUB SWAP1 REVERT JUMPDEST DUP1 PUSH1 0x6 PUSH0 PUSH2 0x100 EXP DUP2 SLOAD DUP2 PUSH20 0xFFFFFFFFFFFFFFFFFFFFFFFFFFFFFFFFFFFFFFFF MUL NOT AND SWAP1 DUP4 PUSH20 0xFFFFFFFFFFFFFFFFFFFFFFFFFFFFFFFFFFFFFFFF AND MUL OR SWAP1 SSTORE POP DUP1 PUSH20 0xFFFFFFFFFFFFFFFFFFFFFFFFFFFFFFFFFFFFFFFF AND PUSH1 0x5 PUSH0 SWAP1 SLOAD SWAP1 PUSH2 0x100 EXP SWAP1 DIV PUSH20 0xFFFFFFFFFFFFFFFFFFFFFFFFFFFFFFFFFFFFFFFF AND PUSH20 0xFFFFFFFFFFFFFFFFFFFFFFFFFFFFFFFFFFFFFFFF AND PUSH32 0xED8889F560326EB138920D842192F0EB3DD22B4F139C87A2C57538E05BAE1278 PUSH1 0x40 MLOAD PUSH1 0x40 MLOAD DUP1 SWAP2 SUB SWAP1 LOG3 POP JUMP JUMPDEST PUSH0 PUSH20 0xFFFFFFFFFFFFFFFFFFFFFFFFFFFFFFFFFFFFFFFF AND DUP4 PUSH20 0xFFFFFFFFFFFFFFFFFFFFFFFFFFFFFFFFFFFFFFFF AND SUB PUSH2 0x18CA JUMPI PUSH0 PUSH1 0x40 MLOAD PUSH32 0x1A8351400000000000000000000000000000000000000000000000000000000 DUP2 MSTORE PUSH1 0x4 ADD PUSH2 0x18C1 SWAP2 SWAP1 PUSH2 0x2A6E JUMP JUMPDEST PUSH1 0x40 MLOAD DUP1 SWAP2 SUB SWAP1 REVERT JUMPDEST PUSH0 PUSH0 PUSH2 0x18D6 DUP5 DUP5 PUSH2 0x19A8 JUMP JUMPDEST SWAP2 POP SWAP2 POP PUSH2 0x18F5 DUP6 PUSH0 DUP5 DUP5 PUSH1 0x40 MLOAD DUP1 PUSH1 0x20 ADD PUSH1 0x40 MSTORE DUP1 PUSH0 DUP2 MSTORE POP PUSH2 0x18FC JUMP JUMPDEST POP POP POP POP POP JUMP JUMPDEST PUSH2 0x1908 DUP6 DUP6 DUP6 DUP6 PUSH2 0x19D8 JUMP JUMPDEST PUSH0 PUSH20 0xFFFFFFFFFFFFFFFFFFFFFFFFFFFFFFFFFFFFFFFF AND DUP5 PUSH20 0xFFFFFFFFFFFFFFFFFFFFFFFFFFFFFFFFFFFFFFFF AND EQ PUSH2 0x19A1 JUMPI PUSH0 PUSH2 0x1944 PUSH2 0x1165 JUMP JUMPDEST SWAP1 POP PUSH1 0x1 DUP5 MLOAD SUB PUSH2 0x1990 JUMPI PUSH0 PUSH2 0x1963 PUSH0 DUP7 PUSH2 0x1273 SWAP1 SWAP2 SWAP1 PUSH4 0xFFFFFFFF AND JUMP JUMPDEST SWAP1 POP PUSH0 PUSH2 0x1979 PUSH0 DUP7 PUSH2 0x1273 SWAP1 SWAP2 SWAP1 PUSH4 0xFFFFFFFF AND JUMP JUMPDEST SWAP1 POP PUSH2 0x1989 DUP4 DUP10 DUP10 DUP6 DUP6 DUP10 PUSH2 0x1B81 JUMP JUMPDEST POP POP PUSH2 0x199F JUMP JUMPDEST PUSH2 0x199E DUP2 DUP8 DUP8 DUP8 DUP8 DUP8 PUSH2 0x1D30 JUMP JUMPDEST JUMPDEST POP JUMPDEST POP POP POP POP POP JUMP JUMPDEST PUSH1 0x60 DUP1 PUSH1 0x40 MLOAD SWAP2 POP PUSH1 0x1 DUP3 MSTORE DUP4 PUSH1 0x20 DUP4 ADD MSTORE PUSH1 0x40 DUP3 ADD SWAP1 POP PUSH1 0x1 DUP2 MSTORE DUP3 PUSH1 0x20 DUP3 ADD MSTORE PUSH1 0x40 DUP2 ADD PUSH1 0x40 MSTORE SWAP3 POP SWAP3 SWAP1 POP JUMP JUMPDEST PUSH2 0x19E4 DUP5 DUP5 DUP5 DUP5 PUSH2 0x1EDF JUMP JUMPDEST PUSH0 PUSH20 0xFFFFFFFFFFFFFFFFFFFFFFFFFFFFFFFFFFFFFFFF AND DUP5 PUSH20 0xFFFFFFFFFFFFFFFFFFFFFFFFFFFFFFFFFFFFFFFF AND SUB PUSH2 0x1ABD JUMPI PUSH0 PUSH0 SWAP1 POP PUSH0 PUSH0 SWAP1 POP JUMPDEST DUP4 MLOAD DUP2 LT ISZERO PUSH2 0x1AA2 JUMPI PUSH0 DUP4 DUP3 DUP2 MLOAD DUP2 LT PUSH2 0x1A3D JUMPI PUSH2 0x1A3C PUSH2 0x2FCD JUMP JUMPDEST JUMPDEST PUSH1 0x20 MUL PUSH1 0x20 ADD ADD MLOAD SWAP1 POP DUP1 PUSH1 0x3 PUSH0 DUP8 DUP6 DUP2 MLOAD DUP2 LT PUSH2 0x1A5E JUMPI PUSH2 0x1A5D PUSH2 0x2FCD JUMP JUMPDEST JUMPDEST PUSH1 0x20 MUL PUSH1 0x20 ADD ADD MLOAD DUP2 MSTORE PUSH1 0x20 ADD SWAP1 DUP2 MSTORE PUSH1 0x20 ADD PUSH0 KECCAK256 PUSH0 DUP3 DUP3 SLOAD PUSH2 0x1A81 SWAP2 SWAP1 PUSH2 0x33CE JUMP JUMPDEST SWAP3 POP POP DUP2 SWAP1 SSTORE POP DUP1 DUP4 PUSH2 0x1A94 SWAP2 SWAP1 PUSH2 0x33CE JUMP JUMPDEST SWAP3 POP POP DUP1 PUSH1 0x1 ADD SWAP1 POP PUSH2 0x1A20 JUMP JUMPDEST POP DUP1 PUSH1 0x4 PUSH0 DUP3 DUP3 SLOAD PUSH2 0x1AB4 SWAP2 SWAP1 PUSH2 0x33CE JUMP JUMPDEST SWAP3 POP POP DUP2 SWAP1 SSTORE POP POP JUMPDEST PUSH0 PUSH20 0xFFFFFFFFFFFFFFFFFFFFFFFFFFFFFFFFFFFFFFFF AND DUP4 PUSH20 0xFFFFFFFFFFFFFFFFFFFFFFFFFFFFFFFFFFFFFFFF AND SUB PUSH2 0x1B7B JUMPI PUSH0 PUSH0 SWAP1 POP PUSH0 PUSH0 SWAP1 POP JUMPDEST DUP4 MLOAD DUP2 LT ISZERO PUSH2 0x1B69 JUMPI PUSH0 DUP4 DUP3 DUP2 MLOAD DUP2 LT PUSH2 0x1B16 JUMPI PUSH2 0x1B15 PUSH2 0x2FCD JUMP JUMPDEST JUMPDEST PUSH1 0x20 MUL PUSH1 0x20 ADD ADD MLOAD SWAP1 POP DUP1 PUSH1 0x3 PUSH0 DUP8 DUP6 DUP2 MLOAD DUP2 LT PUSH2 0x1B37 JUMPI PUSH2 0x1B36 PUSH2 0x2FCD JUMP JUMPDEST JUMPDEST PUSH1 0x20 MUL PUSH1 0x20 ADD ADD MLOAD DUP2 MSTORE PUSH1 0x20 ADD SWAP1 DUP2 MSTORE PUSH1 0x20 ADD PUSH0 KECCAK256 PUSH0 DUP3 DUP3 SLOAD SUB SWAP3 POP POP DUP2 SWAP1 SSTORE POP DUP1 DUP4 ADD SWAP3 POP POP DUP1 PUSH1 0x1 ADD SWAP1 POP PUSH2 0x1AF9 JUMP JUMPDEST POP DUP1 PUSH1 0x4 PUSH0 DUP3 DUP3 SLOAD SUB SWAP3 POP POP DUP2 SWAP1 SSTORE POP POP JUMPDEST POP POP POP POP JUMP JUMPDEST PUSH0 DUP5 PUSH20 0xFFFFFFFFFFFFFFFFFFFFFFFFFFFFFFFFFFFFFFFF AND EXTCODESIZE GT ISZERO PUSH2 0x1D28 JUMPI DUP4 PUSH20 0xFFFFFFFFFFFFFFFFFFFFFFFFFFFFFFFFFFFFFFFF AND PUSH4 0xF23A6E61 DUP8 DUP8 DUP7 DUP7 DUP7 PUSH1 0x40 MLOAD DUP7 PUSH4 0xFFFFFFFF AND PUSH1 0xE0 SHL DUP2 MSTORE PUSH1 0x4 ADD PUSH2 0x1BE1 SWAP6 SWAP5 SWAP4 SWAP3 SWAP2 SWAP1 PUSH2 0x3453 JUMP JUMPDEST PUSH1 0x20 PUSH1 0x40 MLOAD DUP1 DUP4 SUB DUP2 PUSH0 DUP8 GAS CALL SWAP3 POP POP POP DUP1 ISZERO PUSH2 0x1C1C JUMPI POP PUSH1 0x40 MLOAD RETURNDATASIZE PUSH1 0x1F NOT PUSH1 0x1F DUP3 ADD AND DUP3 ADD DUP1 PUSH1 0x40 MSTORE POP DUP2 ADD SWAP1 PUSH2 0x1C19 SWAP2 SWAP1 PUSH2 0x34BF JUMP JUMPDEST PUSH1 0x1 JUMPDEST PUSH2 0x1C9D JUMPI RETURNDATASIZE DUP1 PUSH0 DUP2 EQ PUSH2 0x1C4A JUMPI PUSH1 0x40 MLOAD SWAP2 POP PUSH1 0x1F NOT PUSH1 0x3F RETURNDATASIZE ADD AND DUP3 ADD PUSH1 0x40 MSTORE RETURNDATASIZE DUP3 MSTORE RETURNDATASIZE PUSH0 PUSH1 0x20 DUP5 ADD RETURNDATACOPY PUSH2 0x1C4F JUMP JUMPDEST PUSH1 0x60 SWAP2 POP JUMPDEST POP PUSH0 DUP2 MLOAD SUB PUSH2 0x1C95 JUMPI DUP5 PUSH1 0x40 MLOAD PUSH32 0x57F447CE00000000000000000000000000000000000000000000000000000000 DUP2 MSTORE PUSH1 0x4 ADD PUSH2 0x1C8C SWAP2 SWAP1 PUSH2 0x2A6E JUMP JUMPDEST PUSH1 0x40 MLOAD DUP1 SWAP2 SUB SWAP1 REVERT JUMPDEST DUP1 MLOAD DUP2 PUSH1 0x20 ADD REVERT JUMPDEST PUSH4 0xF23A6E61 PUSH1 0xE0 SHL PUSH28 0xFFFFFFFFFFFFFFFFFFFFFFFFFFFFFFFFFFFFFFFFFFFFFFFFFFFFFFFF NOT AND DUP2 PUSH28 0xFFFFFFFFFFFFFFFFFFFFFFFFFFFFFFFFFFFFFFFFFFFFFFFFFFFFFFFF NOT AND EQ PUSH2 0x1D26 JUMPI DUP5 PUSH1 0x40 MLOAD PUSH32 0x57F447CE00000000000000000000000000000000000000000000000000000000 DUP2 MSTORE PUSH1 0x4 ADD PUSH2 0x1D1D SWAP2 SWAP1 PUSH2 0x2A6E JUMP JUMPDEST PUSH1 0x40 MLOAD DUP1 SWAP2 SUB SWAP1 REVERT JUMPDEST POP JUMPDEST POP POP POP POP POP POP JUMP JUMPDEST PUSH0 DUP5 PUSH20 0xFFFFFFFFFFFFFFFFFFFFFFFFFFFFFFFFFFFFFFFF AND EXTCODESIZE GT ISZERO PUSH2 0x1ED7 JUMPI DUP4 PUSH20 0xFFFFFFFFFFFFFFFFFFFFFFFFFFFFFFFFFFFFFFFF AND PUSH4 0xBC197C81 DUP8 DUP8 DUP7 DUP7 DUP7 PUSH1 0x40 MLOAD DUP7 PUSH4 0xFFFFFFFF AND PUSH1 0xE0 SHL DUP2 MSTORE PUSH1 0x4 ADD PUSH2 0x1D90 SWAP6 SWAP5 SWAP4 SWAP3 SWAP2 SWAP1 PUSH2 0x34EA JUMP JUMPDEST PUSH1 0x20 PUSH1 0x40 MLOAD DUP1 DUP4 SUB DUP2 PUSH0 DUP8 GAS CALL SWAP3 POP POP POP DUP1 ISZERO PUSH2 0x1DCB JUMPI POP PUSH1 0x40 MLOAD RETURNDATASIZE PUSH1 0x1F NOT PUSH1 0x1F DUP3 ADD AND DUP3 ADD DUP1 PUSH1 0x40 MSTORE POP DUP2 ADD SWAP1 PUSH2 0x1DC8 SWAP2 SWAP1 PUSH2 0x34BF JUMP JUMPDEST PUSH1 0x1 JUMPDEST PUSH2 0x1E4C JUMPI RETURNDATASIZE DUP1 PUSH0 DUP2 EQ PUSH2 0x1DF9 JUMPI PUSH1 0x40 MLOAD SWAP2 POP PUSH1 0x1F NOT PUSH1 0x3F RETURNDATASIZE ADD AND DUP3 ADD PUSH1 0x40 MSTORE RETURNDATASIZE DUP3 MSTORE RETURNDATASIZE PUSH0 PUSH1 0x20 DUP5 ADD RETURNDATACOPY PUSH2 0x1DFE JUMP JUMPDEST PUSH1 0x60 SWAP2 POP JUMPDEST POP PUSH0 DUP2 MLOAD SUB PUSH2 0x1E44 JUMPI DUP5 PUSH1 0x40 MLOAD PUSH32 0x57F447CE00000000000000000000000000000000000000000000000000000000 DUP2 MSTORE PUSH1 0x4 ADD PUSH2 0x1E3B SWAP2 SWAP1 PUSH2 0x2A6E JUMP JUMPDEST PUSH1 0x40 MLOAD DUP1 SWAP2 SUB SWAP1 REVERT JUMPDEST DUP1 MLOAD DUP2 PUSH1 0x20 ADD REVERT JUMPDEST PUSH4 0xBC197C81 PUSH1 0xE0 SHL PUSH28 0xFFFFFFFFFFFFFFFFFFFFFFFFFFFFFFFFFFFFFFFFFFFFFFFFFFFFFFFF NOT AND DUP2 PUSH28 0xFFFFFFFFFFFFFFFFFFFFFFFFFFFFFFFFFFFFFFFFFFFFFFFFFFFFFFFF NOT AND EQ PUSH2 0x1ED5 JUMPI DUP5 PUSH1 0x40 MLOAD PUSH32 0x57F447CE00000000000000000000000000000000000000000000000000000000 DUP2 MSTORE PUSH1 0x4 ADD PUSH2 0x1ECC SWAP2 SWAP1 PUSH2 0x2A6E JUMP JUMPDEST PUSH1 0x40 MLOAD DUP1 SWAP2 SUB SWAP1 REVERT JUMPDEST POP JUMPDEST POP POP POP POP POP POP JUMP JUMPDEST DUP1 MLOAD DUP3 MLOAD EQ PUSH2 0x1F29 JUMPI DUP2 MLOAD DUP2 MLOAD PUSH1 0x40 MLOAD PUSH32 0x5B05999100000000000000000000000000000000000000000000000000000000 DUP2 MSTORE PUSH1 0x4 ADD PUSH2 0x1F20 SWAP3 SWAP2 SWAP1 PUSH2 0x2FA6 JUMP JUMPDEST PUSH1 0x40 MLOAD DUP1 SWAP2 SUB SWAP1 REVERT JUMPDEST PUSH0 PUSH2 0x1F32 PUSH2 0x1165 JUMP JUMPDEST SWAP1 POP PUSH0 PUSH0 SWAP1 POP JUMPDEST DUP4 MLOAD DUP2 LT ISZERO PUSH2 0x2131 JUMPI PUSH0 PUSH2 0x1F56 DUP3 DUP7 PUSH2 0x1273 SWAP1 SWAP2 SWAP1 PUSH4 0xFFFFFFFF AND JUMP JUMPDEST SWAP1 POP PUSH0 PUSH2 0x1F6C DUP4 DUP7 PUSH2 0x1273 SWAP1 SWAP2 SWAP1 PUSH4 0xFFFFFFFF AND JUMP JUMPDEST SWAP1 POP PUSH0 PUSH20 0xFFFFFFFFFFFFFFFFFFFFFFFFFFFFFFFFFFFFFFFF AND DUP9 PUSH20 0xFFFFFFFFFFFFFFFFFFFFFFFFFFFFFFFFFFFFFFFF AND EQ PUSH2 0x208F JUMPI PUSH0 PUSH0 PUSH0 DUP5 DUP2 MSTORE PUSH1 0x20 ADD SWAP1 DUP2 MSTORE PUSH1 0x20 ADD PUSH0 KECCAK256 PUSH0 DUP11 PUSH20 0xFFFFFFFFFFFFFFFFFFFFFFFFFFFFFFFFFFFFFFFF AND PUSH20 0xFFFFFFFFFFFFFFFFFFFFFFFFFFFFFFFFFFFFFFFF AND DUP2 MSTORE PUSH1 0x20 ADD SWAP1 DUP2 MSTORE PUSH1 0x20 ADD PUSH0 KECCAK256 SLOAD SWAP1 POP DUP2 DUP2 LT ISZERO PUSH2 0x203B JUMPI DUP9 DUP2 DUP4 DUP6 PUSH1 0x40 MLOAD PUSH32 0x3DEE4C500000000000000000000000000000000000000000000000000000000 DUP2 MSTORE PUSH1 0x4 ADD PUSH2 0x2032 SWAP5 SWAP4 SWAP3 SWAP2 SWAP1 PUSH2 0x3550 JUMP JUMPDEST PUSH1 0x40 MLOAD DUP1 SWAP2 SUB SWAP1 REVERT JUMPDEST DUP2 DUP2 SUB PUSH0 PUSH0 DUP6 DUP2 MSTORE PUSH1 0x20 ADD SWAP1 DUP2 MSTORE PUSH1 0x20 ADD PUSH0 KECCAK256 PUSH0 DUP12 PUSH20 0xFFFFFFFFFFFFFFFFFFFFFFFFFFFFFFFFFFFFFFFF AND PUSH20 0xFFFFFFFFFFFFFFFFFFFFFFFFFFFFFFFFFFFFFFFF AND DUP2 MSTORE PUSH1 0x20 ADD SWAP1 DUP2 MSTORE PUSH1 0x20 ADD PUSH0 KECCAK256 DUP2 SWAP1 SSTORE POP POP JUMPDEST PUSH0 PUSH20 0xFFFFFFFFFFFFFFFFFFFFFFFFFFFFFFFFFFFFFFFF AND DUP8 PUSH20 0xFFFFFFFFFFFFFFFFFFFFFFFFFFFFFFFFFFFFFFFF AND EQ PUSH2 0x2124 JUMPI DUP1 PUSH0 PUSH0 DUP5 DUP2 MSTORE PUSH1 0x20 ADD SWAP1 DUP2 MSTORE PUSH1 0x20 ADD PUSH0 KECCAK256 PUSH0 DUP10 PUSH20 0xFFFFFFFFFFFFFFFFFFFFFFFFFFFFFFFFFFFFFFFF AND PUSH20 0xFFFFFFFFFFFFFFFFFFFFFFFFFFFFFFFFFFFFFFFF AND DUP2 MSTORE PUSH1 0x20 ADD SWAP1 DUP2 MSTORE PUSH1 0x20 ADD PUSH0 KECCAK256 PUSH0 DUP3 DUP3 SLOAD PUSH2 0x211C SWAP2 SWAP1 PUSH2 0x33CE JUMP JUMPDEST SWAP3 POP POP DUP2 SWAP1 SSTORE POP JUMPDEST POP POP DUP1 PUSH1 0x1 ADD SWAP1 POP PUSH2 0x1F39 JUMP JUMPDEST POP PUSH1 0x1 DUP4 MLOAD SUB PUSH2 0x21EC JUMPI PUSH0 PUSH2 0x214F PUSH0 DUP6 PUSH2 0x1273 SWAP1 SWAP2 SWAP1 PUSH4 0xFFFFFFFF AND JUMP JUMPDEST SWAP1 POP PUSH0 PUSH2 0x2165 PUSH0 DUP6 PUSH2 0x1273 SWAP1 SWAP2 SWAP1 PUSH4 0xFFFFFFFF AND JUMP JUMPDEST SWAP1 POP DUP6 PUSH20 0xFFFFFFFFFFFFFFFFFFFFFFFFFFFFFFFFFFFFFFFF AND DUP8 PUSH20 0xFFFFFFFFFFFFFFFFFFFFFFFFFFFFFFFFFFFFFFFF AND DUP5 PUSH20 0xFFFFFFFFFFFFFFFFFFFFFFFFFFFFFFFFFFFFFFFF AND PUSH32 0xC3D58168C5AE7397731D063D5BBF3D657854427343F4C083240F7AACAA2D0F62 DUP6 DUP6 PUSH1 0x40 MLOAD PUSH2 0x21DD SWAP3 SWAP2 SWAP1 PUSH2 0x2FA6 JUMP JUMPDEST PUSH1 0x40 MLOAD DUP1 SWAP2 SUB SWAP1 LOG4 POP POP PUSH2 0x226B JUMP JUMPDEST DUP4 PUSH20 0xFFFFFFFFFFFFFFFFFFFFFFFFFFFFFFFFFFFFFFFF AND DUP6 PUSH20 0xFFFFFFFFFFFFFFFFFFFFFFFFFFFFFFFFFFFFFFFF AND DUP3 PUSH20 0xFFFFFFFFFFFFFFFFFFFFFFFFFFFFFFFFFFFFFFFF AND PUSH32 0x4A39DC06D4C0DBC64B70AF90FD698A233A518AA5D07E595D983B8C0526C8F7FB DUP7 DUP7 PUSH1 0x40 MLOAD PUSH2 0x2262 SWAP3 SWAP2 SWAP1 PUSH2 0x3593 JUMP JUMPDEST PUSH1 0x40 MLOAD DUP1 SWAP2 SUB SWAP1 LOG4 JUMPDEST POP POP POP POP POP JUMP JUMPDEST PUSH0 PUSH1 0x40 MLOAD SWAP1 POP SWAP1 JUMP JUMPDEST PUSH0 PUSH0 REVERT JUMPDEST PUSH0 PUSH0 REVERT JUMPDEST PUSH0 PUSH20 0xFFFFFFFFFFFFFFFFFFFFFFFFFFFFFFFFFFFFFFFF DUP3 AND SWAP1 POP SWAP2 SWAP1 POP JUMP JUMPDEST PUSH0 PUSH2 0x22AC DUP3 PUSH2 0x2283 JUMP JUMPDEST SWAP1 POP SWAP2 SWAP1 POP JUMP JUMPDEST PUSH2 0x22BC DUP2 PUSH2 0x22A2 JUMP JUMPDEST DUP2 EQ PUSH2 0x22C6 JUMPI PUSH0 PUSH0 REVERT JUMPDEST POP JUMP JUMPDEST PUSH0 DUP2 CALLDATALOAD SWAP1 POP PUSH2 0x22D7 DUP2 PUSH2 0x22B3 JUMP JUMPDEST SWAP3 SWAP2 POP POP JUMP JUMPDEST PUSH0 DUP2 SWAP1 POP SWAP2 SWAP1 POP JUMP JUMPDEST PUSH2 0x22EF DUP2 PUSH2 0x22DD JUMP JUMPDEST DUP2 EQ PUSH2 0x22F9 JUMPI PUSH0 PUSH0 REVERT JUMPDEST POP JUMP JUMPDEST PUSH0 DUP2 CALLDATALOAD SWAP1 POP PUSH2 0x230A DUP2 PUSH2 0x22E6 JUMP JUMPDEST SWAP3 SWAP2 POP POP JUMP JUMPDEST PUSH0 PUSH0 PUSH1 0x40 DUP4 DUP6 SUB SLT ISZERO PUSH2 0x2326 JUMPI PUSH2 0x2325 PUSH2 0x227B JUMP JUMPDEST JUMPDEST PUSH0 PUSH2 0x2333 DUP6 DUP3 DUP7 ADD PUSH2 0x22C9 JUMP JUMPDEST SWAP3 POP POP PUSH1 0x20 PUSH2 0x2344 DUP6 DUP3 DUP7 ADD PUSH2 0x22FC JUMP JUMPDEST SWAP2 POP POP SWAP3 POP SWAP3 SWAP1 POP JUMP JUMPDEST PUSH2 0x2357 DUP2 PUSH2 0x22DD JUMP JUMPDEST DUP3 MSTORE POP POP JUMP JUMPDEST PUSH0 PUSH1 0x20 DUP3 ADD SWAP1 POP PUSH2 0x2370 PUSH0 DUP4 ADD DUP5 PUSH2 0x234E JUMP JUMPDEST SWAP3 SWAP2 POP POP JUMP JUMPDEST PUSH0 PUSH32 0xFFFFFFFF00000000000000000000000000000000000000000000000000000000 DUP3 AND SWAP1 POP SWAP2 SWAP1 POP JUMP JUMPDEST PUSH2 0x23AA DUP2 PUSH2 0x2376 JUMP JUMPDEST DUP2 EQ PUSH2 0x23B4 JUMPI PUSH0 PUSH0 REVERT JUMPDEST POP JUMP JUMPDEST PUSH0 DUP2 CALLDATALOAD SWAP1 POP PUSH2 0x23C5 DUP2 PUSH2 0x23A1 JUMP JUMPDEST SWAP3 SWAP2 POP POP JUMP JUMPDEST PUSH0 PUSH1 0x20 DUP3 DUP5 SUB SLT ISZERO PUSH2 0x23E0 JUMPI PUSH2 0x23DF PUSH2 0x227B JUMP JUMPDEST JUMPDEST PUSH0 PUSH2 0x23ED DUP5 DUP3 DUP6 ADD PUSH2 0x23B7 JUMP JUMPDEST SWAP2 POP POP SWAP3 SWAP2 POP POP JUMP JUMPDEST PUSH0 DUP2 ISZERO ISZERO SWAP1 POP SWAP2 SWAP1 POP JUMP JUMPDEST PUSH2 0x240A DUP2 PUSH2 0x23F6 JUMP JUMPDEST DUP3 MSTORE POP POP JUMP JUMPDEST PUSH0 PUSH1 0x20 DUP3 ADD SWAP1 POP PUSH2 0x2423 PUSH0 DUP4 ADD DUP5 PUSH2 0x2401 JUMP JUMPDEST SWAP3 SWAP2 POP POP JUMP JUMPDEST PUSH0 PUSH1 0x20 DUP3 DUP5 SUB SLT ISZERO PUSH2 0x243E JUMPI PUSH2 0x243D PUSH2 0x227B JUMP JUMPDEST JUMPDEST PUSH0 PUSH2 0x244B DUP5 DUP3 DUP6 ADD PUSH2 0x22FC JUMP JUMPDEST SWAP2 POP POP SWAP3 SWAP2 POP POP JUMP JUMPDEST PUSH0 DUP2 MLOAD SWAP1 POP SWAP2 SWAP1 POP JUMP JUMPDEST PUSH0 DUP3 DUP3 MSTORE PUSH1 0x20 DUP3 ADD SWAP1 POP SWAP3 SWAP2 POP POP JUMP JUMPDEST DUP3 DUP2 DUP4 MCOPY PUSH0 DUP4 DUP4 ADD MSTORE POP POP POP JUMP JUMPDEST PUSH0 PUSH1 0x1F NOT PUSH1 0x1F DUP4 ADD AND SWAP1 POP SWAP2 SWAP1 POP JUMP JUMPDEST PUSH0 PUSH2 0x2496 DUP3 PUSH2 0x2454 JUMP JUMPDEST PUSH2 0x24A0 DUP2 DUP6 PUSH2 0x245E JUMP JUMPDEST SWAP4 POP PUSH2 0x24B0 DUP2 DUP6 PUSH1 0x20 DUP7 ADD PUSH2 0x246E JUMP JUMPDEST PUSH2 0x24B9 DUP2 PUSH2 0x247C JUMP JUMPDEST DUP5 ADD SWAP2 POP POP SWAP3 SWAP2 POP POP JUMP JUMPDEST PUSH0 PUSH1 0x20 DUP3 ADD SWAP1 POP DUP2 DUP2 SUB PUSH0 DUP4 ADD MSTORE PUSH2 0x24DC DUP2 DUP5 PUSH2 0x248C JUMP JUMPDEST SWAP1 POP SWAP3 SWAP2 POP POP JUMP JUMPDEST PUSH0 PUSH0 REVERT JUMPDEST PUSH32 0x4E487B7100000000000000000000000000000000000000000000000000000000 PUSH0 MSTORE PUSH1 0x41 PUSH1 0x4 MSTORE PUSH1 0x24 PUSH0 REVERT JUMPDEST PUSH2 0x251E DUP3 PUSH2 0x247C JUMP JUMPDEST DUP2 ADD DUP2 DUP2 LT PUSH8 0xFFFFFFFFFFFFFFFF DUP3 GT OR ISZERO PUSH2 0x253D JUMPI PUSH2 0x253C PUSH2 0x24E8 JUMP JUMPDEST JUMPDEST DUP1 PUSH1 0x40 MSTORE POP POP POP JUMP JUMPDEST PUSH0 PUSH2 0x254F PUSH2 0x2272 JUMP JUMPDEST SWAP1 POP PUSH2 0x255B DUP3 DUP3 PUSH2 0x2515 JUMP JUMPDEST SWAP2 SWAP1 POP JUMP JUMPDEST PUSH0 PUSH8 0xFFFFFFFFFFFFFFFF DUP3 GT ISZERO PUSH2 0x257A JUMPI PUSH2 0x2579 PUSH2 0x24E8 JUMP JUMPDEST JUMPDEST PUSH1 0x20 DUP3 MUL SWAP1 POP PUSH1 0x20 DUP2 ADD SWAP1 POP SWAP2 SWAP1 POP JUMP JUMPDEST PUSH0 PUSH0 REVERT JUMPDEST PUSH0 PUSH2 0x25A1 PUSH2 0x259C DUP5 PUSH2 0x2560 JUMP JUMPDEST PUSH2 0x2546 JUMP JUMPDEST SWAP1 POP DUP1 DUP4 DUP3 MSTORE PUSH1 0x20 DUP3 ADD SWAP1 POP PUSH1 0x20 DUP5 MUL DUP4 ADD DUP6 DUP2 GT ISZERO PUSH2 0x25C4 JUMPI PUSH2 0x25C3 PUSH2 0x258B JUMP JUMPDEST JUMPDEST DUP4 JUMPDEST DUP2 DUP2 LT ISZERO PUSH2 0x25ED JUMPI DUP1 PUSH2 0x25D9 DUP9 DUP3 PUSH2 0x22FC JUMP JUMPDEST DUP5 MSTORE PUSH1 0x20 DUP5 ADD SWAP4 POP POP PUSH1 0x20 DUP2 ADD SWAP1 POP PUSH2 0x25C6 JUMP JUMPDEST POP POP POP SWAP4 SWAP3 POP POP POP JUMP JUMPDEST PUSH0 DUP3 PUSH1 0x1F DUP4 ADD SLT PUSH2 0x260B JUMPI PUSH2 0x260A PUSH2 0x24E4 JUMP JUMPDEST JUMPDEST DUP2 CALLDATALOAD PUSH2 0x261B DUP5 DUP3 PUSH1 0x20 DUP7 ADD PUSH2 0x258F JUMP JUMPDEST SWAP2 POP POP SWAP3 SWAP2 POP POP JUMP JUMPDEST PUSH0 PUSH0 REVERT JUMPDEST PUSH0 PUSH8 0xFFFFFFFFFFFFFFFF DUP3 GT ISZERO PUSH2 0x2642 JUMPI PUSH2 0x2641 PUSH2 0x24E8 JUMP JUMPDEST JUMPDEST PUSH2 0x264B DUP3 PUSH2 0x247C JUMP JUMPDEST SWAP1 POP PUSH1 0x20 DUP2 ADD SWAP1 POP SWAP2 SWAP1 POP JUMP JUMPDEST DUP3 DUP2 DUP4 CALLDATACOPY PUSH0 DUP4 DUP4 ADD MSTORE POP POP POP JUMP JUMPDEST PUSH0 PUSH2 0x2678 PUSH2 0x2673 DUP5 PUSH2 0x2628 JUMP JUMPDEST PUSH2 0x2546 JUMP JUMPDEST SWAP1 POP DUP3 DUP2 MSTORE PUSH1 0x20 DUP2 ADD DUP5 DUP5 DUP5 ADD GT ISZERO PUSH2 0x2694 JUMPI PUSH2 0x2693 PUSH2 0x2624 JUMP JUMPDEST JUMPDEST PUSH2 0x269F DUP5 DUP3 DUP6 PUSH2 0x2658 JUMP JUMPDEST POP SWAP4 SWAP3 POP POP POP JUMP JUMPDEST PUSH0 DUP3 PUSH1 0x1F DUP4 ADD SLT PUSH2 0x26BB JUMPI PUSH2 0x26BA PUSH2 0x24E4 JUMP JUMPDEST JUMPDEST DUP2 CALLDATALOAD PUSH2 0x26CB DUP5 DUP3 PUSH1 0x20 DUP7 ADD PUSH2 0x2666 JUMP JUMPDEST SWAP2 POP POP SWAP3 SWAP2 POP POP JUMP JUMPDEST PUSH0 PUSH0 PUSH0 PUSH0 PUSH0 PUSH1 0xA0 DUP7 DUP9 SUB SLT ISZERO PUSH2 0x26ED JUMPI PUSH2 0x26EC PUSH2 0x227B JUMP JUMPDEST JUMPDEST PUSH0 PUSH2 0x26FA DUP9 DUP3 DUP10 ADD PUSH2 0x22C9 JUMP JUMPDEST SWAP6 POP POP PUSH1 0x20 PUSH2 0x270B DUP9 DUP3 DUP10 ADD PUSH2 0x22C9 JUMP JUMPDEST SWAP5 POP POP PUSH1 0x40 DUP7 ADD CALLDATALOAD PUSH8 0xFFFFFFFFFFFFFFFF DUP2 GT ISZERO PUSH2 0x272C JUMPI PUSH2 0x272B PUSH2 0x227F JUMP JUMPDEST JUMPDEST PUSH2 0x2738 DUP9 DUP3 DUP10 ADD PUSH2 0x25F7 JUMP JUMPDEST SWAP4 POP POP PUSH1 0x60 DUP7 ADD CALLDATALOAD PUSH8 0xFFFFFFFFFFFFFFFF DUP2 GT ISZERO PUSH2 0x2759 JUMPI PUSH2 0x2758 PUSH2 0x227F JUMP JUMPDEST JUMPDEST PUSH2 0x2765 DUP9 DUP3 DUP10 ADD PUSH2 0x25F7 JUMP JUMPDEST SWAP3 POP POP PUSH1 0x80 DUP7 ADD CALLDATALOAD PUSH8 0xFFFFFFFFFFFFFFFF DUP2 GT ISZERO PUSH2 0x2786 JUMPI PUSH2 0x2785 PUSH2 0x227F JUMP JUMPDEST JUMPDEST PUSH2 0x2792 DUP9 DUP3 DUP10 ADD PUSH2 0x26A7 JUMP JUMPDEST SWAP2 POP POP SWAP3 SWAP6 POP SWAP3 SWAP6 SWAP1 SWAP4 POP JUMP JUMPDEST PUSH0 PUSH8 0xFFFFFFFFFFFFFFFF DUP3 GT ISZERO PUSH2 0x27B9 JUMPI PUSH2 0x27B8 PUSH2 0x24E8 JUMP JUMPDEST JUMPDEST PUSH1 0x20 DUP3 MUL SWAP1 POP PUSH1 0x20 DUP2 ADD SWAP1 POP SWAP2 SWAP1 POP JUMP JUMPDEST PUSH0 PUSH2 0x27DC PUSH2 0x27D7 DUP5 PUSH2 0x279F JUMP JUMPDEST PUSH2 0x2546 JUMP JUMPDEST SWAP1 POP DUP1 DUP4 DUP3 MSTORE PUSH1 0x20 DUP3 ADD SWAP1 POP PUSH1 0x20 DUP5 MUL DUP4 ADD DUP6 DUP2 GT ISZERO PUSH2 0x27FF JUMPI PUSH2 0x27FE PUSH2 0x258B JUMP JUMPDEST JUMPDEST DUP4 JUMPDEST DUP2 DUP2 LT ISZERO PUSH2 0x2828 JUMPI DUP1 PUSH2 0x2814 DUP9 DUP3 PUSH2 0x22C9 JUMP JUMPDEST DUP5 MSTORE PUSH1 0x20 DUP5 ADD SWAP4 POP POP PUSH1 0x20 DUP2 ADD SWAP1 POP PUSH2 0x2801 JUMP JUMPDEST POP POP POP SWAP4 SWAP3 POP POP POP JUMP JUMPDEST PUSH0 DUP3 PUSH1 0x1F DUP4 ADD SLT PUSH2 0x2846 JUMPI PUSH2 0x2845 PUSH2 0x24E4 JUMP JUMPDEST JUMPDEST DUP2 CALLDATALOAD PUSH2 0x2856 DUP5 DUP3 PUSH1 0x20 DUP7 ADD PUSH2 0x27CA JUMP JUMPDEST SWAP2 POP POP SWAP3 SWAP2 POP POP JUMP JUMPDEST PUSH0 PUSH0 PUSH1 0x40 DUP4 DUP6 SUB SLT ISZERO PUSH2 0x2875 JUMPI PUSH2 0x2874 PUSH2 0x227B JUMP JUMPDEST JUMPDEST PUSH0 DUP4 ADD CALLDATALOAD PUSH8 0xFFFFFFFFFFFFFFFF DUP2 GT ISZERO PUSH2 0x2892 JUMPI PUSH2 0x2891 PUSH2 0x227F JUMP JUMPDEST JUMPDEST PUSH2 0x289E DUP6 DUP3 DUP7 ADD PUSH2 0x2832 JUMP JUMPDEST SWAP3 POP POP PUSH1 0x20 DUP4 ADD CALLDATALOAD PUSH8 0xFFFFFFFFFFFFFFFF DUP2 GT ISZERO PUSH2 0x28BF JUMPI PUSH2 0x28BE PUSH2 0x227F JUMP JUMPDEST JUMPDEST PUSH2 0x28CB DUP6 DUP3 DUP7 ADD PUSH2 0x25F7 JUMP JUMPDEST SWAP2 POP POP SWAP3 POP SWAP3 SWAP1 POP JUMP JUMPDEST PUSH0 DUP2 MLOAD SWAP1 POP SWAP2 SWAP1 POP JUMP JUMPDEST PUSH0 DUP3 DUP3 MSTORE PUSH1 0x20 DUP3 ADD SWAP1 POP SWAP3 SWAP2 POP POP JUMP JUMPDEST PUSH0 DUP2 SWAP1 POP PUSH1 0x20 DUP3 ADD SWAP1 POP SWAP2 SWAP1 POP JUMP JUMPDEST PUSH2 0x2907 DUP2 PUSH2 0x22DD JUMP JUMPDEST DUP3 MSTORE POP POP JUMP JUMPDEST PUSH0 PUSH2 0x2918 DUP4 DUP4 PUSH2 0x28FE JUMP JUMPDEST PUSH1 0x20 DUP4 ADD SWAP1 POP SWAP3 SWAP2 POP POP JUMP JUMPDEST PUSH0 PUSH1 0x20 DUP3 ADD SWAP1 POP SWAP2 SWAP1 POP JUMP JUMPDEST PUSH0 PUSH2 0x293A DUP3 PUSH2 0x28D5 JUMP JUMPDEST PUSH2 0x2944 DUP2 DUP6 PUSH2 0x28DF JUMP JUMPDEST SWAP4 POP PUSH2 0x294F DUP4 PUSH2 0x28EF JUMP JUMPDEST DUP1 PUSH0 JUMPDEST DUP4 DUP2 LT ISZERO PUSH2 0x297F JUMPI DUP2 MLOAD PUSH2 0x2966 DUP9 DUP3 PUSH2 0x290D JUMP JUMPDEST SWAP8 POP PUSH2 0x2971 DUP4 PUSH2 0x2924 JUMP JUMPDEST SWAP3 POP POP PUSH1 0x1 DUP2 ADD SWAP1 POP PUSH2 0x2952 JUMP JUMPDEST POP DUP6 SWAP4 POP POP POP POP SWAP3 SWAP2 POP POP JUMP JUMPDEST PUSH0 PUSH1 0x20 DUP3 ADD SWAP1 POP DUP2 DUP2 SUB PUSH0 DUP4 ADD MSTORE PUSH2 0x29A4 DUP2 DUP5 PUSH2 0x2930 JUMP JUMPDEST SWAP1 POP SWAP3 SWAP2 POP POP JUMP JUMPDEST PUSH0 PUSH1 0x20 DUP3 DUP5 SUB SLT ISZERO PUSH2 0x29C1 JUMPI PUSH2 0x29C0 PUSH2 0x227B JUMP JUMPDEST JUMPDEST PUSH0 PUSH2 0x29CE DUP5 DUP3 DUP6 ADD PUSH2 0x22C9 JUMP JUMPDEST SWAP2 POP POP SWAP3 SWAP2 POP POP JUMP JUMPDEST PUSH0 PUSH0 PUSH0 PUSH1 0x60 DUP5 DUP7 SUB SLT ISZERO PUSH2 0x29EE JUMPI PUSH2 0x29ED PUSH2 0x227B JUMP JUMPDEST JUMPDEST PUSH0 PUSH2 0x29FB DUP7 DUP3 DUP8 ADD PUSH2 0x22C9 JUMP JUMPDEST SWAP4 POP POP PUSH1 0x20 DUP5 ADD CALLDATALOAD PUSH8 0xFFFFFFFFFFFFFFFF DUP2 GT ISZERO PUSH2 0x2A1C JUMPI PUSH2 0x2A1B PUSH2 0x227F JUMP JUMPDEST JUMPDEST PUSH2 0x2A28 DUP7 DUP3 DUP8 ADD PUSH2 0x25F7 JUMP JUMPDEST SWAP3 POP POP PUSH1 0x40 DUP5 ADD CALLDATALOAD PUSH8 0xFFFFFFFFFFFFFFFF DUP2 GT ISZERO PUSH2 0x2A49 JUMPI PUSH2 0x2A48 PUSH2 0x227F JUMP JUMPDEST JUMPDEST PUSH2 0x2A55 DUP7 DUP3 DUP8 ADD PUSH2 0x25F7 JUMP JUMPDEST SWAP2 POP POP SWAP3 POP SWAP3 POP SWAP3 JUMP JUMPDEST PUSH2 0x2A68 DUP2 PUSH2 0x22A2 JUMP JUMPDEST DUP3 MSTORE POP POP JUMP JUMPDEST PUSH0 PUSH1 0x20 DUP3 ADD SWAP1 POP PUSH2 0x2A81 PUSH0 DUP4 ADD DUP5 PUSH2 0x2A5F JUMP JUMPDEST SWAP3 SWAP2 POP POP JUMP JUMPDEST PUSH2 0x2A90 DUP2 PUSH2 0x23F6 JUMP JUMPDEST DUP2 EQ PUSH2 0x2A9A JUMPI PUSH0 PUSH0 REVERT JUMPDEST POP JUMP JUMPDEST PUSH0 DUP2 CALLDATALOAD SWAP1 POP PUSH2 0x2AAB DUP2 PUSH2 0x2A87 JUMP JUMPDEST SWAP3 SWAP2 POP POP JUMP JUMPDEST PUSH0 PUSH0 PUSH1 0x40 DUP4 DUP6 SUB SLT ISZERO PUSH2 0x2AC7 JUMPI PUSH2 0x2AC6 PUSH2 0x227B JUMP JUMPDEST JUMPDEST PUSH0 PUSH2 0x2AD4 DUP6 DUP3 DUP7 ADD PUSH2 0x22C9 JUMP JUMPDEST SWAP3 POP POP PUSH1 0x20 PUSH2 0x2AE5 DUP6 DUP3 DUP7 ADD PUSH2 0x2A9D JUMP JUMPDEST SWAP2 POP POP SWAP3 POP SWAP3 SWAP1 POP JUMP JUMPDEST PUSH0 PUSH8 0xFFFFFFFFFFFFFFFF DUP3 GT ISZERO PUSH2 0x2B09 JUMPI PUSH2 0x2B08 PUSH2 0x24E8 JUMP JUMPDEST JUMPDEST PUSH1 0x20 DUP3 MUL SWAP1 POP PUSH1 0x20 DUP2 ADD SWAP1 POP SWAP2 SWAP1 POP JUMP JUMPDEST PUSH0 PUSH8 0xFFFFFFFFFFFFFFFF DUP3 GT ISZERO PUSH2 0x2B34 JUMPI PUSH2 0x2B33 PUSH2 0x24E8 JUMP JUMPDEST JUMPDEST PUSH2 0x2B3D DUP3 PUSH2 0x247C JUMP JUMPDEST SWAP1 POP PUSH1 0x20 DUP2 ADD SWAP1 POP SWAP2 SWAP1 POP JUMP JUMPDEST PUSH0 PUSH2 0x2B5C PUSH2 0x2B57 DUP5 PUSH2 0x2B1A JUMP JUMPDEST PUSH2 0x2546 JUMP JUMPDEST SWAP1 POP DUP3 DUP2 MSTORE PUSH1 0x20 DUP2 ADD DUP5 DUP5 DUP5 ADD GT ISZERO PUSH2 0x2B78 JUMPI PUSH2 0x2B77 PUSH2 0x2624 JUMP JUMPDEST JUMPDEST PUSH2 0x2B83 DUP5 DUP3 DUP6 PUSH2 0x2658 JUMP JUMPDEST POP SWAP4 SWAP3 POP POP POP JUMP JUMPDEST PUSH0 DUP3 PUSH1 0x1F DUP4 ADD SLT PUSH2 0x2B9F JUMPI PUSH2 0x2B9E PUSH2 0x24E4 JUMP JUMPDEST JUMPDEST DUP2 CALLDATALOAD PUSH2 0x2BAF DUP5 DUP3 PUSH1 0x20 DUP7 ADD PUSH2 0x2B4A JUMP JUMPDEST SWAP2 POP POP SWAP3 SWAP2 POP POP JUMP JUMPDEST PUSH0 PUSH2 0x2BCA PUSH2 0x2BC5 DUP5 PUSH2 0x2AEF JUMP JUMPDEST PUSH2 0x2546 JUMP JUMPDEST SWAP1 POP DUP1 DUP4 DUP3 MSTORE PUSH1 0x20 DUP3 ADD SWAP1 POP PUSH1 0x20 DUP5 MUL DUP4 ADD DUP6 DUP2 GT ISZERO PUSH2 0x2BED JUMPI PUSH2 0x2BEC PUSH2 0x258B JUMP JUMPDEST JUMPDEST DUP4 JUMPDEST DUP2 DUP2 LT ISZERO PUSH2 0x2C34 JUMPI DUP1 CALLDATALOAD PUSH8 0xFFFFFFFFFFFFFFFF DUP2 GT ISZERO PUSH2 0x2C12 JUMPI PUSH2 0x2C11 PUSH2 0x24E4 JUMP JUMPDEST JUMPDEST DUP1 DUP7 ADD PUSH2 0x2C1F DUP10 DUP3 PUSH2 0x2B8B JUMP JUMPDEST DUP6 MSTORE PUSH1 0x20 DUP6 ADD SWAP5 POP POP POP PUSH1 0x20 DUP2 ADD SWAP1 POP PUSH2 0x2BEF JUMP JUMPDEST POP POP POP SWAP4 SWAP3 POP POP POP JUMP JUMPDEST PUSH0 DUP3 PUSH1 0x1F DUP4 ADD SLT PUSH2 0x2C52 JUMPI PUSH2 0x2C51 PUSH2 0x24E4 JUMP JUMPDEST JUMPDEST DUP2 CALLDATALOAD PUSH2 0x2C62 DUP5 DUP3 PUSH1 0x20 DUP7 ADD PUSH2 0x2BB8 JUMP JUMPDEST SWAP2 POP POP SWAP3 SWAP2 POP POP JUMP JUMPDEST PUSH0 PUSH0 PUSH0 PUSH0 PUSH0 PUSH1 0xA0 DUP7 DUP9 SUB SLT ISZERO PUSH2 0x2C84 JUMPI PUSH2 0x2C83 PUSH2 0x227B JUMP JUMPDEST JUMPDEST PUSH0 PUSH2 0x2C91 DUP9 DUP3 DUP10 ADD PUSH2 0x22C9 JUMP JUMPDEST SWAP6 POP POP PUSH1 0x20 DUP7 ADD CALLDATALOAD PUSH8 0xFFFFFFFFFFFFFFFF DUP2 GT ISZERO PUSH2 0x2CB2 JUMPI PUSH2 0x2CB1 PUSH2 0x227F JUMP JUMPDEST JUMPDEST PUSH2 0x2CBE DUP9 DUP3 DUP10 ADD PUSH2 0x25F7 JUMP JUMPDEST SWAP5 POP POP PUSH1 0x40 DUP7 ADD CALLDATALOAD PUSH8 0xFFFFFFFFFFFFFFFF DUP2 GT ISZERO PUSH2 0x2CDF JUMPI PUSH2 0x2CDE PUSH2 0x227F JUMP JUMPDEST JUMPDEST PUSH2 0x2CEB DUP9 DUP3 DUP10 ADD PUSH2 0x25F7 JUMP JUMPDEST SWAP4 POP POP PUSH1 0x60 DUP7 ADD CALLDATALOAD PUSH8 0xFFFFFFFFFFFFFFFF DUP2 GT ISZERO PUSH2 0x2D0C JUMPI PUSH2 0x2D0B PUSH2 0x227F JUMP JUMPDEST JUMPDEST PUSH2 0x2D18 DUP9 DUP3 DUP10 ADD PUSH2 0x26A7 JUMP JUMPDEST SWAP3 POP POP PUSH1 0x80 DUP7 ADD CALLDATALOAD PUSH8 0xFFFFFFFFFFFFFFFF DUP2 GT ISZERO PUSH2 0x2D39 JUMPI PUSH2 0x2D38 PUSH2 0x227F JUMP JUMPDEST JUMPDEST PUSH2 0x2D45 DUP9 DUP3 DUP10 ADD PUSH2 0x2C3E JUMP JUMPDEST SWAP2 POP POP SWAP3 SWAP6 POP SWAP3 SWAP6 SWAP1 SWAP4 POP JUMP JUMPDEST PUSH0 PUSH0 PUSH0 PUSH0 PUSH0 PUSH1 0xA0 DUP7 DUP9 SUB SLT ISZERO PUSH2 0x2D6B JUMPI PUSH2 0x2D6A PUSH2 0x227B JUMP JUMPDEST JUMPDEST PUSH0 PUSH2 0x2D78 DUP9 DUP3 DUP10 ADD PUSH2 0x22C9 JUMP JUMPDEST SWAP6 POP POP PUSH1 0x20 PUSH2 0x2D89 DUP9 DUP3 DUP10 ADD PUSH2 0x22FC JUMP JUMPDEST SWAP5 POP POP PUSH1 0x40 PUSH2 0x2D9A DUP9 DUP3 DUP10 ADD PUSH2 0x22FC JUMP JUMPDEST SWAP4 POP POP PUSH1 0x60 DUP7 ADD CALLDATALOAD PUSH8 0xFFFFFFFFFFFFFFFF DUP2 GT ISZERO PUSH2 0x2DBB JUMPI PUSH2 0x2DBA PUSH2 0x227F JUMP JUMPDEST JUMPDEST PUSH2 0x2DC7 DUP9 DUP3 DUP10 ADD PUSH2 0x26A7 JUMP JUMPDEST SWAP3 POP POP PUSH1 0x80 DUP7 ADD CALLDATALOAD PUSH8 0xFFFFFFFFFFFFFFFF DUP2 GT ISZERO PUSH2 0x2DE8 JUMPI PUSH2 0x2DE7 PUSH2 0x227F JUMP JUMPDEST JUMPDEST PUSH2 0x2DF4 DUP9 DUP3 DUP10 ADD PUSH2 0x2B8B JUMP JUMPDEST SWAP2 POP POP SWAP3 SWAP6 POP SWAP3 SWAP6 SWAP1 SWAP4 POP JUMP JUMPDEST PUSH0 PUSH0 PUSH1 0x40 DUP4 DUP6 SUB SLT ISZERO PUSH2 0x2E17 JUMPI PUSH2 0x2E16 PUSH2 0x227B JUMP JUMPDEST JUMPDEST PUSH0 PUSH2 0x2E24 DUP6 DUP3 DUP7 ADD PUSH2 0x22C9 JUMP JUMPDEST SWAP3 POP POP PUSH1 0x20 PUSH2 0x2E35 DUP6 DUP3 DUP7 ADD PUSH2 0x22C9 JUMP JUMPDEST SWAP2 POP POP SWAP3 POP SWAP3 SWAP1 POP JUMP JUMPDEST PUSH0 PUSH0 PUSH0 PUSH0 PUSH0 PUSH1 0xA0 DUP7 DUP9 SUB SLT ISZERO PUSH2 0x2E58 JUMPI PUSH2 0x2E57 PUSH2 0x227B JUMP JUMPDEST JUMPDEST PUSH0 PUSH2 0x2E65 DUP9 DUP3 DUP10 ADD PUSH2 0x22C9 JUMP JUMPDEST SWAP6 POP POP PUSH1 0x20 PUSH2 0x2E76 DUP9 DUP3 DUP10 ADD PUSH2 0x22C9 JUMP JUMPDEST SWAP5 POP POP PUSH1 0x40 PUSH2 0x2E87 DUP9 DUP3 DUP10 ADD PUSH2 0x22FC JUMP JUMPDEST SWAP4 POP POP PUSH1 0x60 PUSH2 0x2E98 DUP9 DUP3 DUP10 ADD PUSH2 0x22FC JUMP JUMPDEST SWAP3 POP POP PUSH1 0x80 DUP7 ADD CALLDATALOAD PUSH8 0xFFFFFFFFFFFFFFFF DUP2 GT ISZERO PUSH2 0x2EB9 JUMPI PUSH2 0x2EB8 PUSH2 0x227F JUMP JUMPDEST JUMPDEST PUSH2 0x2EC5 DUP9 DUP3 DUP10 ADD PUSH2 0x26A7 JUMP JUMPDEST SWAP2 POP POP SWAP3 SWAP6 POP SWAP3 SWAP6 SWAP1 SWAP4 POP JUMP JUMPDEST PUSH0 PUSH0 PUSH0 PUSH1 0x60 DUP5 DUP7 SUB SLT ISZERO PUSH2 0x2EE9 JUMPI PUSH2 0x2EE8 PUSH2 0x227B JUMP JUMPDEST JUMPDEST PUSH0 PUSH2 0x2EF6 DUP7 DUP3 DUP8 ADD PUSH2 0x22C9 JUMP JUMPDEST SWAP4 POP POP PUSH1 0x20 PUSH2 0x2F07 DUP7 DUP3 DUP8 ADD PUSH2 0x22FC JUMP JUMPDEST SWAP3 POP POP PUSH1 0x40 PUSH2 0x2F18 DUP7 DUP3 DUP8 ADD PUSH2 0x22FC JUMP JUMPDEST SWAP2 POP POP SWAP3 POP SWAP3 POP SWAP3 JUMP JUMPDEST PUSH32 0x4E487B7100000000000000000000000000000000000000000000000000000000 PUSH0 MSTORE PUSH1 0x22 PUSH1 0x4 MSTORE PUSH1 0x24 PUSH0 REVERT JUMPDEST PUSH0 PUSH1 0x2 DUP3 DIV SWAP1 POP PUSH1 0x1 DUP3 AND DUP1 PUSH2 0x2F66 JUMPI PUSH1 0x7F DUP3 AND SWAP2 POP JUMPDEST PUSH1 0x20 DUP3 LT DUP2 SUB PUSH2 0x2F79 JUMPI PUSH2 0x2F78 PUSH2 0x2F22 JUMP JUMPDEST JUMPDEST POP SWAP2 SWAP1 POP JUMP JUMPDEST PUSH0 PUSH1 0x40 DUP3 ADD SWAP1 POP PUSH2 0x2F92 PUSH0 DUP4 ADD DUP6 PUSH2 0x2A5F JUMP JUMPDEST PUSH2 0x2F9F PUSH1 0x20 DUP4 ADD DUP5 PUSH2 0x2A5F JUMP JUMPDEST SWAP4 SWAP3 POP POP POP JUMP JUMPDEST PUSH0 PUSH1 0x40 DUP3 ADD SWAP1 POP PUSH2 0x2FB9 PUSH0 DUP4 ADD DUP6 PUSH2 0x234E JUMP JUMPDEST PUSH2 0x2FC6 PUSH1 0x20 DUP4 ADD DUP5 PUSH2 0x234E JUMP JUMPDEST SWAP4 SWAP3 POP POP POP JUMP JUMPDEST PUSH32 0x4E487B7100000000000000000000000000000000000000000000000000000000 PUSH0 MSTORE PUSH1 0x32 PUSH1 0x4 MSTORE PUSH1 0x24 PUSH0 REVERT JUMPDEST PUSH32 0x4D7573742062652070726F706F736564206F776E657200000000000000000000 PUSH0 DUP3 ADD MSTORE POP JUMP JUMPDEST PUSH0 PUSH2 0x302E PUSH1 0x16 DUP4 PUSH2 0x245E JUMP JUMPDEST SWAP2 POP PUSH2 0x3039 DUP3 PUSH2 0x2FFA JUMP JUMPDEST PUSH1 0x20 DUP3 ADD SWAP1 POP SWAP2 SWAP1 POP JUMP JUMPDEST PUSH0 PUSH1 0x20 DUP3 ADD SWAP1 POP DUP2 DUP2 SUB PUSH0 DUP4 ADD MSTORE PUSH2 0x305B DUP2 PUSH2 0x3022 JUMP JUMPDEST SWAP1 POP SWAP2 SWAP1 POP JUMP JUMPDEST PUSH0 DUP2 SWAP1 POP DUP2 PUSH0 MSTORE PUSH1 0x20 PUSH0 KECCAK256 SWAP1 POP SWAP2 SWAP1 POP JUMP JUMPDEST PUSH0 PUSH1 0x20 PUSH1 0x1F DUP4 ADD DIV SWAP1 POP SWAP2 SWAP1 POP JUMP JUMPDEST PUSH0 DUP3 DUP3 SHL SWAP1 POP SWAP3 SWAP2 POP POP JUMP JUMPDEST PUSH0 PUSH1 0x8 DUP4 MUL PUSH2 0x30BE PUSH32 0xFFFFFFFFFFFFFFFFFFFFFFFFFFFFFFFFFFFFFFFFFFFFFFFFFFFFFFFFFFFFFFFF DUP3 PUSH2 0x3083 JUMP JUMPDEST PUSH2 0x30C8 DUP7 DUP4 PUSH2 0x3083 JUMP JUMPDEST SWAP6 POP DUP1 NOT DUP5 AND SWAP4 POP DUP1 DUP7 AND DUP5 OR SWAP3 POP POP POP SWAP4 SWAP3 POP POP POP JUMP JUMPDEST PUSH0 DUP2 SWAP1 POP SWAP2 SWAP1 POP JUMP JUMPDEST PUSH0 PUSH2 0x3103 PUSH2 0x30FE PUSH2 0x30F9 DUP5 PUSH2 0x22DD JUMP JUMPDEST PUSH2 0x30E0 JUMP JUMPDEST PUSH2 0x22DD JUMP JUMPDEST SWAP1 POP SWAP2 SWAP1 POP JUMP JUMPDEST PUSH0 DUP2 SWAP1 POP SWAP2 SWAP1 POP JUMP JUMPDEST PUSH2 0x311C DUP4 PUSH2 0x30E9 JUMP JUMPDEST PUSH2 0x3130 PUSH2 0x3128 DUP3 PUSH2 0x310A JUMP JUMPDEST DUP5 DUP5 SLOAD PUSH2 0x308F JUMP JUMPDEST DUP3 SSTORE POP POP POP POP JUMP JUMPDEST PUSH0 PUSH0 SWAP1 POP SWAP1 JUMP JUMPDEST PUSH2 0x3147 PUSH2 0x3138 JUMP JUMPDEST PUSH2 0x3152 DUP2 DUP5 DUP5 PUSH2 0x3113 JUMP JUMPDEST POP POP POP JUMP JUMPDEST JUMPDEST DUP2 DUP2 LT ISZERO PUSH2 0x3175 JUMPI PUSH2 0x316A PUSH0 DUP3 PUSH2 0x313F JUMP JUMPDEST PUSH1 0x1 DUP2 ADD SWAP1 POP PUSH2 0x3158 JUMP JUMPDEST POP POP JUMP JUMPDEST PUSH1 0x1F DUP3 GT ISZERO PUSH2 0x31BA JUMPI PUSH2 0x318B DUP2 PUSH2 0x3062 JUMP JUMPDEST PUSH2 0x3194 DUP5 PUSH2 0x3074 JUMP JUMPDEST DUP2 ADD PUSH1 0x20 DUP6 LT ISZERO PUSH2 0x31A3 JUMPI DUP2 SWAP1 POP JUMPDEST PUSH2 0x31B7 PUSH2 0x31AF DUP6 PUSH2 0x3074 JUMP JUMPDEST DUP4 ADD DUP3 PUSH2 0x3157 JUMP JUMPDEST POP POP JUMPDEST POP POP POP JUMP JUMPDEST PUSH0 DUP3 DUP3 SHR SWAP1 POP SWAP3 SWAP2 POP POP JUMP JUMPDEST PUSH0 PUSH2 0x31DA PUSH0 NOT DUP5 PUSH1 0x8 MUL PUSH2 0x31BF JUMP JUMPDEST NOT DUP1 DUP4 AND SWAP2 POP POP SWAP3 SWAP2 POP POP JUMP JUMPDEST PUSH0 PUSH2 0x31F2 DUP4 DUP4 PUSH2 0x31CB JUMP JUMPDEST SWAP2 POP DUP3 PUSH1 0x2 MUL DUP3 OR SWAP1 POP SWAP3 SWAP2 POP POP JUMP JUMPDEST PUSH2 0x320B DUP3 PUSH2 0x2454 JUMP JUMPDEST PUSH8 0xFFFFFFFFFFFFFFFF DUP2 GT ISZERO PUSH2 0x3224 JUMPI PUSH2 0x3223 PUSH2 0x24E8 JUMP JUMPDEST JUMPDEST PUSH2 0x322E DUP3 SLOAD PUSH2 0x2F4F JUMP JUMPDEST PUSH2 0x3239 DUP3 DUP3 DUP6 PUSH2 0x3179 JUMP JUMPDEST PUSH0 PUSH1 0x20 SWAP1 POP PUSH1 0x1F DUP4 GT PUSH1 0x1 DUP2 EQ PUSH2 0x326A JUMPI PUSH0 DUP5 ISZERO PUSH2 0x3258 JUMPI DUP3 DUP8 ADD MLOAD SWAP1 POP JUMPDEST PUSH2 0x3262 DUP6 DUP3 PUSH2 0x31E7 JUMP JUMPDEST DUP7 SSTORE POP PUSH2 0x32C9 JUMP JUMPDEST PUSH1 0x1F NOT DUP5 AND PUSH2 0x3278 DUP7 PUSH2 0x3062 JUMP JUMPDEST PUSH0 JUMPDEST DUP3 DUP2 LT ISZERO PUSH2 0x329F JUMPI DUP5 DUP10 ADD MLOAD DUP3 SSTORE PUSH1 0x1 DUP3 ADD SWAP2 POP PUSH1 0x20 DUP6 ADD SWAP5 POP PUSH1 0x20 DUP2 ADD SWAP1 POP PUSH2 0x327A JUMP JUMPDEST DUP7 DUP4 LT ISZERO PUSH2 0x32BC JUMPI DUP5 DUP10 ADD MLOAD PUSH2 0x32B8 PUSH1 0x1F DUP10 AND DUP3 PUSH2 0x31CB JUMP JUMPDEST DUP4 SSTORE POP JUMPDEST PUSH1 0x1 PUSH1 0x2 DUP9 MUL ADD DUP9 SSTORE POP POP POP JUMPDEST POP POP POP POP POP POP JUMP JUMPDEST PUSH32 0x4F6E6C792063616C6C61626C65206279206F776E657200000000000000000000 PUSH0 DUP3 ADD MSTORE POP JUMP JUMPDEST PUSH0 PUSH2 0x3305 PUSH1 0x16 DUP4 PUSH2 0x245E JUMP JUMPDEST SWAP2 POP PUSH2 0x3310 DUP3 PUSH2 0x32D1 JUMP JUMPDEST PUSH1 0x20 DUP3 ADD SWAP1 POP SWAP2 SWAP1 POP JUMP JUMPDEST PUSH0 PUSH1 0x20 DUP3 ADD SWAP1 POP DUP2 DUP2 SUB PUSH0 DUP4 ADD MSTORE PUSH2 0x3332 DUP2 PUSH2 0x32F9 JUMP JUMPDEST SWAP1 POP SWAP2 SWAP1 POP JUMP JUMPDEST PUSH32 0x43616E6E6F74207472616E7366657220746F2073656C66000000000000000000 PUSH0 DUP3 ADD MSTORE POP JUMP JUMPDEST PUSH0 PUSH2 0x336D PUSH1 0x17 DUP4 PUSH2 0x245E JUMP JUMPDEST SWAP2 POP PUSH2 0x3378 DUP3 PUSH2 0x3339 JUMP JUMPDEST PUSH1 0x20 DUP3 ADD SWAP1 POP SWAP2 SWAP1 POP JUMP JUMPDEST PUSH0 PUSH1 0x20 DUP3 ADD SWAP1 POP DUP2 DUP2 SUB PUSH0 DUP4 ADD MSTORE PUSH2 0x339A DUP2 PUSH2 0x3361 JUMP JUMPDEST SWAP1 POP SWAP2 SWAP1 POP JUMP JUMPDEST PUSH32 0x4E487B7100000000000000000000000000000000000000000000000000000000 PUSH0 MSTORE PUSH1 0x11 PUSH1 0x4 MSTORE PUSH1 0x24 PUSH0 REVERT JUMPDEST PUSH0 PUSH2 0x33D8 DUP3 PUSH2 0x22DD JUMP JUMPDEST SWAP2 POP PUSH2 0x33E3 DUP4 PUSH2 0x22DD JUMP JUMPDEST SWAP3 POP DUP3 DUP3 ADD SWAP1 POP DUP1 DUP3 GT ISZERO PUSH2 0x33FB JUMPI PUSH2 0x33FA PUSH2 0x33A1 JUMP JUMPDEST JUMPDEST SWAP3 SWAP2 POP POP JUMP JUMPDEST PUSH0 DUP2 MLOAD SWAP1 POP SWAP2 SWAP1 POP JUMP JUMPDEST PUSH0 DUP3 DUP3 MSTORE PUSH1 0x20 DUP3 ADD SWAP1 POP SWAP3 SWAP2 POP POP JUMP JUMPDEST PUSH0 PUSH2 0x3425 DUP3 PUSH2 0x3401 JUMP JUMPDEST PUSH2 0x342F DUP2 DUP6 PUSH2 0x340B JUMP JUMPDEST SWAP4 POP PUSH2 0x343F DUP2 DUP6 PUSH1 0x20 DUP7 ADD PUSH2 0x246E JUMP JUMPDEST PUSH2 0x3448 DUP2 PUSH2 0x247C JUMP JUMPDEST DUP5 ADD SWAP2 POP POP SWAP3 SWAP2 POP POP JUMP JUMPDEST PUSH0 PUSH1 0xA0 DUP3 ADD SWAP1 POP PUSH2 0x3466 PUSH0 DUP4 ADD DUP9 PUSH2 0x2A5F JUMP JUMPDEST PUSH2 0x3473 PUSH1 0x20 DUP4 ADD DUP8 PUSH2 0x2A5F JUMP JUMPDEST PUSH2 0x3480 PUSH1 0x40 DUP4 ADD DUP7 PUSH2 0x234E JUMP JUMPDEST PUSH2 0x348D PUSH1 0x60 DUP4 ADD DUP6 PUSH2 0x234E JUMP JUMPDEST DUP2 DUP2 SUB PUSH1 0x80 DUP4 ADD MSTORE PUSH2 0x349F DUP2 DUP5 PUSH2 0x341B JUMP JUMPDEST SWAP1 POP SWAP7 SWAP6 POP POP POP POP POP POP JUMP JUMPDEST PUSH0 DUP2 MLOAD SWAP1 POP PUSH2 0x34B9 DUP2 PUSH2 0x23A1 JUMP JUMPDEST SWAP3 SWAP2 POP POP JUMP JUMPDEST PUSH0 PUSH1 0x20 DUP3 DUP5 SUB SLT ISZERO PUSH2 0x34D4 JUMPI PUSH2 0x34D3 PUSH2 0x227B JUMP JUMPDEST JUMPDEST PUSH0 PUSH2 0x34E1 DUP5 DUP3 DUP6 ADD PUSH2 0x34AB JUMP JUMPDEST SWAP2 POP POP SWAP3 SWAP2 POP POP JUMP JUMPDEST PUSH0 PUSH1 0xA0 DUP3 ADD SWAP1 POP PUSH2 0x34FD PUSH0 DUP4 ADD DUP9 PUSH2 0x2A5F JUMP JUMPDEST PUSH2 0x350A PUSH1 0x20 DUP4 ADD DUP8 PUSH2 0x2A5F JUMP JUMPDEST DUP2 DUP2 SUB PUSH1 0x40 DUP4 ADD MSTORE PUSH2 0x351C DUP2 DUP7 PUSH2 0x2930 JUMP JUMPDEST SWAP1 POP DUP2 DUP2 SUB PUSH1 0x60 DUP4 ADD MSTORE PUSH2 0x3530 DUP2 DUP6 PUSH2 0x2930 JUMP JUMPDEST SWAP1 POP DUP2 DUP2 SUB PUSH1 0x80 DUP4 ADD MSTORE PUSH2 0x3544 DUP2 DUP5 PUSH2 0x341B JUMP JUMPDEST SWAP1 POP SWAP7 SWAP6 POP POP POP POP POP POP JUMP JUMPDEST PUSH0 PUSH1 0x80 DUP3 ADD SWAP1 POP PUSH2 0x3563 PUSH0 DUP4 ADD DUP8 PUSH2 0x2A5F JUMP JUMPDEST PUSH2 0x3570 PUSH1 0x20 DUP4 ADD DUP7 PUSH2 0x234E JUMP JUMPDEST PUSH2 0x357D PUSH1 0x40 DUP4 ADD DUP6 PUSH2 0x234E JUMP JUMPDEST PUSH2 0x358A PUSH1 0x60 DUP4 ADD DUP5 PUSH2 0x234E JUMP JUMPDEST SWAP6 SWAP5 POP POP POP POP POP JUMP JUMPDEST PUSH0 PUSH1 0x40 DUP3 ADD SWAP1 POP DUP2 DUP2 SUB PUSH0 DUP4 ADD MSTORE PUSH2 0x35AB DUP2 DUP6 PUSH2 0x2930 JUMP JUMPDEST SWAP1 POP DUP2 DUP2 SUB PUSH1 0x20 DUP4 ADD MSTORE PUSH2 0x35BF DUP2 DUP5 PUSH2 0x2930 JUMP JUMPDEST SWAP1 POP SWAP4 SWAP3 POP POP POP JUMP INVALID LOG2 PUSH5 0x6970667358 0x22 SLT KECCAK256 0xC3 CALLDATASIZE EXP 0xED OR 0xF9 EXTCODEHASH LOG4 0x2E PUSH23 0x47876F3315F30ACD4C231DCD1EF602946536EB3A14F464 PUSH20 0x6F6C634300081C00330000000000000000000000 "
		},
		"gasEstimates": {
			"creation": {
				"codeDepositCost": "2764400",
				"executionCost": "infinite",
				"totalCost": "infinite"
			},
			"external": {
				"acceptOwnership()": "54556",
				"balanceOf(address,uint256)": "infinite",
				"balanceOfBatch(address[],uint256[])": "infinite",
				"burn(address,uint256,uint256)": "infinite",
				"burnBatch(address,uint256[],uint256[])": "infinite",
				"exists(uint256)": "2889",
				"isApprovedForAll(address,address)": "infinite",
				"mint(address,uint256,uint256,bytes,string)": "infinite",
				"mintBatch(address,uint256[],uint256[],bytes,string[])": "infinite",
				"owner()": "2560",
				"safeBatchTransferFrom(address,address,uint256[],uint256[],bytes)": "infinite",
				"safeTransferFrom(address,address,uint256,uint256,bytes)": "infinite",
				"setApprovalForAll(address,bool)": "infinite",
				"setIssuer(address)": "28158",
				"supportsInterface(bytes4)": "809",
				"totalSupply()": "2522",
				"totalSupply(uint256)": "infinite",
				"transferOwnership(address)": "30739",
				"uri(uint256)": "infinite"
			},
			"internal": {
				"_setURI(uint256,string memory)": "infinite"
			}
		},
		"methodIdentifiers": {
			"acceptOwnership()": "79ba5097",
			"balanceOf(address,uint256)": "00fdd58e",
			"balanceOfBatch(address[],uint256[])": "4e1273f4",
			"burn(address,uint256,uint256)": "f5298aca",
			"burnBatch(address,uint256[],uint256[])": "6b20c454",
			"exists(uint256)": "4f558e79",
			"isApprovedForAll(address,address)": "e985e9c5",
			"mint(address,uint256,uint256,bytes,string)": "c1341c4f",
			"mintBatch(address,uint256[],uint256[],bytes,string[])": "b942f8cb",
			"owner()": "8da5cb5b",
			"safeBatchTransferFrom(address,address,uint256[],uint256[],bytes)": "2eb2c2d6",
			"safeTransferFrom(address,address,uint256,uint256,bytes)": "f242432a",
			"setApprovalForAll(address,bool)": "a22cb465",
			"setIssuer(address)": "55cc4e57",
			"supportsInterface(bytes4)": "01ffc9a7",
			"totalSupply()": "18160ddd",
			"totalSupply(uint256)": "bd85b039",
			"transferOwnership(address)": "f2fde38b",
			"uri(uint256)": "0e89341c"
		}
	},
	"abi": [
		{
			"inputs": [
				{
					"internalType": "string",
					"name": "uri_",
					"type": "string"
				}
			],
			"stateMutability": "nonpayable",
			"type": "constructor"
		},
		{
			"inputs": [
				{
					"internalType": "address",
					"name": "msgSender",
					"type": "address"
				}
			],
			"name": "ERC1155Core_CallerIsNotIssuerOrItself",
			"type": "error"
		},
		{
			"inputs": [
				{
					"internalType": "address",
					"name": "sender",
					"type": "address"
				},
				{
					"internalType": "uint256",
					"name": "balance",
					"type": "uint256"
				},
				{
					"internalType": "uint256",
					"name": "needed",
					"type": "uint256"
				},
				{
					"internalType": "uint256",
					"name": "tokenId",
					"type": "uint256"
				}
			],
			"name": "ERC1155InsufficientBalance",
			"type": "error"
		},
		{
			"inputs": [
				{
					"internalType": "address",
					"name": "approver",
					"type": "address"
				}
			],
			"name": "ERC1155InvalidApprover",
			"type": "error"
		},
		{
			"inputs": [
				{
					"internalType": "uint256",
					"name": "idsLength",
					"type": "uint256"
				},
				{
					"internalType": "uint256",
					"name": "valuesLength",
					"type": "uint256"
				}
			],
			"name": "ERC1155InvalidArrayLength",
			"type": "error"
		},
		{
			"inputs": [
				{
					"internalType": "address",
					"name": "operator",
					"type": "address"
				}
			],
			"name": "ERC1155InvalidOperator",
			"type": "error"
		},
		{
			"inputs": [
				{
					"internalType": "address",
					"name": "receiver",
					"type": "address"
				}
			],
			"name": "ERC1155InvalidReceiver",
			"type": "error"
		},
		{
			"inputs": [
				{
					"internalType": "address",
					"name": "sender",
					"type": "address"
				}
			],
			"name": "ERC1155InvalidSender",
			"type": "error"
		},
		{
			"inputs": [
				{
					"internalType": "address",
					"name": "operator",
					"type": "address"
				},
				{
					"internalType": "address",
					"name": "owner",
					"type": "address"
				}
			],
			"name": "ERC1155MissingApprovalForAll",
			"type": "error"
		},
		{
			"anonymous": false,
			"inputs": [
				{
					"indexed": true,
					"internalType": "address",
					"name": "account",
					"type": "address"
				},
				{
					"indexed": true,
					"internalType": "address",
					"name": "operator",
					"type": "address"
				},
				{
					"indexed": false,
					"internalType": "bool",
					"name": "approved",
					"type": "bool"
				}
			],
			"name": "ApprovalForAll",
			"type": "event"
		},
		{
			"anonymous": false,
			"inputs": [
				{
					"indexed": true,
					"internalType": "address",
					"name": "from",
					"type": "address"
				},
				{
					"indexed": true,
					"internalType": "address",
					"name": "to",
					"type": "address"
				}
			],
			"name": "OwnershipTransferRequested",
			"type": "event"
		},
		{
			"anonymous": false,
			"inputs": [
				{
					"indexed": true,
					"internalType": "address",
					"name": "from",
					"type": "address"
				},
				{
					"indexed": true,
					"internalType": "address",
					"name": "to",
					"type": "address"
				}
			],
			"name": "OwnershipTransferred",
			"type": "event"
		},
		{
			"anonymous": false,
			"inputs": [
				{
					"indexed": true,
					"internalType": "address",
					"name": "issuer",
					"type": "address"
				}
			],
			"name": "SetIssuer",
			"type": "event"
		},
		{
			"anonymous": false,
			"inputs": [
				{
					"indexed": true,
					"internalType": "address",
					"name": "operator",
					"type": "address"
				},
				{
					"indexed": true,
					"internalType": "address",
					"name": "from",
					"type": "address"
				},
				{
					"indexed": true,
					"internalType": "address",
					"name": "to",
					"type": "address"
				},
				{
					"indexed": false,
					"internalType": "uint256[]",
					"name": "ids",
					"type": "uint256[]"
				},
				{
					"indexed": false,
					"internalType": "uint256[]",
					"name": "values",
					"type": "uint256[]"
				}
			],
			"name": "TransferBatch",
			"type": "event"
		},
		{
			"anonymous": false,
			"inputs": [
				{
					"indexed": true,
					"internalType": "address",
					"name": "operator",
					"type": "address"
				},
				{
					"indexed": true,
					"internalType": "address",
					"name": "from",
					"type": "address"
				},
				{
					"indexed": true,
					"internalType": "address",
					"name": "to",
					"type": "address"
				},
				{
					"indexed": false,
					"internalType": "uint256",
					"name": "id",
					"type": "uint256"
				},
				{
					"indexed": false,
					"internalType": "uint256",
					"name": "value",
					"type": "uint256"
				}
			],
			"name": "TransferSingle",
			"type": "event"
		},
		{
			"anonymous": false,
			"inputs": [
				{
					"indexed": false,
					"internalType": "string",
					"name": "value",
					"type": "string"
				},
				{
					"indexed": true,
					"internalType": "uint256",
					"name": "id",
					"type": "uint256"
				}
			],
			"name": "URI",
			"type": "event"
		},
		{
			"inputs": [],
			"name": "acceptOwnership",
			"outputs": [],
			"stateMutability": "nonpayable",
			"type": "function"
		},
		{
			"inputs": [
				{
					"internalType": "address",
					"name": "account",
					"type": "address"
				},
				{
					"internalType": "uint256",
					"name": "id",
					"type": "uint256"
				}
			],
			"name": "balanceOf",
			"outputs": [
				{
					"internalType": "uint256",
					"name": "",
					"type": "uint256"
				}
			],
			"stateMutability": "view",
			"type": "function"
		},
		{
			"inputs": [
				{
					"internalType": "address[]",
					"name": "accounts",
					"type": "address[]"
				},
				{
					"internalType": "uint256[]",
					"name": "ids",
					"type": "uint256[]"
				}
			],
			"name": "balanceOfBatch",
			"outputs": [
				{
					"internalType": "uint256[]",
					"name": "",
					"type": "uint256[]"
				}
			],
			"stateMutability": "view",
			"type": "function"
		},
		{
			"inputs": [
				{
					"internalType": "address",
					"name": "account",
					"type": "address"
				},
				{
					"internalType": "uint256",
					"name": "id",
					"type": "uint256"
				},
				{
					"internalType": "uint256",
					"name": "amount",
					"type": "uint256"
				}
			],
			"name": "burn",
			"outputs": [],
			"stateMutability": "nonpayable",
			"type": "function"
		},
		{
			"inputs": [
				{
					"internalType": "address",
					"name": "account",
					"type": "address"
				},
				{
					"internalType": "uint256[]",
					"name": "ids",
					"type": "uint256[]"
				},
				{
					"internalType": "uint256[]",
					"name": "amounts",
					"type": "uint256[]"
				}
			],
			"name": "burnBatch",
			"outputs": [],
			"stateMutability": "nonpayable",
			"type": "function"
		},
		{
			"inputs": [
				{
					"internalType": "uint256",
					"name": "id",
					"type": "uint256"
				}
			],
			"name": "exists",
			"outputs": [
				{
					"internalType": "bool",
					"name": "",
					"type": "bool"
				}
			],
			"stateMutability": "view",
			"type": "function"
		},
		{
			"inputs": [
				{
					"internalType": "address",
					"name": "account",
					"type": "address"
				},
				{
					"internalType": "address",
					"name": "operator",
					"type": "address"
				}
			],
			"name": "isApprovedForAll",
			"outputs": [
				{
					"internalType": "bool",
					"name": "",
					"type": "bool"
				}
			],
			"stateMutability": "view",
			"type": "function"
		},
		{
			"inputs": [
				{
					"internalType": "address",
					"name": "_to",
					"type": "address"
				},
				{
					"internalType": "uint256",
					"name": "_id",
					"type": "uint256"
				},
				{
					"internalType": "uint256",
					"name": "_amount",
					"type": "uint256"
				},
				{
					"internalType": "bytes",
					"name": "_data",
					"type": "bytes"
				},
				{
					"internalType": "string",
					"name": "_tokenUri",
					"type": "string"
				}
			],
			"name": "mint",
			"outputs": [],
			"stateMutability": "nonpayable",
			"type": "function"
		},
		{
			"inputs": [
				{
					"internalType": "address",
					"name": "_to",
					"type": "address"
				},
				{
					"internalType": "uint256[]",
					"name": "_ids",
					"type": "uint256[]"
				},
				{
					"internalType": "uint256[]",
					"name": "_amounts",
					"type": "uint256[]"
				},
				{
					"internalType": "bytes",
					"name": "_data",
					"type": "bytes"
				},
				{
					"internalType": "string[]",
					"name": "_tokenUris",
					"type": "string[]"
				}
			],
			"name": "mintBatch",
			"outputs": [],
			"stateMutability": "nonpayable",
			"type": "function"
		},
		{
			"inputs": [],
			"name": "owner",
			"outputs": [
				{
					"internalType": "address",
					"name": "",
					"type": "address"
				}
			],
			"stateMutability": "view",
			"type": "function"
		},
		{
			"inputs": [
				{
					"internalType": "address",
					"name": "from",
					"type": "address"
				},
				{
					"internalType": "address",
					"name": "to",
					"type": "address"
				},
				{
					"internalType": "uint256[]",
					"name": "ids",
					"type": "uint256[]"
				},
				{
					"internalType": "uint256[]",
					"name": "values",
					"type": "uint256[]"
				},
				{
					"internalType": "bytes",
					"name": "data",
					"type": "bytes"
				}
			],
			"name": "safeBatchTransferFrom",
			"outputs": [],
			"stateMutability": "nonpayable",
			"type": "function"
		},
		{
			"inputs": [
				{
					"internalType": "address",
					"name": "from",
					"type": "address"
				},
				{
					"internalType": "address",
					"name": "to",
					"type": "address"
				},
				{
					"internalType": "uint256",
					"name": "id",
					"type": "uint256"
				},
				{
					"internalType": "uint256",
					"name": "value",
					"type": "uint256"
				},
				{
					"internalType": "bytes",
					"name": "data",
					"type": "bytes"
				}
			],
			"name": "safeTransferFrom",
			"outputs": [],
			"stateMutability": "nonpayable",
			"type": "function"
		},
		{
			"inputs": [
				{
					"internalType": "address",
					"name": "operator",
					"type": "address"
				},
				{
					"internalType": "bool",
					"name": "approved",
					"type": "bool"
				}
			],
			"name": "setApprovalForAll",
			"outputs": [],
			"stateMutability": "nonpayable",
			"type": "function"
		},
		{
			"inputs": [
				{
					"internalType": "address",
					"name": "_issuer",
					"type": "address"
				}
			],
			"name": "setIssuer",
			"outputs": [],
			"stateMutability": "nonpayable",
			"type": "function"
		},
		{
			"inputs": [
				{
					"internalType": "bytes4",
					"name": "interfaceId",
					"type": "bytes4"
				}
			],
			"name": "supportsInterface",
			"outputs": [
				{
					"internalType": "bool",
					"name": "",
					"type": "bool"
				}
			],
			"stateMutability": "view",
			"type": "function"
		},
		{
			"inputs": [],
			"name": "totalSupply",
			"outputs": [
				{
					"internalType": "uint256",
					"name": "",
					"type": "uint256"
				}
			],
			"stateMutability": "view",
			"type": "function"
		},
		{
			"inputs": [
				{
					"internalType": "uint256",
					"name": "id",
					"type": "uint256"
				}
			],
			"name": "totalSupply",
			"outputs": [
				{
					"internalType": "uint256",
					"name": "",
					"type": "uint256"
				}
			],
			"stateMutability": "view",
			"type": "function"
		},
		{
			"inputs": [
				{
					"internalType": "address",
					"name": "to",
					"type": "address"
				}
			],
			"name": "transferOwnership",
			"outputs": [],
			"stateMutability": "nonpayable",
			"type": "function"
		},
		{
			"inputs": [
				{
					"internalType": "uint256",
					"name": "tokenId",
					"type": "uint256"
				}
			],
			"name": "uri",
			"outputs": [
				{
					"internalType": "string",
					"name": "",
					"type": "string"
				}
			],
			"stateMutability": "view",
			"type": "function"
		}
	]
}