{
	"data": {
		"bytecode": {
			"linkReferences": {},
			"object": "60a060405260405180610460016040528061043b8152602001612c2b61043b91395f908161002d9190610522565b50604051806102e001604052806102b181526020016130666102b19139600190816100589190610522565b50348015610064575f5ffd5b506040516133173803806133178339818101604052810190610086919061064f565b33805f838073ffffffffffffffffffffffffffffffffffffffff1660808173ffffffffffffffffffffffffffffffffffffffff1681525050505f73ffffffffffffffffffffffffffffffffffffffff168273ffffffffffffffffffffffffffffffffffffffff160361012d576040517f08c379a0000000000000000000000000000000000000000000000000000000008152600401610124906106d4565b60405180910390fd5b8160025f6101000a81548173ffffffffffffffffffffffffffffffffffffffff021916908373ffffffffffffffffffffffffffffffffffffffff1602179055505f73ffffffffffffffffffffffffffffffffffffffff168173ffffffffffffffffffffffffffffffffffffffff16146101b0576101af816101b960201b60201c565b5b5050505061075a565b3373ffffffffffffffffffffffffffffffffffffffff168173ffffffffffffffffffffffffffffffffffffffff1603610227576040517f08c379a000000000000000000000000000000000000000000000000000000000815260040161021e9061073c565b60405180910390fd5b8060035f6101000a81548173ffffffffffffffffffffffffffffffffffffffff021916908373ffffffffffffffffffffffffffffffffffffffff1602179055508073ffffffffffffffffffffffffffffffffffffffff1660025f9054906101000a900473ffffffffffffffffffffffffffffffffffffffff1673ffffffffffffffffffffffffffffffffffffffff167fed8889f560326eb138920d842192f0eb3dd22b4f139c87a2c57538e05bae127860405160405180910390a350565b5f81519050919050565b7f4e487b71000000000000000000000000000000000000000000000000000000005f52604160045260245ffd5b7f4e487b71000000000000000000000000000000000000000000000000000000005f52602260045260245ffd5b5f600282049050600182168061036057607f821691505b6020821081036103735761037261031c565b5b50919050565b5f819050815f5260205f209050919050565b5f6020601f8301049050919050565b5f82821b905092915050565b5f600883026103d57fffffffffffffffffffffffffffffffffffffffffffffffffffffffffffffffff8261039a565b6103df868361039a565b95508019841693508086168417925050509392505050565b5f819050919050565b5f819050919050565b5f61042361041e610419846103f7565b610400565b6103f7565b9050919050565b5f819050919050565b61043c83610409565b6104506104488261042a565b8484546103a6565b825550505050565b5f5f905090565b610467610458565b610472818484610433565b505050565b5b818110156104955761048a5f8261045f565b600181019050610478565b5050565b601f8211156104da576104ab81610379565b6104b48461038b565b810160208510156104c3578190505b6104d76104cf8561038b565b830182610477565b50505b505050565b5f82821c905092915050565b5f6104fa5f19846008026104df565b1980831691505092915050565b5f61051283836104eb565b9150826002028217905092915050565b61052b826102e5565b67ffffffffffffffff811115610544576105436102ef565b5b61054e8254610349565b610559828285610499565b5f60209050601f83116001811461058a575f8415610578578287015190505b6105828582610507565b8655506105e9565b601f19841661059886610379565b5f5b828110156105bf5784890151825560018201915060208501945060208101905061059a565b868310156105dc57848901516105d8601f8916826104eb565b8355505b6001600288020188555050505b505050505050565b5f5ffd5b5f73ffffffffffffffffffffffffffffffffffffffff82169050919050565b5f61061e826105f5565b9050919050565b61062e81610614565b8114610638575f5ffd5b50565b5f8151905061064981610625565b92915050565b5f60208284031215610664576106636105f1565b5b5f6106718482850161063b565b91505092915050565b5f82825260208201905092915050565b7f43616e6e6f7420736574206f776e657220746f207a65726f00000000000000005f82015250565b5f6106be60188361067a565b91506106c98261068a565b602082019050919050565b5f6020820190508181035f8301526106eb816106b2565b9050919050565b7f43616e6e6f74207472616e7366657220746f2073656c660000000000000000005f82015250565b5f61072660178361067a565b9150610731826106f2565b602082019050919050565b5f6020820190508181035f8301526107538161071a565b9050919050565b6080516124b26107795f395f81816101af0152610e1e01526124b25ff3fe608060405234801561000f575f5ffd5b5060043610610091575f3560e01c8063bd9a548b11610064578063bd9a548b14610109578063d40d17bc14610127578063e6b46ff514610143578063f0ed2e8014610161578063f2fde38b1461019157610091565b80630ca761751461009557806379ba5097146100b15780638da5cb5b146100bb578063a843a0ab146100d9575b5f5ffd5b6100af60048036038101906100aa919061191f565b6101ad565b005b6100b961026f565b005b6100c3610400565b6040516100d091906119e6565b60405180910390f35b6100f360048036038101906100ee9190611b13565b610428565b6040516101009190611ba2565b60405180910390f35b61011161061e565b60405161011e9190611c1b565b60405180910390f35b610141600480360381019061013c9190611c65565b6106aa565b005b61014b6106f5565b6040516101589190611c1b565b60405180910390f35b61017b60048036038101906101769190611cc3565b610780565b6040516101889190611d52565b60405180910390f35b6101ab60048036038101906101a69190611c65565b61084f565b005b7f000000000000000000000000000000000000000000000000000000000000000073ffffffffffffffffffffffffffffffffffffffff163373ffffffffffffffffffffffffffffffffffffffff1614610232576040517fc6829f8300000000000000000000000000000000000000000000000000000000815260040160405180910390fd5b61023d838383610863565b827f85e1543bf2f84fe80c6badbce3648c8539ad1df4d2b3d822938ca0538be727e660405160405180910390a2505050565b60035f9054906101000a900473ffffffffffffffffffffffffffffffffffffffff1673ffffffffffffffffffffffffffffffffffffffff163373ffffffffffffffffffffffffffffffffffffffff16146102fe576040517f08c379a00000000000000000000000000000000000000000000000000000000081526004016102f590611db5565b60405180910390fd5b5f60025f9054906101000a900473ffffffffffffffffffffffffffffffffffffffff1690503360025f6101000a81548173ffffffffffffffffffffffffffffffffffffffff021916908373ffffffffffffffffffffffffffffffffffffffff1602179055505f60035f6101000a81548173ffffffffffffffffffffffffffffffffffffffff021916908373ffffffffffffffffffffffffffffffffffffffff1602179055503373ffffffffffffffffffffffffffffffffffffffff168173ffffffffffffffffffffffffffffffffffffffff167f8be0079c531659141344cd1fd0a4f28419497f9722a3daafe3b4186f6b6457e060405160405180910390a350565b5f60025f9054906101000a900473ffffffffffffffffffffffffffffffffffffffff16905090565b5f60045f9054906101000a900473ffffffffffffffffffffffffffffffffffffffff1673ffffffffffffffffffffffffffffffffffffffff163373ffffffffffffffffffffffffffffffffffffffff16141580156104b95750610489610400565b73ffffffffffffffffffffffffffffffffffffffff163373ffffffffffffffffffffffffffffffffffffffff1614155b156104f0576040517f0b71f4bc00000000000000000000000000000000000000000000000000000000815260040160405180910390fd5b6104f86116b6565b61057a3073ffffffffffffffffffffffffffffffffffffffff1663bd9a548b6040518163ffffffff1660e01b81526004015f60405180830381865afa158015610543573d5f5f3e3d5ffd5b505050506040513d5f823e3d601f19601f8201168201806040525081019061056b9190611e41565b826109b890919063ffffffff16565b5f600167ffffffffffffffff811115610596576105956117fb565b5b6040519080825280602002602001820160405280156105c957816020015b60608152602001906001900390816105b45790505b50905086815f815181106105e0576105df611e88565b5b60200260200101819052506105fe81836109c890919063ffffffff16565b61061261060a83610a0f565b878787610e1a565b92505050949350505050565b6001805461062b90611ee2565b80601f016020809104026020016040519081016040528092919081815260200182805461065790611ee2565b80156106a25780601f10610679576101008083540402835291602001916106a2565b820191905f5260205f20905b81548152906001019060200180831161068557829003601f168201915b505050505081565b6106b2610ef9565b8060045f6101000a81548173ffffffffffffffffffffffffffffffffffffffff021916908373ffffffffffffffffffffffffffffffffffffffff16021790555050565b5f805461070190611ee2565b80601f016020809104026020016040519081016040528092919081815260200182805461072d90611ee2565b80156107785780601f1061074f57610100808354040283529160200191610778565b820191905f5260205f20905b81548152906001019060200180831161075b57829003601f168201915b505050505081565b610788611725565b60055f8381526020019081526020015f206040518060600160405290815f82015f9054906101000a900469ffffffffffffffffffff1669ffffffffffffffffffff1669ffffffffffffffffffff1681526020015f8201600a9054906101000a900469ffffffffffffffffffff1669ffffffffffffffffffff1669ffffffffffffffffffff1681526020015f820160149054906101000a900469ffffffffffffffffffff1669ffffffffffffffffffff1669ffffffffffffffffffff16815250509050919050565b610857610ef9565b61086081610f8a565b50565b5f8151146108a857806040517f08c379a000000000000000000000000000000000000000000000000000000000815260040161089f9190611c1b565b60405180910390fd5b5f5f5f5f858060200190518101906108c09190611f26565b935093509350935060405180606001604052808469ffffffffffffffffffff1681526020018369ffffffffffffffffffff1681526020018269ffffffffffffffffffff1681525060055f8681526020019081526020015f205f820151815f015f6101000a81548169ffffffffffffffffffff021916908369ffffffffffffffffffff1602179055506020820151815f01600a6101000a81548169ffffffffffffffffffff021916908369ffffffffffffffffffff1602179055506040820151815f0160146101000a81548169ffffffffffffffffffff021916908369ffffffffffffffffffff16021790555090505050505050505050565b6109c4825f5f846110b6565b5050565b5f815103610a02576040517ffe936cb700000000000000000000000000000000000000000000000000000000815260040160405180910390fd5b808260a001819052505050565b60605f610a1d61010061115c565b9050610a676040518060400160405280600c81526020017f636f64654c6f636174696f6e00000000000000000000000000000000000000008152508261118190919063ffffffff16565b610a8f835f01516002811115610a8057610a7f611f8a565b5b826111a990919063ffffffff16565b610ad76040518060400160405280600881526020017f6c616e67756167650000000000000000000000000000000000000000000000008152508261118190919063ffffffff16565b610aff83604001515f811115610af057610aef611f8a565b5b826111a990919063ffffffff16565b610b476040518060400160405280600681526020017f736f7572636500000000000000000000000000000000000000000000000000008152508261118190919063ffffffff16565b610b5e83606001518261118190919063ffffffff16565b5f8360a00151511115610c1557610bb36040518060400160405280600481526020017f61726773000000000000000000000000000000000000000000000000000000008152508261118190919063ffffffff16565b610bbc816111f8565b5f5f90505b8360a0015151811015610c0a57610bff8460a001518281518110610be857610be7611e88565b5b60200260200101518361118190919063ffffffff16565b806001019050610bc1565b50610c1481611220565b5b5f8360800151511115610d54575f6002811115610c3557610c34611f8a565b5b83602001516002811115610c4c57610c4b611f8a565b5b03610c83576040517fa80d31f700000000000000000000000000000000000000000000000000000000815260040160405180910390fd5b610ccb6040518060400160405280600f81526020017f736563726574734c6f636174696f6e00000000000000000000000000000000008152508261118190919063ffffffff16565b610cf483602001516002811115610ce557610ce4611f8a565b5b826111a990919063ffffffff16565b610d3c6040518060400160405280600781526020017f73656372657473000000000000000000000000000000000000000000000000008152508261118190919063ffffffff16565b610d5383608001518261124890919063ffffffff16565b5b5f8360c00151511115610e0b57610da96040518060400160405280600981526020017f62797465734172677300000000000000000000000000000000000000000000008152508261118190919063ffffffff16565b610db2816111f8565b5f5f90505b8360c0015151811015610e0057610df58460c001518281518110610dde57610ddd611e88565b5b60200260200101518361124890919063ffffffff16565b806001019050610db7565b50610e0a81611220565b5b805f01515f0151915050919050565b5f5f7f000000000000000000000000000000000000000000000000000000000000000073ffffffffffffffffffffffffffffffffffffffff1663461d27628688600188886040518663ffffffff1660e01b8152600401610e7e959493929190612043565b6020604051808303815f875af1158015610e9a573d5f5f3e3d5ffd5b505050506040513d601f19601f82011682018060405250810190610ebe91906120af565b9050807f1131472297a800fee664d1d89cfa8f7676ff07189ecc53f80bbb5f4969099db860405160405180910390a280915050949350505050565b60025f9054906101000a900473ffffffffffffffffffffffffffffffffffffffff1673ffffffffffffffffffffffffffffffffffffffff163373ffffffffffffffffffffffffffffffffffffffff1614610f88576040517f08c379a0000000000000000000000000000000000000000000000000000000008152600401610f7f90612124565b60405180910390fd5b565b3373ffffffffffffffffffffffffffffffffffffffff168173ffffffffffffffffffffffffffffffffffffffff1603610ff8576040517f08c379a0000000000000000000000000000000000000000000000000000000008152600401610fef9061218c565b60405180910390fd5b8060035f6101000a81548173ffffffffffffffffffffffffffffffffffffffff021916908373ffffffffffffffffffffffffffffffffffffffff1602179055508073ffffffffffffffffffffffffffffffffffffffff1660025f9054906101000a900473ffffffffffffffffffffffffffffffffffffffff1673ffffffffffffffffffffffffffffffffffffffff167fed8889f560326eb138920d842192f0eb3dd22b4f139c87a2c57538e05bae127860405160405180910390a350565b5f8151036110f0576040517f22ce3edd00000000000000000000000000000000000000000000000000000000815260040160405180910390fd5b82845f0190600281111561110757611106611f8a565b5b9081600281111561111b5761111a611f8a565b5b815250508184604001905f81111561113657611135611f8a565b5b90815f81111561114957611148611f8a565b5b8152505080846060018190525050505050565b611164611767565b611171815f015183611270565b505f816020018181525050919050565b61118e82600383516112e6565b6111a481835f015161148690919063ffffffff16565b505050565b6111ca60026005600660ff16901b17835f01516114a290919063ffffffff16565b506111f482826040516020016111e091906121b9565b604051602081830303815290604052611248565b5050565b611203816004611509565b60018160200181815161121691906121ff565b9150818152505050565b61122b816007611509565b60018160200181815161123e9190612232565b9150818152505050565b61125582600283516112e6565b61126b81835f015161148690919063ffffffff16565b505050565b611278611786565b5f6020836112869190612292565b146112b2576020826112989190612292565b60206112a49190612232565b826112af91906121ff565b91505b818360200181815250506040518084525f8152828101602001818110156112d7575f5ffd5b80604052505082905092915050565b60178167ffffffffffffffff16116113205761131a8160058460ff16901b60ff1617845f01516114a290919063ffffffff16565b50611481565b60ff8167ffffffffffffffff161161137c57611352601860058460ff16901b17845f01516114a290919063ffffffff16565b506113768167ffffffffffffffff166001855f015161152e9092919063ffffffff16565b50611480565b61ffff8167ffffffffffffffff16116113d9576113af601960058460ff16901b17845f01516114a290919063ffffffff16565b506113d38167ffffffffffffffff166002855f015161152e9092919063ffffffff16565b5061147f565b63ffffffff8167ffffffffffffffff16116114385761140e601a60058460ff16901b17845f01516114a290919063ffffffff16565b506114328167ffffffffffffffff166004855f015161152e9092919063ffffffff16565b5061147e565b611458601b60058460ff16901b17845f01516114a290919063ffffffff16565b5061147c8167ffffffffffffffff166008855f015161152e9092919063ffffffff16565b505b5b5b5b505050565b61148e611786565b61149a838384516115b7565b905092915050565b6114aa611786565b5f835f01515190505f6001826114c091906121ff565b9050846020015182106114e4576114e3856002836114de91906122c2565b611694565b5b845160208382010185815381518311156114fc578282525b5050849250505092915050565b611529601f60058360ff16901b17835f01516114a290919063ffffffff16565b505050565b611536611786565b5f845f01515190505f818461154b91906121ff565b905085602001518111156115705761156f8660028361156a91906122c2565b611694565b5b5f6001856101006115819190612432565b61158b9190612232565b9050865182810187831982511617815281518411156115a8578382525b50508693505050509392505050565b6115bf611786565b82518211156115cc575f5ffd5b5f845f01515190505f83826115e191906121ff565b90508560200151811115611606576116058660028361160091906122c2565b611694565b5b5f5f87518051856020830101935080851115611620578482525b60208901925050505b60208610611667578051825260208261164291906121ff565b915060208161165191906121ff565b90506020866116609190612232565b9550611629565b5f6001876020036101000a0390508019825116818451168181178552505050879450505050509392505050565b5f825f015190506116a58383611270565b506116b08382611486565b50505050565b6040518060e001604052805f60028111156116d4576116d3611f8a565b5b81526020015f60028111156116ec576116eb611f8a565b5b81526020015f5f81111561170357611702611f8a565b5b8152602001606081526020016060815260200160608152602001606081525090565b60405180606001604052805f69ffffffffffffffffffff1681526020015f69ffffffffffffffffffff1681526020015f69ffffffffffffffffffff1681525090565b604051806040016040528061177a611786565b81526020015f81525090565b6040518060400160405280606081526020015f81525090565b5f604051905090565b5f5ffd5b5f5ffd5b5f819050919050565b6117c2816117b0565b81146117cc575f5ffd5b50565b5f813590506117dd816117b9565b92915050565b5f5ffd5b5f5ffd5b5f601f19601f8301169050919050565b7f4e487b71000000000000000000000000000000000000000000000000000000005f52604160045260245ffd5b611831826117eb565b810181811067ffffffffffffffff821117156118505761184f6117fb565b5b80604052505050565b5f61186261179f565b905061186e8282611828565b919050565b5f67ffffffffffffffff82111561188d5761188c6117fb565b5b611896826117eb565b9050602081019050919050565b828183375f83830152505050565b5f6118c36118be84611873565b611859565b9050828152602081018484840111156118df576118de6117e7565b5b6118ea8482856118a3565b509392505050565b5f82601f830112611906576119056117e3565b5b81356119168482602086016118b1565b91505092915050565b5f5f5f60608486031215611936576119356117a8565b5b5f611943868287016117cf565b935050602084013567ffffffffffffffff811115611964576119636117ac565b5b611970868287016118f2565b925050604084013567ffffffffffffffff811115611991576119906117ac565b5b61199d868287016118f2565b9150509250925092565b5f73ffffffffffffffffffffffffffffffffffffffff82169050919050565b5f6119d0826119a7565b9050919050565b6119e0816119c6565b82525050565b5f6020820190506119f95f8301846119d7565b92915050565b5f67ffffffffffffffff821115611a1957611a186117fb565b5b611a22826117eb565b9050602081019050919050565b5f611a41611a3c846119ff565b611859565b905082815260208101848484011115611a5d57611a5c6117e7565b5b611a688482856118a3565b509392505050565b5f82601f830112611a8457611a836117e3565b5b8135611a94848260208601611a2f565b91505092915050565b5f67ffffffffffffffff82169050919050565b611ab981611a9d565b8114611ac3575f5ffd5b50565b5f81359050611ad481611ab0565b92915050565b5f63ffffffff82169050919050565b611af281611ada565b8114611afc575f5ffd5b50565b5f81359050611b0d81611ae9565b92915050565b5f5f5f5f60808587031215611b2b57611b2a6117a8565b5b5f85013567ffffffffffffffff811115611b4857611b476117ac565b5b611b5487828801611a70565b9450506020611b6587828801611ac6565b9350506040611b7687828801611aff565b9250506060611b87878288016117cf565b91505092959194509250565b611b9c816117b0565b82525050565b5f602082019050611bb55f830184611b93565b92915050565b5f81519050919050565b5f82825260208201905092915050565b8281835e5f83830152505050565b5f611bed82611bbb565b611bf78185611bc5565b9350611c07818560208601611bd5565b611c10816117eb565b840191505092915050565b5f6020820190508181035f830152611c338184611be3565b905092915050565b611c44816119c6565b8114611c4e575f5ffd5b50565b5f81359050611c5f81611c3b565b92915050565b5f60208284031215611c7a57611c796117a8565b5b5f611c8784828501611c51565b91505092915050565b5f819050919050565b611ca281611c90565b8114611cac575f5ffd5b50565b5f81359050611cbd81611c99565b92915050565b5f60208284031215611cd857611cd76117a8565b5b5f611ce584828501611caf565b91505092915050565b5f69ffffffffffffffffffff82169050919050565b611d0c81611cee565b82525050565b606082015f820151611d265f850182611d03565b506020820151611d396020850182611d03565b506040820151611d4c6040850182611d03565b50505050565b5f606082019050611d655f830184611d12565b92915050565b7f4d7573742062652070726f706f736564206f776e6572000000000000000000005f82015250565b5f611d9f601683611bc5565b9150611daa82611d6b565b602082019050919050565b5f6020820190508181035f830152611dcc81611d93565b9050919050565b5f611de5611de0846119ff565b611859565b905082815260208101848484011115611e0157611e006117e7565b5b611e0c848285611bd5565b509392505050565b5f82601f830112611e2857611e276117e3565b5b8151611e38848260208601611dd3565b91505092915050565b5f60208284031215611e5657611e556117a8565b5b5f82015167ffffffffffffffff811115611e7357611e726117ac565b5b611e7f84828501611e14565b91505092915050565b7f4e487b71000000000000000000000000000000000000000000000000000000005f52603260045260245ffd5b7f4e487b71000000000000000000000000000000000000000000000000000000005f52602260045260245ffd5b5f6002820490506001821680611ef957607f821691505b602082108103611f0c57611f0b611eb5565b5b50919050565b5f81519050611f2081611c99565b92915050565b5f5f5f5f60808587031215611f3e57611f3d6117a8565b5b5f611f4b87828801611f12565b9450506020611f5c87828801611f12565b9350506040611f6d87828801611f12565b9250506060611f7e87828801611f12565b91505092959194509250565b7f4e487b71000000000000000000000000000000000000000000000000000000005f52602160045260245ffd5b611fc081611a9d565b82525050565b5f81519050919050565b5f82825260208201905092915050565b5f611fea82611fc6565b611ff48185611fd0565b9350612004818560208601611bd5565b61200d816117eb565b840191505092915050565b5f61ffff82169050919050565b61202e81612018565b82525050565b61203d81611ada565b82525050565b5f60a0820190506120565f830188611fb7565b81810360208301526120688187611fe0565b90506120776040830186612025565b6120846060830185612034565b6120916080830184611b93565b9695505050505050565b5f815190506120a9816117b9565b92915050565b5f602082840312156120c4576120c36117a8565b5b5f6120d18482850161209b565b91505092915050565b7f4f6e6c792063616c6c61626c65206279206f776e6572000000000000000000005f82015250565b5f61210e601683611bc5565b9150612119826120da565b602082019050919050565b5f6020820190508181035f83015261213b81612102565b9050919050565b7f43616e6e6f74207472616e7366657220746f2073656c660000000000000000005f82015250565b5f612176601783611bc5565b915061218182612142565b602082019050919050565b5f6020820190508181035f8301526121a38161216a565b9050919050565b6121b381611c90565b82525050565b5f6020820190506121cc5f8301846121aa565b92915050565b7f4e487b71000000000000000000000000000000000000000000000000000000005f52601160045260245ffd5b5f61220982611c90565b915061221483611c90565b925082820190508082111561222c5761222b6121d2565b5b92915050565b5f61223c82611c90565b915061224783611c90565b925082820390508181111561225f5761225e6121d2565b5b92915050565b7f4e487b71000000000000000000000000000000000000000000000000000000005f52601260045260245ffd5b5f61229c82611c90565b91506122a783611c90565b9250826122b7576122b6612265565b5b828206905092915050565b5f6122cc82611c90565b91506122d783611c90565b92508282026122e581611c90565b915082820484148315176122fc576122fb6121d2565b5b5092915050565b5f8160011c9050919050565b5f5f8291508390505b600185111561235857808604811115612334576123336121d2565b5b60018516156123435780820291505b808102905061235185612303565b9450612318565b94509492505050565b5f82612370576001905061242b565b8161237d575f905061242b565b8160018114612393576002811461239d576123cc565b600191505061242b565b60ff8411156123af576123ae6121d2565b5b8360020a9150848211156123c6576123c56121d2565b5b5061242b565b5060208310610133831016604e8410600b84101617156124015782820a9050838111156123fc576123fb6121d2565b5b61242b565b61240e848484600161230f565b92509050818404811115612425576124246121d2565b5b81810290505b9392505050565b5f61243c82611c90565b915061244783611c90565b92506124747fffffffffffffffffffffffffffffffffffffffffffffffffffffffffffffffff8484612361565b90509291505056fea26469706673582212209d569c08932cd96482c3e23fed239d08a2752baacceacfb89b87a7f1dcc5a3a164736f6c634300081c0033636f6e7374207b20657468657273207d203d20617761697420696d706f727428276e706d3a65746865727340362e31302e3027293b636f6e73742048617368203d20617761697420696d706f727428276e706d3a697066732d6f6e6c792d6861736840342e302e3027293b636f6e737420617069526573706f6e7365203d2061776169742046756e6374696f6e732e6d616b654874747052657175657374287b2020202075726c3a206068747470733a2f2f6170692e627269646765646174616f75747075742e636f6d2f6170692f76322f4f446174612f746573742f50726f70657274792827505f35646261316662393461613430353562396632393639366627293f6163636573735f746f6b656e3d3662616361353437373432633666393661366666373162313338343234663231602c7d293b636f6e7374207265616c45737461746541646472657373203d20617069526573706f6e73652e646174612e556e706172736564416464726573733b636f6e737420796561724275696c74203d204e756d62657228617069526573706f6e73652e646174612e596561724275696c74293b636f6e7374206c6f7453697a6553717561726546656574203d204e756d62657228617069526573706f6e73652e646174612e4c6f7453697a6553717561726546656574293b636f6e7374206c6976696e6741726561203d204e756d62657228617069526573706f6e73652e646174612e4c6976696e6741726561293b636f6e737420626564726f6f6d73546f74616c203d204e756d62657228617069526573706f6e73652e646174612e426564726f6f6d73546f74616c293b636f6e7374206d65746164617461203d207b6e616d653a20605265616c2045737461746520546f6b656e602c617474726962757465733a205b7b2074726169745f747970653a20607265616c45737461746541646472657373602c2076616c75653a207265616c45737461746541646472657373207d2c7b2074726169745f747970653a2060796561724275696c74602c2076616c75653a20796561724275696c74207d2c7b2074726169745f747970653a20606c6f7453697a6553717561726546656574602c2076616c75653a206c6f7453697a6553717561726546656574207d2c7b2074726169745f747970653a20606c6976696e6741726561602c2076616c75653a206c6976696e6741726561207d2c7b2074726169745f747970653a2060626564726f6f6d73546f74616c602c2076616c75653a20626564726f6f6d73546f74616c207d5d7d3b636f6e7374206d65746164617461537472696e67203d204a534f4e2e737472696e67696679286d65746164617461293b636f6e73742069706673436964203d20617761697420486173682e6f66286d65746164617461537472696e67293b72657475726e2046756e6374696f6e732e656e636f6465537472696e672860697066733a2f2f247b697066734369647d60293b636f6e7374207b20657468657273207d203d20617761697420696d706f727428276e706d3a65746865727340362e31302e3027293b636f6e737420616269436f646572203d206574686572732e416269436f6465722e64656661756c74416269436f64657228293b636f6e737420746f6b656e4964203d20617267735b305d3b636f6e737420617069526573706f6e7365203d2061776169742046756e6374696f6e732e6d616b654874747052657175657374287b2020202075726c3a206068747470733a2f2f6170692e627269646765646174616f75747075742e636f6d2f6170692f76322f4f446174612f746573742f50726f70657274792827505f35646261316662393461613430353562396632393639366627293f6163636573735f746f6b656e3d3662616361353437373432633666393661366666373162313338343234663231602c7d293b636f6e7374206c6973745072696365203d204e756d62657228617069526573706f6e73652e646174612e4c6973745072696365293b636f6e7374206f726967696e616c4c6973745072696365203d204e756d62657228617069526573706f6e73652e646174612e4f726967696e616c4c6973745072696365293b636f6e737420746178417373657373656456616c7565203d204e756d62657228617069526573706f6e73652e646174612e546178417373657373656456616c7565293b636f6e737420656e636f646564203d20616269436f6465722e656e636f6465285b6075696e74323536602c206075696e74323536602c206075696e74323536602c206075696e74323536605d2c205b746f6b656e49642c206c69737450726963652c206f726967696e616c4c69737450726963652c20746178417373657373656456616c75655d293b72657475726e206574686572732e676574427974657328656e636f646564293b",
			"opcodes": "PUSH1 0xA0 PUSH1 0x40 MSTORE PUSH1 0x40 MLOAD DUP1 PUSH2 0x460 ADD PUSH1 0x40 MSTORE DUP1 PUSH2 0x43B DUP2 MSTORE PUSH1 0x20 ADD PUSH2 0x2C2B PUSH2 0x43B SWAP2 CODECOPY PUSH0 SWAP1 DUP2 PUSH2 0x2D SWAP2 SWAP1 PUSH2 0x522 JUMP JUMPDEST POP PUSH1 0x40 MLOAD DUP1 PUSH2 0x2E0 ADD PUSH1 0x40 MSTORE DUP1 PUSH2 0x2B1 DUP2 MSTORE PUSH1 0x20 ADD PUSH2 0x3066 PUSH2 0x2B1 SWAP2 CODECOPY PUSH1 0x1 SWAP1 DUP2 PUSH2 0x58 SWAP2 SWAP1 PUSH2 0x522 JUMP JUMPDEST POP CALLVALUE DUP1 ISZERO PUSH2 0x64 JUMPI PUSH0 PUSH0 REVERT JUMPDEST POP PUSH1 0x40 MLOAD PUSH2 0x3317 CODESIZE SUB DUP1 PUSH2 0x3317 DUP4 CODECOPY DUP2 DUP2 ADD PUSH1 0x40 MSTORE DUP2 ADD SWAP1 PUSH2 0x86 SWAP2 SWAP1 PUSH2 0x64F JUMP JUMPDEST CALLER DUP1 PUSH0 DUP4 DUP1 PUSH20 0xFFFFFFFFFFFFFFFFFFFFFFFFFFFFFFFFFFFFFFFF AND PUSH1 0x80 DUP2 PUSH20 0xFFFFFFFFFFFFFFFFFFFFFFFFFFFFFFFFFFFFFFFF AND DUP2 MSTORE POP POP POP PUSH0 PUSH20 0xFFFFFFFFFFFFFFFFFFFFFFFFFFFFFFFFFFFFFFFF AND DUP3 PUSH20 0xFFFFFFFFFFFFFFFFFFFFFFFFFFFFFFFFFFFFFFFF AND SUB PUSH2 0x12D JUMPI PUSH1 0x40 MLOAD PUSH32 0x8C379A000000000000000000000000000000000000000000000000000000000 DUP2 MSTORE PUSH1 0x4 ADD PUSH2 0x124 SWAP1 PUSH2 0x6D4 JUMP JUMPDEST PUSH1 0x40 MLOAD DUP1 SWAP2 SUB SWAP1 REVERT JUMPDEST DUP2 PUSH1 0x2 PUSH0 PUSH2 0x100 EXP DUP2 SLOAD DUP2 PUSH20 0xFFFFFFFFFFFFFFFFFFFFFFFFFFFFFFFFFFFFFFFF MUL NOT AND SWAP1 DUP4 PUSH20 0xFFFFFFFFFFFFFFFFFFFFFFFFFFFFFFFFFFFFFFFF AND MUL OR SWAP1 SSTORE POP PUSH0 PUSH20 0xFFFFFFFFFFFFFFFFFFFFFFFFFFFFFFFFFFFFFFFF AND DUP2 PUSH20 0xFFFFFFFFFFFFFFFFFFFFFFFFFFFFFFFFFFFFFFFF AND EQ PUSH2 0x1B0 JUMPI PUSH2 0x1AF DUP2 PUSH2 0x1B9 PUSH1 0x20 SHL PUSH1 0x20 SHR JUMP JUMPDEST JUMPDEST POP POP POP POP PUSH2 0x75A JUMP JUMPDEST CALLER PUSH20 0xFFFFFFFFFFFFFFFFFFFFFFFFFFFFFFFFFFFFFFFF AND DUP2 PUSH20 0xFFFFFFFFFFFFFFFFFFFFFFFFFFFFFFFFFFFFFFFF AND SUB PUSH2 0x227 JUMPI PUSH1 0x40 MLOAD PUSH32 0x8C379A000000000000000000000000000000000000000000000000000000000 DUP2 MSTORE PUSH1 0x4 ADD PUSH2 0x21E SWAP1 PUSH2 0x73C JUMP JUMPDEST PUSH1 0x40 MLOAD DUP1 SWAP2 SUB SWAP1 REVERT JUMPDEST DUP1 PUSH1 0x3 PUSH0 PUSH2 0x100 EXP DUP2 SLOAD DUP2 PUSH20 0xFFFFFFFFFFFFFFFFFFFFFFFFFFFFFFFFFFFFFFFF MUL NOT AND SWAP1 DUP4 PUSH20 0xFFFFFFFFFFFFFFFFFFFFFFFFFFFFFFFFFFFFFFFF AND MUL OR SWAP1 SSTORE POP DUP1 PUSH20 0xFFFFFFFFFFFFFFFFFFFFFFFFFFFFFFFFFFFFFFFF AND PUSH1 0x2 PUSH0 SWAP1 SLOAD SWAP1 PUSH2 0x100 EXP SWAP1 DIV PUSH20 0xFFFFFFFFFFFFFFFFFFFFFFFFFFFFFFFFFFFFFFFF AND PUSH20 0xFFFFFFFFFFFFFFFFFFFFFFFFFFFFFFFFFFFFFFFF AND PUSH32 0xED8889F560326EB138920D842192F0EB3DD22B4F139C87A2C57538E05BAE1278 PUSH1 0x40 MLOAD PUSH1 0x40 MLOAD DUP1 SWAP2 SUB SWAP1 LOG3 POP JUMP JUMPDEST PUSH0 DUP2 MLOAD SWAP1 POP SWAP2 SWAP1 POP JUMP JUMPDEST PUSH32 0x4E487B7100000000000000000000000000000000000000000000000000000000 PUSH0 MSTORE PUSH1 0x41 PUSH1 0x4 MSTORE PUSH1 0x24 PUSH0 REVERT JUMPDEST PUSH32 0x4E487B7100000000000000000000000000000000000000000000000000000000 PUSH0 MSTORE PUSH1 0x22 PUSH1 0x4 MSTORE PUSH1 0x24 PUSH0 REVERT JUMPDEST PUSH0 PUSH1 0x2 DUP3 DIV SWAP1 POP PUSH1 0x1 DUP3 AND DUP1 PUSH2 0x360 JUMPI PUSH1 0x7F DUP3 AND SWAP2 POP JUMPDEST PUSH1 0x20 DUP3 LT DUP2 SUB PUSH2 0x373 JUMPI PUSH2 0x372 PUSH2 0x31C JUMP JUMPDEST JUMPDEST POP SWAP2 SWAP1 POP JUMP JUMPDEST PUSH0 DUP2 SWAP1 POP DUP2 PUSH0 MSTORE PUSH1 0x20 PUSH0 KECCAK256 SWAP1 POP SWAP2 SWAP1 POP JUMP JUMPDEST PUSH0 PUSH1 0x20 PUSH1 0x1F DUP4 ADD DIV SWAP1 POP SWAP2 SWAP1 POP JUMP JUMPDEST PUSH0 DUP3 DUP3 SHL SWAP1 POP SWAP3 SWAP2 POP POP JUMP JUMPDEST PUSH0 PUSH1 0x8 DUP4 MUL PUSH2 0x3D5 PUSH32 0xFFFFFFFFFFFFFFFFFFFFFFFFFFFFFFFFFFFFFFFFFFFFFFFFFFFFFFFFFFFFFFFF DUP3 PUSH2 0x39A JUMP JUMPDEST PUSH2 0x3DF DUP7 DUP4 PUSH2 0x39A JUMP JUMPDEST SWAP6 POP DUP1 NOT DUP5 AND SWAP4 POP DUP1 DUP7 AND DUP5 OR SWAP3 POP POP POP SWAP4 SWAP3 POP POP POP JUMP JUMPDEST PUSH0 DUP2 SWAP1 POP SWAP2 SWAP1 POP JUMP JUMPDEST PUSH0 DUP2 SWAP1 POP SWAP2 SWAP1 POP JUMP JUMPDEST PUSH0 PUSH2 0x423 PUSH2 0x41E PUSH2 0x419 DUP5 PUSH2 0x3F7 JUMP JUMPDEST PUSH2 0x400 JUMP JUMPDEST PUSH2 0x3F7 JUMP JUMPDEST SWAP1 POP SWAP2 SWAP1 POP JUMP JUMPDEST PUSH0 DUP2 SWAP1 POP SWAP2 SWAP1 POP JUMP JUMPDEST PUSH2 0x43C DUP4 PUSH2 0x409 JUMP JUMPDEST PUSH2 0x450 PUSH2 0x448 DUP3 PUSH2 0x42A JUMP JUMPDEST DUP5 DUP5 SLOAD PUSH2 0x3A6 JUMP JUMPDEST DUP3 SSTORE POP POP POP POP JUMP JUMPDEST PUSH0 PUSH0 SWAP1 POP SWAP1 JUMP JUMPDEST PUSH2 0x467 PUSH2 0x458 JUMP JUMPDEST PUSH2 0x472 DUP2 DUP5 DUP5 PUSH2 0x433 JUMP JUMPDEST POP POP POP JUMP JUMPDEST JUMPDEST DUP2 DUP2 LT ISZERO PUSH2 0x495 JUMPI PUSH2 0x48A PUSH0 DUP3 PUSH2 0x45F JUMP JUMPDEST PUSH1 0x1 DUP2 ADD SWAP1 POP PUSH2 0x478 JUMP JUMPDEST POP POP JUMP JUMPDEST PUSH1 0x1F DUP3 GT ISZERO PUSH2 0x4DA JUMPI PUSH2 0x4AB DUP2 PUSH2 0x379 JUMP JUMPDEST PUSH2 0x4B4 DUP5 PUSH2 0x38B JUMP JUMPDEST DUP2 ADD PUSH1 0x20 DUP6 LT ISZERO PUSH2 0x4C3 JUMPI DUP2 SWAP1 POP JUMPDEST PUSH2 0x4D7 PUSH2 0x4CF DUP6 PUSH2 0x38B JUMP JUMPDEST DUP4 ADD DUP3 PUSH2 0x477 JUMP JUMPDEST POP POP JUMPDEST POP POP POP JUMP JUMPDEST PUSH0 DUP3 DUP3 SHR SWAP1 POP SWAP3 SWAP2 POP POP JUMP JUMPDEST PUSH0 PUSH2 0x4FA PUSH0 NOT DUP5 PUSH1 0x8 MUL PUSH2 0x4DF JUMP JUMPDEST NOT DUP1 DUP4 AND SWAP2 POP POP SWAP3 SWAP2 POP POP JUMP JUMPDEST PUSH0 PUSH2 0x512 DUP4 DUP4 PUSH2 0x4EB JUMP JUMPDEST SWAP2 POP DUP3 PUSH1 0x2 MUL DUP3 OR SWAP1 POP SWAP3 SWAP2 POP POP JUMP JUMPDEST PUSH2 0x52B DUP3 PUSH2 0x2E5 JUMP JUMPDEST PUSH8 0xFFFFFFFFFFFFFFFF DUP2 GT ISZERO PUSH2 0x544 JUMPI PUSH2 0x543 PUSH2 0x2EF JUMP JUMPDEST JUMPDEST PUSH2 0x54E DUP3 SLOAD PUSH2 0x349 JUMP JUMPDEST PUSH2 0x559 DUP3 DUP3 DUP6 PUSH2 0x499 JUMP JUMPDEST PUSH0 PUSH1 0x20 SWAP1 POP PUSH1 0x1F DUP4 GT PUSH1 0x1 DUP2 EQ PUSH2 0x58A JUMPI PUSH0 DUP5 ISZERO PUSH2 0x578 JUMPI DUP3 DUP8 ADD MLOAD SWAP1 POP JUMPDEST PUSH2 0x582 DUP6 DUP3 PUSH2 0x507 JUMP JUMPDEST DUP7 SSTORE POP PUSH2 0x5E9 JUMP JUMPDEST PUSH1 0x1F NOT DUP5 AND PUSH2 0x598 DUP7 PUSH2 0x379 JUMP JUMPDEST PUSH0 JUMPDEST DUP3 DUP2 LT ISZERO PUSH2 0x5BF JUMPI DUP5 DUP10 ADD MLOAD DUP3 SSTORE PUSH1 0x1 DUP3 ADD SWAP2 POP PUSH1 0x20 DUP6 ADD SWAP5 POP PUSH1 0x20 DUP2 ADD SWAP1 POP PUSH2 0x59A JUMP JUMPDEST DUP7 DUP4 LT ISZERO PUSH2 0x5DC JUMPI DUP5 DUP10 ADD MLOAD PUSH2 0x5D8 PUSH1 0x1F DUP10 AND DUP3 PUSH2 0x4EB JUMP JUMPDEST DUP4 SSTORE POP JUMPDEST PUSH1 0x1 PUSH1 0x2 DUP9 MUL ADD DUP9 SSTORE POP POP POP JUMPDEST POP POP POP POP POP POP JUMP JUMPDEST PUSH0 PUSH0 REVERT JUMPDEST PUSH0 PUSH20 0xFFFFFFFFFFFFFFFFFFFFFFFFFFFFFFFFFFFFFFFF DUP3 AND SWAP1 POP SWAP2 SWAP1 POP JUMP JUMPDEST PUSH0 PUSH2 0x61E DUP3 PUSH2 0x5F5 JUMP JUMPDEST SWAP1 POP SWAP2 SWAP1 POP JUMP JUMPDEST PUSH2 0x62E DUP2 PUSH2 0x614 JUMP JUMPDEST DUP2 EQ PUSH2 0x638 JUMPI PUSH0 PUSH0 REVERT JUMPDEST POP JUMP JUMPDEST PUSH0 DUP2 MLOAD SWAP1 POP PUSH2 0x649 DUP2 PUSH2 0x625 JUMP JUMPDEST SWAP3 SWAP2 POP POP JUMP JUMPDEST PUSH0 PUSH1 0x20 DUP3 DUP5 SUB SLT ISZERO PUSH2 0x664 JUMPI PUSH2 0x663 PUSH2 0x5F1 JUMP JUMPDEST JUMPDEST PUSH0 PUSH2 0x671 DUP5 DUP3 DUP6 ADD PUSH2 0x63B JUMP JUMPDEST SWAP2 POP POP SWAP3 SWAP2 POP POP JUMP JUMPDEST PUSH0 DUP3 DUP3 MSTORE PUSH1 0x20 DUP3 ADD SWAP1 POP SWAP3 SWAP2 POP POP JUMP JUMPDEST PUSH32 0x43616E6E6F7420736574206F776E657220746F207A65726F0000000000000000 PUSH0 DUP3 ADD MSTORE POP JUMP JUMPDEST PUSH0 PUSH2 0x6BE PUSH1 0x18 DUP4 PUSH2 0x67A JUMP JUMPDEST SWAP2 POP PUSH2 0x6C9 DUP3 PUSH2 0x68A JUMP JUMPDEST PUSH1 0x20 DUP3 ADD SWAP1 POP SWAP2 SWAP1 POP JUMP JUMPDEST PUSH0 PUSH1 0x20 DUP3 ADD SWAP1 POP DUP2 DUP2 SUB PUSH0 DUP4 ADD MSTORE PUSH2 0x6EB DUP2 PUSH2 0x6B2 JUMP JUMPDEST SWAP1 POP SWAP2 SWAP1 POP JUMP JUMPDEST PUSH32 0x43616E6E6F74207472616E7366657220746F2073656C66000000000000000000 PUSH0 DUP3 ADD MSTORE POP JUMP JUMPDEST PUSH0 PUSH2 0x726 PUSH1 0x17 DUP4 PUSH2 0x67A JUMP JUMPDEST SWAP2 POP PUSH2 0x731 DUP3 PUSH2 0x6F2 JUMP JUMPDEST PUSH1 0x20 DUP3 ADD SWAP1 POP SWAP2 SWAP1 POP JUMP JUMPDEST PUSH0 PUSH1 0x20 DUP3 ADD SWAP1 POP DUP2 DUP2 SUB PUSH0 DUP4 ADD MSTORE PUSH2 0x753 DUP2 PUSH2 0x71A JUMP JUMPDEST SWAP1 POP SWAP2 SWAP1 POP JUMP JUMPDEST PUSH1 0x80 MLOAD PUSH2 0x24B2 PUSH2 0x779 PUSH0 CODECOPY PUSH0 DUP2 DUP2 PUSH2 0x1AF ADD MSTORE PUSH2 0xE1E ADD MSTORE PUSH2 0x24B2 PUSH0 RETURN INVALID PUSH1 0x80 PUSH1 0x40 MSTORE CALLVALUE DUP1 ISZERO PUSH2 0xF JUMPI PUSH0 PUSH0 REVERT JUMPDEST POP PUSH1 0x4 CALLDATASIZE LT PUSH2 0x91 JUMPI PUSH0 CALLDATALOAD PUSH1 0xE0 SHR DUP1 PUSH4 0xBD9A548B GT PUSH2 0x64 JUMPI DUP1 PUSH4 0xBD9A548B EQ PUSH2 0x109 JUMPI DUP1 PUSH4 0xD40D17BC EQ PUSH2 0x127 JUMPI DUP1 PUSH4 0xE6B46FF5 EQ PUSH2 0x143 JUMPI DUP1 PUSH4 0xF0ED2E80 EQ PUSH2 0x161 JUMPI DUP1 PUSH4 0xF2FDE38B EQ PUSH2 0x191 JUMPI PUSH2 0x91 JUMP JUMPDEST DUP1 PUSH4 0xCA76175 EQ PUSH2 0x95 JUMPI DUP1 PUSH4 0x79BA5097 EQ PUSH2 0xB1 JUMPI DUP1 PUSH4 0x8DA5CB5B EQ PUSH2 0xBB JUMPI DUP1 PUSH4 0xA843A0AB EQ PUSH2 0xD9 JUMPI JUMPDEST PUSH0 PUSH0 REVERT JUMPDEST PUSH2 0xAF PUSH1 0x4 DUP1 CALLDATASIZE SUB DUP2 ADD SWAP1 PUSH2 0xAA SWAP2 SWAP1 PUSH2 0x191F JUMP JUMPDEST PUSH2 0x1AD JUMP JUMPDEST STOP JUMPDEST PUSH2 0xB9 PUSH2 0x26F JUMP JUMPDEST STOP JUMPDEST PUSH2 0xC3 PUSH2 0x400 JUMP JUMPDEST PUSH1 0x40 MLOAD PUSH2 0xD0 SWAP2 SWAP1 PUSH2 0x19E6 JUMP JUMPDEST PUSH1 0x40 MLOAD DUP1 SWAP2 SUB SWAP1 RETURN JUMPDEST PUSH2 0xF3 PUSH1 0x4 DUP1 CALLDATASIZE SUB DUP2 ADD SWAP1 PUSH2 0xEE SWAP2 SWAP1 PUSH2 0x1B13 JUMP JUMPDEST PUSH2 0x428 JUMP JUMPDEST PUSH1 0x40 MLOAD PUSH2 0x100 SWAP2 SWAP1 PUSH2 0x1BA2 JUMP JUMPDEST PUSH1 0x40 MLOAD DUP1 SWAP2 SUB SWAP1 RETURN JUMPDEST PUSH2 0x111 PUSH2 0x61E JUMP JUMPDEST PUSH1 0x40 MLOAD PUSH2 0x11E SWAP2 SWAP1 PUSH2 0x1C1B JUMP JUMPDEST PUSH1 0x40 MLOAD DUP1 SWAP2 SUB SWAP1 RETURN JUMPDEST PUSH2 0x141 PUSH1 0x4 DUP1 CALLDATASIZE SUB DUP2 ADD SWAP1 PUSH2 0x13C SWAP2 SWAP1 PUSH2 0x1C65 JUMP JUMPDEST PUSH2 0x6AA JUMP JUMPDEST STOP JUMPDEST PUSH2 0x14B PUSH2 0x6F5 JUMP JUMPDEST PUSH1 0x40 MLOAD PUSH2 0x158 SWAP2 SWAP1 PUSH2 0x1C1B JUMP JUMPDEST PUSH1 0x40 MLOAD DUP1 SWAP2 SUB SWAP1 RETURN JUMPDEST PUSH2 0x17B PUSH1 0x4 DUP1 CALLDATASIZE SUB DUP2 ADD SWAP1 PUSH2 0x176 SWAP2 SWAP1 PUSH2 0x1CC3 JUMP JUMPDEST PUSH2 0x780 JUMP JUMPDEST PUSH1 0x40 MLOAD PUSH2 0x188 SWAP2 SWAP1 PUSH2 0x1D52 JUMP JUMPDEST PUSH1 0x40 MLOAD DUP1 SWAP2 SUB SWAP1 RETURN JUMPDEST PUSH2 0x1AB PUSH1 0x4 DUP1 CALLDATASIZE SUB DUP2 ADD SWAP1 PUSH2 0x1A6 SWAP2 SWAP1 PUSH2 0x1C65 JUMP JUMPDEST PUSH2 0x84F JUMP JUMPDEST STOP JUMPDEST PUSH32 0x0 PUSH20 0xFFFFFFFFFFFFFFFFFFFFFFFFFFFFFFFFFFFFFFFF AND CALLER PUSH20 0xFFFFFFFFFFFFFFFFFFFFFFFFFFFFFFFFFFFFFFFF AND EQ PUSH2 0x232 JUMPI PUSH1 0x40 MLOAD PUSH32 0xC6829F8300000000000000000000000000000000000000000000000000000000 DUP2 MSTORE PUSH1 0x4 ADD PUSH1 0x40 MLOAD DUP1 SWAP2 SUB SWAP1 REVERT JUMPDEST PUSH2 0x23D DUP4 DUP4 DUP4 PUSH2 0x863 JUMP JUMPDEST DUP3 PUSH32 0x85E1543BF2F84FE80C6BADBCE3648C8539AD1DF4D2B3D822938CA0538BE727E6 PUSH1 0x40 MLOAD PUSH1 0x40 MLOAD DUP1 SWAP2 SUB SWAP1 LOG2 POP POP POP JUMP JUMPDEST PUSH1 0x3 PUSH0 SWAP1 SLOAD SWAP1 PUSH2 0x100 EXP SWAP1 DIV PUSH20 0xFFFFFFFFFFFFFFFFFFFFFFFFFFFFFFFFFFFFFFFF AND PUSH20 0xFFFFFFFFFFFFFFFFFFFFFFFFFFFFFFFFFFFFFFFF AND CALLER PUSH20 0xFFFFFFFFFFFFFFFFFFFFFFFFFFFFFFFFFFFFFFFF AND EQ PUSH2 0x2FE JUMPI PUSH1 0x40 MLOAD PUSH32 0x8C379A000000000000000000000000000000000000000000000000000000000 DUP2 MSTORE PUSH1 0x4 ADD PUSH2 0x2F5 SWAP1 PUSH2 0x1DB5 JUMP JUMPDEST PUSH1 0x40 MLOAD DUP1 SWAP2 SUB SWAP1 REVERT JUMPDEST PUSH0 PUSH1 0x2 PUSH0 SWAP1 SLOAD SWAP1 PUSH2 0x100 EXP SWAP1 DIV PUSH20 0xFFFFFFFFFFFFFFFFFFFFFFFFFFFFFFFFFFFFFFFF AND SWAP1 POP CALLER PUSH1 0x2 PUSH0 PUSH2 0x100 EXP DUP2 SLOAD DUP2 PUSH20 0xFFFFFFFFFFFFFFFFFFFFFFFFFFFFFFFFFFFFFFFF MUL NOT AND SWAP1 DUP4 PUSH20 0xFFFFFFFFFFFFFFFFFFFFFFFFFFFFFFFFFFFFFFFF AND MUL OR SWAP1 SSTORE POP PUSH0 PUSH1 0x3 PUSH0 PUSH2 0x100 EXP DUP2 SLOAD DUP2 PUSH20 0xFFFFFFFFFFFFFFFFFFFFFFFFFFFFFFFFFFFFFFFF MUL NOT AND SWAP1 DUP4 PUSH20 0xFFFFFFFFFFFFFFFFFFFFFFFFFFFFFFFFFFFFFFFF AND MUL OR SWAP1 SSTORE POP CALLER PUSH20 0xFFFFFFFFFFFFFFFFFFFFFFFFFFFFFFFFFFFFFFFF AND DUP2 PUSH20 0xFFFFFFFFFFFFFFFFFFFFFFFFFFFFFFFFFFFFFFFF AND PUSH32 0x8BE0079C531659141344CD1FD0A4F28419497F9722A3DAAFE3B4186F6B6457E0 PUSH1 0x40 MLOAD PUSH1 0x40 MLOAD DUP1 SWAP2 SUB SWAP1 LOG3 POP JUMP JUMPDEST PUSH0 PUSH1 0x2 PUSH0 SWAP1 SLOAD SWAP1 PUSH2 0x100 EXP SWAP1 DIV PUSH20 0xFFFFFFFFFFFFFFFFFFFFFFFFFFFFFFFFFFFFFFFF AND SWAP1 POP SWAP1 JUMP JUMPDEST PUSH0 PUSH1 0x4 PUSH0 SWAP1 SLOAD SWAP1 PUSH2 0x100 EXP SWAP1 DIV PUSH20 0xFFFFFFFFFFFFFFFFFFFFFFFFFFFFFFFFFFFFFFFF AND PUSH20 0xFFFFFFFFFFFFFFFFFFFFFFFFFFFFFFFFFFFFFFFF AND CALLER PUSH20 0xFFFFFFFFFFFFFFFFFFFFFFFFFFFFFFFFFFFFFFFF AND EQ ISZERO DUP1 ISZERO PUSH2 0x4B9 JUMPI POP PUSH2 0x489 PUSH2 0x400 JUMP JUMPDEST PUSH20 0xFFFFFFFFFFFFFFFFFFFFFFFFFFFFFFFFFFFFFFFF AND CALLER PUSH20 0xFFFFFFFFFFFFFFFFFFFFFFFFFFFFFFFFFFFFFFFF AND EQ ISZERO JUMPDEST ISZERO PUSH2 0x4F0 JUMPI PUSH1 0x40 MLOAD PUSH32 0xB71F4BC00000000000000000000000000000000000000000000000000000000 DUP2 MSTORE PUSH1 0x4 ADD PUSH1 0x40 MLOAD DUP1 SWAP2 SUB SWAP1 REVERT JUMPDEST PUSH2 0x4F8 PUSH2 0x16B6 JUMP JUMPDEST PUSH2 0x57A ADDRESS PUSH20 0xFFFFFFFFFFFFFFFFFFFFFFFFFFFFFFFFFFFFFFFF AND PUSH4 0xBD9A548B PUSH1 0x40 MLOAD DUP2 PUSH4 0xFFFFFFFF AND PUSH1 0xE0 SHL DUP2 MSTORE PUSH1 0x4 ADD PUSH0 PUSH1 0x40 MLOAD DUP1 DUP4 SUB DUP2 DUP7 GAS STATICCALL ISZERO DUP1 ISZERO PUSH2 0x543 JUMPI RETURNDATASIZE PUSH0 PUSH0 RETURNDATACOPY RETURNDATASIZE PUSH0 REVERT JUMPDEST POP POP POP POP PUSH1 0x40 MLOAD RETURNDATASIZE PUSH0 DUP3 RETURNDATACOPY RETURNDATASIZE PUSH1 0x1F NOT PUSH1 0x1F DUP3 ADD AND DUP3 ADD DUP1 PUSH1 0x40 MSTORE POP DUP2 ADD SWAP1 PUSH2 0x56B SWAP2 SWAP1 PUSH2 0x1E41 JUMP JUMPDEST DUP3 PUSH2 0x9B8 SWAP1 SWAP2 SWAP1 PUSH4 0xFFFFFFFF AND JUMP JUMPDEST PUSH0 PUSH1 0x1 PUSH8 0xFFFFFFFFFFFFFFFF DUP2 GT ISZERO PUSH2 0x596 JUMPI PUSH2 0x595 PUSH2 0x17FB JUMP JUMPDEST JUMPDEST PUSH1 0x40 MLOAD SWAP1 DUP1 DUP3 MSTORE DUP1 PUSH1 0x20 MUL PUSH1 0x20 ADD DUP3 ADD PUSH1 0x40 MSTORE DUP1 ISZERO PUSH2 0x5C9 JUMPI DUP2 PUSH1 0x20 ADD JUMPDEST PUSH1 0x60 DUP2 MSTORE PUSH1 0x20 ADD SWAP1 PUSH1 0x1 SWAP1 SUB SWAP1 DUP2 PUSH2 0x5B4 JUMPI SWAP1 POP JUMPDEST POP SWAP1 POP DUP7 DUP2 PUSH0 DUP2 MLOAD DUP2 LT PUSH2 0x5E0 JUMPI PUSH2 0x5DF PUSH2 0x1E88 JUMP JUMPDEST JUMPDEST PUSH1 0x20 MUL PUSH1 0x20 ADD ADD DUP2 SWAP1 MSTORE POP PUSH2 0x5FE DUP2 DUP4 PUSH2 0x9C8 SWAP1 SWAP2 SWAP1 PUSH4 0xFFFFFFFF AND JUMP JUMPDEST PUSH2 0x612 PUSH2 0x60A DUP4 PUSH2 0xA0F JUMP JUMPDEST DUP8 DUP8 DUP8 PUSH2 0xE1A JUMP JUMPDEST SWAP3 POP POP POP SWAP5 SWAP4 POP POP POP POP JUMP JUMPDEST PUSH1 0x1 DUP1 SLOAD PUSH2 0x62B SWAP1 PUSH2 0x1EE2 JUMP JUMPDEST DUP1 PUSH1 0x1F ADD PUSH1 0x20 DUP1 SWAP2 DIV MUL PUSH1 0x20 ADD PUSH1 0x40 MLOAD SWAP1 DUP2 ADD PUSH1 0x40 MSTORE DUP1 SWAP3 SWAP2 SWAP1 DUP2 DUP2 MSTORE PUSH1 0x20 ADD DUP3 DUP1 SLOAD PUSH2 0x657 SWAP1 PUSH2 0x1EE2 JUMP JUMPDEST DUP1 ISZERO PUSH2 0x6A2 JUMPI DUP1 PUSH1 0x1F LT PUSH2 0x679 JUMPI PUSH2 0x100 DUP1 DUP4 SLOAD DIV MUL DUP4 MSTORE SWAP2 PUSH1 0x20 ADD SWAP2 PUSH2 0x6A2 JUMP JUMPDEST DUP3 ADD SWAP2 SWAP1 PUSH0 MSTORE PUSH1 0x20 PUSH0 KECCAK256 SWAP1 JUMPDEST DUP2 SLOAD DUP2 MSTORE SWAP1 PUSH1 0x1 ADD SWAP1 PUSH1 0x20 ADD DUP1 DUP4 GT PUSH2 0x685 JUMPI DUP3 SWAP1 SUB PUSH1 0x1F AND DUP3 ADD SWAP2 JUMPDEST POP POP POP POP POP DUP2 JUMP JUMPDEST PUSH2 0x6B2 PUSH2 0xEF9 JUMP JUMPDEST DUP1 PUSH1 0x4 PUSH0 PUSH2 0x100 EXP DUP2 SLOAD DUP2 PUSH20 0xFFFFFFFFFFFFFFFFFFFFFFFFFFFFFFFFFFFFFFFF MUL NOT AND SWAP1 DUP4 PUSH20 0xFFFFFFFFFFFFFFFFFFFFFFFFFFFFFFFFFFFFFFFF AND MUL OR SWAP1 SSTORE POP POP JUMP JUMPDEST PUSH0 DUP1 SLOAD PUSH2 0x701 SWAP1 PUSH2 0x1EE2 JUMP JUMPDEST DUP1 PUSH1 0x1F ADD PUSH1 0x20 DUP1 SWAP2 DIV MUL PUSH1 0x20 ADD PUSH1 0x40 MLOAD SWAP1 DUP2 ADD PUSH1 0x40 MSTORE DUP1 SWAP3 SWAP2 SWAP1 DUP2 DUP2 MSTORE PUSH1 0x20 ADD DUP3 DUP1 SLOAD PUSH2 0x72D SWAP1 PUSH2 0x1EE2 JUMP JUMPDEST DUP1 ISZERO PUSH2 0x778 JUMPI DUP1 PUSH1 0x1F LT PUSH2 0x74F JUMPI PUSH2 0x100 DUP1 DUP4 SLOAD DIV MUL DUP4 MSTORE SWAP2 PUSH1 0x20 ADD SWAP2 PUSH2 0x778 JUMP JUMPDEST DUP3 ADD SWAP2 SWAP1 PUSH0 MSTORE PUSH1 0x20 PUSH0 KECCAK256 SWAP1 JUMPDEST DUP2 SLOAD DUP2 MSTORE SWAP1 PUSH1 0x1 ADD SWAP1 PUSH1 0x20 ADD DUP1 DUP4 GT PUSH2 0x75B JUMPI DUP3 SWAP1 SUB PUSH1 0x1F AND DUP3 ADD SWAP2 JUMPDEST POP POP POP POP POP DUP2 JUMP JUMPDEST PUSH2 0x788 PUSH2 0x1725 JUMP JUMPDEST PUSH1 0x5 PUSH0 DUP4 DUP2 MSTORE PUSH1 0x20 ADD SWAP1 DUP2 MSTORE PUSH1 0x20 ADD PUSH0 KECCAK256 PUSH1 0x40 MLOAD DUP1 PUSH1 0x60 ADD PUSH1 0x40 MSTORE SWAP1 DUP2 PUSH0 DUP3 ADD PUSH0 SWAP1 SLOAD SWAP1 PUSH2 0x100 EXP SWAP1 DIV PUSH10 0xFFFFFFFFFFFFFFFFFFFF AND PUSH10 0xFFFFFFFFFFFFFFFFFFFF AND PUSH10 0xFFFFFFFFFFFFFFFFFFFF AND DUP2 MSTORE PUSH1 0x20 ADD PUSH0 DUP3 ADD PUSH1 0xA SWAP1 SLOAD SWAP1 PUSH2 0x100 EXP SWAP1 DIV PUSH10 0xFFFFFFFFFFFFFFFFFFFF AND PUSH10 0xFFFFFFFFFFFFFFFFFFFF AND PUSH10 0xFFFFFFFFFFFFFFFFFFFF AND DUP2 MSTORE PUSH1 0x20 ADD PUSH0 DUP3 ADD PUSH1 0x14 SWAP1 SLOAD SWAP1 PUSH2 0x100 EXP SWAP1 DIV PUSH10 0xFFFFFFFFFFFFFFFFFFFF AND PUSH10 0xFFFFFFFFFFFFFFFFFFFF AND PUSH10 0xFFFFFFFFFFFFFFFFFFFF AND DUP2 MSTORE POP POP SWAP1 POP SWAP2 SWAP1 POP JUMP JUMPDEST PUSH2 0x857 PUSH2 0xEF9 JUMP JUMPDEST PUSH2 0x860 DUP2 PUSH2 0xF8A JUMP JUMPDEST POP JUMP JUMPDEST PUSH0 DUP2 MLOAD EQ PUSH2 0x8A8 JUMPI DUP1 PUSH1 0x40 MLOAD PUSH32 0x8C379A000000000000000000000000000000000000000000000000000000000 DUP2 MSTORE PUSH1 0x4 ADD PUSH2 0x89F SWAP2 SWAP1 PUSH2 0x1C1B JUMP JUMPDEST PUSH1 0x40 MLOAD DUP1 SWAP2 SUB SWAP1 REVERT JUMPDEST PUSH0 PUSH0 PUSH0 PUSH0 DUP6 DUP1 PUSH1 0x20 ADD SWAP1 MLOAD DUP2 ADD SWAP1 PUSH2 0x8C0 SWAP2 SWAP1 PUSH2 0x1F26 JUMP JUMPDEST SWAP4 POP SWAP4 POP SWAP4 POP SWAP4 POP PUSH1 0x40 MLOAD DUP1 PUSH1 0x60 ADD PUSH1 0x40 MSTORE DUP1 DUP5 PUSH10 0xFFFFFFFFFFFFFFFFFFFF AND DUP2 MSTORE PUSH1 0x20 ADD DUP4 PUSH10 0xFFFFFFFFFFFFFFFFFFFF AND DUP2 MSTORE PUSH1 0x20 ADD DUP3 PUSH10 0xFFFFFFFFFFFFFFFFFFFF AND DUP2 MSTORE POP PUSH1 0x5 PUSH0 DUP7 DUP2 MSTORE PUSH1 0x20 ADD SWAP1 DUP2 MSTORE PUSH1 0x20 ADD PUSH0 KECCAK256 PUSH0 DUP3 ADD MLOAD DUP2 PUSH0 ADD PUSH0 PUSH2 0x100 EXP DUP2 SLOAD DUP2 PUSH10 0xFFFFFFFFFFFFFFFFFFFF MUL NOT AND SWAP1 DUP4 PUSH10 0xFFFFFFFFFFFFFFFFFFFF AND MUL OR SWAP1 SSTORE POP PUSH1 0x20 DUP3 ADD MLOAD DUP2 PUSH0 ADD PUSH1 0xA PUSH2 0x100 EXP DUP2 SLOAD DUP2 PUSH10 0xFFFFFFFFFFFFFFFFFFFF MUL NOT AND SWAP1 DUP4 PUSH10 0xFFFFFFFFFFFFFFFFFFFF AND MUL OR SWAP1 SSTORE POP PUSH1 0x40 DUP3 ADD MLOAD DUP2 PUSH0 ADD PUSH1 0x14 PUSH2 0x100 EXP DUP2 SLOAD DUP2 PUSH10 0xFFFFFFFFFFFFFFFFFFFF MUL NOT AND SWAP1 DUP4 PUSH10 0xFFFFFFFFFFFFFFFFFFFF AND MUL OR SWAP1 SSTORE POP SWAP1 POP POP POP POP POP POP POP POP POP JUMP JUMPDEST PUSH2 0x9C4 DUP3 PUSH0 PUSH0 DUP5 PUSH2 0x10B6 JUMP JUMPDEST POP POP JUMP JUMPDEST PUSH0 DUP2 MLOAD SUB PUSH2 0xA02 JUMPI PUSH1 0x40 MLOAD PUSH32 0xFE936CB700000000000000000000000000000000000000000000000000000000 DUP2 MSTORE PUSH1 0x4 ADD PUSH1 0x40 MLOAD DUP1 SWAP2 SUB SWAP1 REVERT JUMPDEST DUP1 DUP3 PUSH1 0xA0 ADD DUP2 SWAP1 MSTORE POP POP POP JUMP JUMPDEST PUSH1 0x60 PUSH0 PUSH2 0xA1D PUSH2 0x100 PUSH2 0x115C JUMP JUMPDEST SWAP1 POP PUSH2 0xA67 PUSH1 0x40 MLOAD DUP1 PUSH1 0x40 ADD PUSH1 0x40 MSTORE DUP1 PUSH1 0xC DUP2 MSTORE PUSH1 0x20 ADD PUSH32 0x636F64654C6F636174696F6E0000000000000000000000000000000000000000 DUP2 MSTORE POP DUP3 PUSH2 0x1181 SWAP1 SWAP2 SWAP1 PUSH4 0xFFFFFFFF AND JUMP JUMPDEST PUSH2 0xA8F DUP4 PUSH0 ADD MLOAD PUSH1 0x2 DUP2 GT ISZERO PUSH2 0xA80 JUMPI PUSH2 0xA7F PUSH2 0x1F8A JUMP JUMPDEST JUMPDEST DUP3 PUSH2 0x11A9 SWAP1 SWAP2 SWAP1 PUSH4 0xFFFFFFFF AND JUMP JUMPDEST PUSH2 0xAD7 PUSH1 0x40 MLOAD DUP1 PUSH1 0x40 ADD PUSH1 0x40 MSTORE DUP1 PUSH1 0x8 DUP2 MSTORE PUSH1 0x20 ADD PUSH32 0x6C616E6775616765000000000000000000000000000000000000000000000000 DUP2 MSTORE POP DUP3 PUSH2 0x1181 SWAP1 SWAP2 SWAP1 PUSH4 0xFFFFFFFF AND JUMP JUMPDEST PUSH2 0xAFF DUP4 PUSH1 0x40 ADD MLOAD PUSH0 DUP2 GT ISZERO PUSH2 0xAF0 JUMPI PUSH2 0xAEF PUSH2 0x1F8A JUMP JUMPDEST JUMPDEST DUP3 PUSH2 0x11A9 SWAP1 SWAP2 SWAP1 PUSH4 0xFFFFFFFF AND JUMP JUMPDEST PUSH2 0xB47 PUSH1 0x40 MLOAD DUP1 PUSH1 0x40 ADD PUSH1 0x40 MSTORE DUP1 PUSH1 0x6 DUP2 MSTORE PUSH1 0x20 ADD PUSH32 0x736F757263650000000000000000000000000000000000000000000000000000 DUP2 MSTORE POP DUP3 PUSH2 0x1181 SWAP1 SWAP2 SWAP1 PUSH4 0xFFFFFFFF AND JUMP JUMPDEST PUSH2 0xB5E DUP4 PUSH1 0x60 ADD MLOAD DUP3 PUSH2 0x1181 SWAP1 SWAP2 SWAP1 PUSH4 0xFFFFFFFF AND JUMP JUMPDEST PUSH0 DUP4 PUSH1 0xA0 ADD MLOAD MLOAD GT ISZERO PUSH2 0xC15 JUMPI PUSH2 0xBB3 PUSH1 0x40 MLOAD DUP1 PUSH1 0x40 ADD PUSH1 0x40 MSTORE DUP1 PUSH1 0x4 DUP2 MSTORE PUSH1 0x20 ADD PUSH32 0x6172677300000000000000000000000000000000000000000000000000000000 DUP2 MSTORE POP DUP3 PUSH2 0x1181 SWAP1 SWAP2 SWAP1 PUSH4 0xFFFFFFFF AND JUMP JUMPDEST PUSH2 0xBBC DUP2 PUSH2 0x11F8 JUMP JUMPDEST PUSH0 PUSH0 SWAP1 POP JUMPDEST DUP4 PUSH1 0xA0 ADD MLOAD MLOAD DUP2 LT ISZERO PUSH2 0xC0A JUMPI PUSH2 0xBFF DUP5 PUSH1 0xA0 ADD MLOAD DUP3 DUP2 MLOAD DUP2 LT PUSH2 0xBE8 JUMPI PUSH2 0xBE7 PUSH2 0x1E88 JUMP JUMPDEST JUMPDEST PUSH1 0x20 MUL PUSH1 0x20 ADD ADD MLOAD DUP4 PUSH2 0x1181 SWAP1 SWAP2 SWAP1 PUSH4 0xFFFFFFFF AND JUMP JUMPDEST DUP1 PUSH1 0x1 ADD SWAP1 POP PUSH2 0xBC1 JUMP JUMPDEST POP PUSH2 0xC14 DUP2 PUSH2 0x1220 JUMP JUMPDEST JUMPDEST PUSH0 DUP4 PUSH1 0x80 ADD MLOAD MLOAD GT ISZERO PUSH2 0xD54 JUMPI PUSH0 PUSH1 0x2 DUP2 GT ISZERO PUSH2 0xC35 JUMPI PUSH2 0xC34 PUSH2 0x1F8A JUMP JUMPDEST JUMPDEST DUP4 PUSH1 0x20 ADD MLOAD PUSH1 0x2 DUP2 GT ISZERO PUSH2 0xC4C JUMPI PUSH2 0xC4B PUSH2 0x1F8A JUMP JUMPDEST JUMPDEST SUB PUSH2 0xC83 JUMPI PUSH1 0x40 MLOAD PUSH32 0xA80D31F700000000000000000000000000000000000000000000000000000000 DUP2 MSTORE PUSH1 0x4 ADD PUSH1 0x40 MLOAD DUP1 SWAP2 SUB SWAP1 REVERT JUMPDEST PUSH2 0xCCB PUSH1 0x40 MLOAD DUP1 PUSH1 0x40 ADD PUSH1 0x40 MSTORE DUP1 PUSH1 0xF DUP2 MSTORE PUSH1 0x20 ADD PUSH32 0x736563726574734C6F636174696F6E0000000000000000000000000000000000 DUP2 MSTORE POP DUP3 PUSH2 0x1181 SWAP1 SWAP2 SWAP1 PUSH4 0xFFFFFFFF AND JUMP JUMPDEST PUSH2 0xCF4 DUP4 PUSH1 0x20 ADD MLOAD PUSH1 0x2 DUP2 GT ISZERO PUSH2 0xCE5 JUMPI PUSH2 0xCE4 PUSH2 0x1F8A JUMP JUMPDEST JUMPDEST DUP3 PUSH2 0x11A9 SWAP1 SWAP2 SWAP1 PUSH4 0xFFFFFFFF AND JUMP JUMPDEST PUSH2 0xD3C PUSH1 0x40 MLOAD DUP1 PUSH1 0x40 ADD PUSH1 0x40 MSTORE DUP1 PUSH1 0x7 DUP2 MSTORE PUSH1 0x20 ADD PUSH32 0x7365637265747300000000000000000000000000000000000000000000000000 DUP2 MSTORE POP DUP3 PUSH2 0x1181 SWAP1 SWAP2 SWAP1 PUSH4 0xFFFFFFFF AND JUMP JUMPDEST PUSH2 0xD53 DUP4 PUSH1 0x80 ADD MLOAD DUP3 PUSH2 0x1248 SWAP1 SWAP2 SWAP1 PUSH4 0xFFFFFFFF AND JUMP JUMPDEST JUMPDEST PUSH0 DUP4 PUSH1 0xC0 ADD MLOAD MLOAD GT ISZERO PUSH2 0xE0B JUMPI PUSH2 0xDA9 PUSH1 0x40 MLOAD DUP1 PUSH1 0x40 ADD PUSH1 0x40 MSTORE DUP1 PUSH1 0x9 DUP2 MSTORE PUSH1 0x20 ADD PUSH32 0x6279746573417267730000000000000000000000000000000000000000000000 DUP2 MSTORE POP DUP3 PUSH2 0x1181 SWAP1 SWAP2 SWAP1 PUSH4 0xFFFFFFFF AND JUMP JUMPDEST PUSH2 0xDB2 DUP2 PUSH2 0x11F8 JUMP JUMPDEST PUSH0 PUSH0 SWAP1 POP JUMPDEST DUP4 PUSH1 0xC0 ADD MLOAD MLOAD DUP2 LT ISZERO PUSH2 0xE00 JUMPI PUSH2 0xDF5 DUP5 PUSH1 0xC0 ADD MLOAD DUP3 DUP2 MLOAD DUP2 LT PUSH2 0xDDE JUMPI PUSH2 0xDDD PUSH2 0x1E88 JUMP JUMPDEST JUMPDEST PUSH1 0x20 MUL PUSH1 0x20 ADD ADD MLOAD DUP4 PUSH2 0x1248 SWAP1 SWAP2 SWAP1 PUSH4 0xFFFFFFFF AND JUMP JUMPDEST DUP1 PUSH1 0x1 ADD SWAP1 POP PUSH2 0xDB7 JUMP JUMPDEST POP PUSH2 0xE0A DUP2 PUSH2 0x1220 JUMP JUMPDEST JUMPDEST DUP1 PUSH0 ADD MLOAD PUSH0 ADD MLOAD SWAP2 POP POP SWAP2 SWAP1 POP JUMP JUMPDEST PUSH0 PUSH0 PUSH32 0x0 PUSH20 0xFFFFFFFFFFFFFFFFFFFFFFFFFFFFFFFFFFFFFFFF AND PUSH4 0x461D2762 DUP7 DUP9 PUSH1 0x1 DUP9 DUP9 PUSH1 0x40 MLOAD DUP7 PUSH4 0xFFFFFFFF AND PUSH1 0xE0 SHL DUP2 MSTORE PUSH1 0x4 ADD PUSH2 0xE7E SWAP6 SWAP5 SWAP4 SWAP3 SWAP2 SWAP1 PUSH2 0x2043 JUMP JUMPDEST PUSH1 0x20 PUSH1 0x40 MLOAD DUP1 DUP4 SUB DUP2 PUSH0 DUP8 GAS CALL ISZERO DUP1 ISZERO PUSH2 0xE9A JUMPI RETURNDATASIZE PUSH0 PUSH0 RETURNDATACOPY RETURNDATASIZE PUSH0 REVERT JUMPDEST POP POP POP POP PUSH1 0x40 MLOAD RETURNDATASIZE PUSH1 0x1F NOT PUSH1 0x1F DUP3 ADD AND DUP3 ADD DUP1 PUSH1 0x40 MSTORE POP DUP2 ADD SWAP1 PUSH2 0xEBE SWAP2 SWAP1 PUSH2 0x20AF JUMP JUMPDEST SWAP1 POP DUP1 PUSH32 0x1131472297A800FEE664D1D89CFA8F7676FF07189ECC53F80BBB5F4969099DB8 PUSH1 0x40 MLOAD PUSH1 0x40 MLOAD DUP1 SWAP2 SUB SWAP1 LOG2 DUP1 SWAP2 POP POP SWAP5 SWAP4 POP POP POP POP JUMP JUMPDEST PUSH1 0x2 PUSH0 SWAP1 SLOAD SWAP1 PUSH2 0x100 EXP SWAP1 DIV PUSH20 0xFFFFFFFFFFFFFFFFFFFFFFFFFFFFFFFFFFFFFFFF AND PUSH20 0xFFFFFFFFFFFFFFFFFFFFFFFFFFFFFFFFFFFFFFFF AND CALLER PUSH20 0xFFFFFFFFFFFFFFFFFFFFFFFFFFFFFFFFFFFFFFFF AND EQ PUSH2 0xF88 JUMPI PUSH1 0x40 MLOAD PUSH32 0x8C379A000000000000000000000000000000000000000000000000000000000 DUP2 MSTORE PUSH1 0x4 ADD PUSH2 0xF7F SWAP1 PUSH2 0x2124 JUMP JUMPDEST PUSH1 0x40 MLOAD DUP1 SWAP2 SUB SWAP1 REVERT JUMPDEST JUMP JUMPDEST CALLER PUSH20 0xFFFFFFFFFFFFFFFFFFFFFFFFFFFFFFFFFFFFFFFF AND DUP2 PUSH20 0xFFFFFFFFFFFFFFFFFFFFFFFFFFFFFFFFFFFFFFFF AND SUB PUSH2 0xFF8 JUMPI PUSH1 0x40 MLOAD PUSH32 0x8C379A000000000000000000000000000000000000000000000000000000000 DUP2 MSTORE PUSH1 0x4 ADD PUSH2 0xFEF SWAP1 PUSH2 0x218C JUMP JUMPDEST PUSH1 0x40 MLOAD DUP1 SWAP2 SUB SWAP1 REVERT JUMPDEST DUP1 PUSH1 0x3 PUSH0 PUSH2 0x100 EXP DUP2 SLOAD DUP2 PUSH20 0xFFFFFFFFFFFFFFFFFFFFFFFFFFFFFFFFFFFFFFFF MUL NOT AND SWAP1 DUP4 PUSH20 0xFFFFFFFFFFFFFFFFFFFFFFFFFFFFFFFFFFFFFFFF AND MUL OR SWAP1 SSTORE POP DUP1 PUSH20 0xFFFFFFFFFFFFFFFFFFFFFFFFFFFFFFFFFFFFFFFF AND PUSH1 0x2 PUSH0 SWAP1 SLOAD SWAP1 PUSH2 0x100 EXP SWAP1 DIV PUSH20 0xFFFFFFFFFFFFFFFFFFFFFFFFFFFFFFFFFFFFFFFF AND PUSH20 0xFFFFFFFFFFFFFFFFFFFFFFFFFFFFFFFFFFFFFFFF AND PUSH32 0xED8889F560326EB138920D842192F0EB3DD22B4F139C87A2C57538E05BAE1278 PUSH1 0x40 MLOAD PUSH1 0x40 MLOAD DUP1 SWAP2 SUB SWAP1 LOG3 POP JUMP JUMPDEST PUSH0 DUP2 MLOAD SUB PUSH2 0x10F0 JUMPI PUSH1 0x40 MLOAD PUSH32 0x22CE3EDD00000000000000000000000000000000000000000000000000000000 DUP2 MSTORE PUSH1 0x4 ADD PUSH1 0x40 MLOAD DUP1 SWAP2 SUB SWAP1 REVERT JUMPDEST DUP3 DUP5 PUSH0 ADD SWAP1 PUSH1 0x2 DUP2 GT ISZERO PUSH2 0x1107 JUMPI PUSH2 0x1106 PUSH2 0x1F8A JUMP JUMPDEST JUMPDEST SWAP1 DUP2 PUSH1 0x2 DUP2 GT ISZERO PUSH2 0x111B JUMPI PUSH2 0x111A PUSH2 0x1F8A JUMP JUMPDEST JUMPDEST DUP2 MSTORE POP POP DUP2 DUP5 PUSH1 0x40 ADD SWAP1 PUSH0 DUP2 GT ISZERO PUSH2 0x1136 JUMPI PUSH2 0x1135 PUSH2 0x1F8A JUMP JUMPDEST JUMPDEST SWAP1 DUP2 PUSH0 DUP2 GT ISZERO PUSH2 0x1149 JUMPI PUSH2 0x1148 PUSH2 0x1F8A JUMP JUMPDEST JUMPDEST DUP2 MSTORE POP POP DUP1 DUP5 PUSH1 0x60 ADD DUP2 SWAP1 MSTORE POP POP POP POP POP JUMP JUMPDEST PUSH2 0x1164 PUSH2 0x1767 JUMP JUMPDEST PUSH2 0x1171 DUP2 PUSH0 ADD MLOAD DUP4 PUSH2 0x1270 JUMP JUMPDEST POP PUSH0 DUP2 PUSH1 0x20 ADD DUP2 DUP2 MSTORE POP POP SWAP2 SWAP1 POP JUMP JUMPDEST PUSH2 0x118E DUP3 PUSH1 0x3 DUP4 MLOAD PUSH2 0x12E6 JUMP JUMPDEST PUSH2 0x11A4 DUP2 DUP4 PUSH0 ADD MLOAD PUSH2 0x1486 SWAP1 SWAP2 SWAP1 PUSH4 0xFFFFFFFF AND JUMP JUMPDEST POP POP POP JUMP JUMPDEST PUSH2 0x11CA PUSH1 0x2 PUSH1 0x5 PUSH1 0x6 PUSH1 0xFF AND SWAP1 SHL OR DUP4 PUSH0 ADD MLOAD PUSH2 0x14A2 SWAP1 SWAP2 SWAP1 PUSH4 0xFFFFFFFF AND JUMP JUMPDEST POP PUSH2 0x11F4 DUP3 DUP3 PUSH1 0x40 MLOAD PUSH1 0x20 ADD PUSH2 0x11E0 SWAP2 SWAP1 PUSH2 0x21B9 JUMP JUMPDEST PUSH1 0x40 MLOAD PUSH1 0x20 DUP2 DUP4 SUB SUB DUP2 MSTORE SWAP1 PUSH1 0x40 MSTORE PUSH2 0x1248 JUMP JUMPDEST POP POP JUMP JUMPDEST PUSH2 0x1203 DUP2 PUSH1 0x4 PUSH2 0x1509 JUMP JUMPDEST PUSH1 0x1 DUP2 PUSH1 0x20 ADD DUP2 DUP2 MLOAD PUSH2 0x1216 SWAP2 SWAP1 PUSH2 0x21FF JUMP JUMPDEST SWAP2 POP DUP2 DUP2 MSTORE POP POP POP JUMP JUMPDEST PUSH2 0x122B DUP2 PUSH1 0x7 PUSH2 0x1509 JUMP JUMPDEST PUSH1 0x1 DUP2 PUSH1 0x20 ADD DUP2 DUP2 MLOAD PUSH2 0x123E SWAP2 SWAP1 PUSH2 0x2232 JUMP JUMPDEST SWAP2 POP DUP2 DUP2 MSTORE POP POP POP JUMP JUMPDEST PUSH2 0x1255 DUP3 PUSH1 0x2 DUP4 MLOAD PUSH2 0x12E6 JUMP JUMPDEST PUSH2 0x126B DUP2 DUP4 PUSH0 ADD MLOAD PUSH2 0x1486 SWAP1 SWAP2 SWAP1 PUSH4 0xFFFFFFFF AND JUMP JUMPDEST POP POP POP JUMP JUMPDEST PUSH2 0x1278 PUSH2 0x1786 JUMP JUMPDEST PUSH0 PUSH1 0x20 DUP4 PUSH2 0x1286 SWAP2 SWAP1 PUSH2 0x2292 JUMP JUMPDEST EQ PUSH2 0x12B2 JUMPI PUSH1 0x20 DUP3 PUSH2 0x1298 SWAP2 SWAP1 PUSH2 0x2292 JUMP JUMPDEST PUSH1 0x20 PUSH2 0x12A4 SWAP2 SWAP1 PUSH2 0x2232 JUMP JUMPDEST DUP3 PUSH2 0x12AF SWAP2 SWAP1 PUSH2 0x21FF JUMP JUMPDEST SWAP2 POP JUMPDEST DUP2 DUP4 PUSH1 0x20 ADD DUP2 DUP2 MSTORE POP POP PUSH1 0x40 MLOAD DUP1 DUP5 MSTORE PUSH0 DUP2 MSTORE DUP3 DUP2 ADD PUSH1 0x20 ADD DUP2 DUP2 LT ISZERO PUSH2 0x12D7 JUMPI PUSH0 PUSH0 REVERT JUMPDEST DUP1 PUSH1 0x40 MSTORE POP POP DUP3 SWAP1 POP SWAP3 SWAP2 POP POP JUMP JUMPDEST PUSH1 0x17 DUP2 PUSH8 0xFFFFFFFFFFFFFFFF AND GT PUSH2 0x1320 JUMPI PUSH2 0x131A DUP2 PUSH1 0x5 DUP5 PUSH1 0xFF AND SWAP1 SHL PUSH1 0xFF AND OR DUP5 PUSH0 ADD MLOAD PUSH2 0x14A2 SWAP1 SWAP2 SWAP1 PUSH4 0xFFFFFFFF AND JUMP JUMPDEST POP PUSH2 0x1481 JUMP JUMPDEST PUSH1 0xFF DUP2 PUSH8 0xFFFFFFFFFFFFFFFF AND GT PUSH2 0x137C JUMPI PUSH2 0x1352 PUSH1 0x18 PUSH1 0x5 DUP5 PUSH1 0xFF AND SWAP1 SHL OR DUP5 PUSH0 ADD MLOAD PUSH2 0x14A2 SWAP1 SWAP2 SWAP1 PUSH4 0xFFFFFFFF AND JUMP JUMPDEST POP PUSH2 0x1376 DUP2 PUSH8 0xFFFFFFFFFFFFFFFF AND PUSH1 0x1 DUP6 PUSH0 ADD MLOAD PUSH2 0x152E SWAP1 SWAP3 SWAP2 SWAP1 PUSH4 0xFFFFFFFF AND JUMP JUMPDEST POP PUSH2 0x1480 JUMP JUMPDEST PUSH2 0xFFFF DUP2 PUSH8 0xFFFFFFFFFFFFFFFF AND GT PUSH2 0x13D9 JUMPI PUSH2 0x13AF PUSH1 0x19 PUSH1 0x5 DUP5 PUSH1 0xFF AND SWAP1 SHL OR DUP5 PUSH0 ADD MLOAD PUSH2 0x14A2 SWAP1 SWAP2 SWAP1 PUSH4 0xFFFFFFFF AND JUMP JUMPDEST POP PUSH2 0x13D3 DUP2 PUSH8 0xFFFFFFFFFFFFFFFF AND PUSH1 0x2 DUP6 PUSH0 ADD MLOAD PUSH2 0x152E SWAP1 SWAP3 SWAP2 SWAP1 PUSH4 0xFFFFFFFF AND JUMP JUMPDEST POP PUSH2 0x147F JUMP JUMPDEST PUSH4 0xFFFFFFFF DUP2 PUSH8 0xFFFFFFFFFFFFFFFF AND GT PUSH2 0x1438 JUMPI PUSH2 0x140E PUSH1 0x1A PUSH1 0x5 DUP5 PUSH1 0xFF AND SWAP1 SHL OR DUP5 PUSH0 ADD MLOAD PUSH2 0x14A2 SWAP1 SWAP2 SWAP1 PUSH4 0xFFFFFFFF AND JUMP JUMPDEST POP PUSH2 0x1432 DUP2 PUSH8 0xFFFFFFFFFFFFFFFF AND PUSH1 0x4 DUP6 PUSH0 ADD MLOAD PUSH2 0x152E SWAP1 SWAP3 SWAP2 SWAP1 PUSH4 0xFFFFFFFF AND JUMP JUMPDEST POP PUSH2 0x147E JUMP JUMPDEST PUSH2 0x1458 PUSH1 0x1B PUSH1 0x5 DUP5 PUSH1 0xFF AND SWAP1 SHL OR DUP5 PUSH0 ADD MLOAD PUSH2 0x14A2 SWAP1 SWAP2 SWAP1 PUSH4 0xFFFFFFFF AND JUMP JUMPDEST POP PUSH2 0x147C DUP2 PUSH8 0xFFFFFFFFFFFFFFFF AND PUSH1 0x8 DUP6 PUSH0 ADD MLOAD PUSH2 0x152E SWAP1 SWAP3 SWAP2 SWAP1 PUSH4 0xFFFFFFFF AND JUMP JUMPDEST POP JUMPDEST JUMPDEST JUMPDEST JUMPDEST POP POP POP JUMP JUMPDEST PUSH2 0x148E PUSH2 0x1786 JUMP JUMPDEST PUSH2 0x149A DUP4 DUP4 DUP5 MLOAD PUSH2 0x15B7 JUMP JUMPDEST SWAP1 POP SWAP3 SWAP2 POP POP JUMP JUMPDEST PUSH2 0x14AA PUSH2 0x1786 JUMP JUMPDEST PUSH0 DUP4 PUSH0 ADD MLOAD MLOAD SWAP1 POP PUSH0 PUSH1 0x1 DUP3 PUSH2 0x14C0 SWAP2 SWAP1 PUSH2 0x21FF JUMP JUMPDEST SWAP1 POP DUP5 PUSH1 0x20 ADD MLOAD DUP3 LT PUSH2 0x14E4 JUMPI PUSH2 0x14E3 DUP6 PUSH1 0x2 DUP4 PUSH2 0x14DE SWAP2 SWAP1 PUSH2 0x22C2 JUMP JUMPDEST PUSH2 0x1694 JUMP JUMPDEST JUMPDEST DUP5 MLOAD PUSH1 0x20 DUP4 DUP3 ADD ADD DUP6 DUP2 MSTORE8 DUP2 MLOAD DUP4 GT ISZERO PUSH2 0x14FC JUMPI DUP3 DUP3 MSTORE JUMPDEST POP POP DUP5 SWAP3 POP POP POP SWAP3 SWAP2 POP POP JUMP JUMPDEST PUSH2 0x1529 PUSH1 0x1F PUSH1 0x5 DUP4 PUSH1 0xFF AND SWAP1 SHL OR DUP4 PUSH0 ADD MLOAD PUSH2 0x14A2 SWAP1 SWAP2 SWAP1 PUSH4 0xFFFFFFFF AND JUMP JUMPDEST POP POP POP JUMP JUMPDEST PUSH2 0x1536 PUSH2 0x1786 JUMP JUMPDEST PUSH0 DUP5 PUSH0 ADD MLOAD MLOAD SWAP1 POP PUSH0 DUP2 DUP5 PUSH2 0x154B SWAP2 SWAP1 PUSH2 0x21FF JUMP JUMPDEST SWAP1 POP DUP6 PUSH1 0x20 ADD MLOAD DUP2 GT ISZERO PUSH2 0x1570 JUMPI PUSH2 0x156F DUP7 PUSH1 0x2 DUP4 PUSH2 0x156A SWAP2 SWAP1 PUSH2 0x22C2 JUMP JUMPDEST PUSH2 0x1694 JUMP JUMPDEST JUMPDEST PUSH0 PUSH1 0x1 DUP6 PUSH2 0x100 PUSH2 0x1581 SWAP2 SWAP1 PUSH2 0x2432 JUMP JUMPDEST PUSH2 0x158B SWAP2 SWAP1 PUSH2 0x2232 JUMP JUMPDEST SWAP1 POP DUP7 MLOAD DUP3 DUP2 ADD DUP8 DUP4 NOT DUP3 MLOAD AND OR DUP2 MSTORE DUP2 MLOAD DUP5 GT ISZERO PUSH2 0x15A8 JUMPI DUP4 DUP3 MSTORE JUMPDEST POP POP DUP7 SWAP4 POP POP POP POP SWAP4 SWAP3 POP POP POP JUMP JUMPDEST PUSH2 0x15BF PUSH2 0x1786 JUMP JUMPDEST DUP3 MLOAD DUP3 GT ISZERO PUSH2 0x15CC JUMPI PUSH0 PUSH0 REVERT JUMPDEST PUSH0 DUP5 PUSH0 ADD MLOAD MLOAD SWAP1 POP PUSH0 DUP4 DUP3 PUSH2 0x15E1 SWAP2 SWAP1 PUSH2 0x21FF JUMP JUMPDEST SWAP1 POP DUP6 PUSH1 0x20 ADD MLOAD DUP2 GT ISZERO PUSH2 0x1606 JUMPI PUSH2 0x1605 DUP7 PUSH1 0x2 DUP4 PUSH2 0x1600 SWAP2 SWAP1 PUSH2 0x22C2 JUMP JUMPDEST PUSH2 0x1694 JUMP JUMPDEST JUMPDEST PUSH0 PUSH0 DUP8 MLOAD DUP1 MLOAD DUP6 PUSH1 0x20 DUP4 ADD ADD SWAP4 POP DUP1 DUP6 GT ISZERO PUSH2 0x1620 JUMPI DUP5 DUP3 MSTORE JUMPDEST PUSH1 0x20 DUP10 ADD SWAP3 POP POP POP JUMPDEST PUSH1 0x20 DUP7 LT PUSH2 0x1667 JUMPI DUP1 MLOAD DUP3 MSTORE PUSH1 0x20 DUP3 PUSH2 0x1642 SWAP2 SWAP1 PUSH2 0x21FF JUMP JUMPDEST SWAP2 POP PUSH1 0x20 DUP2 PUSH2 0x1651 SWAP2 SWAP1 PUSH2 0x21FF JUMP JUMPDEST SWAP1 POP PUSH1 0x20 DUP7 PUSH2 0x1660 SWAP2 SWAP1 PUSH2 0x2232 JUMP JUMPDEST SWAP6 POP PUSH2 0x1629 JUMP JUMPDEST PUSH0 PUSH1 0x1 DUP8 PUSH1 0x20 SUB PUSH2 0x100 EXP SUB SWAP1 POP DUP1 NOT DUP3 MLOAD AND DUP2 DUP5 MLOAD AND DUP2 DUP2 OR DUP6 MSTORE POP POP POP DUP8 SWAP5 POP POP POP POP POP SWAP4 SWAP3 POP POP POP JUMP JUMPDEST PUSH0 DUP3 PUSH0 ADD MLOAD SWAP1 POP PUSH2 0x16A5 DUP4 DUP4 PUSH2 0x1270 JUMP JUMPDEST POP PUSH2 0x16B0 DUP4 DUP3 PUSH2 0x1486 JUMP JUMPDEST POP POP POP POP JUMP JUMPDEST PUSH1 0x40 MLOAD DUP1 PUSH1 0xE0 ADD PUSH1 0x40 MSTORE DUP1 PUSH0 PUSH1 0x2 DUP2 GT ISZERO PUSH2 0x16D4 JUMPI PUSH2 0x16D3 PUSH2 0x1F8A JUMP JUMPDEST JUMPDEST DUP2 MSTORE PUSH1 0x20 ADD PUSH0 PUSH1 0x2 DUP2 GT ISZERO PUSH2 0x16EC JUMPI PUSH2 0x16EB PUSH2 0x1F8A JUMP JUMPDEST JUMPDEST DUP2 MSTORE PUSH1 0x20 ADD PUSH0 PUSH0 DUP2 GT ISZERO PUSH2 0x1703 JUMPI PUSH2 0x1702 PUSH2 0x1F8A JUMP JUMPDEST JUMPDEST DUP2 MSTORE PUSH1 0x20 ADD PUSH1 0x60 DUP2 MSTORE PUSH1 0x20 ADD PUSH1 0x60 DUP2 MSTORE PUSH1 0x20 ADD PUSH1 0x60 DUP2 MSTORE PUSH1 0x20 ADD PUSH1 0x60 DUP2 MSTORE POP SWAP1 JUMP JUMPDEST PUSH1 0x40 MLOAD DUP1 PUSH1 0x60 ADD PUSH1 0x40 MSTORE DUP1 PUSH0 PUSH10 0xFFFFFFFFFFFFFFFFFFFF AND DUP2 MSTORE PUSH1 0x20 ADD PUSH0 PUSH10 0xFFFFFFFFFFFFFFFFFFFF AND DUP2 MSTORE PUSH1 0x20 ADD PUSH0 PUSH10 0xFFFFFFFFFFFFFFFFFFFF AND DUP2 MSTORE POP SWAP1 JUMP JUMPDEST PUSH1 0x40 MLOAD DUP1 PUSH1 0x40 ADD PUSH1 0x40 MSTORE DUP1 PUSH2 0x177A PUSH2 0x1786 JUMP JUMPDEST DUP2 MSTORE PUSH1 0x20 ADD PUSH0 DUP2 MSTORE POP SWAP1 JUMP JUMPDEST PUSH1 0x40 MLOAD DUP1 PUSH1 0x40 ADD PUSH1 0x40 MSTORE DUP1 PUSH1 0x60 DUP2 MSTORE PUSH1 0x20 ADD PUSH0 DUP2 MSTORE POP SWAP1 JUMP JUMPDEST PUSH0 PUSH1 0x40 MLOAD SWAP1 POP SWAP1 JUMP JUMPDEST PUSH0 PUSH0 REVERT JUMPDEST PUSH0 PUSH0 REVERT JUMPDEST PUSH0 DUP2 SWAP1 POP SWAP2 SWAP1 POP JUMP JUMPDEST PUSH2 0x17C2 DUP2 PUSH2 0x17B0 JUMP JUMPDEST DUP2 EQ PUSH2 0x17CC JUMPI PUSH0 PUSH0 REVERT JUMPDEST POP JUMP JUMPDEST PUSH0 DUP2 CALLDATALOAD SWAP1 POP PUSH2 0x17DD DUP2 PUSH2 0x17B9 JUMP JUMPDEST SWAP3 SWAP2 POP POP JUMP JUMPDEST PUSH0 PUSH0 REVERT JUMPDEST PUSH0 PUSH0 REVERT JUMPDEST PUSH0 PUSH1 0x1F NOT PUSH1 0x1F DUP4 ADD AND SWAP1 POP SWAP2 SWAP1 POP JUMP JUMPDEST PUSH32 0x4E487B7100000000000000000000000000000000000000000000000000000000 PUSH0 MSTORE PUSH1 0x41 PUSH1 0x4 MSTORE PUSH1 0x24 PUSH0 REVERT JUMPDEST PUSH2 0x1831 DUP3 PUSH2 0x17EB JUMP JUMPDEST DUP2 ADD DUP2 DUP2 LT PUSH8 0xFFFFFFFFFFFFFFFF DUP3 GT OR ISZERO PUSH2 0x1850 JUMPI PUSH2 0x184F PUSH2 0x17FB JUMP JUMPDEST JUMPDEST DUP1 PUSH1 0x40 MSTORE POP POP POP JUMP JUMPDEST PUSH0 PUSH2 0x1862 PUSH2 0x179F JUMP JUMPDEST SWAP1 POP PUSH2 0x186E DUP3 DUP3 PUSH2 0x1828 JUMP JUMPDEST SWAP2 SWAP1 POP JUMP JUMPDEST PUSH0 PUSH8 0xFFFFFFFFFFFFFFFF DUP3 GT ISZERO PUSH2 0x188D JUMPI PUSH2 0x188C PUSH2 0x17FB JUMP JUMPDEST JUMPDEST PUSH2 0x1896 DUP3 PUSH2 0x17EB JUMP JUMPDEST SWAP1 POP PUSH1 0x20 DUP2 ADD SWAP1 POP SWAP2 SWAP1 POP JUMP JUMPDEST DUP3 DUP2 DUP4 CALLDATACOPY PUSH0 DUP4 DUP4 ADD MSTORE POP POP POP JUMP JUMPDEST PUSH0 PUSH2 0x18C3 PUSH2 0x18BE DUP5 PUSH2 0x1873 JUMP JUMPDEST PUSH2 0x1859 JUMP JUMPDEST SWAP1 POP DUP3 DUP2 MSTORE PUSH1 0x20 DUP2 ADD DUP5 DUP5 DUP5 ADD GT ISZERO PUSH2 0x18DF JUMPI PUSH2 0x18DE PUSH2 0x17E7 JUMP JUMPDEST JUMPDEST PUSH2 0x18EA DUP5 DUP3 DUP6 PUSH2 0x18A3 JUMP JUMPDEST POP SWAP4 SWAP3 POP POP POP JUMP JUMPDEST PUSH0 DUP3 PUSH1 0x1F DUP4 ADD SLT PUSH2 0x1906 JUMPI PUSH2 0x1905 PUSH2 0x17E3 JUMP JUMPDEST JUMPDEST DUP2 CALLDATALOAD PUSH2 0x1916 DUP5 DUP3 PUSH1 0x20 DUP7 ADD PUSH2 0x18B1 JUMP JUMPDEST SWAP2 POP POP SWAP3 SWAP2 POP POP JUMP JUMPDEST PUSH0 PUSH0 PUSH0 PUSH1 0x60 DUP5 DUP7 SUB SLT ISZERO PUSH2 0x1936 JUMPI PUSH2 0x1935 PUSH2 0x17A8 JUMP JUMPDEST JUMPDEST PUSH0 PUSH2 0x1943 DUP7 DUP3 DUP8 ADD PUSH2 0x17CF JUMP JUMPDEST SWAP4 POP POP PUSH1 0x20 DUP5 ADD CALLDATALOAD PUSH8 0xFFFFFFFFFFFFFFFF DUP2 GT ISZERO PUSH2 0x1964 JUMPI PUSH2 0x1963 PUSH2 0x17AC JUMP JUMPDEST JUMPDEST PUSH2 0x1970 DUP7 DUP3 DUP8 ADD PUSH2 0x18F2 JUMP JUMPDEST SWAP3 POP POP PUSH1 0x40 DUP5 ADD CALLDATALOAD PUSH8 0xFFFFFFFFFFFFFFFF DUP2 GT ISZERO PUSH2 0x1991 JUMPI PUSH2 0x1990 PUSH2 0x17AC JUMP JUMPDEST JUMPDEST PUSH2 0x199D DUP7 DUP3 DUP8 ADD PUSH2 0x18F2 JUMP JUMPDEST SWAP2 POP POP SWAP3 POP SWAP3 POP SWAP3 JUMP JUMPDEST PUSH0 PUSH20 0xFFFFFFFFFFFFFFFFFFFFFFFFFFFFFFFFFFFFFFFF DUP3 AND SWAP1 POP SWAP2 SWAP1 POP JUMP JUMPDEST PUSH0 PUSH2 0x19D0 DUP3 PUSH2 0x19A7 JUMP JUMPDEST SWAP1 POP SWAP2 SWAP1 POP JUMP JUMPDEST PUSH2 0x19E0 DUP2 PUSH2 0x19C6 JUMP JUMPDEST DUP3 MSTORE POP POP JUMP JUMPDEST PUSH0 PUSH1 0x20 DUP3 ADD SWAP1 POP PUSH2 0x19F9 PUSH0 DUP4 ADD DUP5 PUSH2 0x19D7 JUMP JUMPDEST SWAP3 SWAP2 POP POP JUMP JUMPDEST PUSH0 PUSH8 0xFFFFFFFFFFFFFFFF DUP3 GT ISZERO PUSH2 0x1A19 JUMPI PUSH2 0x1A18 PUSH2 0x17FB JUMP JUMPDEST JUMPDEST PUSH2 0x1A22 DUP3 PUSH2 0x17EB JUMP JUMPDEST SWAP1 POP PUSH1 0x20 DUP2 ADD SWAP1 POP SWAP2 SWAP1 POP JUMP JUMPDEST PUSH0 PUSH2 0x1A41 PUSH2 0x1A3C DUP5 PUSH2 0x19FF JUMP JUMPDEST PUSH2 0x1859 JUMP JUMPDEST SWAP1 POP DUP3 DUP2 MSTORE PUSH1 0x20 DUP2 ADD DUP5 DUP5 DUP5 ADD GT ISZERO PUSH2 0x1A5D JUMPI PUSH2 0x1A5C PUSH2 0x17E7 JUMP JUMPDEST JUMPDEST PUSH2 0x1A68 DUP5 DUP3 DUP6 PUSH2 0x18A3 JUMP JUMPDEST POP SWAP4 SWAP3 POP POP POP JUMP JUMPDEST PUSH0 DUP3 PUSH1 0x1F DUP4 ADD SLT PUSH2 0x1A84 JUMPI PUSH2 0x1A83 PUSH2 0x17E3 JUMP JUMPDEST JUMPDEST DUP2 CALLDATALOAD PUSH2 0x1A94 DUP5 DUP3 PUSH1 0x20 DUP7 ADD PUSH2 0x1A2F JUMP JUMPDEST SWAP2 POP POP SWAP3 SWAP2 POP POP JUMP JUMPDEST PUSH0 PUSH8 0xFFFFFFFFFFFFFFFF DUP3 AND SWAP1 POP SWAP2 SWAP1 POP JUMP JUMPDEST PUSH2 0x1AB9 DUP2 PUSH2 0x1A9D JUMP JUMPDEST DUP2 EQ PUSH2 0x1AC3 JUMPI PUSH0 PUSH0 REVERT JUMPDEST POP JUMP JUMPDEST PUSH0 DUP2 CALLDATALOAD SWAP1 POP PUSH2 0x1AD4 DUP2 PUSH2 0x1AB0 JUMP JUMPDEST SWAP3 SWAP2 POP POP JUMP JUMPDEST PUSH0 PUSH4 0xFFFFFFFF DUP3 AND SWAP1 POP SWAP2 SWAP1 POP JUMP JUMPDEST PUSH2 0x1AF2 DUP2 PUSH2 0x1ADA JUMP JUMPDEST DUP2 EQ PUSH2 0x1AFC JUMPI PUSH0 PUSH0 REVERT JUMPDEST POP JUMP JUMPDEST PUSH0 DUP2 CALLDATALOAD SWAP1 POP PUSH2 0x1B0D DUP2 PUSH2 0x1AE9 JUMP JUMPDEST SWAP3 SWAP2 POP POP JUMP JUMPDEST PUSH0 PUSH0 PUSH0 PUSH0 PUSH1 0x80 DUP6 DUP8 SUB SLT ISZERO PUSH2 0x1B2B JUMPI PUSH2 0x1B2A PUSH2 0x17A8 JUMP JUMPDEST JUMPDEST PUSH0 DUP6 ADD CALLDATALOAD PUSH8 0xFFFFFFFFFFFFFFFF DUP2 GT ISZERO PUSH2 0x1B48 JUMPI PUSH2 0x1B47 PUSH2 0x17AC JUMP JUMPDEST JUMPDEST PUSH2 0x1B54 DUP8 DUP3 DUP9 ADD PUSH2 0x1A70 JUMP JUMPDEST SWAP5 POP POP PUSH1 0x20 PUSH2 0x1B65 DUP8 DUP3 DUP9 ADD PUSH2 0x1AC6 JUMP JUMPDEST SWAP4 POP POP PUSH1 0x40 PUSH2 0x1B76 DUP8 DUP3 DUP9 ADD PUSH2 0x1AFF JUMP JUMPDEST SWAP3 POP POP PUSH1 0x60 PUSH2 0x1B87 DUP8 DUP3 DUP9 ADD PUSH2 0x17CF JUMP JUMPDEST SWAP2 POP POP SWAP3 SWAP6 SWAP2 SWAP5 POP SWAP3 POP JUMP JUMPDEST PUSH2 0x1B9C DUP2 PUSH2 0x17B0 JUMP JUMPDEST DUP3 MSTORE POP POP JUMP JUMPDEST PUSH0 PUSH1 0x20 DUP3 ADD SWAP1 POP PUSH2 0x1BB5 PUSH0 DUP4 ADD DUP5 PUSH2 0x1B93 JUMP JUMPDEST SWAP3 SWAP2 POP POP JUMP JUMPDEST PUSH0 DUP2 MLOAD SWAP1 POP SWAP2 SWAP1 POP JUMP JUMPDEST PUSH0 DUP3 DUP3 MSTORE PUSH1 0x20 DUP3 ADD SWAP1 POP SWAP3 SWAP2 POP POP JUMP JUMPDEST DUP3 DUP2 DUP4 MCOPY PUSH0 DUP4 DUP4 ADD MSTORE POP POP POP JUMP JUMPDEST PUSH0 PUSH2 0x1BED DUP3 PUSH2 0x1BBB JUMP JUMPDEST PUSH2 0x1BF7 DUP2 DUP6 PUSH2 0x1BC5 JUMP JUMPDEST SWAP4 POP PUSH2 0x1C07 DUP2 DUP6 PUSH1 0x20 DUP7 ADD PUSH2 0x1BD5 JUMP JUMPDEST PUSH2 0x1C10 DUP2 PUSH2 0x17EB JUMP JUMPDEST DUP5 ADD SWAP2 POP POP SWAP3 SWAP2 POP POP JUMP JUMPDEST PUSH0 PUSH1 0x20 DUP3 ADD SWAP1 POP DUP2 DUP2 SUB PUSH0 DUP4 ADD MSTORE PUSH2 0x1C33 DUP2 DUP5 PUSH2 0x1BE3 JUMP JUMPDEST SWAP1 POP SWAP3 SWAP2 POP POP JUMP JUMPDEST PUSH2 0x1C44 DUP2 PUSH2 0x19C6 JUMP JUMPDEST DUP2 EQ PUSH2 0x1C4E JUMPI PUSH0 PUSH0 REVERT JUMPDEST POP JUMP JUMPDEST PUSH0 DUP2 CALLDATALOAD SWAP1 POP PUSH2 0x1C5F DUP2 PUSH2 0x1C3B JUMP JUMPDEST SWAP3 SWAP2 POP POP JUMP JUMPDEST PUSH0 PUSH1 0x20 DUP3 DUP5 SUB SLT ISZERO PUSH2 0x1C7A JUMPI PUSH2 0x1C79 PUSH2 0x17A8 JUMP JUMPDEST JUMPDEST PUSH0 PUSH2 0x1C87 DUP5 DUP3 DUP6 ADD PUSH2 0x1C51 JUMP JUMPDEST SWAP2 POP POP SWAP3 SWAP2 POP POP JUMP JUMPDEST PUSH0 DUP2 SWAP1 POP SWAP2 SWAP1 POP JUMP JUMPDEST PUSH2 0x1CA2 DUP2 PUSH2 0x1C90 JUMP JUMPDEST DUP2 EQ PUSH2 0x1CAC JUMPI PUSH0 PUSH0 REVERT JUMPDEST POP JUMP JUMPDEST PUSH0 DUP2 CALLDATALOAD SWAP1 POP PUSH2 0x1CBD DUP2 PUSH2 0x1C99 JUMP JUMPDEST SWAP3 SWAP2 POP POP JUMP JUMPDEST PUSH0 PUSH1 0x20 DUP3 DUP5 SUB SLT ISZERO PUSH2 0x1CD8 JUMPI PUSH2 0x1CD7 PUSH2 0x17A8 JUMP JUMPDEST JUMPDEST PUSH0 PUSH2 0x1CE5 DUP5 DUP3 DUP6 ADD PUSH2 0x1CAF JUMP JUMPDEST SWAP2 POP POP SWAP3 SWAP2 POP POP JUMP JUMPDEST PUSH0 PUSH10 0xFFFFFFFFFFFFFFFFFFFF DUP3 AND SWAP1 POP SWAP2 SWAP1 POP JUMP JUMPDEST PUSH2 0x1D0C DUP2 PUSH2 0x1CEE JUMP JUMPDEST DUP3 MSTORE POP POP JUMP JUMPDEST PUSH1 0x60 DUP3 ADD PUSH0 DUP3 ADD MLOAD PUSH2 0x1D26 PUSH0 DUP6 ADD DUP3 PUSH2 0x1D03 JUMP JUMPDEST POP PUSH1 0x20 DUP3 ADD MLOAD PUSH2 0x1D39 PUSH1 0x20 DUP6 ADD DUP3 PUSH2 0x1D03 JUMP JUMPDEST POP PUSH1 0x40 DUP3 ADD MLOAD PUSH2 0x1D4C PUSH1 0x40 DUP6 ADD DUP3 PUSH2 0x1D03 JUMP JUMPDEST POP POP POP POP JUMP JUMPDEST PUSH0 PUSH1 0x60 DUP3 ADD SWAP1 POP PUSH2 0x1D65 PUSH0 DUP4 ADD DUP5 PUSH2 0x1D12 JUMP JUMPDEST SWAP3 SWAP2 POP POP JUMP JUMPDEST PUSH32 0x4D7573742062652070726F706F736564206F776E657200000000000000000000 PUSH0 DUP3 ADD MSTORE POP JUMP JUMPDEST PUSH0 PUSH2 0x1D9F PUSH1 0x16 DUP4 PUSH2 0x1BC5 JUMP JUMPDEST SWAP2 POP PUSH2 0x1DAA DUP3 PUSH2 0x1D6B JUMP JUMPDEST PUSH1 0x20 DUP3 ADD SWAP1 POP SWAP2 SWAP1 POP JUMP JUMPDEST PUSH0 PUSH1 0x20 DUP3 ADD SWAP1 POP DUP2 DUP2 SUB PUSH0 DUP4 ADD MSTORE PUSH2 0x1DCC DUP2 PUSH2 0x1D93 JUMP JUMPDEST SWAP1 POP SWAP2 SWAP1 POP JUMP JUMPDEST PUSH0 PUSH2 0x1DE5 PUSH2 0x1DE0 DUP5 PUSH2 0x19FF JUMP JUMPDEST PUSH2 0x1859 JUMP JUMPDEST SWAP1 POP DUP3 DUP2 MSTORE PUSH1 0x20 DUP2 ADD DUP5 DUP5 DUP5 ADD GT ISZERO PUSH2 0x1E01 JUMPI PUSH2 0x1E00 PUSH2 0x17E7 JUMP JUMPDEST JUMPDEST PUSH2 0x1E0C DUP5 DUP3 DUP6 PUSH2 0x1BD5 JUMP JUMPDEST POP SWAP4 SWAP3 POP POP POP JUMP JUMPDEST PUSH0 DUP3 PUSH1 0x1F DUP4 ADD SLT PUSH2 0x1E28 JUMPI PUSH2 0x1E27 PUSH2 0x17E3 JUMP JUMPDEST JUMPDEST DUP2 MLOAD PUSH2 0x1E38 DUP5 DUP3 PUSH1 0x20 DUP7 ADD PUSH2 0x1DD3 JUMP JUMPDEST SWAP2 POP POP SWAP3 SWAP2 POP POP JUMP JUMPDEST PUSH0 PUSH1 0x20 DUP3 DUP5 SUB SLT ISZERO PUSH2 0x1E56 JUMPI PUSH2 0x1E55 PUSH2 0x17A8 JUMP JUMPDEST JUMPDEST PUSH0 DUP3 ADD MLOAD PUSH8 0xFFFFFFFFFFFFFFFF DUP2 GT ISZERO PUSH2 0x1E73 JUMPI PUSH2 0x1E72 PUSH2 0x17AC JUMP JUMPDEST JUMPDEST PUSH2 0x1E7F DUP5 DUP3 DUP6 ADD PUSH2 0x1E14 JUMP JUMPDEST SWAP2 POP POP SWAP3 SWAP2 POP POP JUMP JUMPDEST PUSH32 0x4E487B7100000000000000000000000000000000000000000000000000000000 PUSH0 MSTORE PUSH1 0x32 PUSH1 0x4 MSTORE PUSH1 0x24 PUSH0 REVERT JUMPDEST PUSH32 0x4E487B7100000000000000000000000000000000000000000000000000000000 PUSH0 MSTORE PUSH1 0x22 PUSH1 0x4 MSTORE PUSH1 0x24 PUSH0 REVERT JUMPDEST PUSH0 PUSH1 0x2 DUP3 DIV SWAP1 POP PUSH1 0x1 DUP3 AND DUP1 PUSH2 0x1EF9 JUMPI PUSH1 0x7F DUP3 AND SWAP2 POP JUMPDEST PUSH1 0x20 DUP3 LT DUP2 SUB PUSH2 0x1F0C JUMPI PUSH2 0x1F0B PUSH2 0x1EB5 JUMP JUMPDEST JUMPDEST POP SWAP2 SWAP1 POP JUMP JUMPDEST PUSH0 DUP2 MLOAD SWAP1 POP PUSH2 0x1F20 DUP2 PUSH2 0x1C99 JUMP JUMPDEST SWAP3 SWAP2 POP POP JUMP JUMPDEST PUSH0 PUSH0 PUSH0 PUSH0 PUSH1 0x80 DUP6 DUP8 SUB SLT ISZERO PUSH2 0x1F3E JUMPI PUSH2 0x1F3D PUSH2 0x17A8 JUMP JUMPDEST JUMPDEST PUSH0 PUSH2 0x1F4B DUP8 DUP3 DUP9 ADD PUSH2 0x1F12 JUMP JUMPDEST SWAP5 POP POP PUSH1 0x20 PUSH2 0x1F5C DUP8 DUP3 DUP9 ADD PUSH2 0x1F12 JUMP JUMPDEST SWAP4 POP POP PUSH1 0x40 PUSH2 0x1F6D DUP8 DUP3 DUP9 ADD PUSH2 0x1F12 JUMP JUMPDEST SWAP3 POP POP PUSH1 0x60 PUSH2 0x1F7E DUP8 DUP3 DUP9 ADD PUSH2 0x1F12 JUMP JUMPDEST SWAP2 POP POP SWAP3 SWAP6 SWAP2 SWAP5 POP SWAP3 POP JUMP JUMPDEST PUSH32 0x4E487B7100000000000000000000000000000000000000000000000000000000 PUSH0 MSTORE PUSH1 0x21 PUSH1 0x4 MSTORE PUSH1 0x24 PUSH0 REVERT JUMPDEST PUSH2 0x1FC0 DUP2 PUSH2 0x1A9D JUMP JUMPDEST DUP3 MSTORE POP POP JUMP JUMPDEST PUSH0 DUP2 MLOAD SWAP1 POP SWAP2 SWAP1 POP JUMP JUMPDEST PUSH0 DUP3 DUP3 MSTORE PUSH1 0x20 DUP3 ADD SWAP1 POP SWAP3 SWAP2 POP POP JUMP JUMPDEST PUSH0 PUSH2 0x1FEA DUP3 PUSH2 0x1FC6 JUMP JUMPDEST PUSH2 0x1FF4 DUP2 DUP6 PUSH2 0x1FD0 JUMP JUMPDEST SWAP4 POP PUSH2 0x2004 DUP2 DUP6 PUSH1 0x20 DUP7 ADD PUSH2 0x1BD5 JUMP JUMPDEST PUSH2 0x200D DUP2 PUSH2 0x17EB JUMP JUMPDEST DUP5 ADD SWAP2 POP POP SWAP3 SWAP2 POP POP JUMP JUMPDEST PUSH0 PUSH2 0xFFFF DUP3 AND SWAP1 POP SWAP2 SWAP1 POP JUMP JUMPDEST PUSH2 0x202E DUP2 PUSH2 0x2018 JUMP JUMPDEST DUP3 MSTORE POP POP JUMP JUMPDEST PUSH2 0x203D DUP2 PUSH2 0x1ADA JUMP JUMPDEST DUP3 MSTORE POP POP JUMP JUMPDEST PUSH0 PUSH1 0xA0 DUP3 ADD SWAP1 POP PUSH2 0x2056 PUSH0 DUP4 ADD DUP9 PUSH2 0x1FB7 JUMP JUMPDEST DUP2 DUP2 SUB PUSH1 0x20 DUP4 ADD MSTORE PUSH2 0x2068 DUP2 DUP8 PUSH2 0x1FE0 JUMP JUMPDEST SWAP1 POP PUSH2 0x2077 PUSH1 0x40 DUP4 ADD DUP7 PUSH2 0x2025 JUMP JUMPDEST PUSH2 0x2084 PUSH1 0x60 DUP4 ADD DUP6 PUSH2 0x2034 JUMP JUMPDEST PUSH2 0x2091 PUSH1 0x80 DUP4 ADD DUP5 PUSH2 0x1B93 JUMP JUMPDEST SWAP7 SWAP6 POP POP POP POP POP POP JUMP JUMPDEST PUSH0 DUP2 MLOAD SWAP1 POP PUSH2 0x20A9 DUP2 PUSH2 0x17B9 JUMP JUMPDEST SWAP3 SWAP2 POP POP JUMP JUMPDEST PUSH0 PUSH1 0x20 DUP3 DUP5 SUB SLT ISZERO PUSH2 0x20C4 JUMPI PUSH2 0x20C3 PUSH2 0x17A8 JUMP JUMPDEST JUMPDEST PUSH0 PUSH2 0x20D1 DUP5 DUP3 DUP6 ADD PUSH2 0x209B JUMP JUMPDEST SWAP2 POP POP SWAP3 SWAP2 POP POP JUMP JUMPDEST PUSH32 0x4F6E6C792063616C6C61626C65206279206F776E657200000000000000000000 PUSH0 DUP3 ADD MSTORE POP JUMP JUMPDEST PUSH0 PUSH2 0x210E PUSH1 0x16 DUP4 PUSH2 0x1BC5 JUMP JUMPDEST SWAP2 POP PUSH2 0x2119 DUP3 PUSH2 0x20DA JUMP JUMPDEST PUSH1 0x20 DUP3 ADD SWAP1 POP SWAP2 SWAP1 POP JUMP JUMPDEST PUSH0 PUSH1 0x20 DUP3 ADD SWAP1 POP DUP2 DUP2 SUB PUSH0 DUP4 ADD MSTORE PUSH2 0x213B DUP2 PUSH2 0x2102 JUMP JUMPDEST SWAP1 POP SWAP2 SWAP1 POP JUMP JUMPDEST PUSH32 0x43616E6E6F74207472616E7366657220746F2073656C66000000000000000000 PUSH0 DUP3 ADD MSTORE POP JUMP JUMPDEST PUSH0 PUSH2 0x2176 PUSH1 0x17 DUP4 PUSH2 0x1BC5 JUMP JUMPDEST SWAP2 POP PUSH2 0x2181 DUP3 PUSH2 0x2142 JUMP JUMPDEST PUSH1 0x20 DUP3 ADD SWAP1 POP SWAP2 SWAP1 POP JUMP JUMPDEST PUSH0 PUSH1 0x20 DUP3 ADD SWAP1 POP DUP2 DUP2 SUB PUSH0 DUP4 ADD MSTORE PUSH2 0x21A3 DUP2 PUSH2 0x216A JUMP JUMPDEST SWAP1 POP SWAP2 SWAP1 POP JUMP JUMPDEST PUSH2 0x21B3 DUP2 PUSH2 0x1C90 JUMP JUMPDEST DUP3 MSTORE POP POP JUMP JUMPDEST PUSH0 PUSH1 0x20 DUP3 ADD SWAP1 POP PUSH2 0x21CC PUSH0 DUP4 ADD DUP5 PUSH2 0x21AA JUMP JUMPDEST SWAP3 SWAP2 POP POP JUMP JUMPDEST PUSH32 0x4E487B7100000000000000000000000000000000000000000000000000000000 PUSH0 MSTORE PUSH1 0x11 PUSH1 0x4 MSTORE PUSH1 0x24 PUSH0 REVERT JUMPDEST PUSH0 PUSH2 0x2209 DUP3 PUSH2 0x1C90 JUMP JUMPDEST SWAP2 POP PUSH2 0x2214 DUP4 PUSH2 0x1C90 JUMP JUMPDEST SWAP3 POP DUP3 DUP3 ADD SWAP1 POP DUP1 DUP3 GT ISZERO PUSH2 0x222C JUMPI PUSH2 0x222B PUSH2 0x21D2 JUMP JUMPDEST JUMPDEST SWAP3 SWAP2 POP POP JUMP JUMPDEST PUSH0 PUSH2 0x223C DUP3 PUSH2 0x1C90 JUMP JUMPDEST SWAP2 POP PUSH2 0x2247 DUP4 PUSH2 0x1C90 JUMP JUMPDEST SWAP3 POP DUP3 DUP3 SUB SWAP1 POP DUP2 DUP2 GT ISZERO PUSH2 0x225F JUMPI PUSH2 0x225E PUSH2 0x21D2 JUMP JUMPDEST JUMPDEST SWAP3 SWAP2 POP POP JUMP JUMPDEST PUSH32 0x4E487B7100000000000000000000000000000000000000000000000000000000 PUSH0 MSTORE PUSH1 0x12 PUSH1 0x4 MSTORE PUSH1 0x24 PUSH0 REVERT JUMPDEST PUSH0 PUSH2 0x229C DUP3 PUSH2 0x1C90 JUMP JUMPDEST SWAP2 POP PUSH2 0x22A7 DUP4 PUSH2 0x1C90 JUMP JUMPDEST SWAP3 POP DUP3 PUSH2 0x22B7 JUMPI PUSH2 0x22B6 PUSH2 0x2265 JUMP JUMPDEST JUMPDEST DUP3 DUP3 MOD SWAP1 POP SWAP3 SWAP2 POP POP JUMP JUMPDEST PUSH0 PUSH2 0x22CC DUP3 PUSH2 0x1C90 JUMP JUMPDEST SWAP2 POP PUSH2 0x22D7 DUP4 PUSH2 0x1C90 JUMP JUMPDEST SWAP3 POP DUP3 DUP3 MUL PUSH2 0x22E5 DUP2 PUSH2 0x1C90 JUMP JUMPDEST SWAP2 POP DUP3 DUP3 DIV DUP5 EQ DUP4 ISZERO OR PUSH2 0x22FC JUMPI PUSH2 0x22FB PUSH2 0x21D2 JUMP JUMPDEST JUMPDEST POP SWAP3 SWAP2 POP POP JUMP JUMPDEST PUSH0 DUP2 PUSH1 0x1 SHR SWAP1 POP SWAP2 SWAP1 POP JUMP JUMPDEST PUSH0 PUSH0 DUP3 SWAP2 POP DUP4 SWAP1 POP JUMPDEST PUSH1 0x1 DUP6 GT ISZERO PUSH2 0x2358 JUMPI DUP1 DUP7 DIV DUP2 GT ISZERO PUSH2 0x2334 JUMPI PUSH2 0x2333 PUSH2 0x21D2 JUMP JUMPDEST JUMPDEST PUSH1 0x1 DUP6 AND ISZERO PUSH2 0x2343 JUMPI DUP1 DUP3 MUL SWAP2 POP JUMPDEST DUP1 DUP2 MUL SWAP1 POP PUSH2 0x2351 DUP6 PUSH2 0x2303 JUMP JUMPDEST SWAP5 POP PUSH2 0x2318 JUMP JUMPDEST SWAP5 POP SWAP5 SWAP3 POP POP POP JUMP JUMPDEST PUSH0 DUP3 PUSH2 0x2370 JUMPI PUSH1 0x1 SWAP1 POP PUSH2 0x242B JUMP JUMPDEST DUP2 PUSH2 0x237D JUMPI PUSH0 SWAP1 POP PUSH2 0x242B JUMP JUMPDEST DUP2 PUSH1 0x1 DUP2 EQ PUSH2 0x2393 JUMPI PUSH1 0x2 DUP2 EQ PUSH2 0x239D JUMPI PUSH2 0x23CC JUMP JUMPDEST PUSH1 0x1 SWAP2 POP POP PUSH2 0x242B JUMP JUMPDEST PUSH1 0xFF DUP5 GT ISZERO PUSH2 0x23AF JUMPI PUSH2 0x23AE PUSH2 0x21D2 JUMP JUMPDEST JUMPDEST DUP4 PUSH1 0x2 EXP SWAP2 POP DUP5 DUP3 GT ISZERO PUSH2 0x23C6 JUMPI PUSH2 0x23C5 PUSH2 0x21D2 JUMP JUMPDEST JUMPDEST POP PUSH2 0x242B JUMP JUMPDEST POP PUSH1 0x20 DUP4 LT PUSH2 0x133 DUP4 LT AND PUSH1 0x4E DUP5 LT PUSH1 0xB DUP5 LT AND OR ISZERO PUSH2 0x2401 JUMPI DUP3 DUP3 EXP SWAP1 POP DUP4 DUP2 GT ISZERO PUSH2 0x23FC JUMPI PUSH2 0x23FB PUSH2 0x21D2 JUMP JUMPDEST JUMPDEST PUSH2 0x242B JUMP JUMPDEST PUSH2 0x240E DUP5 DUP5 DUP5 PUSH1 0x1 PUSH2 0x230F JUMP JUMPDEST SWAP3 POP SWAP1 POP DUP2 DUP5 DIV DUP2 GT ISZERO PUSH2 0x2425 JUMPI PUSH2 0x2424 PUSH2 0x21D2 JUMP JUMPDEST JUMPDEST DUP2 DUP2 MUL SWAP1 POP JUMPDEST SWAP4 SWAP3 POP POP POP JUMP JUMPDEST PUSH0 PUSH2 0x243C DUP3 PUSH2 0x1C90 JUMP JUMPDEST SWAP2 POP PUSH2 0x2447 DUP4 PUSH2 0x1C90 JUMP JUMPDEST SWAP3 POP PUSH2 0x2474 PUSH32 0xFFFFFFFFFFFFFFFFFFFFFFFFFFFFFFFFFFFFFFFFFFFFFFFFFFFFFFFFFFFFFFFF DUP5 DUP5 PUSH2 0x2361 JUMP JUMPDEST SWAP1 POP SWAP3 SWAP2 POP POP JUMP INVALID LOG2 PUSH5 0x6970667358 0x22 SLT KECCAK256 SWAP14 JUMP SWAP13 ADDMOD SWAP4 0x2C 0xD9 PUSH5 0x82C3E23FED 0x23 SWAP14 ADDMOD LOG2 PUSH22 0x2BAACCEACFB89B87A7F1DCC5A3A164736F6C63430008 SHR STOP CALLER PUSH4 0x6F6E7374 KECCAK256 PUSH28 0x20657468657273207D203D20617761697420696D706F727428276E70 PUSH14 0x3A65746865727340362E31302E30 0x27 0x29 EXTCODESIZE PUSH4 0x6F6E7374 KECCAK256 BASEFEE PUSH2 0x7368 KECCAK256 RETURNDATASIZE KECCAK256 PUSH2 0x7761 PUSH10 0x7420696D706F72742827 PUSH15 0x706D3A697066732D6F6E6C792D6861 PUSH20 0x6840342E302E3027293B636F6E73742061706952 PUSH6 0x73706F6E7365 KECCAK256 RETURNDATASIZE KECCAK256 PUSH2 0x7761 PUSH10 0x742046756E6374696F6E PUSH20 0x2E6D616B654874747052657175657374287B2020 KECCAK256 KECCAK256 PUSH22 0x726C3A206068747470733A2F2F6170692E6272696467 PUSH6 0x646174616F75 PUSH21 0x7075742E636F6D2F6170692F76322F4F446174612F PUSH21 0x6573742F50726F70657274792827505F3564626131 PUSH7 0x62393461613430 CALLDATALOAD CALLDATALOAD PUSH3 0x396632 CODECOPY CALLDATASIZE CODECOPY CALLDATASIZE PUSH7 0x27293F61636365 PUSH20 0x735F746F6B656E3D366261636135343737343263 CALLDATASIZE PUSH7 0x39366136666637 BALANCE PUSH3 0x313338 CALLVALUE ORIGIN CALLVALUE PUSH7 0x3231602C7D293B PUSH4 0x6F6E7374 KECCAK256 PUSH19 0x65616C45737461746541646472657373203D20 PUSH2 0x7069 MSTORE PUSH6 0x73706F6E7365 0x2E PUSH5 0x6174612E55 PUSH15 0x706172736564416464726573733B63 PUSH16 0x6E737420796561724275696C74203D20 0x4E PUSH22 0x6D62657228617069526573706F6E73652E646174612E MSIZE PUSH6 0x61724275696C PUSH21 0x293B636F6E7374206C6F7453697A65537175617265 CHAINID PUSH6 0x6574203D204E PUSH22 0x6D62657228617069526573706F6E73652E646174612E 0x4C PUSH16 0x7453697A655371756172654665657429 EXTCODESIZE PUSH4 0x6F6E7374 KECCAK256 PUSH13 0x6976696E6741726561203D204E PUSH22 0x6D62657228617069526573706F6E73652E646174612E 0x4C PUSH10 0x76696E6741726561293B PUSH4 0x6F6E7374 KECCAK256 PUSH3 0x656472 PUSH16 0x6F6D73546F74616C203D204E756D6265 PUSH19 0x28617069526573706F6E73652E646174612E42 PUSH6 0x64726F6F6D73 SLOAD PUSH16 0x74616C293B636F6E7374206D65746164 PUSH2 0x7461 KECCAK256 RETURNDATASIZE KECCAK256 PUSH28 0x6E616D653A20605265616C2045737461746520546F6B656E602C6174 PUSH21 0x726962757465733A205B7B2074726169745F747970 PUSH6 0x3A2060726561 PUSH13 0x45737461746541646472657373 PUSH1 0x2C KECCAK256 PUSH23 0x616C75653A207265616C45737461746541646472657373 KECCAK256 PUSH30 0x2C7B2074726169745F747970653A2060796561724275696C74602C207661 PUSH13 0x75653A20796561724275696C74 KECCAK256 PUSH30 0x2C7B2074726169745F747970653A20606C6F7453697A6553717561726546 PUSH6 0x6574602C2076 PUSH2 0x6C75 PUSH6 0x3A206C6F7453 PUSH10 0x7A655371756172654665 PUSH6 0x74207D2C7B20 PUSH21 0x726169745F747970653A20606C6976696E67417265 PUSH2 0x602C KECCAK256 PUSH23 0x616C75653A206C6976696E6741726561207D2C7B207472 PUSH2 0x6974 PUSH0 PUSH21 0x7970653A2060626564726F6F6D73546F74616C602C KECCAK256 PUSH23 0x616C75653A20626564726F6F6D73546F74616C207D5D7D EXTCODESIZE PUSH4 0x6F6E7374 KECCAK256 PUSH14 0x65746164617461537472696E6720 RETURNDATASIZE KECCAK256 BLOBBASEFEE MSTORE8 0x4F 0x4E 0x2E PUSH20 0x7472696E67696679286D65746164617461293B63 PUSH16 0x6E73742069706673436964203D206177 PUSH2 0x6974 KECCAK256 BASEFEE PUSH2 0x7368 0x2E PUSH16 0x66286D65746164617461537472696E67 0x29 EXTCODESIZE PUSH19 0x657475726E2046756E6374696F6E732E656E63 PUSH16 0x6465537472696E672860697066733A2F 0x2F 0x24 PUSH28 0x697066734369647D60293B636F6E7374207B20657468657273207D20 RETURNDATASIZE KECCAK256 PUSH2 0x7761 PUSH10 0x7420696D706F72742827 PUSH15 0x706D3A65746865727340362E31302E ADDRESS 0x27 0x29 EXTCODESIZE PUSH4 0x6F6E7374 KECCAK256 PUSH2 0x6269 NUMBER PUSH16 0x646572203D206574686572732E416269 NUMBER PUSH16 0x6465722E64656661756C74416269436F PUSH5 0x657228293B PUSH4 0x6F6E7374 KECCAK256 PUSH21 0x6F6B656E4964203D20617267735B305D3B636F6E73 PUSH21 0x20617069526573706F6E7365203D20617761697420 CHAINID PUSH22 0x6E6374696F6E732E6D616B6548747470526571756573 PUSH21 0x287B2020202075726C3A206068747470733A2F2F61 PUSH17 0x692E627269646765646174616F75747075 PUSH21 0x2E636F6D2F6170692F76322F4F446174612F746573 PUSH21 0x2F50726F70657274792827505F3564626131666239 CALLVALUE PUSH2 0x6134 ADDRESS CALLDATALOAD CALLDATALOAD PUSH3 0x396632 CODECOPY CALLDATASIZE CODECOPY CALLDATASIZE PUSH7 0x27293F61636365 PUSH20 0x735F746F6B656E3D366261636135343737343263 CALLDATASIZE PUSH7 0x39366136666637 BALANCE PUSH3 0x313338 CALLVALUE ORIGIN CALLVALUE PUSH7 0x3231602C7D293B PUSH4 0x6F6E7374 KECCAK256 PUSH13 0x6973745072696365203D204E75 PUSH14 0x62657228617069526573706F6E73 PUSH6 0x2E646174612E 0x4C PUSH10 0x73745072696365293B63 PUSH16 0x6E7374206F726967696E616C4C697374 POP PUSH19 0x696365203D204E756D62657228617069526573 PUSH17 0x6F6E73652E646174612E4F726967696E61 PUSH13 0x4C6973745072696365293B636F PUSH15 0x737420746178417373657373656456 PUSH2 0x6C75 PUSH6 0x203D204E756D PUSH3 0x657228 PUSH2 0x7069 MSTORE PUSH6 0x73706F6E7365 0x2E PUSH5 0x6174612E54 PUSH2 0x7841 PUSH20 0x73657373656456616C7565293B636F6E73742065 PUSH15 0x636F646564203D20616269436F6465 PUSH19 0x2E656E636F6465285B6075696E74323536602C KECCAK256 PUSH1 0x75 PUSH10 0x6E74323536602C206075 PUSH10 0x6E74323536602C206075 PUSH10 0x6E74323536605D2C205B PUSH21 0x6F6B656E49642C206C69737450726963652C206F72 PUSH10 0x67696E616C4C69737450 PUSH19 0x6963652C20746178417373657373656456616C PUSH22 0x655D293B72657475726E206574686572732E67657442 PUSH26 0x74657328656E636F646564293B00000000000000000000000000 "
		},
		"gasEstimates": {
			"creation": {
				"codeDepositCost": "1878800",
				"executionCost": "infinite",
				"totalCost": "infinite"
			},
			"external": {
				"acceptOwnership()": "54556",
				"getNftMetadata()": "infinite",
				"getPriceDetails(uint256)": "infinite",
				"getPrices()": "infinite",
				"handleOracleFulfillment(bytes32,bytes,bytes)": "infinite",
				"owner()": "2560",
				"setAutomationForwarder(address)": "26930",
				"transferOwnership(address)": "30739",
				"updatePriceDetails(string,uint64,uint32,bytes32)": "infinite"
			},
			"internal": {
				"fulfillRequest(bytes32,bytes memory,bytes memory)": "infinite"
			}
		},
		"methodIdentifiers": {
			"acceptOwnership()": "79ba5097",
			"getNftMetadata()": "e6b46ff5",
			"getPriceDetails(uint256)": "f0ed2e80",
			"getPrices()": "bd9a548b",
			"handleOracleFulfillment(bytes32,bytes,bytes)": "0ca76175",
			"owner()": "8da5cb5b",
			"setAutomationForwarder(address)": "d40d17bc",
			"transferOwnership(address)": "f2fde38b",
			"updatePriceDetails(string,uint64,uint32,bytes32)": "a843a0ab"
		}
	},
	"abi": [
		{
			"inputs": [
				{
					"internalType": "address",
					"name": "functionsRouterAddress",
					"type": "address"
				}
			],
			"stateMutability": "nonpayable",
			"type": "constructor"
		},
		{
			"inputs": [],
			"name": "EmptyArgs",
			"type": "error"
		},
		{
			"inputs": [],
			"name": "EmptySource",
			"type": "error"
		},
		{
			"inputs": [],
			"name": "NoInlineSecrets",
			"type": "error"
		},
		{
			"inputs": [],
			"name": "OnlyAutomationForwarderOrOwnerCanCall",
			"type": "error"
		},
		{
			"inputs": [],
			"name": "OnlyRouterCanFulfill",
			"type": "error"
		},
		{
			"anonymous": false,
			"inputs": [
				{
					"indexed": true,
					"internalType": "address",
					"name": "from",
					"type": "address"
				},
				{
					"indexed": true,
					"internalType": "address",
					"name": "to",
					"type": "address"
				}
			],
			"name": "OwnershipTransferRequested",
			"type": "event"
		},
		{
			"anonymous": false,
			"inputs": [
				{
					"indexed": true,
					"internalType": "address",
					"name": "from",
					"type": "address"
				},
				{
					"indexed": true,
					"internalType": "address",
					"name": "to",
					"type": "address"
				}
			],
			"name": "OwnershipTransferred",
			"type": "event"
		},
		{
			"anonymous": false,
			"inputs": [
				{
					"indexed": true,
					"internalType": "bytes32",
					"name": "id",
					"type": "bytes32"
				}
			],
			"name": "RequestFulfilled",
			"type": "event"
		},
		{
			"anonymous": false,
			"inputs": [
				{
					"indexed": true,
					"internalType": "bytes32",
					"name": "id",
					"type": "bytes32"
				}
			],
			"name": "RequestSent",
			"type": "event"
		},
		{
			"inputs": [],
			"name": "acceptOwnership",
			"outputs": [],
			"stateMutability": "nonpayable",
			"type": "function"
		},
		{
			"inputs": [],
			"name": "getNftMetadata",
			"outputs": [
				{
					"internalType": "string",
					"name": "",
					"type": "string"
				}
			],
			"stateMutability": "view",
			"type": "function"
		},
		{
			"inputs": [
				{
					"internalType": "uint256",
					"name": "tokenId",
					"type": "uint256"
				}
			],
			"name": "getPriceDetails",
			"outputs": [
				{
					"components": [
						{
							"internalType": "uint80",
							"name": "listPrice",
							"type": "uint80"
						},
						{
							"internalType": "uint80",
							"name": "originalListPrice",
							"type": "uint80"
						},
						{
							"internalType": "uint80",
							"name": "taxAssessedValue",
							"type": "uint80"
						}
					],
					"internalType": "struct RealEstatePriceDetails.PriceDetails",
					"name": "",
					"type": "tuple"
				}
			],
			"stateMutability": "view",
			"type": "function"
		},
		{
			"inputs": [],
			"name": "getPrices",
			"outputs": [
				{
					"internalType": "string",
					"name": "",
					"type": "string"
				}
			],
			"stateMutability": "view",
			"type": "function"
		},
		{
			"inputs": [
				{
					"internalType": "bytes32",
					"name": "requestId",
					"type": "bytes32"
				},
				{
					"internalType": "bytes",
					"name": "response",
					"type": "bytes"
				},
				{
					"internalType": "bytes",
					"name": "err",
					"type": "bytes"
				}
			],
			"name": "handleOracleFulfillment",
			"outputs": [],
			"stateMutability": "nonpayable",
			"type": "function"
		},
		{
			"inputs": [],
			"name": "owner",
			"outputs": [
				{
					"internalType": "address",
					"name": "",
					"type": "address"
				}
			],
			"stateMutability": "view",
			"type": "function"
		},
		{
			"inputs": [
				{
					"internalType": "address",
					"name": "automationForwarderAddress",
					"type": "address"
				}
			],
			"name": "setAutomationForwarder",
			"outputs": [],
			"stateMutability": "nonpayable",
			"type": "function"
		},
		{
			"inputs": [
				{
					"internalType": "address",
					"name": "to",
					"type": "address"
				}
			],
			"name": "transferOwnership",
			"outputs": [],
			"stateMutability": "nonpayable",
			"type": "function"
		},
		{
			"inputs": [
				{
					"internalType": "string",
					"name": "tokenId",
					"type": "string"
				},
				{
					"internalType": "uint64",
					"name": "subscriptionId",
					"type": "uint64"
				},
				{
					"internalType": "uint32",
					"name": "gasLimit",
					"type": "uint32"
				},
				{
					"internalType": "bytes32",
					"name": "donID",
					"type": "bytes32"
				}
			],
			"name": "updatePriceDetails",
			"outputs": [
				{
					"internalType": "bytes32",
					"name": "requestId",
					"type": "bytes32"
				}
			],
			"stateMutability": "nonpayable",
			"type": "function"
		}
	]
}